{
  "contractName": "IpfsStorage",
  "abi": [
    {
      "inputs": [],
      "stateMutability": "nonpayable",
      "type": "constructor"
    },
    {
      "inputs": [],
      "name": "Assignment",
      "outputs": [
        {
          "internalType": "string",
          "name": "",
          "type": "string"
        }
      ],
      "stateMutability": "view",
      "type": "function",
      "constant": true
    },
    {
      "inputs": [],
      "name": "PartSecret",
      "outputs": [
        {
          "internalType": "string",
          "name": "",
          "type": "string"
        }
      ],
      "stateMutability": "view",
      "type": "function",
      "constant": true
    },
    {
      "inputs": [
        {
          "internalType": "address",
          "name": "",
          "type": "address"
        }
      ],
      "name": "mapHash",
      "outputs": [
        {
          "internalType": "string",
          "name": "CommittedRank",
          "type": "string"
        },
        {
          "internalType": "string",
          "name": "DecryptionC1",
          "type": "string"
        },
        {
          "internalType": "string",
          "name": "Ranks",
          "type": "string"
        }
      ],
      "stateMutability": "view",
      "type": "function",
      "constant": true
    },
    {
      "inputs": [
        {
          "internalType": "string",
          "name": "hashIpfs",
          "type": "string"
        }
      ],
      "name": "setCypher",
      "outputs": [],
      "stateMutability": "nonpayable",
      "type": "function"
    },
    {
      "inputs": [
        {
          "internalType": "string",
          "name": "hashIpfs",
          "type": "string"
        }
      ],
      "name": "setAssignment",
      "outputs": [],
      "stateMutability": "nonpayable",
      "type": "function"
    },
    {
      "inputs": [
        {
          "internalType": "address",
          "name": "addr",
          "type": "address"
        },
        {
          "internalType": "string",
          "name": "hashIpfs",
          "type": "string"
        }
      ],
      "name": "setRank",
      "outputs": [],
      "stateMutability": "nonpayable",
      "type": "function"
    },
    {
      "inputs": [
        {
          "internalType": "address",
          "name": "addr",
          "type": "address"
        },
        {
          "internalType": "string",
          "name": "hashIpfs",
          "type": "string"
        }
      ],
      "name": "setDecC1",
      "outputs": [],
      "stateMutability": "nonpayable",
      "type": "function"
    },
    {
      "inputs": [
        {
          "internalType": "address",
          "name": "addr",
          "type": "address"
        },
        {
          "internalType": "string",
          "name": "hashIpfs",
          "type": "string"
        }
      ],
      "name": "setRevealRanks",
      "outputs": [],
      "stateMutability": "nonpayable",
      "type": "function"
    }
  ],
  "bytecode": "0x60a060405234801561001057600080fd5b503373ffffffffffffffffffffffffffffffffffffffff1660808173ffffffffffffffffffffffffffffffffffffffff16815250506080516111226100676000396000818161067c015261076101526111226000f3fe608060405234801561001057600080fd5b50600436106100885760003560e01c8063b144248e1161005b578063b144248e14610115578063e6a6242514610131578063e82e55791461014d578063ed03ed8c1461016957610088565b806336860b041461008d57806371da5491146100a95780638bb920ab146100c7578063b0e9e3b0146100f9575b600080fd5b6100a760048036038101906100a29190610ace565b610187565b005b6100b16102cd565b6040516100be9190610bbe565b60405180910390f35b6100e160048036038101906100dc9190610be0565b61035b565b6040516100f093929190610c0d565b60405180910390f35b610113600480360381019061010e9190610ace565b61051d565b005b61012f600480360381019061012a9190610c59565b610663565b005b61014b60048036038101906101469190610c59565b610748565b005b61016760048036038101906101629190610ace565b61082d565b005b610171610973565b60405161017e9190610bbe565b60405180910390f35b3373ffffffffffffffffffffffffffffffffffffffff168373ffffffffffffffffffffffffffffffffffffffff1614801561023757507fc5d2460186f7233c927e7db2dcc703c0e500b653ca82273b7bfad8045d85a470600260008573ffffffffffffffffffffffffffffffffffffffff1673ffffffffffffffffffffffffffffffffffffffff16815260200190815260200160002060010160405161022d9190610da9565b6040518091039020145b610276576040517f08c379a000000000000000000000000000000000000000000000000000000000815260040161026d90610e0c565b60405180910390fd5b8181600260008673ffffffffffffffffffffffffffffffffffffffff1673ffffffffffffffffffffffffffffffffffffffff16815260200190815260200160002060010191826102c792919061101c565b50505050565b600080546102da90610cd5565b80601f016020809104026020016040519081016040528092919081815260200182805461030690610cd5565b80156103535780601f1061032857610100808354040283529160200191610353565b820191906000526020600020905b81548152906001019060200180831161033657829003601f168201915b505050505081565b600260205280600052604060002060009150905080600001805461037e90610cd5565b80601f01602080910402602001604051908101604052809291908181526020018280546103aa90610cd5565b80156103f75780601f106103cc576101008083540402835291602001916103f7565b820191906000526020600020905b8154815290600101906020018083116103da57829003601f168201915b50505050509080600101805461040c90610cd5565b80601f016020809104026020016040519081016040528092919081815260200182805461043890610cd5565b80156104855780601f1061045a57610100808354040283529160200191610485565b820191906000526020600020905b81548152906001019060200180831161046857829003601f168201915b50505050509080600201805461049a90610cd5565b80601f01602080910402602001604051908101604052809291908181526020018280546104c690610cd5565b80156105135780601f106104e857610100808354040283529160200191610513565b820191906000526020600020905b8154815290600101906020018083116104f657829003601f168201915b5050505050905083565b3373ffffffffffffffffffffffffffffffffffffffff168373ffffffffffffffffffffffffffffffffffffffff161480156105cd57507fc5d2460186f7233c927e7db2dcc703c0e500b653ca82273b7bfad8045d85a470600260008573ffffffffffffffffffffffffffffffffffffffff1673ffffffffffffffffffffffffffffffffffffffff1681526020019081526020016000206002016040516105c39190610da9565b6040518091039020145b61060c576040517f08c379a000000000000000000000000000000000000000000000000000000000815260040161060390610e0c565b60405180910390fd5b8181600260008673ffffffffffffffffffffffffffffffffffffffff1673ffffffffffffffffffffffffffffffffffffffff168152602001908152602001600020600201918261065d92919061101c565b50505050565b3373ffffffffffffffffffffffffffffffffffffffff167f000000000000000000000000000000000000000000000000000000000000000073ffffffffffffffffffffffffffffffffffffffff161480156106f357507fc5d2460186f7233c927e7db2dcc703c0e500b653ca82273b7bfad8045d85a47060006040516106e99190610da9565b6040518091039020145b610732576040517f08c379a000000000000000000000000000000000000000000000000000000000815260040161072990610e0c565b60405180910390fd5b81816000918261074392919061101c565b505050565b3373ffffffffffffffffffffffffffffffffffffffff167f000000000000000000000000000000000000000000000000000000000000000073ffffffffffffffffffffffffffffffffffffffff161480156107d857507fc5d2460186f7233c927e7db2dcc703c0e500b653ca82273b7bfad8045d85a47060016040516107ce9190610da9565b6040518091039020145b610817576040517f08c379a000000000000000000000000000000000000000000000000000000000815260040161080e90610e0c565b60405180910390fd5b81816001918261082892919061101c565b505050565b3373ffffffffffffffffffffffffffffffffffffffff168373ffffffffffffffffffffffffffffffffffffffff161480156108dd57507fc5d2460186f7233c927e7db2dcc703c0e500b653ca82273b7bfad8045d85a470600260008573ffffffffffffffffffffffffffffffffffffffff1673ffffffffffffffffffffffffffffffffffffffff1681526020019081526020016000206000016040516108d39190610da9565b6040518091039020145b61091c576040517f08c379a000000000000000000000000000000000000000000000000000000000815260040161091390610e0c565b60405180910390fd5b8181600260008673ffffffffffffffffffffffffffffffffffffffff1673ffffffffffffffffffffffffffffffffffffffff168152602001908152602001600020600001918261096d92919061101c565b50505050565b6001805461098090610cd5565b80601f01602080910402602001604051908101604052809291908181526020018280546109ac90610cd5565b80156109f95780601f106109ce576101008083540402835291602001916109f9565b820191906000526020600020905b8154815290600101906020018083116109dc57829003601f168201915b505050505081565b600080fd5b600080fd5b600073ffffffffffffffffffffffffffffffffffffffff82169050919050565b6000610a3682610a0b565b9050919050565b610a4681610a2b565b8114610a5157600080fd5b50565b600081359050610a6381610a3d565b92915050565b600080fd5b600080fd5b600080fd5b60008083601f840112610a8e57610a8d610a69565b5b8235905067ffffffffffffffff811115610aab57610aaa610a6e565b5b602083019150836001820283011115610ac757610ac6610a73565b5b9250929050565b600080600060408486031215610ae757610ae6610a01565b5b6000610af586828701610a54565b935050602084013567ffffffffffffffff811115610b1657610b15610a06565b5b610b2286828701610a78565b92509250509250925092565b600081519050919050565b600082825260208201905092915050565b60005b83811015610b68578082015181840152602081019050610b4d565b60008484015250505050565b6000601f19601f8301169050919050565b6000610b9082610b2e565b610b9a8185610b39565b9350610baa818560208601610b4a565b610bb381610b74565b840191505092915050565b60006020820190508181036000830152610bd88184610b85565b905092915050565b600060208284031215610bf657610bf5610a01565b5b6000610c0484828501610a54565b91505092915050565b60006060820190508181036000830152610c278186610b85565b90508181036020830152610c3b8185610b85565b90508181036040830152610c4f8184610b85565b9050949350505050565b60008060208385031215610c7057610c6f610a01565b5b600083013567ffffffffffffffff811115610c8e57610c8d610a06565b5b610c9a85828601610a78565b92509250509250929050565b7f4e487b7100000000000000000000000000000000000000000000000000000000600052602260045260246000fd5b60006002820490506001821680610ced57607f821691505b602082108103610d0057610cff610ca6565b5b50919050565b600081905092915050565b60008190508160005260206000209050919050565b60008154610d3381610cd5565b610d3d8186610d06565b94506001821660008114610d585760018114610d6d57610da0565b60ff1983168652811515820286019350610da0565b610d7685610d11565b60005b83811015610d9857815481890152600182019150602081019050610d79565b838801955050505b50505092915050565b6000610db58284610d26565b915081905092915050565b7f57726974696e672064656e696564000000000000000000000000000000000000600082015250565b6000610df6600e83610b39565b9150610e0182610dc0565b602082019050919050565b60006020820190508181036000830152610e2581610de9565b9050919050565b600082905092915050565b7f4e487b7100000000000000000000000000000000000000000000000000000000600052604160045260246000fd5b60008190508160005260206000209050919050565b60006020601f8301049050919050565b600082821b905092915050565b600060088302610ec87fffffffffffffffffffffffffffffffffffffffffffffffffffffffffffffffff82610e8b565b610ed28683610e8b565b95508019841693508086168417925050509392505050565b6000819050919050565b6000819050919050565b6000610f19610f14610f0f84610eea565b610ef4565b610eea565b9050919050565b6000819050919050565b610f3383610efe565b610f47610f3f82610f20565b848454610e98565b825550505050565b600090565b610f5c610f4f565b610f67818484610f2a565b505050565b5b81811015610f8b57610f80600082610f54565b600181019050610f6d565b5050565b601f821115610fd057610fa181610e66565b610faa84610e7b565b81016020851015610fb9578190505b610fcd610fc585610e7b565b830182610f6c565b50505b505050565b600082821c905092915050565b6000610ff360001984600802610fd5565b1980831691505092915050565b600061100c8383610fe2565b9150826002028217905092915050565b6110268383610e2c565b67ffffffffffffffff81111561103f5761103e610e37565b5b6110498254610cd5565b611054828285610f8f565b6000601f8311600181146110835760008415611071578287013590505b61107b8582611000565b8655506110e3565b601f19841661109186610e66565b60005b828110156110b957848901358255600182019150602085019450602081019050611094565b868310156110d657848901356110d2601f891682610fe2565b8355505b6001600288020188555050505b5050505050505056fea2646970667358221220a892352e6ed3549597b99390b86efd5972443716fd5695877b77e64679d5e38f64736f6c63430008110033",
  "immutableReferences": {
    "3317": [
      {
        "length": 32,
        "start": 1660
      },
      {
        "length": 32,
        "start": 1889
      }
    ]
  },
  "source": "// SPDX-License-Identifier: MIT\r\npragma solidity 0.8.17;\r\npragma experimental ABIEncoderV2;\r\n\r\ncontract IpfsStorage {\r\n\r\n  address immutable owner;\r\n  string public PartSecret;\r\n  string public Assignment;\r\n\r\n  struct HashIPFS {\r\n    string CommittedRank;\r\n    string DecryptionC1;\r\n    string Ranks;\r\n  }\r\n  mapping(address => HashIPFS) public mapHash;\r\n\r\n  constructor() {\r\n    owner = msg.sender;\r\n  }\r\n\r\n  // These functions stores IPFS hash relative to file that has been added on IPFS\r\n  function setCypher(string calldata hashIpfs) external {\r\n    require(owner == msg.sender && keccak256(bytes(PartSecret)) == keccak256(''), \"Writing denied\");\r\n    PartSecret = hashIpfs;\r\n  }\r\n  function setAssignment(string calldata hashIpfs) external {\r\n    require(owner == msg.sender && keccak256(bytes(Assignment)) == keccak256(''), \"Writing denied\");\r\n    Assignment = hashIpfs;\r\n  }\r\n  function setRank(address addr, string calldata hashIpfs) external {\r\n    require(addr == msg.sender && keccak256(bytes(mapHash[addr].CommittedRank)) == keccak256(''), \"Writing denied\");\r\n    mapHash[addr].CommittedRank = hashIpfs;\r\n  }\r\n  function setDecC1(address addr, string calldata hashIpfs) external {\r\n    require(addr == msg.sender && keccak256(bytes(mapHash[addr].DecryptionC1)) == keccak256(''), \"Writing denied\");\r\n    mapHash[addr].DecryptionC1 = hashIpfs;\r\n  }\r\n  function setRevealRanks(address addr, string calldata hashIpfs) external {\r\n    require(addr == msg.sender && keccak256(bytes(mapHash[addr].Ranks)) == keccak256(''), \"Writing denied\");\r\n    mapHash[addr].Ranks = hashIpfs;\r\n  }\r\n\r\n}",
  "sourcePath": "C:\\Users\\Claudio\\Desktop\\Codice\\Peer Nomination\\contracts\\IpfsStorage.sol",
  "compiler": {
    "name": "solc",
    "version": "0.8.17+commit.8df45f5f.Emscripten.clang"
  },
  "schemaVersion": "3.4.11",
  "updatedAt": "2023-01-06T18:13:48.376Z",
  "networkType": "ethereum",
  "devdoc": {
    "kind": "dev",
    "methods": {},
    "version": 1
  },
  "userdoc": {
    "kind": "user",
    "methods": {},
    "version": 1
  }
}