{
  "contractName": "PeerNomination",
  "abi": [
    {
      "inputs": [],
      "stateMutability": "nonpayable",
      "type": "constructor"
    },
    {
      "inputs": [],
      "name": "NotCommitPhase",
      "type": "error"
    },
    {
      "inputs": [],
      "name": "NotCountingPhase",
      "type": "error"
    },
    {
      "inputs": [],
      "name": "NotRegistrationPhase",
      "type": "error"
    },
    {
      "inputs": [],
      "name": "Unauthorized",
      "type": "error"
    },
    {
      "inputs": [
        {
          "internalType": "uint256",
          "name": "",
          "type": "uint256"
        }
      ],
      "name": "count",
      "outputs": [
        {
          "internalType": "uint256",
          "name": "",
          "type": "uint256"
        }
      ],
      "stateMutability": "view",
      "type": "function",
      "constant": true
    },
    {
      "inputs": [
        {
          "internalType": "address",
          "name": "",
          "type": "address"
        }
      ],
      "name": "publicKey",
      "outputs": [
        {
          "internalType": "bytes",
          "name": "",
          "type": "bytes"
        }
      ],
      "stateMutability": "view",
      "type": "function",
      "constant": true
    },
    {
      "inputs": [],
      "name": "registrationPhaseOn",
      "outputs": [],
      "stateMutability": "nonpayable",
      "type": "function"
    },
    {
      "inputs": [],
      "name": "assignmentPhaseOn",
      "outputs": [],
      "stateMutability": "nonpayable",
      "type": "function"
    },
    {
      "inputs": [],
      "name": "commitPhaseOn",
      "outputs": [],
      "stateMutability": "nonpayable",
      "type": "function"
    },
    {
      "inputs": [],
      "name": "revealPhaseOn",
      "outputs": [],
      "stateMutability": "nonpayable",
      "type": "function"
    },
    {
      "inputs": [],
      "name": "selectionPhaseOn",
      "outputs": [],
      "stateMutability": "nonpayable",
      "type": "function"
    },
    {
      "inputs": [
        {
          "internalType": "bytes",
          "name": "_publicKey",
          "type": "bytes"
        }
      ],
      "name": "insertUsers",
      "outputs": [],
      "stateMutability": "nonpayable",
      "type": "function"
    },
    {
      "inputs": [
        {
          "internalType": "uint256[][]",
          "name": "ranks",
          "type": "uint256[][]"
        },
        {
          "internalType": "uint256[]",
          "name": "rand",
          "type": "uint256[]"
        },
        {
          "internalType": "uint256",
          "name": "prob",
          "type": "uint256"
        }
      ],
      "name": "countPeer",
      "outputs": [],
      "stateMutability": "nonpayable",
      "type": "function"
    },
    {
      "inputs": [
        {
          "internalType": "uint256",
          "name": "threshold",
          "type": "uint256"
        },
        {
          "internalType": "uint256",
          "name": "len",
          "type": "uint256"
        }
      ],
      "name": "selectionWinners",
      "outputs": [
        {
          "internalType": "uint256[]",
          "name": "",
          "type": "uint256[]"
        }
      ],
      "stateMutability": "view",
      "type": "function",
      "constant": true
    }
  ],
  "bytecode": "0x60a060405234801561001057600080fd5b503373ffffffffffffffffffffffffffffffffffffffff1660808173ffffffffffffffffffffffffffffffffffffffff16815250506080516113d2610083600039600081816101b60152818161027a01528181610335015281816105820152818161064601526109a801526113d26000f3fe608060405234801561001057600080fd5b506004361061009e5760003560e01c8063888ade0a11610066578063888ade0a1461010d578063bb84573f1461013d578063d37ffde714610147578063f066fada14610163578063f58cd0f6146101935761009e565b80631109f3d0146100a357806315ae7b5a146100ad5780633b3546c8146100b75780636fa68f29146100e757806382291e6a146100f1575b600080fd5b6100ab61019d565b005b6100b5610261565b005b6100d160048036038101906100cc9190610a93565b610304565b6040516100de9190610acf565b60405180910390f35b6100ef61031c565b005b61010b60048036038101906101069190610b4f565b6103e0565b005b61012760048036038101906101229190610bfa565b6104c9565b6040516101349190610cb7565b60405180910390f35b610145610569565b005b610161600480360381019061015c9190610d85565b61062d565b005b61017d60048036038101906101789190610e1a565b610864565b60405161018a9190610f18565b60405180910390f35b61019b61098f565b005b3373ffffffffffffffffffffffffffffffffffffffff167f000000000000000000000000000000000000000000000000000000000000000073ffffffffffffffffffffffffffffffffffffffff161415801561020c575060016000600b9054906101000a900460ff1660ff1614155b15610243576040517f82b4290000000000000000000000000000000000000000000000000000000000815260040160405180910390fd5b60026000600b6101000a81548160ff021916908360ff160217905550565b3373ffffffffffffffffffffffffffffffffffffffff167f000000000000000000000000000000000000000000000000000000000000000073ffffffffffffffffffffffffffffffffffffffff16146102e6576040517f82b4290000000000000000000000000000000000000000000000000000000000815260040160405180910390fd5b60016000600b6101000a81548160ff021916908360ff160217905550565b60026020528060005260406000206000915090505481565b3373ffffffffffffffffffffffffffffffffffffffff167f000000000000000000000000000000000000000000000000000000000000000073ffffffffffffffffffffffffffffffffffffffff161415801561038b575060086000600b9054906101000a900460ff1660ff1614155b156103c2576040517f82b4290000000000000000000000000000000000000000000000000000000000815260040160405180910390fd5b60106000600b6101000a81548160ff021916908360ff160217905550565b60016000600b9054906101000a900460ff1660ff161461042c576040517f8e755cc400000000000000000000000000000000000000000000000000000000815260040160405180910390fd5b8181600160003373ffffffffffffffffffffffffffffffffffffffff1673ffffffffffffffffffffffffffffffffffffffff168152602001908152602001600020918261047a929190611180565b5060008081819054906101000a90046affffffffffffffffffffff1660010191906101000a8154816affffffffffffffffffffff02191690836affffffffffffffffffffff1602179055505050565b600160205280600052604060002060009150905080546104e890610fa3565b80601f016020809104026020016040519081016040528092919081815260200182805461051490610fa3565b80156105615780601f1061053657610100808354040283529160200191610561565b820191906000526020600020905b81548152906001019060200180831161054457829003601f168201915b505050505081565b3373ffffffffffffffffffffffffffffffffffffffff167f000000000000000000000000000000000000000000000000000000000000000073ffffffffffffffffffffffffffffffffffffffff16141580156105d8575060046000600b9054906101000a900460ff1660ff1614155b1561060f576040517f82b4290000000000000000000000000000000000000000000000000000000000815260040160405180910390fd5b60086000600b6101000a81548160ff021916908360ff160217905550565b3373ffffffffffffffffffffffffffffffffffffffff167f000000000000000000000000000000000000000000000000000000000000000073ffffffffffffffffffffffffffffffffffffffff161415801561069c575060106000600b9054906101000a900460ff1660ff1614155b156106d3576040517fc91c5a8c00000000000000000000000000000000000000000000000000000000815260040160405180910390fd5b6000858560008181106106e9576106e8611250565b5b90506020028101906106fb919061128e565b90509050600060018261070e9190611320565b905060005b60008054906101000a90046affffffffffffffffffffff166affffffffffffffffffffff1681101561085a5760005b8381101561084e578281036107dd578487878481811061076557610764611250565b5b9050602002013510156107d857600260008a8a8581811061078957610788611250565b5b905060200281019061079b919061128e565b848181106107ac576107ab611250565b5b90506020020135815260200190815260200160002060008154809291906107d290611354565b91905055505b610843565b600260008a8a858181106107f4576107f3611250565b5b9050602002810190610806919061128e565b8481811061081757610816611250565b5b905060200201358152602001908152602001600020600081548092919061083d90611354565b91905055505b806001019050610742565b50806001019050610713565b5050505050505050565b606060106000600b9054906101000a900460ff1660ff16146108b2576040517fc91c5a8c00000000000000000000000000000000000000000000000000000000815260040160405180910390fd5b60008267ffffffffffffffff8111156108ce576108cd610f45565b5b6040519080825280602002602001820160405280156108fc5781602001602082028036833780820191505090505b5090506000805b60008054906101000a90046affffffffffffffffffffff166affffffffffffffffffffff168110156109835785600260008381526020019081526020016000205410610978578083838151811061095d5761095c611250565b5b60200260200101818152505081600101915084820315610983575b806001019050610903565b50819250505092915050565b3373ffffffffffffffffffffffffffffffffffffffff167f000000000000000000000000000000000000000000000000000000000000000073ffffffffffffffffffffffffffffffffffffffff16141580156109fe575060026000600b9054906101000a900460ff1660ff1614155b15610a35576040517f82b4290000000000000000000000000000000000000000000000000000000000815260040160405180910390fd5b60046000600b6101000a81548160ff021916908360ff160217905550565b600080fd5b600080fd5b6000819050919050565b610a7081610a5d565b8114610a7b57600080fd5b50565b600081359050610a8d81610a67565b92915050565b600060208284031215610aa957610aa8610a53565b5b6000610ab784828501610a7e565b91505092915050565b610ac981610a5d565b82525050565b6000602082019050610ae46000830184610ac0565b92915050565b600080fd5b600080fd5b600080fd5b60008083601f840112610b0f57610b0e610aea565b5b8235905067ffffffffffffffff811115610b2c57610b2b610aef565b5b602083019150836001820283011115610b4857610b47610af4565b5b9250929050565b60008060208385031215610b6657610b65610a53565b5b600083013567ffffffffffffffff811115610b8457610b83610a58565b5b610b9085828601610af9565b92509250509250929050565b600073ffffffffffffffffffffffffffffffffffffffff82169050919050565b6000610bc782610b9c565b9050919050565b610bd781610bbc565b8114610be257600080fd5b50565b600081359050610bf481610bce565b92915050565b600060208284031215610c1057610c0f610a53565b5b6000610c1e84828501610be5565b91505092915050565b600081519050919050565b600082825260208201905092915050565b60005b83811015610c61578082015181840152602081019050610c46565b60008484015250505050565b6000601f19601f8301169050919050565b6000610c8982610c27565b610c938185610c32565b9350610ca3818560208601610c43565b610cac81610c6d565b840191505092915050565b60006020820190508181036000830152610cd18184610c7e565b905092915050565b60008083601f840112610cef57610cee610aea565b5b8235905067ffffffffffffffff811115610d0c57610d0b610aef565b5b602083019150836020820283011115610d2857610d27610af4565b5b9250929050565b60008083601f840112610d4557610d44610aea565b5b8235905067ffffffffffffffff811115610d6257610d61610aef565b5b602083019150836020820283011115610d7e57610d7d610af4565b5b9250929050565b600080600080600060608688031215610da157610da0610a53565b5b600086013567ffffffffffffffff811115610dbf57610dbe610a58565b5b610dcb88828901610cd9565b9550955050602086013567ffffffffffffffff811115610dee57610ded610a58565b5b610dfa88828901610d2f565b93509350506040610e0d88828901610a7e565b9150509295509295909350565b60008060408385031215610e3157610e30610a53565b5b6000610e3f85828601610a7e565b9250506020610e5085828601610a7e565b9150509250929050565b600081519050919050565b600082825260208201905092915050565b6000819050602082019050919050565b610e8f81610a5d565b82525050565b6000610ea18383610e86565b60208301905092915050565b6000602082019050919050565b6000610ec582610e5a565b610ecf8185610e65565b9350610eda83610e76565b8060005b83811015610f0b578151610ef28882610e95565b9750610efd83610ead565b925050600181019050610ede565b5085935050505092915050565b60006020820190508181036000830152610f328184610eba565b905092915050565b600082905092915050565b7f4e487b7100000000000000000000000000000000000000000000000000000000600052604160045260246000fd5b7f4e487b7100000000000000000000000000000000000000000000000000000000600052602260045260246000fd5b60006002820490506001821680610fbb57607f821691505b602082108103610fce57610fcd610f74565b5b50919050565b60008190508160005260206000209050919050565b60006020601f8301049050919050565b600082821b905092915050565b6000600883026110367fffffffffffffffffffffffffffffffffffffffffffffffffffffffffffffffff82610ff9565b6110408683610ff9565b95508019841693508086168417925050509392505050565b6000819050919050565b600061107d61107861107384610a5d565b611058565b610a5d565b9050919050565b6000819050919050565b61109783611062565b6110ab6110a382611084565b848454611006565b825550505050565b600090565b6110c06110b3565b6110cb81848461108e565b505050565b5b818110156110ef576110e46000826110b8565b6001810190506110d1565b5050565b601f8211156111345761110581610fd4565b61110e84610fe9565b8101602085101561111d578190505b61113161112985610fe9565b8301826110d0565b50505b505050565b600082821c905092915050565b600061115760001984600802611139565b1980831691505092915050565b60006111708383611146565b9150826002028217905092915050565b61118a8383610f3a565b67ffffffffffffffff8111156111a3576111a2610f45565b5b6111ad8254610fa3565b6111b88282856110f3565b6000601f8311600181146111e757600084156111d5578287013590505b6111df8582611164565b865550611247565b601f1984166111f586610fd4565b60005b8281101561121d578489013582556001820191506020850194506020810190506111f8565b8683101561123a5784890135611236601f891682611146565b8355505b6001600288020188555050505b50505050505050565b7f4e487b7100000000000000000000000000000000000000000000000000000000600052603260045260246000fd5b600080fd5b600080fd5b600080fd5b600080833560016020038436030381126112ab576112aa61127f565b5b80840192508235915067ffffffffffffffff8211156112cd576112cc611284565b5b6020830192506020820236038313156112e9576112e8611289565b5b509250929050565b7f4e487b7100000000000000000000000000000000000000000000000000000000600052601160045260246000fd5b600061132b82610a5d565b915061133683610a5d565b925082820390508181111561134e5761134d6112f1565b5b92915050565b600061135f82610a5d565b91507fffffffffffffffffffffffffffffffffffffffffffffffffffffffffffffffff8203611391576113906112f1565b5b60018201905091905056fea26469706673582212202b912bbb77e33acbb42d3958ec25b750e9b9696d502e26dcd629af9d1c83627264736f6c63430008110033",
  "immutableReferences": {
    "3556": [
      {
        "length": 32,
        "start": 438
      },
      {
        "length": 32,
        "start": 634
      },
      {
        "length": 32,
        "start": 821
      },
      {
        "length": 32,
        "start": 1410
      },
      {
        "length": 32,
        "start": 1606
      },
      {
        "length": 32,
        "start": 2472
      }
    ]
  },
  "source": "// SPDX-License-Identifier: MIT\r\npragma solidity 0.8.17;\r\n\r\nimport \"./DecimalMath.sol\";\r\n\r\ncontract PeerNomination {\r\n\r\n  using DecimalMath for *;\r\n\r\n  uint88 countUsers;\r\n  uint8 boolean; // Nan, Nan, Nan, selectionPhase, revealPhase, commitPhase, assignmentPhase, registrationPhase\r\n  address immutable owner;\r\n\r\n  mapping(address => bytes) public publicKey;\r\n  mapping(uint => uint) public count;\r\n\r\n  error Unauthorized();\r\n  error NotRegistrationPhase();\r\n  error NotCommitPhase();\r\n  error NotCountingPhase();\r\n\r\n  // Function constructor is used to initialize state variables of a contract\r\n  constructor() {\r\n    owner = msg.sender;\r\n  }\r\n\r\n  // These functions update election's status\r\n  function registrationPhaseOn() external {\r\n    if(owner != msg.sender) {\r\n      revert Unauthorized();\r\n    }\r\n    boolean = 1;\r\n  }\r\n  function assignmentPhaseOn() external {\r\n    if(owner != msg.sender && boolean != 1) {\r\n      revert Unauthorized();\r\n    }\r\n    boolean = 2;\r\n  }\r\n  function commitPhaseOn() external {\r\n    if(owner != msg.sender && boolean != 2) {\r\n      revert Unauthorized();\r\n    }\r\n    boolean = 4;\r\n  }\r\n  function revealPhaseOn() external {\r\n    if(owner != msg.sender && boolean != 4) {\r\n      revert Unauthorized();\r\n    }\r\n    boolean = 8;\r\n  }\r\n  function selectionPhaseOn() external {\r\n    if(owner != msg.sender && boolean != 8) {\r\n      revert Unauthorized();\r\n    }\r\n    boolean = 16;\r\n  }\r\n\r\n  // These functions store voters and oracles\r\n  function insertUsers(bytes calldata _publicKey) external {\r\n    if(boolean != 1) {\r\n      revert NotRegistrationPhase();\r\n    }\r\n    publicKey[msg.sender] = _publicKey;\r\n    unchecked {\r\n      ++countUsers;\r\n    }\r\n  }\r\n\r\n  // This function carries out the count\r\n  function countPeer(uint[][] calldata ranks, uint[] calldata rand, uint prob) external {\r\n    if(owner != msg.sender && boolean != 16) {\r\n      revert NotCountingPhase();\r\n    }\r\n    uint len = ranks[0].length;\r\n    uint latest = len - 1;\r\n    for(uint i; i < countUsers;) {\r\n      for(uint j; j < len;) {\r\n        if(j == latest) {\r\n          if(rand[i] < prob) {\r\n            count[ranks[i][j]]++;\r\n          }\r\n        }\r\n        else {\r\n          count[ranks[i][j]]++;\r\n        }\r\n        unchecked {\r\n          ++j;\r\n        }\r\n      }\r\n      unchecked {\r\n        ++i;\r\n      }\r\n    }\r\n  }\r\n\r\n  function selectionWinners(uint threshold, uint len) external view returns (uint[] memory) {\r\n    if(boolean != 16) {\r\n      revert NotCountingPhase();\r\n    }\r\n    uint[] memory winners = new uint[](len);\r\n    uint i;\r\n    for(uint u; u < countUsers;) {\r\n      if(count[u] >= threshold) {\r\n        winners[i] = u;\r\n        unchecked {\r\n          ++i;\r\n          if(i == len) {\r\n            break;\r\n          }\r\n        }\r\n      }\r\n      unchecked {\r\n        ++u;\r\n      }\r\n    }\r\n    return winners;\r\n  }\r\n\r\n}",
  "sourcePath": "C:\\Users\\Claudio\\Desktop\\Codice\\Peer Nomination\\contracts\\PeerNomination.sol",
  "compiler": {
    "name": "solc",
    "version": "0.8.17+commit.8df45f5f.Emscripten.clang"
  },
  "schemaVersion": "3.4.11",
  "updatedAt": "2023-01-06T18:13:47.975Z",
  "networkType": "ethereum",
  "devdoc": {
    "kind": "dev",
    "methods": {},
    "version": 1
  },
  "userdoc": {
    "kind": "user",
    "methods": {},
    "version": 1
  }
}