{
  "contractName": "Allocations",
  "abi": [
    {
      "inputs": [
        {
          "components": [
            {
              "internalType": "uint240",
              "name": "shares",
              "type": "uint240"
            },
            {
              "internalType": "uint16",
              "name": "p",
              "type": "uint16"
            }
          ],
          "internalType": "struct Allocations.Allocation",
          "name": "a",
          "type": "tuple"
        }
      ],
      "name": "getP",
      "outputs": [
        {
          "internalType": "uint256",
          "name": "",
          "type": "uint256"
        }
      ],
      "stateMutability": "pure",
      "type": "function",
      "constant": true
    },
    {
      "inputs": [
        {
          "components": [
            {
              "internalType": "uint240",
              "name": "shares",
              "type": "uint240"
            },
            {
              "internalType": "uint16",
              "name": "p",
              "type": "uint16"
            }
          ],
          "internalType": "struct Allocations.Allocation",
          "name": "a",
          "type": "tuple"
        }
      ],
      "name": "getShares",
      "outputs": [
        {
          "internalType": "uint256[]",
          "name": "",
          "type": "uint256[]"
        }
      ],
      "stateMutability": "pure",
      "type": "function",
      "constant": true
    }
  ],
  "bytecode": "0x610c15610026600b82828239805160001a60731461001957fe5b30600052607381538281f3fe73000000000000000000000000000000000000000030146080604052600436106100a4576000357c010000000000000000000000000000000000000000000000000000000090048063a239e25611610082578063a239e25614610107578063ba776fdb14610128578063bf506b1614610148578063cbbbd48514610168576100a4565b80634398d1b5146100a957806374eef8d5146100d257806390906e42146100e5575b600080fd5b6100bc6100b73660046108a1565b610188565b6040516100c99190610b8f565b60405180910390f35b6100bc6100e0366004610837565b61018c565b8180156100f157600080fd5b506101056101003660046108b9565b6101a8565b005b61011a6101153660046108a1565b610361565b6040516100c9929190610a3a565b81801561013457600080fd5b5061010561014336600461092b565b6104c6565b61015b61015636600461084e565b610604565b6040516100c99190610b08565b61017b61017636600461090a565b6106b4565b6040516100c99190610b52565b5490565b600061019e604083016020840161097c565b61ffff1692915050565b600083836040516020016101bd9291906109f7565b60408051601f1981840301815291815281516020928301206000818152600189019093529120549091508061031e5760408051808201918290527fd4a8c0e10000000000000000000000000000000000000000000000000000000090915286908073__Zipper________________________________63d4a8c0e16102488a8a600860448701610aae565b60206040518083038186803b15801561026057600080fd5b505af4158015610274573d6000803e3d6000fd5b505050506040513d601f19601f8201168201806040525081019061029891906109a5565b600160f060020a03908116825261ffff80881660209384015284546001818101875560009687528487208651920180549686015190931660f060020a029184167fffff0000000000000000000000000000000000000000000000000000000000009096169590951790921691909117905588548584529189019052604090912055610359565b8286600001600183038154811061033157fe5b90600052602060002001600001601e6101000a81548161ffff021916908361ffff1602179055505b505050505050565b80546060908190818167ffffffffffffffff8111801561038057600080fd5b506040519080825280602002602001820160405280156103b457816020015b606081526020019060019003908161039f5790505b50905060608267ffffffffffffffff811180156103d057600080fd5b506040519080825280602002602001820160405280156103fa578160200160208202803683370190505b50905060005b838110156104ba5761045587600001828154811061041a57fe5b600091825260209182902060408051808201909152910154600160f060020a038116825260f060020a900461ffff1691810191909152610604565b83828151811061046157fe5b602002602001018190525086600001818154811061047b57fe5b90600052602060002001600001601e9054906101000a900461ffff1661ffff168282815181106104a757fe5b6020908102919091010152600101610400565b50909350915050915091565b83548310610509576040517f08c379a000000000000000000000000000000000000000000000000000000000815260040161050090610b1b565b60405180910390fd5b6040517fd4a8c0e100000000000000000000000000000000000000000000000000000000815273__Zipper________________________________9063d4a8c0e19061055e9085908590600890600401610aae565b60206040518083038186803b15801561057657600080fd5b505af415801561058a573d6000803e3d6000fd5b505050506040513d601f19601f820116820180604052508101906105ae91906109a5565b8460000184815481106105bd57fe5b600091825260209091200180547fffff00000000000000000000000000000000000000000000000000000000000016600160f060020a039290921691909117905550505050565b80516040517fb9ea425200000000000000000000000000000000000000000000000000000000815260609173__Zipper________________________________9163b9ea42529161065a91600890600401610b76565b60006040518083038186803b15801561067257600080fd5b505af4158015610686573d6000803e3d6000fd5b505050506040513d6000823e601f3d908101601f191682016040526106ae91908101906107a2565b92915050565b6106bc610742565b825482106106f6576040517f08c379a000000000000000000000000000000000000000000000000000000000815260040161050090610b1b565b82600001828154811061070557fe5b600091825260209182902060408051808201909152910154600160f060020a038116825260f060020a900461ffff16918101919091529392505050565b604080518082019091526000808252602082015290565b60008083601f84011261076a578182fd5b50813567ffffffffffffffff811115610781578182fd5b602083019150836020808302850101111561079b57600080fd5b9250929050565b600060208083850312156107b4578182fd5b825167ffffffffffffffff8111156107ca578283fd5b8301601f810185136107da578283fd5b80516107ed6107e882610bbf565b610b98565b8181528381019083850185840285018601891015610809578687fd5b8694505b8385101561082b57805183526001949094019391850191850161080d565b50979650505050505050565b600060408284031215610848578081fd5b50919050565b60006040828403121561085f578081fd5b6108696040610b98565b8235600160f060020a038116811461087f578283fd5b8152602083013561ffff81168114610895578283fd5b60208201529392505050565b6000602082840312156108b2578081fd5b5035919050565b600080600080606085870312156108ce578283fd5b84359350602085013567ffffffffffffffff8111156108eb578384fd5b6108f787828801610759565b9598909750949560400135949350505050565b6000806040838503121561091c578182fd5b50508035926020909101359150565b60008060008060608587031215610940578384fd5b8435935060208501359250604085013567ffffffffffffffff811115610964578283fd5b61097087828801610759565b95989497509550505050565b60006020828403121561098d578081fd5b813561ffff8116811461099e578182fd5b9392505050565b6000602082840312156109b6578081fd5b5051919050565b6000815180845260208085019450808401835b838110156109ec578151875295820195908201906001016109d0565b509495945050505050565b60007f07ffffffffffffffffffffffffffffffffffffffffffffffffffffffffffffff831115610a25578081fd5b60208302808584379190910190815292915050565b60006040820160408352808551808352606085019150602092506060838202860101838801855b83811015610a8f57605f19888403018552610a7d8383516109bd565b94860194925090850190600101610a61565b505085810384870152610aa281886109bd565b98975050505050505050565b6000604082528360408301527f07ffffffffffffffffffffffffffffffffffffffffffffffffffffffffffffff841115610ae6578081fd5b6020840280866060850137820160600190815260209091019190915292915050565b60006020825261099e60208301846109bd565b60208082526011908201527f4d6170206f7574206f6620626f756e6473000000000000000000000000000000604082015260600190565b8151600160f060020a0316815260209182015161ffff169181019190915260400190565b600160f060020a03929092168252602082015260400190565b90815260200190565b60405181810167ffffffffffffffff81118282101715610bb757600080fd5b604052919050565b600067ffffffffffffffff821115610bd5578081fd5b506020908102019056fea26469706673582212202fb5739d369cae6446769fe3b464c53e850fe415b1a61a45f1e55aa1fdb556cc64736f6c634300060c0033",
  "immutableReferences": {},
  "source": "// SPDX-License-Identifier: MIT\n\npragma solidity >=0.4.18;\npragma experimental ABIEncoderV2;\n\nimport \"./Zipper.sol\";\n\n\n/// @title Dictionary storing allocations\n/// @author Giovanni Rescinito\n/// @notice Data structure implemented as an iterable map, produced during the apportionment algorithm to store allocations\nlibrary Allocations {\n    //Data Structures\n\n    /// @notice Data structure related to a single allocation\n    struct Allocation {\n        uint240 shares;     // winners per cluster\n        uint16 p;           // probability of the allocation\n    }\n\n    /// @notice Dictionary containing allocations\n    struct Map {\n        Allocation[] elements;          // list of allocations\n        mapping (bytes32 => uint) idx;  // maps key to index in the list\n    }\n\n    //Setters\n\n    /// @notice creates a new allocation or updates the probability of an existing one\n    /// @param map dictionary containing allocations\n    /// @param a winners per cluster to insert/modify\n    /// @param p probability of the specific allocation\n    function setAllocation(Map storage map, uint[] calldata a, uint p) external {\n        bytes32 h = keccak256(abi.encodePacked(a));\n        uint index = map.idx[h];\n        if (index == 0) {\n            map.elements.push(Allocation(uint240(Zipper.zipArrayWithSize(a,8)), uint16(p)));\n            map.idx[h] = map.elements.length;\n        }else {\n            map.elements[index - 1].p = uint16(p);\n        }\n    }\n\n    /// @notice updates the winners per cluster of an allocation specified by its index\n    /// @param map dictionary containing allocations\n    /// @param index index of the allocation to modify\n    /// @param shares winners per cluster to update\n    function updateShares(Map storage map, uint index, uint[] calldata shares) external {\n        require(index >= 0 && index < map.elements.length, \"Map out of bounds\"); \n        map.elements[index].shares = uint240(Zipper.zipArrayWithSize(shares,8));\n    }\n\n    //Getters\n\n    /// @param map dictionary containing allocations\n    /// @return the number of allocations stored\n    function length(Map storage map) view external returns (uint){\n        return map.elements.length;\n    }\n\n    /// @param map dictionary containing allocations\n    /// @return the list of allocations and the list of corresponding probabilities\n    function getAllocations(Map storage map) view external returns (uint[][] memory, uint[] memory) {\n        uint n = map.elements.length;\n        uint[][] memory allocations = new uint[][](n);\n        uint[] memory p = new uint[](n);\n        for (uint i=0;i<n;i++){\n            allocations[i] = getShares(map.elements[i]);\n            p[i] = map.elements[i].p;\n        }\n        return (allocations,p);\n    }\n\n    /// @param a allocation for which the probability is required\n    /// @return the probability associated to the allocation\n    function getP(Allocation calldata a) pure external returns (uint) {\n        return a.p;\n    }\n\n    /// @param a allocation for which the winners per cluster are required\n    /// @return the winners per cluster associated to the allocation\n    function getShares(Allocation memory a) pure public returns (uint[] memory) {\n        return Zipper.unzipArrayWithSize(a.shares,8);\n    }\n\n    /// @param map dictionary containing allocations\n    /// @param index allocation for which the probability is required\n    /// @return the allocation stored at a specified index\n    function getAllocationAt(Map storage map, uint index) view external returns (Allocation memory) {\n        require(index >= 0 && index < map.elements.length, \"Map out of bounds\"); \n        return map.elements[index];\n    }\n}\n",
  "sourcePath": "C:\\Users\\Claudio\\Desktop\\Tesi\\Codice reviews\\reviews - ipfs\\contracts\\Allocations.sol",
  "compiler": {
    "name": "solc",
    "version": "0.6.12+commit.27d51765.Emscripten.clang"
  },
  "schemaVersion": "3.4.8",
  "updatedAt": "2022-09-18T09:39:15.159Z",
  "networkType": "ethereum",
  "devdoc": {
    "author": "Giovanni Rescinito",
    "kind": "dev",
    "methods": {
      "getAllocationAt(Allocations.Map storage,uint256)": {
        "params": {
          "index": "allocation for which the probability is required",
          "map": "dictionary containing allocations"
        },
        "returns": {
          "_0": "the allocation stored at a specified index"
        }
      },
      "getAllocations(Allocations.Map storage)": {
        "params": {
          "map": "dictionary containing allocations"
        },
        "returns": {
          "_0": "the list of allocations and the list of corresponding probabilities"
        }
      },
      "getP(Allocations.Allocation)": {
        "params": {
          "a": "allocation for which the probability is required"
        },
        "returns": {
          "_0": "the probability associated to the allocation"
        }
      },
      "getShares(Allocations.Allocation)": {
        "params": {
          "a": "allocation for which the winners per cluster are required"
        },
        "returns": {
          "_0": "the winners per cluster associated to the allocation"
        }
      },
      "length(Allocations.Map storage)": {
        "params": {
          "map": "dictionary containing allocations"
        },
        "returns": {
          "_0": "the number of allocations stored"
        }
      },
      "setAllocation(Allocations.Map storage,uint256[],uint256)": {
        "params": {
          "a": "winners per cluster to insert/modify",
          "map": "dictionary containing allocations",
          "p": "probability of the specific allocation"
        }
      },
      "updateShares(Allocations.Map storage,uint256,uint256[])": {
        "params": {
          "index": "index of the allocation to modify",
          "map": "dictionary containing allocations",
          "shares": "winners per cluster to update"
        }
      }
    },
    "title": "Dictionary storing allocations",
    "version": 1
  },
  "userdoc": {
    "kind": "user",
    "methods": {
      "setAllocation(Allocations.Map storage,uint256[],uint256)": {
        "notice": "creates a new allocation or updates the probability of an existing one"
      },
      "updateShares(Allocations.Map storage,uint256,uint256[])": {
        "notice": "updates the winners per cluster of an allocation specified by its index"
      }
    },
    "notice": "Data structure implemented as an iterable map, produced during the apportionment algorithm to store allocations",
    "version": 1
  }
}