{
  "contractName": "ExactDollarPartitionMatrix",
  "abi": [
    {
      "inputs": [
        {
          "internalType": "uint256",
          "name": "n",
          "type": "uint256"
        }
      ],
      "name": "initializeScoreMatrix",
      "outputs": [
        {
          "internalType": "uint256[][]",
          "name": "",
          "type": "uint256[][]"
        }
      ],
      "stateMutability": "pure",
      "type": "function",
      "constant": true
    }
  ],
  "bytecode": "0x610dd8610026600b82828239805160001a60731461001957fe5b30600052607381538281f3fe7300000000000000000000000000000000000000003014608060405260043610610067577c0100000000000000000000000000000000000000000000000000000000600035046327612d0c811461006c57806349953f6e1461009557806379b1961a146100b7575b600080fd5b61007f61007a366004610bf7565b6100d7565b60405161008c9190610c49565b60405180910390f35b8180156100a157600080fd5b506100b56100b0366004610b0d565b61012b565b005b8180156100c357600080fd5b506100b56100d2366004610ae2565b61037f565b60608167ffffffffffffffff811180156100f057600080fd5b5060405190808252806020026020018201604052801561012457816020015b606081526020019060019003908161010f5790505b5092915050565b600061ffff815b8481101561015f5783818151811061014657fe5b6020026020010151830192508080600101915050610132565b5060606002850267ffffffffffffffff8111801561017c57600080fd5b506040519080825280602002602001820160405280156101a6578160200160208202803683370190505b5090508215610374576000805b868110156102a0578787828181106101c757fe5b905060200201358383806001019450815181106101e057fe5b60200260200101818152505084848783815181106101fa57fe5b6020026020010151028161020a57fe5b0486828151811061021757fe5b60200260200101818152505085818151811061022f57fe5b602002602001015183838060010194508151811061024957fe5b60200260200101818152505085818151811061026157fe5b60200260200101518a60008a8a8581811061027857fe5b60209081029290920135835250810191909152604001600020805490910190556001016101b3565b506040517ffe69dbfa00000000000000000000000000000000000000000000000000000000815273__Zipper________________________________9063fe69dbfa906102f4908590601090600401610d39565b60006040518083038186803b15801561030c57600080fd5b505af4158015610320573d6000803e3d6000fd5b505050506040513d6000823e601f3d908101601f191682016040526103489190810190610bbc565b8a898154811061035457fe5b90600052602060002001908051906020019061037192919061092d565b50505b505050505050505050565b82546040517f3bfd520600000000000000000000000000000000000000000000000000000000815260609073__Zipper________________________________90633bfd5206906103d7908790601090600401610ca9565b60006040518083038186803b1580156103ef57600080fd5b505af4158015610403573d6000803e3d6000fd5b505050506040513d6000823e601f3d908101601f1916820160405261042b9190810190610a59565b905060008151838161043957fe5b06905060606000604051908082528060200260200182016040528015610469578160200160208202803683370190505b50905060006060808667ffffffffffffffff8111801561048857600080fd5b506040519080825280602002602001820160405280156104b2578160200160208202803683370190505b509050600061ffff815b88518110156108c15760009550878114156104e35760408051600081526020810190915296505b60005b8982815181106104f257fe5b60200260200101515181101561084b5760008a838151811061051057fe5b6020026020010151828151811061052357fe5b602002602001015190508e818154811061053957fe5b60009182526020909120015461084257876107215788516105e7578a838151811061056057fe5b6020026020010151518c03848161057357fe5b0494508b67ffffffffffffffff8111801561058d57600080fd5b506040519080825280602002602001820160405280156105b7578160200160208202803683370190505b50985060005b8c8110156105e557858a82815181106105d257fe5b60209081029190910101526001016105bd565b505b8a83815181106105f357fe5b6020026020010151518c0360020267ffffffffffffffff8111801561061757600080fd5b50604051908082528060200260200182016040528015610641578160200160208202803683370190505b50965060005b8b848151811061065357fe5b6020026020010151518110156106aa5760008a8d868151811061067257fe5b6020026020010151838151811061068557fe5b60200260200101518151811061069757fe5b6020908102919091010152600101610647565b506000805b8a5181101561071a578a81815181106106c457fe5b602002602001015160001461071257808983806001019450815181106106e657fe5b6020026020010181815250508689838060010194508151811061070557fe5b6020026020010181815250505b6001016106af565b5060019850505b60005b8c81101561076f5789818151811061073857fe5b6020026020010151600014610767578587828151811061075457fe5b6020026020010181815101915081815250505b600101610724565b506040517ffe69dbfa00000000000000000000000000000000000000000000000000000000815273__Zipper________________________________9063fe69dbfa906107c3908a90601090600401610d39565b60006040518083038186803b1580156107db57600080fd5b505af41580156107ef573d6000803e3d6000fd5b505050506040513d6000823e601f3d908101601f191682016040526108179190810190610bbc565b8f828154811061082357fe5b90600052602060002001908051906020019061084092919061092d565b505b506001016104e6565b5085156108b95760005b89828151811061086157fe5b6020026020010151518110156108b75783888b848151811061087f57fe5b6020026020010151838151811061089257fe5b6020026020010151815181106108a457fe5b6020908102919091010152600101610855565b505b6001016104bc565b5060005b8981101561091e578381815181106108d957fe5b6020026020010151600014610916578381815181106108f457fe5b6020908102919091018101516000838152918d90526040909120805490910190555b6001016108c5565b50505050505050505050505050565b828054828255906000526020600020908101928215610968579160200282015b8281111561096857825182559160200191906001019061094d565b50610974929150610978565b5090565b5b808211156109745760008155600101610979565b600082601f83011261099d578081fd5b81356109b06109ab82610d82565b610d5b565b8181529150602080830190848101818402860182018710156109d157600080fd5b60005b848110156109f0578135845292820192908201906001016109d4565b505050505092915050565b600082601f830112610a0b578081fd5b8151610a196109ab82610d82565b818152915060208083019084810181840286018201871015610a3a57600080fd5b60005b848110156109f057815184529282019290820190600101610a3d565b60006020808385031215610a6b578182fd5b825167ffffffffffffffff811115610a81578283fd5b8301601f81018513610a91578283fd5b8051610a9f6109ab82610d82565b81815283810190838501865b84811015610ad457610ac28a8884518901016109fb565b84529286019290860190600101610aab565b509098975050505050505050565b600080600060608486031215610af6578182fd5b505081359360208301359350604090920135919050565b60008060008060008060a08789031215610b25578182fd5b863595506020870135945060408701359350606087013567ffffffffffffffff80821115610b51578384fd5b818901915089601f830112610b64578384fd5b813581811115610b72578485fd5b8a60208083028501011115610b85578485fd5b602083019550809450506080890135915080821115610ba2578283fd5b50610baf89828a0161098d565b9150509295509295509295565b600060208284031215610bcd578081fd5b815167ffffffffffffffff811115610be3578182fd5b610bef848285016109fb565b949350505050565b600060208284031215610c08578081fd5b5035919050565b6000815180845260208085019450808401835b83811015610c3e57815187529582019590820190600101610c22565b509495945050505050565b6000602080830181845280855180835260408601915060408482028701019250838701855b82811015610c9c57603f19888603018452610c8a858351610c0f565b94509285019290850190600101610c6e565b5092979650505050505050565b60006040820160408352808554808352606085019150602092506060838202860101878552838520855b83811015610d2757878303605f1901855281548084528288528688208785019190895b82811015610d1257815484529289019260019182019101610cf6565b50505094860194925060019182019101610cd3565b50509290940194909452949350505050565b600060408252610d4c6040830185610c0f565b90508260208301529392505050565b60405181810167ffffffffffffffff81118282101715610d7a57600080fd5b604052919050565b600067ffffffffffffffff821115610d98578081fd5b506020908102019056fea26469706673582212202f153944cb9d0d4fb51a5bdc55e19ab99d19fa5903d88c96f1f1b516b182586164736f6c634300060c0033",
  "immutableReferences": {},
  "source": "// SPDX-License-Identifier: MIT\n\npragma solidity >=0.4.18;\npragma experimental ABIEncoderV2;\n\n\nimport \"./ExactDollarPartition.sol\";\n\n/// @title Exact Dollar Partition matrix implementation\n/// @author Giovanni Rescinito\n/// @notice implements the matrix specific functions related to Exact Dollar Partition\nlibrary ExactDollarPartitionMatrix {\n\n    /// @notice initializes the scores data structure\n    /// @param n numbers of proposals submitted\n    /// @return a nxn empty matrix to store scores\n    function initializeScoreMatrix(uint n) pure external returns (uint[][] memory){\n        return new uint[][](n);\n    }\n\n    /// @notice checks if all users revealed their evaluations, otherwise sets them according to Exact Dollar Partition\n    /// @param scoreMatrix data structure containing the scores\n    /// @param partition zipped matrix of the clusters in which proposals are divided\n    /// @param scoreAccumulated accumulators containing the cumulative score received by each user\n    function finalizeScoreMatrix(uint[][] storage scoreMatrix, uint[][] storage partition, mapping(uint=>uint) storage scoreAccumulated) external{\n        uint n = scoreMatrix.length;\n        uint[][] memory part = Zipper.unzipMatrix(partition,16);\n        uint smallerSize = n % part.length;\n        uint[] memory row = new uint[](0);\n        bool modified;\n        uint[] memory array;\n        uint[] memory accumulator = new uint[](n);\n        uint value;\n        uint c = Utils.C;\n        for (uint i=0;i<part.length;i++){\n            modified = false;\n            if (i == smallerSize){\n                row = new uint[](0);\n            }\n            for (uint j=0;j<part[i].length;j++){\n                uint id = part[i][j];\n                if (scoreMatrix[id].length == 0){\n                    if (!modified){\n                        if (row.length == 0){\n                            value = c/(n-part[i].length);\n                            row = new uint[](n);\n                            for (uint k=0;k<n;k++){\n                                row[k] = value;\n                            }\n                        }\n                        array = new uint[](2*(n-part[i].length));\n                        for (uint k=0;k<part[i].length;k++){\n                            row[part[i][k]] = 0;\n                        }\n                        uint idx = 0;\n                        for (uint k=0;k<row.length;k++){\n                            if (row[k] != 0){\n                                array[idx++] = k;\n                                array[idx++] = value;\n                            }\n                        }    \n                        modified = true;\n                    }\n                    for (uint k=0;k<n;k++){\n                        if (row[k]!=0){\n                            accumulator[k] += value;\n                        }\n                    }\n                    scoreMatrix[id] = Zipper.zipArray(array, 16);\n                }\n            }\n            if (modified){\n                for (uint k=0;k<part[i].length;k++){\n                    row[part[i][k]] = value;\n                }\n            }\n        }\n        for (uint k=0;k<n;k++){\n            if (accumulator[k]!=0){\n                scoreAccumulated[k] += accumulator[k];\n            }\n        }\n    }\n    \n    /// @notice normalizes the scores received by a user when revealing and adds them to the corresponding data structure\n    /// @param scoreMatrix data structure containing the scores\n    /// @param scoreAccumulated accumulators containing the cumulative score received by each user\n    /// @param index index of the agent who submitted the reviews\n    /// @param assignments list of the works reviewed\n    /// @param evaluations scores provided\n    function addToScoreMatrix(uint[][] storage scoreMatrix, mapping(uint=>uint) storage scoreAccumulated, uint index, uint[] calldata assignments, uint[] memory evaluations) external{\n        uint sum = 0;\n        uint c = Utils.C;\n        for (uint j=0;j<assignments.length;j++){\n            sum += evaluations[j];\n        }\n        uint[] memory array = new uint[](2*assignments.length);\n        if (sum != 0){\n            uint idx = 0;\n            for (uint j=0;j<assignments.length;j++){\n                array[idx++] = assignments[j];\n                evaluations[j] = evaluations[j]*c/sum;\n                array[idx++] = evaluations[j];\n                scoreAccumulated[assignments[j]] += evaluations[j];\n            }\n            scoreMatrix[index] = Zipper.zipArray(array,16);\n        }\n    }\n}\n",
  "sourcePath": "C:\\Users\\Claudio\\Desktop\\Tesi\\Codice reviews\\reviews - ipfs\\contracts\\ExactDollarPartitionMatrix.sol",
  "compiler": {
    "name": "solc",
    "version": "0.6.12+commit.27d51765.Emscripten.clang"
  },
  "schemaVersion": "3.4.8",
  "updatedAt": "2022-09-18T09:39:15.200Z",
  "networkType": "ethereum",
  "devdoc": {
    "author": "Giovanni Rescinito",
    "kind": "dev",
    "methods": {
      "addToScoreMatrix(uint256[][] storage,mapping(uint256 => uint256) storage,uint256,uint256[],uint256[])": {
        "params": {
          "assignments": "list of the works reviewed",
          "evaluations": "scores provided",
          "index": "index of the agent who submitted the reviews",
          "scoreAccumulated": "accumulators containing the cumulative score received by each user",
          "scoreMatrix": "data structure containing the scores"
        }
      },
      "finalizeScoreMatrix(uint256[][] storage,uint256[][] storage,mapping(uint256 => uint256) storage)": {
        "params": {
          "partition": "zipped matrix of the clusters in which proposals are divided",
          "scoreAccumulated": "accumulators containing the cumulative score received by each user",
          "scoreMatrix": "data structure containing the scores"
        }
      },
      "initializeScoreMatrix(uint256)": {
        "params": {
          "n": "numbers of proposals submitted"
        },
        "returns": {
          "_0": "a nxn empty matrix to store scores"
        }
      }
    },
    "title": "Exact Dollar Partition matrix implementation",
    "version": 1
  },
  "userdoc": {
    "kind": "user",
    "methods": {
      "addToScoreMatrix(uint256[][] storage,mapping(uint256 => uint256) storage,uint256,uint256[],uint256[])": {
        "notice": "normalizes the scores received by a user when revealing and adds them to the corresponding data structure"
      },
      "finalizeScoreMatrix(uint256[][] storage,uint256[][] storage,mapping(uint256 => uint256) storage)": {
        "notice": "checks if all users revealed their evaluations, otherwise sets them according to Exact Dollar Partition"
      },
      "initializeScoreMatrix(uint256)": {
        "notice": "initializes the scores data structure"
      }
    },
    "notice": "implements the matrix specific functions related to Exact Dollar Partition",
    "version": 1
  }
}