{
  "contractName": "ImpartialSelectionMap",
  "abi": [
    {
      "inputs": [
        {
          "internalType": "address",
          "name": "tokenAddress",
          "type": "address"
        }
      ],
      "stateMutability": "nonpayable",
      "type": "constructor"
    },
    {
      "anonymous": false,
      "inputs": [
        {
          "indexed": true,
          "internalType": "bytes32",
          "name": "role",
          "type": "bytes32"
        },
        {
          "indexed": true,
          "internalType": "bytes32",
          "name": "previousAdminRole",
          "type": "bytes32"
        },
        {
          "indexed": true,
          "internalType": "bytes32",
          "name": "newAdminRole",
          "type": "bytes32"
        }
      ],
      "name": "RoleAdminChanged",
      "type": "event"
    },
    {
      "anonymous": false,
      "inputs": [
        {
          "indexed": true,
          "internalType": "bytes32",
          "name": "role",
          "type": "bytes32"
        },
        {
          "indexed": true,
          "internalType": "address",
          "name": "account",
          "type": "address"
        },
        {
          "indexed": true,
          "internalType": "address",
          "name": "sender",
          "type": "address"
        }
      ],
      "name": "RoleGranted",
      "type": "event"
    },
    {
      "anonymous": false,
      "inputs": [
        {
          "indexed": true,
          "internalType": "bytes32",
          "name": "role",
          "type": "bytes32"
        },
        {
          "indexed": true,
          "internalType": "address",
          "name": "account",
          "type": "address"
        },
        {
          "indexed": true,
          "internalType": "address",
          "name": "sender",
          "type": "address"
        }
      ],
      "name": "RoleRevoked",
      "type": "event"
    },
    {
      "inputs": [],
      "name": "DEFAULT_ADMIN_ROLE",
      "outputs": [
        {
          "internalType": "bytes32",
          "name": "",
          "type": "bytes32"
        }
      ],
      "stateMutability": "view",
      "type": "function"
    },
    {
      "inputs": [
        {
          "internalType": "bytes32",
          "name": "commitment",
          "type": "bytes32"
        },
        {
          "internalType": "uint256",
          "name": "tokenId",
          "type": "uint256"
        }
      ],
      "name": "commitEvaluations",
      "outputs": [],
      "stateMutability": "nonpayable",
      "type": "function"
    },
    {
      "inputs": [
        {
          "internalType": "uint256",
          "name": "l",
          "type": "uint256"
        }
      ],
      "name": "createPartition",
      "outputs": [],
      "stateMutability": "nonpayable",
      "type": "function"
    },
    {
      "inputs": [],
      "name": "endAssignmentPhase",
      "outputs": [],
      "stateMutability": "nonpayable",
      "type": "function"
    },
    {
      "inputs": [],
      "name": "endCommitmentPhase",
      "outputs": [],
      "stateMutability": "nonpayable",
      "type": "function"
    },
    {
      "inputs": [],
      "name": "endSubmissionPhase",
      "outputs": [],
      "stateMutability": "nonpayable",
      "type": "function"
    },
    {
      "inputs": [],
      "name": "finalizeCreation",
      "outputs": [],
      "stateMutability": "nonpayable",
      "type": "function"
    },
    {
      "inputs": [
        {
          "internalType": "uint256",
          "name": "m",
          "type": "uint256"
        }
      ],
      "name": "generateAssignments",
      "outputs": [],
      "stateMutability": "nonpayable",
      "type": "function"
    },
    {
      "inputs": [],
      "name": "getAllocations",
      "outputs": [
        {
          "internalType": "uint256[][]",
          "name": "",
          "type": "uint256[][]"
        },
        {
          "internalType": "uint256[]",
          "name": "",
          "type": "uint256[]"
        }
      ],
      "stateMutability": "view",
      "type": "function"
    },
    {
      "inputs": [
        {
          "internalType": "uint256",
          "name": "id",
          "type": "uint256"
        }
      ],
      "name": "getAssignmentById",
      "outputs": [
        {
          "internalType": "uint256[]",
          "name": "",
          "type": "uint256[]"
        }
      ],
      "stateMutability": "view",
      "type": "function"
    },
    {
      "inputs": [
        {
          "internalType": "uint256",
          "name": "tokenId",
          "type": "uint256"
        }
      ],
      "name": "getAssignmentByToken",
      "outputs": [
        {
          "internalType": "uint256[]",
          "name": "",
          "type": "uint256[]"
        }
      ],
      "stateMutability": "view",
      "type": "function"
    },
    {
      "inputs": [],
      "name": "getCurrentPhase",
      "outputs": [
        {
          "internalType": "uint8",
          "name": "",
          "type": "uint8"
        }
      ],
      "stateMutability": "view",
      "type": "function"
    },
    {
      "inputs": [],
      "name": "getPartition",
      "outputs": [
        {
          "internalType": "uint256[][]",
          "name": "",
          "type": "uint256[][]"
        }
      ],
      "stateMutability": "view",
      "type": "function"
    },
    {
      "inputs": [
        {
          "internalType": "bytes32",
          "name": "role",
          "type": "bytes32"
        }
      ],
      "name": "getRoleAdmin",
      "outputs": [
        {
          "internalType": "bytes32",
          "name": "",
          "type": "bytes32"
        }
      ],
      "stateMutability": "view",
      "type": "function"
    },
    {
      "inputs": [
        {
          "internalType": "bytes32",
          "name": "role",
          "type": "bytes32"
        },
        {
          "internalType": "uint256",
          "name": "index",
          "type": "uint256"
        }
      ],
      "name": "getRoleMember",
      "outputs": [
        {
          "internalType": "address",
          "name": "",
          "type": "address"
        }
      ],
      "stateMutability": "view",
      "type": "function"
    },
    {
      "inputs": [
        {
          "internalType": "bytes32",
          "name": "role",
          "type": "bytes32"
        }
      ],
      "name": "getRoleMemberCount",
      "outputs": [
        {
          "internalType": "uint256",
          "name": "",
          "type": "uint256"
        }
      ],
      "stateMutability": "view",
      "type": "function"
    },
    {
      "inputs": [],
      "name": "getTokenAddress",
      "outputs": [
        {
          "internalType": "address",
          "name": "",
          "type": "address"
        }
      ],
      "stateMutability": "view",
      "type": "function"
    },
    {
      "inputs": [
        {
          "internalType": "uint256",
          "name": "id",
          "type": "uint256"
        }
      ],
      "name": "getWorkById",
      "outputs": [
        {
          "internalType": "bytes",
          "name": "",
          "type": "bytes"
        }
      ],
      "stateMutability": "view",
      "type": "function"
    },
    {
      "inputs": [
        {
          "internalType": "bytes32",
          "name": "role",
          "type": "bytes32"
        },
        {
          "internalType": "address",
          "name": "account",
          "type": "address"
        }
      ],
      "name": "grantRole",
      "outputs": [],
      "stateMutability": "nonpayable",
      "type": "function"
    },
    {
      "inputs": [
        {
          "internalType": "bytes32",
          "name": "role",
          "type": "bytes32"
        },
        {
          "internalType": "address",
          "name": "account",
          "type": "address"
        }
      ],
      "name": "hasRole",
      "outputs": [
        {
          "internalType": "bool",
          "name": "",
          "type": "bool"
        }
      ],
      "stateMutability": "view",
      "type": "function"
    },
    {
      "inputs": [
        {
          "internalType": "uint256",
          "name": "k",
          "type": "uint256"
        },
        {
          "internalType": "uint256",
          "name": "randomness",
          "type": "uint256"
        }
      ],
      "name": "impartialSelection",
      "outputs": [],
      "stateMutability": "nonpayable",
      "type": "function"
    },
    {
      "inputs": [],
      "name": "isImpartialSelection",
      "outputs": [
        {
          "internalType": "bool",
          "name": "",
          "type": "bool"
        }
      ],
      "stateMutability": "view",
      "type": "function"
    },
    {
      "inputs": [
        {
          "internalType": "address",
          "name": "operator",
          "type": "address"
        },
        {
          "internalType": "address",
          "name": "from",
          "type": "address"
        },
        {
          "internalType": "uint256",
          "name": "tokenId",
          "type": "uint256"
        },
        {
          "internalType": "bytes",
          "name": "data",
          "type": "bytes"
        }
      ],
      "name": "onERC721Received",
      "outputs": [
        {
          "internalType": "bytes4",
          "name": "",
          "type": "bytes4"
        }
      ],
      "stateMutability": "nonpayable",
      "type": "function"
    },
    {
      "inputs": [
        {
          "internalType": "uint256[][]",
          "name": "assignments",
          "type": "uint256[][]"
        }
      ],
      "name": "provideAssignments",
      "outputs": [],
      "stateMutability": "nonpayable",
      "type": "function"
    },
    {
      "inputs": [
        {
          "internalType": "uint256[][]",
          "name": "part",
          "type": "uint256[][]"
        }
      ],
      "name": "providePartition",
      "outputs": [],
      "stateMutability": "nonpayable",
      "type": "function"
    },
    {
      "inputs": [
        {
          "internalType": "bytes32",
          "name": "role",
          "type": "bytes32"
        },
        {
          "internalType": "address",
          "name": "account",
          "type": "address"
        }
      ],
      "name": "renounceRole",
      "outputs": [],
      "stateMutability": "nonpayable",
      "type": "function"
    },
    {
      "inputs": [
        {
          "internalType": "bytes32",
          "name": "role",
          "type": "bytes32"
        },
        {
          "internalType": "address",
          "name": "account",
          "type": "address"
        }
      ],
      "name": "revokeRole",
      "outputs": [],
      "stateMutability": "nonpayable",
      "type": "function"
    },
    {
      "inputs": [
        {
          "internalType": "uint8",
          "name": "p",
          "type": "uint8"
        }
      ],
      "name": "setCurrentPhase",
      "outputs": [],
      "stateMutability": "nonpayable",
      "type": "function"
    },
    {
      "inputs": [
        {
          "internalType": "bytes",
          "name": "work",
          "type": "bytes"
        }
      ],
      "name": "submitWork",
      "outputs": [],
      "stateMutability": "nonpayable",
      "type": "function"
    },
    {
      "inputs": [],
      "name": "endRevealPhase",
      "outputs": [],
      "stateMutability": "nonpayable",
      "type": "function"
    },
    {
      "inputs": [
        {
          "internalType": "uint256",
          "name": "tokenId",
          "type": "uint256"
        },
        {
          "internalType": "uint256",
          "name": "randomness",
          "type": "uint256"
        },
        {
          "internalType": "uint256[]",
          "name": "evaluations",
          "type": "uint256[]"
        },
        {
          "internalType": "uint256[]",
          "name": "assignments",
          "type": "uint256[]"
        }
      ],
      "name": "revealEvaluations",
      "outputs": [
        {
          "internalType": "uint256[]",
          "name": "",
          "type": "uint256[]"
        }
      ],
      "stateMutability": "nonpayable",
      "type": "function"
    },
    {
      "inputs": [],
      "name": "getScores",
      "outputs": [
        {
          "internalType": "uint256[][]",
          "name": "",
          "type": "uint256[][]"
        }
      ],
      "stateMutability": "view",
      "type": "function"
    }
  ],
  "bytecode": "0x60806040526002805460ff191690553480156200001b57600080fd5b50604051620035d6380380620035d68339810160408190526200003e91620001c5565b60098054600160a060020a031916600160a060020a03831617905580620000826000620000736401000000006200008a810204565b6401000000006200008e810204565b5050620001f5565b3390565b620000a38282640100000000620000a7810204565b5050565b6000828152602081905260409020620000cf908264010000000062001d886200012c82021704565b15620000a357620000e86401000000006200008a810204565b600160a060020a031681600160a060020a0316837f2f8788117e7eff1d82e926ec794901d17c78024a50270940304540a733656f0d60405160405180910390a45050565b60006200014c83600160a060020a03841664010000000062000155810204565b90505b92915050565b60006200016c8383640100000000620001ad810204565b620001a4575081546001818101845560008481526020808220909301849055845484825282860190935260409020919091556200014f565b5060006200014f565b60009081526001919091016020526040902054151590565b600060208284031215620001d7578081fd5b8151600160a060020a0381168114620001ee578182fd5b9392505050565b6133d180620002056000396000f3fe608060405234801561001057600080fd5b50600436106101f45760003560e060020a90048063965fdd5c11610113578063c6daf57f116100a6578063d547741f11610075578063d547741f14610415578063e88033bd14610428578063f4e4a1021461043b578063f803f6a614610443576101f4565b8063c6daf57f146103d4578063c8184fa0146103e7578063ca15c873146103ef578063cd3f291014610402576101f4565b8063a5f4097b116100e2578063a5f4097b14610391578063afbde963146103a4578063b3619e71146103ac578063bdf1fcc9146103b4576101f4565b8063965fdd5c146103595780639969744614610361578063a217fddf14610374578063a3a40ea51461037c576101f4565b806336568abe1161018b5780635da153651161015a5780635da15365146102f057806365ed6e23146103105780639010d07c1461032657806391d1485414610339576101f4565b806336568abe146102af5780634645a954146102c2578063509dbe68146102d557806358b3476a146102e8576101f4565b80631ea1380c116101c75780631ea1380c1461025f578063248a9ca3146102745780632f2ff15d1461029457806334b6d081146102a7576101f4565b80630d9ff8f6146101f957806310fe9ae81461020e578063150b7a021461022c5780631ab27c4c1461024c575b600080fd5b61020c61020736600461267c565b610456565b005b6102166105b8565b6040516102239190612b91565b60405180910390f35b61023f61023a36600461260d565b6105c7565b6040516102239190612ddf565b61020c61025a366004612872565b6105f1565b61026761083c565b6040516102239190612c66565b6102876102823660046127e7565b610aa8565b6040516102239190612d8e565b61020c6102a2366004612817565b610abd565b61020c610b08565b61020c6102bd366004612817565b610b95565b61020c6102d0366004612851565b610bda565b61020c6102e336600461267c565b610d4d565b61020c610f50565b6103036102fe366004612958565b610fc3565b6040516102239190612d70565b61031861126d565b604051610223929190612c79565b610216610334366004612851565b611307565b61034c610347366004612817565b611328565b6040516102239190612d83565b61020c611340565b61030361036f3660046127e7565b6113b3565b6102876114d3565b6103846114d8565b60405161022391906132d3565b61020c61039f3660046127e7565b6114e1565b61020c611633565b61020c6116aa565b6103c76103c23660046127e7565b61171c565b6040516102239190612e0c565b61020c6103e23660046127e7565b61183c565b610267611982565b6102876103fd3660046127e7565b611a32565b61020c6104103660046129d8565b611a49565b61020c610423366004612817565b611aba565b6103036104363660046127e7565b611af7565b61034c611b4d565b61020c610451366004612851565b611b5e565b6104636000610347611d9d565b61048b5760405160e560020a62461bcd02815260040161048290612f24565b60405180910390fd5b60405160e060020a6340b694b502815273__Phases________________________________906340b694b5906104c690600190600401612e1f565b60006040518083038186803b1580156104de57600080fd5b505af41580156104f2573d6000803e3d6000fd5b50506040517fbc0ebb4b00000000000000000000000000000000000000000000000000000000815273__Zipper________________________________925063bc0ebb4b915061054b9085908590601090600401612bc9565b60006040518083038186803b15801561056357600080fd5b505af4158015610577573d6000803e3d6000fd5b505050506040513d6000823e601f3d908101601f1916820160405261059f91908101906126bc565b80516105b391600191602090910190612330565b505050565b600954600160a060020a031690565b7f150b7a020000000000000000000000000000000000000000000000000000000095945050505050565b60405160e060020a6340b694b502815273__Phases________________________________906340b694b59061062c90600090600401612e1f565b60006040518083038186803b15801561064457600080fd5b505af4158015610658573d6000803e3d6000fd5b5050505061066461238d565b6040517fa33265fe00000000000000000000000000000000000000000000000000000000815273__Proposals_____________________________9063a33265fe906106b9906006908790879060040161324a565b60006040518083038186803b1580156106d157600080fd5b505af41580156106e5573d6000803e3d6000fd5b505050506040513d6000823e601f3d908101601f1916820160405261070d91908101906128d9565b6009546040517f6a627842000000000000000000000000000000000000000000000000000000008152919250600091600160a060020a0390911690636a6278429061075c903390600401612b91565b602060405180830381600087803b15801561077657600080fd5b505af115801561078a573d6000803e3d6000fd5b505050506040513d601f19601f820116820180604052508101906107ae91906127ff565b6040517f0323d6ce00000000000000000000000000000000000000000000000000000000815290915073__Proposals_____________________________90630323d6ce906108069060069086908690600401613280565b60006040518083038186803b15801561081e57600080fd5b505af4158015610832573d6000803e3d6000fd5b5050505050505050565b6060600073__Proposals_____________________________63614d273c60066040518263ffffffff1660e060020a02815260040161087b9190612d8e565b60206040518083038186803b15801561089357600080fd5b505af41580156108a7573d6000803e3d6000fd5b505050506040513d601f19601f820116820180604052508101906108cb91906127ff565b905060608167ffffffffffffffff811180156108e657600080fd5b5060405190808252806020026020018201604052801561091a57816020015b60608152602001906001900390816109055790505b50905060608060005b84811015610a9e576040517f053855aa00000000000000000000000000000000000000000000000000000000815273__Scores________________________________9063053855aa9061097e90600a90859060040161323c565b60006040518083038186803b15801561099657600080fd5b505af41580156109aa573d6000803e3d6000fd5b505050506040513d6000823e601f3d908101601f191682016040526109d2919081019061278b565b90935091508467ffffffffffffffff811180156109ee57600080fd5b50604051908082528060200260200182016040528015610a18578160200160208202803683370190505b50848281518110610a2557fe5b602002602001018190525060005b8351811015610a9557828181518110610a4857fe5b6020026020010151858381518110610a5c57fe5b6020026020010151858381518110610a7057fe5b602002602001015181518110610a8257fe5b6020908102919091010152600101610a33565b50600101610923565b5091935050505090565b60009081526020819052604090206002015490565b600082815260208190526040902060020154610adb90610347611d9d565b610afa5760405160e560020a62461bcd02815260040161048290612ec7565b610b048282611da1565b5050565b610b156000610347611d9d565b610b345760405160e560020a62461bcd02815260040161048290612f24565b73__Phases________________________________6334b6d0816040518163ffffffff1660e060020a02815260040160006040518083038186803b158015610b7b57600080fd5b505af4158015610b8f573d6000803e3d6000fd5b50505050565b610b9d611d9d565b600160a060020a031681600160a060020a031614610bd05760405160e560020a62461bcd02815260040161048290613185565b610b048282611e0a565b60405160e060020a6340b694b502815273__Phases________________________________906340b694b590610c1590600290600401612e1f565b60006040518083038186803b158015610c2d57600080fd5b505af4158015610c41573d6000803e3d6000fd5b50506009546040517f42842e0e000000000000000000000000000000000000000000000000000000008152600160a060020a0390911692506342842e0e9150610c9290339030908690600401612ba5565b600060405180830381600087803b158015610cac57600080fd5b505af1158015610cc0573d6000803e3d6000fd5b50506040517fa388609b00000000000000000000000000000000000000000000000000000000815273__Proposals_____________________________925063a388609b9150610d199060069085908790600401612d5a565b60006040518083038186803b158015610d3157600080fd5b505af4158015610d45573d6000803e3d6000fd5b505050505050565b610d5a6000610347611d9d565b610d795760405160e560020a62461bcd02815260040161048290612f24565b60405160e060020a6340b694b502815273__Phases________________________________906340b694b590610db490600190600401612e1f565b60006040518083038186803b158015610dcc57600080fd5b505af4158015610de0573d6000803e3d6000fd5b50506040517f614d273c0000000000000000000000000000000000000000000000000000000081526000925073__Proposals_____________________________915063614d273c90610e3890600690600401612d8e565b60206040518083038186803b158015610e5057600080fd5b505af4158015610e64573d6000803e3d6000fd5b505050506040513d601f19601f82011682018060405250810190610e8891906127ff565b9050818114610eac5760405160e560020a62461bcd02815260040161048290613094565b60005b81811015610b8f5773__Proposals_____________________________63b38d0c58600683878786818110610ee057fe5b9050602002810190610ef291906132e1565b6040518563ffffffff1660e060020a028152600401610f1494939291906132a9565b60006040518083038186803b158015610f2c57600080fd5b505af4158015610f40573d6000803e3d6000fd5b505060019092019150610eaf9050565b610f5d6000610347611d9d565b610f7c5760405160e560020a62461bcd02815260040161048290612f24565b73__Phases________________________________6358b3476a6040518163ffffffff1660e060020a02815260040160006040518083038186803b158015610b7b57600080fd5b6060600073__Proposals_____________________________63ed98094160068a6040518363ffffffff1660e060020a02815260040161100492919061323c565b60206040518083038186803b15801561101c57600080fd5b505af4158015611030573d6000803e3d6000fd5b505050506040513d601f19601f8201168201806040525081019061105491906127ff565b6040517faa665f4c00000000000000000000000000000000000000000000000000000000815290915073__Scores________________________________9063aa665f4c906110aa90600a90859060040161323c565b60206040518083038186803b1580156110c257600080fd5b505af41580156110d6573d6000803e3d6000fd5b505050506040513d601f19601f820116820180604052508101906110fa91906127c0565b1561111a5760405160e560020a62461bcd0281526004016104829061305d565b611128888888888888611e73565b5073__ExactDollarPartitionMap_______________63b75d1fc1600a600373__Proposals_____________________________63ed98094160068e6040518363ffffffff1660e060020a02815260040161118492919061323c565b60206040518083038186803b15801561119c57600080fd5b505af41580156111b0573d6000803e3d6000fd5b505050506040513d601f19601f820116820180604052508101906111d491906127ff565b88888c8c6040518863ffffffff1660e060020a0281526004016111fd97969594939291906131f5565b60006040518083038186803b15801561121557600080fd5b505af4158015611229573d6000803e3d6000fd5b50505050858580806020026020016040519081016040528093929190818152602001838360200280828437600092019190915250929b9a5050505050505050505050565b60608073__Allocations___________________________63a239e25660046040518263ffffffff1660e060020a0281526004016112ab9190612d8e565b60006040518083038186803b1580156112c357600080fd5b505af41580156112d7573d6000803e3d6000fd5b505050506040513d6000823e601f3d908101601f191682016040526112ff91908101906126f7565b915091509091565b600082815260208190526040812061131f9083612101565b90505b92915050565b600082815260208190526040812061131f908361210d565b61134d6000610347611d9d565b61136c5760405160e560020a62461bcd02815260040161048290612f24565b73__Phases________________________________63965fdd5c6040518163ffffffff1660e060020a02815260040160006040518083038186803b158015610b7b57600080fd5b606073__Proposals_____________________________63c12c372873__Proposals_____________________________638ff608e16006866040518363ffffffff1660e060020a02815260040161140c92919061323c565b60006040518083038186803b15801561142457600080fd5b505af4158015611438573d6000803e3d6000fd5b505050506040513d6000823e601f3d908101601f1916820160405261146091908101906128d9565b6040518263ffffffff1660e060020a02815260040161147f91906131e2565b60006040518083038186803b15801561149757600080fd5b505af41580156114ab573d6000803e3d6000fd5b505050506040513d6000823e601f3d908101601f191682016040526113229190810190612758565b600081565b60025460ff1690565b6114ee6000610347611d9d565b61150d5760405160e560020a62461bcd02815260040161048290612f24565b60405160e060020a6340b694b502815273__Phases________________________________906340b694b59061154890600190600401612e1f565b60006040518083038186803b15801561156057600080fd5b505af4158015611574573d6000803e3d6000fd5b50506040517fd4c97d6f00000000000000000000000000000000000000000000000000000000815273__ExactDollarPartition__________________925063d4c97d6f91506115cb90600690859060040161323c565b60006040518083038186803b1580156115e357600080fd5b505af41580156115f7573d6000803e3d6000fd5b505050506040513d6000823e601f3d908101601f1916820160405261161f91908101906126bc565b8051610b0491600191602090910190612330565b61163b612122565b6040517f67b29a8900000000000000000000000000000000000000000000000000000000815273__ExactDollarPartitionMap_______________906367b29a899061169290600a90600190600390600401612d5a565b60006040518083038186803b158015610b7b57600080fd5b6116b5600030610abd565b600960009054906101000a9004600160a060020a0316600160a060020a031663031cf5866040518163ffffffff1660e060020a028152600401600060405180830381600087803b15801561170857600080fd5b505af1158015610b8f573d6000803e3d6000fd5b606073__Proposals_____________________________63ef64a3ca73__Proposals_____________________________638ff608e16006866040518363ffffffff1660e060020a02815260040161177592919061323c565b60006040518083038186803b15801561178d57600080fd5b505af41580156117a1573d6000803e3d6000fd5b505050506040513d6000823e601f3d908101601f191682016040526117c991908101906128d9565b6040518263ffffffff1660e060020a0281526004016117e891906131e2565b60006040518083038186803b15801561180057600080fd5b505af4158015611814573d6000803e3d6000fd5b505050506040513d6000823e601f3d908101601f1916820160405261132291908101906128a6565b6118496000610347611d9d565b6118685760405160e560020a62461bcd02815260040161048290612f24565b60405160e060020a6340b694b502815273__Phases________________________________906340b694b5906118a390600190600401612e1f565b60006040518083038186803b1580156118bb57600080fd5b505af41580156118cf573d6000803e3d6000fd5b5050600154151591506118f990505760405160e560020a62461bcd02815260040161048290612f92565b6040517fdfaf519400000000000000000000000000000000000000000000000000000000815273__ExactDollarPartition__________________9063dfaf51949061194f906001906006908690600401612d5a565b60006040518083038186803b15801561196757600080fd5b505af415801561197b573d6000803e3d6000fd5b5050505050565b6040517f3bfd520600000000000000000000000000000000000000000000000000000000815260609073__Zipper________________________________90633bfd5206906119d990600190601090600401612cca565b60006040518083038186803b1580156119f157600080fd5b505af4158015611a05573d6000803e3d6000fd5b505050506040513d6000823e601f3d908101601f19168201604052611a2d91908101906126bc565b905090565b600081815260208190526040812061132290612195565b611a566000610347611d9d565b611a755760405160e560020a62461bcd02815260040161048290612f24565b60025460ff8281169181166001011614611aa45760405160e560020a62461bcd02815260040161048290612fc9565b6002805460ff191660ff92909216919091179055565b600082815260208190526040902060020154611ad890610347611d9d565b610bd05760405160e560020a62461bcd02815260040161048290613000565b6040517f313500ce00000000000000000000000000000000000000000000000000000000815260609073__Proposals_____________________________9063313500ce9061147f90600690869060040161323c565b600954600160a060020a0316331490565b611b6b6000610347611d9d565b611b8a5760405160e560020a62461bcd02815260040161048290612f24565b60405160e060020a6340b694b502815273__Phases________________________________906340b694b590611bc4906004908101612e1f565b60006040518083038186803b158015611bdc57600080fd5b505af4158015611bf0573d6000803e3d6000fd5b50506040517f614d273c00000000000000000000000000000000000000000000000000000000815273__Proposals_____________________________925063614d273c9150611c4590600690600401612d8e565b60206040518083038186803b158015611c5d57600080fd5b505af4158015611c71573d6000803e3d6000fd5b505050506040513d601f19601f82011682018060405250810190611c9591906127ff565b821115611cb75760405160e560020a62461bcd0281526004016104829061314e565b6040517ff3ce16ea00000000000000000000000000000000000000000000000000000000815273__ExactDollarPartition__________________9063f3ce16ea90611d1190600190600390600490879089908301612ca7565b60006040518083038186803b158015611d2957600080fd5b505af4158015611d3d573d6000803e3d6000fd5b5050505073__Phases________________________________63f7ad24d16040518163ffffffff1660e060020a02815260040160006040518083038186803b158015610d3157600080fd5b600061131f83600160a060020a0384166121a0565b3390565b6000828152602081905260409020611db99082611d88565b15610b0457611dc6611d9d565b600160a060020a031681600160a060020a0316837f2f8788117e7eff1d82e926ec794901d17c78024a50270940304540a733656f0d60405160405180910390a45050565b6000828152602081905260409020611e2290826121ea565b15610b0457611e2f611d9d565b600160a060020a031681600160a060020a0316837ff6391f5c32d9c69d2a47ea670b442974b53935d1edc7fd64eb21e047a839171b60405160405180910390a45050565b60405160e060020a6340b694b502815260609073__Phases________________________________906340b694b590611eb190600390600401612e1f565b60006040518083038186803b158015611ec957600080fd5b505af4158015611edd573d6000803e3d6000fd5b50505050611ee961238d565b6040517f1aed6b1500000000000000000000000000000000000000000000000000000000815273__Proposals_____________________________90631aed6b1590611f3c906006908c9060040161323c565b60006040518083038186803b158015611f5457600080fd5b505af4158015611f68573d6000803e3d6000fd5b505050506040513d6000823e601f3d908101601f19168201604052611f9091908101906128d9565b9050600073__Proposals_____________________________63354de09f836040518263ffffffff1660e060020a028152600401611fce91906131e2565b60206040518083038186803b158015611fe657600080fd5b505af4158015611ffa573d6000803e3d6000fd5b505050506040513d601f19601f8201168201806040525081019061201e91906127ff565b9050806120405760405160e560020a62461bcd02815260040161048290612f5b565b8386146120625760405160e560020a62461bcd028152600401610482906130f1565b808886868a8a60405160200161207c959493929190612b69565b60405160208183030381529060405280519060200120146120b25760405160e560020a62461bcd02815260040161048290612e90565b7f2b73c41c52d6947c712d5234600fcea9d10b503536c0ad725e635c86692c0ab3818987878b8b8f6040516120ed9796959493929190612d97565b60405180910390a150509695505050505050565b600061131f83836121ff565b600061131f83600160a060020a038416612247565b61212f6000610347611d9d565b61214e5760405160e560020a62461bcd02815260040161048290612f24565b73__Phases________________________________63afbde9636040518163ffffffff1660e060020a02815260040160006040518083038186803b158015610b7b57600080fd5b60006113228261225f565b60006121ac8383612247565b6121e257508154600181810184556000848152602080822090930184905584548482528286019093526040902091909155611322565b506000611322565b600061131f83600160a060020a038416612263565b815460009082106122255760405160e560020a62461bcd02815260040161048290612e33565b82600001828154811061223457fe5b9060005260206000200154905092915050565b60009081526001919091016020526040902054151590565b5490565b6000818152600183016020526040812054801561231f578354600019808301919081019060009087908390811061229657fe5b90600052602060002001549050808760000184815481106122b357fe5b6000918252602080832090910192909255828152600189810190925260409020908401905586548790806122e357fe5b60019003818190600052602060002001600090559055866001016000878152602001908152602001600020600090556001945050505050611322565b6000915050611322565b5092915050565b82805482825590600052602060002090810192821561237d579160200282015b8281111561237d578251805161236d9184916020909101906123ac565b5091602001919060010190612350565b506123899291506123f3565b5090565b6040805160608082018352600080835260208301529181019190915290565b8280548282559060005260206000209081019282156123e7579160200282015b828111156123e75782518255916020019190600101906123cc565b50612389929150612410565b808211156123895760006124078282612425565b506001016123f3565b5b808211156123895760008155600101612411565b50805460008255906000526020600020908101906124439190612410565b50565b8035600160a060020a038116811461132257600080fd5b60008083601f84011261246e578182fd5b50813567ffffffffffffffff811115612485578182fd5b602083019150836020808302850101111561249f57600080fd5b9250929050565b600082601f8301126124b6578081fd5b81516124c96124c48261334f565b613328565b818152915060208083019084810160005b84811015612503576124f1888484518a010161250e565b845292820192908201906001016124da565b505050505092915050565b600082601f83011261251e578081fd5b815161252c6124c48261334f565b81815291506020808301908481018184028601820187101561254d57600080fd5b60005b8481101561250357815184529282019290820190600101612550565b60008083601f84011261257d578182fd5b50813567ffffffffffffffff811115612594578182fd5b60208301915083602082850101111561249f57600080fd5b600082601f8301126125bc578081fd5b815167ffffffffffffffff8111156125d2578182fd5b6125e5601f8201601f1916602001613328565b91508082528360208285010111156125fc57600080fd5b61232981602084016020860161336f565b600080600080600060808688031215612624578081fd5b61262e8787612446565b945061263d8760208801612446565b935060408601359250606086013567ffffffffffffffff81111561265f578182fd5b61266b8882890161256c565b969995985093965092949392505050565b6000806020838503121561268e578182fd5b823567ffffffffffffffff8111156126a4578283fd5b6126b08582860161245d565b90969095509350505050565b6000602082840312156126cd578081fd5b815167ffffffffffffffff8111156126e3578182fd5b6126ef848285016124a6565b949350505050565b60008060408385031215612709578182fd5b825167ffffffffffffffff80821115612720578384fd5b61272c868387016124a6565b93506020850151915080821115612741578283fd5b5061274e8582860161250e565b9150509250929050565b600060208284031215612769578081fd5b815167ffffffffffffffff81111561277f578182fd5b6126ef8482850161250e565b6000806040838503121561279d578182fd5b825167ffffffffffffffff808211156127b4578384fd5b61272c8683870161250e565b6000602082840312156127d1578081fd5b815180151581146127e0578182fd5b9392505050565b6000602082840312156127f8578081fd5b5035919050565b600060208284031215612810578081fd5b5051919050565b60008060408385031215612829578182fd5b823591506020830135600160a060020a0381168114612846578182fd5b809150509250929050565b60008060408385031215612863578182fd5b50508035926020909101359150565b60008060208385031215612884578182fd5b823567ffffffffffffffff81111561289a578283fd5b6126b08582860161256c565b6000602082840312156128b7578081fd5b815167ffffffffffffffff8111156128cd578182fd5b6126ef848285016125ac565b6000602082840312156128ea578081fd5b815167ffffffffffffffff80821115612901578283fd5b9083019060608286031215612914578283fd5b61291e6060613328565b825181526020830151602082015260408301518281111561293d578485fd5b612949878286016125ac565b60408301525095945050505050565b60008060008060008060808789031215612970578384fd5b8635955060208701359450604087013567ffffffffffffffff80821115612995578586fd5b6129a18a838b0161245d565b909650945060608901359150808211156129b9578283fd5b506129c689828a0161245d565b979a9699509497509295939492505050565b6000602082840312156129e9578081fd5b813560ff811681146127e0578182fd5b6000815180845260208085019450848183028601828601855b85811015612a3c578383038952612a2a838351612ada565b98850198925090840190600101612a12565b5090979650505050505050565b60008284527f07ffffffffffffffffffffffffffffffffffffffffffffffffffffffffffffff831115612a7a578081fd5b6020830280836020870137939093016020019283525090919050565b60007f07ffffffffffffffffffffffffffffffffffffffffffffffffffffffffffffff831115612ac4578081fd5b6020830280838637939093019283525090919050565b6000815180845260208085019450808401835b83811015612b0957815187529582019590820190600101612aed565b509495945050505050565b60008151808452612b2c81602086016020860161336f565b601f01601f19169290920160200192915050565b600081518352602082015160208401526040820151606060408501526126ef6060850182612b14565b6000868252612b86612b7f602084018789612a96565b8486612a96565b979650505050505050565b600160a060020a0391909116815260200190565b600160a060020a039384168152919092166020820152604081019190915260600190565b604080825281018390526000602060608084019082870285010187845b88811015612c5457868303605f190184528135368b9003601e19018112612c0b578687fd5b8a01803567ffffffffffffffff811115612c23578788fd5b86810236038c1315612c33578788fd5b612c408582898501612a49565b958701959450505090840190600101612be6565b50509390910193909352509392505050565b60006020825261131f60208301846129f9565b600060408252612c8c60408301856129f9565b8281036020840152612c9e8185612ada565b95945050505050565b948552602085019390935260408401919091526060830152608082015260a00190565b60006040820160408352808554808352606085019150602092506060838202860101878552838520855b83811015612d4857878303605f1901855281548084528288528688208785019190895b82811015612d3357815484529289019260019182019101612d17565b50505094860194925060019182019101612cf4565b50509290940194909452949350505050565b9283526020830191909152604082015260600190565b60006020825261131f6020830184612ada565b901515815260200190565b90815260200190565b600088825287602083015260a06040830152612db760a083018789612a49565b8281036060840152612dca818688612a49565b91505082608083015298975050505050505050565b7fffffffff0000000000000000000000000000000000000000000000000000000091909116815260200190565b60006020825261131f6020830184612b14565b6020810160068310612e2d57fe5b91905290565b60208082526022908201527f456e756d657261626c655365743a20696e646578206f7574206f6620626f756e60408201527f6473000000000000000000000000000000000000000000000000000000000000606082015260800190565b6020808252600f908201527f4661696c7572652072657665616c210000000000000000000000000000000000604082015260600190565b6020808252602f908201527f416363657373436f6e74726f6c3a2073656e646572206d75737420626520616e60408201527f2061646d696e20746f206772616e740000000000000000000000000000000000606082015260800190565b60208082526016908201527f556e617574686f72697a6564206f7065726174696f6e00000000000000000000604082015260600190565b60208082526012908201527f436f6d6d69746d656e74206e6f74207365740000000000000000000000000000604082015260600190565b60208082526018908201527f50617269746974696f6e20756e696e697469616c697a65640000000000000000604082015260600190565b60208082526016908201527f4a756d70696e67206265747765656e2070686173657300000000000000000000604082015260600190565b60208082526030908201527f416363657373436f6e74726f6c3a2073656e646572206d75737420626520616e60408201527f2061646d696e20746f207265766f6b6500000000000000000000000000000000606082015260800190565b60208082526010908201527f416c72656164792072657665616c656400000000000000000000000000000000604082015260600190565b6020808252602e908201527f446966666572656e74206e756d626572206f662061737369676e6d656e74732060408201527f7468616e2070726f706f73616c73000000000000000000000000000000000000606082015260800190565b60208082526039908201527f496e636f686572656e742064696d656e73696f6e73206265747765656e20617360408201527f7369676e6d656e747320616e64206576616c756174696f6e7300000000000000606082015260800190565b6020808252601e908201527f4d6f72652077696e6e657273207468616e207061727469636970616e74730000604082015260600190565b6020808252602f908201527f416363657373436f6e74726f6c3a2063616e206f6e6c792072656e6f756e636560408201527f20726f6c657320666f722073656c660000000000000000000000000000000000606082015260800190565b60006020825261131f6020830184612b40565b600088825287602083015286604083015260a0606083015261321b60a083018688612a49565b828103608084015261322e818587612a49565b9a9950505050505050505050565b918252602082015260400190565b60008482526040602083015282604083015282846060840137818301606090810191909152601f909201601f1916010192915050565b6000848252606060208301526132996060830185612b40565b9050826040830152949350505050565b6000858252846020830152606060408301526132c9606083018486612a49565b9695505050505050565b60ff91909116815260200190565b6000808335601e198436030181126132f7578283fd5b83018035915067ffffffffffffffff821115613311578283fd5b602090810192508102360382131561249f57600080fd5b60405181810167ffffffffffffffff8111828210171561334757600080fd5b604052919050565b600067ffffffffffffffff821115613365578081fd5b5060209081020190565b60005b8381101561338a578181015183820152602001613372565b83811115610b8f575050600091015256fea264697066735822122092be5ce178b75c2ed65bc71851dc7efdfbb8fd7755ae0f291442b9a597e8e75664736f6c634300060c0033",
  "immutableReferences": {},
  "source": "// SPDX-License-Identifier: MIT\n\npragma solidity >=0.6.0 <0.9.0;\npragma experimental ABIEncoderV2;\n\nimport \"./ImpartialSelection.sol\";\nimport \"./ExactDollarPartitionMap.sol\";\n\n/// @title Impartial Selection Map implementation\n/// @author Giovanni Rescinito\n/// @notice smart contract implementing the system proposed, using a map as support data structure for scores\ncontract ImpartialSelectionMap is ImpartialSelection{\n    Scores.ScoreMap private scoreMap;   // scores data structure implemented as a double map\n    \n    /// @notice creates a new instance of the contract\n    /// @param tokenAddress address of the PET token to connect to the contract\n    constructor(address tokenAddress) ImpartialSelection(tokenAddress) public{}\n\n    /// @notice ends the reveal phase and checks that everyone submitted their scores\n    function endRevealPhase() override public{\n        super.endRevealPhase();\n        ExactDollarPartitionMap.finalizeScoreMap(scoreMap,partition,scoreAccumulated);\n    }\n\n    /// @notice performs the reveal operation and updates the scores\n    /// @param tokenId token used during the commitment phase, to retrieve the corresponding commitment\n    /// @param randomness randomness used to generate the commitment\n    /// @param evaluations scores used to generate the commitment\n    /// @return the evaluations provided\n    function revealEvaluations(uint tokenId, uint randomness, uint[] calldata evaluations, uint[] calldata assignments) override public returns (uint[] memory){\n        uint id = Proposals.getIdFromToken(proposals,tokenId);\n        require(!Scores.checkSubmitted(scoreMap,id), \"Already revealed\");\n        super.revealEvaluations(tokenId, randomness, evaluations, assignments);\n        ExactDollarPartitionMap.addToScoreMap(scoreMap,scoreAccumulated,Proposals.getIdFromToken(proposals,tokenId), assignments, evaluations);\n        return evaluations;\n    }\n\n    /// @notice returns a representation of the scores provided\n    /// @return the scores submitted by users organized in a matrix where each row contains the reviews submitted by a user,\n    ///         while each column contains the reviews received by a user\n    function getScores() view external returns(uint[][] memory){\n        uint n = Proposals.length(proposals);\n        uint[][] memory map= new uint[][](n);\n        uint[] memory peers;\n        uint[] memory scores;\n        for (uint i=0;i<n;i++){\n            (peers,scores) = Scores.reviewsSubmitted(scoreMap,i);\n            map[i] = new uint[](n);\n            for (uint j=0;j<peers.length;j++){\n                map[i][peers[j]] = scores[j];\n            }\n        }\n        return map;\n    }\n}",
  "sourcePath": "C:\\Users\\Claudio\\Desktop\\Tesi\\Codice reviews\\reviews - ipfs\\contracts\\ImpartialSelectionMap.sol",
  "compiler": {
    "name": "solc",
    "version": "0.6.12+commit.27d51765.Emscripten.clang"
  },
  "schemaVersion": "3.4.8",
  "updatedAt": "2022-09-18T09:39:11.271Z",
  "devdoc": {
    "author": "Giovanni Rescinito",
    "kind": "dev",
    "methods": {
      "commitEvaluations(bytes32,uint256)": {
        "params": {
          "commitment": "the commitment to be stored",
          "tokenId": "the token id associated to the proposal for which the assignment was generated"
        }
      },
      "constructor": {
        "params": {
          "tokenAddress": "address of the PET token to connect to the contract"
        }
      },
      "createPartition(uint256)": {
        "params": {
          "l": "the number of clusters to create"
        }
      },
      "generateAssignments(uint256)": {
        "params": {
          "m": "the number of reviews assigned to each user"
        }
      },
      "getAllocations()": {
        "returns": {
          "_0": "the list of possible allocations and a list of their corresponding probabilities of being selected"
        }
      },
      "getAssignmentById(uint256)": {
        "params": {
          "id": "the identifier corresponding to the proposal in the proposals set"
        },
        "returns": {
          "_0": "the list of proposals assigned for the review to the id specified"
        }
      },
      "getAssignmentByToken(uint256)": {
        "params": {
          "tokenId": "the token id corresponding to the proposal for which the assignment is required"
        },
        "returns": {
          "_0": "the list of proposals assigned for the review to the owner of the token identified by tokenId"
        }
      },
      "getCurrentPhase()": {
        "returns": {
          "_0": "a value from the Phases enumeration, representing current state of the contract"
        }
      },
      "getPartition()": {
        "returns": {
          "_0": "the unzipped version of partition data structure, storing clusters"
        }
      },
      "getRoleAdmin(bytes32)": {
        "details": "Returns the admin role that controls `role`. See {grantRole} and {revokeRole}. To change a role's admin, use {_setRoleAdmin}."
      },
      "getRoleMember(bytes32,uint256)": {
        "details": "Returns one of the accounts that have `role`. `index` must be a value between 0 and {getRoleMemberCount}, non-inclusive. Role bearers are not sorted in any particular way, and their ordering may change at any point. WARNING: When using {getRoleMember} and {getRoleMemberCount}, make sure you perform all queries on the same block. See the following https://forum.openzeppelin.com/t/iterating-over-elements-on-enumerableset-in-openzeppelin-contracts/2296[forum post] for more information."
      },
      "getRoleMemberCount(bytes32)": {
        "details": "Returns the number of accounts that have `role`. Can be used together with {getRoleMember} to enumerate all bearers of a role."
      },
      "getScores()": {
        "returns": {
          "_0": "the scores submitted by users organized in a matrix where each row contains the reviews submitted by a user,         while each column contains the reviews received by a user"
        }
      },
      "getTokenAddress()": {
        "returns": {
          "_0": "the address locating the token contract"
        }
      },
      "getWorkById(uint256)": {
        "params": {
          "id": "the identifier corresponding to the proposal in the proposals set"
        },
        "returns": {
          "_0": "the work stored in the proposals set related to the id provided"
        }
      },
      "grantRole(bytes32,address)": {
        "details": "Grants `role` to `account`. If `account` had not been already granted `role`, emits a {RoleGranted} event. Requirements: - the caller must have ``role``'s admin role."
      },
      "hasRole(bytes32,address)": {
        "details": "Returns `true` if `account` has been granted `role`."
      },
      "impartialSelection(uint256,uint256)": {
        "params": {
          "k": "the number of winners to select",
          "randomness": "the randomness used to select the allocation of winners per cluster to use"
        }
      },
      "isImpartialSelection()": {
        "returns": {
          "_0": "the value resulting from the check"
        }
      },
      "onERC721Received(address,address,uint256,bytes)": {
        "params": {
          "data": "eventual data transferred",
          "from": "the owner of the token",
          "operator": "the address transferring the token",
          "tokenId": "the token id"
        },
        "returns": {
          "_0": "the selector of the function"
        }
      },
      "provideAssignments(uint256[][])": {
        "params": {
          "assignments": "the assignment to be stored"
        }
      },
      "providePartition(uint256[][])": {
        "params": {
          "part": "the partition to be stored"
        }
      },
      "renounceRole(bytes32,address)": {
        "details": "Revokes `role` from the calling account. Roles are often managed via {grantRole} and {revokeRole}: this function's purpose is to provide a mechanism for accounts to lose their privileges if they are compromised (such as when a trusted device is misplaced). If the calling account had been granted `role`, emits a {RoleRevoked} event. Requirements: - the caller must be `account`."
      },
      "revealEvaluations(uint256,uint256,uint256[],uint256[])": {
        "params": {
          "evaluations": "scores used to generate the commitment",
          "randomness": "randomness used to generate the commitment",
          "tokenId": "token used during the commitment phase, to retrieve the corresponding commitment"
        },
        "returns": {
          "_0": "the evaluations provided"
        }
      },
      "revokeRole(bytes32,address)": {
        "details": "Revokes `role` from `account`. If `account` had been granted `role`, emits a {RoleRevoked} event. Requirements: - the caller must have ``role``'s admin role."
      },
      "setCurrentPhase(uint8)": {
        "params": {
          "p": "the phase the contract should be put in"
        }
      },
      "submitWork(bytes)": {
        "params": {
          "work": "the work an agent wishes to submit"
        }
      }
    },
    "title": "Impartial Selection Map implementation",
    "version": 1
  },
  "userdoc": {
    "kind": "user",
    "methods": {
      "commitEvaluations(bytes32,uint256)": {
        "notice": "stores a commitment of the evaluations for the assigned reviews on the blockchain, after verifying that the user is authorized"
      },
      "constructor": "creates a new instance of the contract",
      "createPartition(uint256)": {
        "notice": "creates a partition of the proposals using the algorithm defined in the library"
      },
      "endAssignmentPhase()": {
        "notice": "ends assignment phase and starts commitment phase"
      },
      "endCommitmentPhase()": {
        "notice": "ends commitment phase and starts reveal phase"
      },
      "endRevealPhase()": {
        "notice": "ends the reveal phase and checks that everyone submitted their scores"
      },
      "endSubmissionPhase()": {
        "notice": "ends submission phase and starts assignment phase"
      },
      "finalizeCreation()": {
        "notice": "sets the following contract as a minter for PET tokens"
      },
      "generateAssignments(uint256)": {
        "notice": "creates the review assignments to the proposals using the algorithm defined in the library"
      },
      "getAllocations()": {
        "notice": "getter returning the different possible combinations of winners per cluster found by the apportionment algorithm"
      },
      "getAssignmentById(uint256)": {
        "notice": "getter returning the reviews assignment correponding to a given proposal id"
      },
      "getAssignmentByToken(uint256)": {
        "notice": "getter returning the reviews assignment correponding to a given tokenId"
      },
      "getCurrentPhase()": {
        "notice": "getter returning the current phase of the contract"
      },
      "getPartition()": {
        "notice": "getter returning the clusters in which the proposals are divided"
      },
      "getScores()": {
        "notice": "returns a representation of the scores provided"
      },
      "getTokenAddress()": {
        "notice": "getter returning the token contract"
      },
      "getWorkById(uint256)": {
        "notice": "getter returning the work proposed by a specified proposal id"
      },
      "impartialSelection(uint256,uint256)": {
        "notice": "executes the actual selection by invoking Exact Dollar Partition"
      },
      "isImpartialSelection()": {
        "notice": "used by the token to check if the invoking contract is an instance of an impartial selection contract"
      },
      "onERC721Received(address,address,uint256,bytes)": {
        "notice": "callback invoked on receiving a token"
      },
      "provideAssignments(uint256[][])": {
        "notice": "provides an externally created assignment of the reviews to store on the blockchain"
      },
      "providePartition(uint256[][])": {
        "notice": "provides an externally created partition of the proposals to store on the blockchain"
      },
      "revealEvaluations(uint256,uint256,uint256[],uint256[])": {
        "notice": "performs the reveal operation and updates the scores"
      },
      "setCurrentPhase(uint8)": {
        "notice": "updates the current phase of the contract"
      },
      "submitWork(bytes)": {
        "notice": "used to submit a work to the system and to receive the corresponding token minted"
      }
    },
    "notice": "smart contract implementing the system proposed, using a map as support data structure for scores",
    "version": 1
  }
}