{
  "contractName": "ImpartialSelectionNoStorage",
  "abi": [
    {
      "inputs": [
        {
          "internalType": "address",
          "name": "tokenAddress",
          "type": "address"
        }
      ],
      "stateMutability": "nonpayable",
      "type": "constructor"
    },
    {
      "anonymous": false,
      "inputs": [
        {
          "indexed": true,
          "internalType": "bytes32",
          "name": "role",
          "type": "bytes32"
        },
        {
          "indexed": true,
          "internalType": "bytes32",
          "name": "previousAdminRole",
          "type": "bytes32"
        },
        {
          "indexed": true,
          "internalType": "bytes32",
          "name": "newAdminRole",
          "type": "bytes32"
        }
      ],
      "name": "RoleAdminChanged",
      "type": "event"
    },
    {
      "anonymous": false,
      "inputs": [
        {
          "indexed": true,
          "internalType": "bytes32",
          "name": "role",
          "type": "bytes32"
        },
        {
          "indexed": true,
          "internalType": "address",
          "name": "account",
          "type": "address"
        },
        {
          "indexed": true,
          "internalType": "address",
          "name": "sender",
          "type": "address"
        }
      ],
      "name": "RoleGranted",
      "type": "event"
    },
    {
      "anonymous": false,
      "inputs": [
        {
          "indexed": true,
          "internalType": "bytes32",
          "name": "role",
          "type": "bytes32"
        },
        {
          "indexed": true,
          "internalType": "address",
          "name": "account",
          "type": "address"
        },
        {
          "indexed": true,
          "internalType": "address",
          "name": "sender",
          "type": "address"
        }
      ],
      "name": "RoleRevoked",
      "type": "event"
    },
    {
      "inputs": [],
      "name": "DEFAULT_ADMIN_ROLE",
      "outputs": [
        {
          "internalType": "bytes32",
          "name": "",
          "type": "bytes32"
        }
      ],
      "stateMutability": "view",
      "type": "function"
    },
    {
      "inputs": [
        {
          "internalType": "bytes32",
          "name": "commitment",
          "type": "bytes32"
        },
        {
          "internalType": "uint256",
          "name": "tokenId",
          "type": "uint256"
        }
      ],
      "name": "commitEvaluations",
      "outputs": [],
      "stateMutability": "nonpayable",
      "type": "function"
    },
    {
      "inputs": [
        {
          "internalType": "uint256",
          "name": "l",
          "type": "uint256"
        }
      ],
      "name": "createPartition",
      "outputs": [],
      "stateMutability": "nonpayable",
      "type": "function"
    },
    {
      "inputs": [],
      "name": "endAssignmentPhase",
      "outputs": [],
      "stateMutability": "nonpayable",
      "type": "function"
    },
    {
      "inputs": [],
      "name": "endCommitmentPhase",
      "outputs": [],
      "stateMutability": "nonpayable",
      "type": "function"
    },
    {
      "inputs": [],
      "name": "endSubmissionPhase",
      "outputs": [],
      "stateMutability": "nonpayable",
      "type": "function"
    },
    {
      "inputs": [],
      "name": "finalizeCreation",
      "outputs": [],
      "stateMutability": "nonpayable",
      "type": "function"
    },
    {
      "inputs": [
        {
          "internalType": "uint256",
          "name": "m",
          "type": "uint256"
        }
      ],
      "name": "generateAssignments",
      "outputs": [],
      "stateMutability": "nonpayable",
      "type": "function"
    },
    {
      "inputs": [],
      "name": "getAllocations",
      "outputs": [
        {
          "internalType": "uint256[][]",
          "name": "",
          "type": "uint256[][]"
        },
        {
          "internalType": "uint256[]",
          "name": "",
          "type": "uint256[]"
        }
      ],
      "stateMutability": "view",
      "type": "function"
    },
    {
      "inputs": [
        {
          "internalType": "uint256",
          "name": "id",
          "type": "uint256"
        }
      ],
      "name": "getAssignmentById",
      "outputs": [
        {
          "internalType": "uint256[]",
          "name": "",
          "type": "uint256[]"
        }
      ],
      "stateMutability": "view",
      "type": "function"
    },
    {
      "inputs": [
        {
          "internalType": "uint256",
          "name": "tokenId",
          "type": "uint256"
        }
      ],
      "name": "getAssignmentByToken",
      "outputs": [
        {
          "internalType": "uint256[]",
          "name": "",
          "type": "uint256[]"
        }
      ],
      "stateMutability": "view",
      "type": "function"
    },
    {
      "inputs": [],
      "name": "getCurrentPhase",
      "outputs": [
        {
          "internalType": "uint8",
          "name": "",
          "type": "uint8"
        }
      ],
      "stateMutability": "view",
      "type": "function"
    },
    {
      "inputs": [],
      "name": "getPartition",
      "outputs": [
        {
          "internalType": "uint256[][]",
          "name": "",
          "type": "uint256[][]"
        }
      ],
      "stateMutability": "view",
      "type": "function"
    },
    {
      "inputs": [
        {
          "internalType": "bytes32",
          "name": "role",
          "type": "bytes32"
        }
      ],
      "name": "getRoleAdmin",
      "outputs": [
        {
          "internalType": "bytes32",
          "name": "",
          "type": "bytes32"
        }
      ],
      "stateMutability": "view",
      "type": "function"
    },
    {
      "inputs": [
        {
          "internalType": "bytes32",
          "name": "role",
          "type": "bytes32"
        },
        {
          "internalType": "uint256",
          "name": "index",
          "type": "uint256"
        }
      ],
      "name": "getRoleMember",
      "outputs": [
        {
          "internalType": "address",
          "name": "",
          "type": "address"
        }
      ],
      "stateMutability": "view",
      "type": "function"
    },
    {
      "inputs": [
        {
          "internalType": "bytes32",
          "name": "role",
          "type": "bytes32"
        }
      ],
      "name": "getRoleMemberCount",
      "outputs": [
        {
          "internalType": "uint256",
          "name": "",
          "type": "uint256"
        }
      ],
      "stateMutability": "view",
      "type": "function"
    },
    {
      "inputs": [],
      "name": "getTokenAddress",
      "outputs": [
        {
          "internalType": "address",
          "name": "",
          "type": "address"
        }
      ],
      "stateMutability": "view",
      "type": "function"
    },
    {
      "inputs": [
        {
          "internalType": "uint256",
          "name": "id",
          "type": "uint256"
        }
      ],
      "name": "getWorkById",
      "outputs": [
        {
          "internalType": "bytes",
          "name": "",
          "type": "bytes"
        }
      ],
      "stateMutability": "view",
      "type": "function"
    },
    {
      "inputs": [
        {
          "internalType": "bytes32",
          "name": "role",
          "type": "bytes32"
        },
        {
          "internalType": "address",
          "name": "account",
          "type": "address"
        }
      ],
      "name": "grantRole",
      "outputs": [],
      "stateMutability": "nonpayable",
      "type": "function"
    },
    {
      "inputs": [
        {
          "internalType": "bytes32",
          "name": "role",
          "type": "bytes32"
        },
        {
          "internalType": "address",
          "name": "account",
          "type": "address"
        }
      ],
      "name": "hasRole",
      "outputs": [
        {
          "internalType": "bool",
          "name": "",
          "type": "bool"
        }
      ],
      "stateMutability": "view",
      "type": "function"
    },
    {
      "inputs": [
        {
          "internalType": "uint256",
          "name": "k",
          "type": "uint256"
        },
        {
          "internalType": "uint256",
          "name": "randomness",
          "type": "uint256"
        }
      ],
      "name": "impartialSelection",
      "outputs": [],
      "stateMutability": "nonpayable",
      "type": "function"
    },
    {
      "inputs": [],
      "name": "isImpartialSelection",
      "outputs": [
        {
          "internalType": "bool",
          "name": "",
          "type": "bool"
        }
      ],
      "stateMutability": "view",
      "type": "function"
    },
    {
      "inputs": [
        {
          "internalType": "address",
          "name": "operator",
          "type": "address"
        },
        {
          "internalType": "address",
          "name": "from",
          "type": "address"
        },
        {
          "internalType": "uint256",
          "name": "tokenId",
          "type": "uint256"
        },
        {
          "internalType": "bytes",
          "name": "data",
          "type": "bytes"
        }
      ],
      "name": "onERC721Received",
      "outputs": [
        {
          "internalType": "bytes4",
          "name": "",
          "type": "bytes4"
        }
      ],
      "stateMutability": "nonpayable",
      "type": "function"
    },
    {
      "inputs": [
        {
          "internalType": "uint256[][]",
          "name": "assignments",
          "type": "uint256[][]"
        }
      ],
      "name": "provideAssignments",
      "outputs": [],
      "stateMutability": "nonpayable",
      "type": "function"
    },
    {
      "inputs": [
        {
          "internalType": "uint256[][]",
          "name": "part",
          "type": "uint256[][]"
        }
      ],
      "name": "providePartition",
      "outputs": [],
      "stateMutability": "nonpayable",
      "type": "function"
    },
    {
      "inputs": [
        {
          "internalType": "bytes32",
          "name": "role",
          "type": "bytes32"
        },
        {
          "internalType": "address",
          "name": "account",
          "type": "address"
        }
      ],
      "name": "renounceRole",
      "outputs": [],
      "stateMutability": "nonpayable",
      "type": "function"
    },
    {
      "inputs": [
        {
          "internalType": "bytes32",
          "name": "role",
          "type": "bytes32"
        },
        {
          "internalType": "address",
          "name": "account",
          "type": "address"
        }
      ],
      "name": "revokeRole",
      "outputs": [],
      "stateMutability": "nonpayable",
      "type": "function"
    },
    {
      "inputs": [
        {
          "internalType": "uint8",
          "name": "p",
          "type": "uint8"
        }
      ],
      "name": "setCurrentPhase",
      "outputs": [],
      "stateMutability": "nonpayable",
      "type": "function"
    },
    {
      "inputs": [
        {
          "internalType": "bytes",
          "name": "work",
          "type": "bytes"
        }
      ],
      "name": "submitWork",
      "outputs": [],
      "stateMutability": "nonpayable",
      "type": "function"
    },
    {
      "inputs": [],
      "name": "endRevealPhase",
      "outputs": [],
      "stateMutability": "nonpayable",
      "type": "function"
    },
    {
      "inputs": [
        {
          "internalType": "uint256",
          "name": "tokenId",
          "type": "uint256"
        },
        {
          "internalType": "uint256",
          "name": "randomness",
          "type": "uint256"
        },
        {
          "internalType": "uint256[]",
          "name": "evaluations",
          "type": "uint256[]"
        },
        {
          "internalType": "uint256[]",
          "name": "assignments",
          "type": "uint256[]"
        }
      ],
      "name": "revealEvaluations",
      "outputs": [
        {
          "internalType": "uint256[]",
          "name": "",
          "type": "uint256[]"
        }
      ],
      "stateMutability": "nonpayable",
      "type": "function"
    }
  ],
  "bytecode": "0x60806040526002805460ff191690553480156200001b57600080fd5b50604051620031fe380380620031fe8339810160408190526200003e91620001c5565b60098054600160a060020a031916600160a060020a03831617905580620000826000620000736401000000006200008a810204565b6401000000006200008e810204565b5050620001f5565b3390565b620000a38282640100000000620000a7810204565b5050565b6000828152602081905260409020620000cf908264010000000062001a026200012c82021704565b15620000a357620000e86401000000006200008a810204565b600160a060020a031681600160a060020a0316837f2f8788117e7eff1d82e926ec794901d17c78024a50270940304540a733656f0d60405160405180910390a45050565b60006200014c83600160a060020a03841664010000000062000155810204565b90505b92915050565b60006200016c8383640100000000620001ad810204565b620001a4575081546001818101845560008481526020808220909301849055845484825282860190935260409020919091556200014f565b5060006200014f565b60009081526001919091016020526040902054151590565b600060208284031215620001d7578081fd5b8151600160a060020a0381168114620001ee578182fd5b9392505050565b612ff980620002056000396000f3fe608060405234801561001057600080fd5b50600436106101e95760003560e060020a90048063965fdd5c11610113578063c6daf57f116100a6578063d547741f11610075578063d547741f14610402578063e88033bd14610415578063f4e4a10214610428578063f803f6a614610430576101e9565b8063c6daf57f146103b4578063c8184fa0146103c7578063ca15c873146103dc578063cd3f2910146103ef576101e9565b8063a5f4097b116100e2578063a5f4097b14610371578063afbde96314610384578063b3619e711461038c578063bdf1fcc914610394576101e9565b8063965fdd5c146103395780639969744614610341578063a217fddf14610354578063a3a40ea51461035c576101e9565b806336568abe1161018b5780635da153651161015a5780635da15365146102d057806365ed6e23146102f05780639010d07c1461030657806391d1485414610319576101e9565b806336568abe1461028f5780634645a954146102a2578063509dbe68146102b557806358b3476a146102c8576101e9565b80631ab27c4c116101c75780631ab27c4c14610241578063248a9ca3146102545780632f2ff15d1461027457806334b6d08114610287576101e9565b80630d9ff8f6146101ee57806310fe9ae814610203578063150b7a0214610221575b600080fd5b6102016101fc3660046122f6565b610443565b005b61020b6105a5565b60405161021891906127b9565b60405180910390f35b61023461022f366004612287565b6105b4565b6040516102189190612a07565b61020161024f366004612490565b6105de565b610267610262366004612405565b610829565b60405161021891906129b6565b610201610282366004612435565b61083e565b610201610889565b61020161029d366004612435565b610916565b6102016102b036600461246f565b61095b565b6102016102c33660046122f6565b610ace565b610201610cd1565b6102e36102de366004612576565b610d44565b6040516102189190612998565b6102f8610ee7565b6040516102189291906128a1565b61020b61031436600461246f565b610f81565b61032c610327366004612435565b610fa2565b60405161021891906129ab565b610201610fba565b6102e361034f366004612405565b61102d565b61026761114d565b610364611152565b6040516102189190612efb565b61020161037f366004612405565b61115b565b6102016112ad565b610201611324565b6103a76103a2366004612405565b611396565b6040516102189190612a34565b6102016103c2366004612405565b6114b6565b6103cf6115fc565b604051610218919061288e565b6102676103ea366004612405565b6116ac565b6102016103fd3660046125f6565b6116c3565b610201610410366004612435565b611734565b6102e3610423366004612405565b611771565b61032c6117c7565b61020161043e36600461246f565b6117d8565b6104506000610327611a17565b6104785760405160e560020a62461bcd02815260040161046f90612b93565b60405180910390fd5b60405160e060020a6340b694b502815273__Phases________________________________906340b694b5906104b390600190600401612a47565b60006040518083038186803b1580156104cb57600080fd5b505af41580156104df573d6000803e3d6000fd5b50506040517fbc0ebb4b00000000000000000000000000000000000000000000000000000000815273__Zipper________________________________925063bc0ebb4b915061053890859085906010906004016127f1565b60006040518083038186803b15801561055057600080fd5b505af4158015610564573d6000803e3d6000fd5b505050506040513d6000823e601f3d908101601f1916820160405261058c9190810190612336565b80516105a091600191602090910190611faa565b505050565b600954600160a060020a031690565b7f150b7a020000000000000000000000000000000000000000000000000000000095945050505050565b60405160e060020a6340b694b502815273__Phases________________________________906340b694b59061061990600090600401612a47565b60006040518083038186803b15801561063157600080fd5b505af4158015610645573d6000803e3d6000fd5b50505050610651612007565b6040517fa33265fe00000000000000000000000000000000000000000000000000000000815273__Proposals_____________________________9063a33265fe906106a69060069087908790600401612e64565b60006040518083038186803b1580156106be57600080fd5b505af41580156106d2573d6000803e3d6000fd5b505050506040513d6000823e601f3d908101601f191682016040526106fa91908101906124f7565b6009546040517f6a627842000000000000000000000000000000000000000000000000000000008152919250600091600160a060020a0390911690636a627842906107499033906004016127b9565b602060405180830381600087803b15801561076357600080fd5b505af1158015610777573d6000803e3d6000fd5b505050506040513d601f19601f8201168201806040525081019061079b919061241d565b6040517f0323d6ce00000000000000000000000000000000000000000000000000000000815290915073__Proposals_____________________________90630323d6ce906107f39060069086908690600401612e9a565b60006040518083038186803b15801561080b57600080fd5b505af415801561081f573d6000803e3d6000fd5b5050505050505050565b60009081526020819052604090206002015490565b60008281526020819052604090206002015461085c90610327611a17565b61087b5760405160e560020a62461bcd02815260040161046f90612b36565b6108858282611a1b565b5050565b6108966000610327611a17565b6108b55760405160e560020a62461bcd02815260040161046f90612b93565b73__Phases________________________________6334b6d0816040518163ffffffff1660e060020a02815260040160006040518083038186803b1580156108fc57600080fd5b505af4158015610910573d6000803e3d6000fd5b50505050565b61091e611a17565b600160a060020a031681600160a060020a0316146109515760405160e560020a62461bcd02815260040161046f90612df4565b6108858282611a84565b60405160e060020a6340b694b502815273__Phases________________________________906340b694b59061099690600290600401612a47565b60006040518083038186803b1580156109ae57600080fd5b505af41580156109c2573d6000803e3d6000fd5b50506009546040517f42842e0e000000000000000000000000000000000000000000000000000000008152600160a060020a0390911692506342842e0e9150610a13903390309086906004016127cd565b600060405180830381600087803b158015610a2d57600080fd5b505af1158015610a41573d6000803e3d6000fd5b50506040517fa388609b00000000000000000000000000000000000000000000000000000000815273__Proposals_____________________________925063a388609b9150610a9a9060069085908790600401612982565b60006040518083038186803b158015610ab257600080fd5b505af4158015610ac6573d6000803e3d6000fd5b505050505050565b610adb6000610327611a17565b610afa5760405160e560020a62461bcd02815260040161046f90612b93565b60405160e060020a6340b694b502815273__Phases________________________________906340b694b590610b3590600190600401612a47565b60006040518083038186803b158015610b4d57600080fd5b505af4158015610b61573d6000803e3d6000fd5b50506040517f614d273c0000000000000000000000000000000000000000000000000000000081526000925073__Proposals_____________________________915063614d273c90610bb9906006906004016129b6565b60206040518083038186803b158015610bd157600080fd5b505af4158015610be5573d6000803e3d6000fd5b505050506040513d601f19601f82011682018060405250810190610c09919061241d565b9050818114610c2d5760405160e560020a62461bcd02815260040161046f90612d03565b60005b818110156109105773__Proposals_____________________________63b38d0c58600683878786818110610c6157fe5b9050602002810190610c739190612f09565b6040518563ffffffff1660e060020a028152600401610c959493929190612ed1565b60006040518083038186803b158015610cad57600080fd5b505af4158015610cc1573d6000803e3d6000fd5b505060019092019150610c309050565b610cde6000610327611a17565b610cfd5760405160e560020a62461bcd02815260040161046f90612b93565b73__Phases________________________________6358b3476a6040518163ffffffff1660e060020a02815260040160006040518083038186803b1580156108fc57600080fd5b6060600073__Proposals_____________________________63ed98094160068a6040518363ffffffff1660e060020a028152600401610d85929190612ec3565b60206040518083038186803b158015610d9d57600080fd5b505af4158015610db1573d6000803e3d6000fd5b505050506040513d601f19601f82011682018060405250810190610dd5919061241d565b6000818152600a602052604090205490915060ff1615610e0a5760405160e560020a62461bcd02815260040161046f90612ccc565b610e18888888888888611aed565b506040517f3712966400000000000000000000000000000000000000000000000000000000815273__ExactDollarPartitionNoStorage_________90633712966490610e7790600a9060039086908a908a908e908e90600401612a5b565b60006040518083038186803b158015610e8f57600080fd5b505af4158015610ea3573d6000803e3d6000fd5b50505050858580806020026020016040519081016040528093929190818152602001838360200280828437600092019190915250929b9a5050505050505050505050565b60608073__Allocations___________________________63a239e25660046040518263ffffffff1660e060020a028152600401610f2591906129b6565b60006040518083038186803b158015610f3d57600080fd5b505af4158015610f51573d6000803e3d6000fd5b505050506040513d6000823e601f3d908101601f19168201604052610f799190810190612371565b915091509091565b6000828152602081905260408120610f999083611d7b565b90505b92915050565b6000828152602081905260408120610f999083611d87565b610fc76000610327611a17565b610fe65760405160e560020a62461bcd02815260040161046f90612b93565b73__Phases________________________________63965fdd5c6040518163ffffffff1660e060020a02815260040160006040518083038186803b1580156108fc57600080fd5b606073__Proposals_____________________________63c12c372873__Proposals_____________________________638ff608e16006866040518363ffffffff1660e060020a028152600401611086929190612ec3565b60006040518083038186803b15801561109e57600080fd5b505af41580156110b2573d6000803e3d6000fd5b505050506040513d6000823e601f3d908101601f191682016040526110da91908101906124f7565b6040518263ffffffff1660e060020a0281526004016110f99190612e51565b60006040518083038186803b15801561111157600080fd5b505af4158015611125573d6000803e3d6000fd5b505050506040513d6000823e601f3d908101601f19168201604052610f9c91908101906123d2565b600081565b60025460ff1690565b6111686000610327611a17565b6111875760405160e560020a62461bcd02815260040161046f90612b93565b60405160e060020a6340b694b502815273__Phases________________________________906340b694b5906111c290600190600401612a47565b60006040518083038186803b1580156111da57600080fd5b505af41580156111ee573d6000803e3d6000fd5b50506040517fd4c97d6f00000000000000000000000000000000000000000000000000000000815273__ExactDollarPartition__________________925063d4c97d6f9150611245906006908590600401612ec3565b60006040518083038186803b15801561125d57600080fd5b505af4158015611271573d6000803e3d6000fd5b505050506040513d6000823e601f3d908101601f191682016040526112999190810190612336565b805161088591600191602090910190611faa565b6112b5611d9c565b6040517fa5a7277700000000000000000000000000000000000000000000000000000000815273__ExactDollarPartitionNoStorage_________9063a5a727779061130c90600a90600190600390600401612982565b60006040518083038186803b1580156108fc57600080fd5b61132f60003061083e565b600960009054906101000a9004600160a060020a0316600160a060020a031663031cf5866040518163ffffffff1660e060020a028152600401600060405180830381600087803b15801561138257600080fd5b505af1158015610910573d6000803e3d6000fd5b606073__Proposals_____________________________63ef64a3ca73__Proposals_____________________________638ff608e16006866040518363ffffffff1660e060020a0281526004016113ef929190612ec3565b60006040518083038186803b15801561140757600080fd5b505af415801561141b573d6000803e3d6000fd5b505050506040513d6000823e601f3d908101601f1916820160405261144391908101906124f7565b6040518263ffffffff1660e060020a0281526004016114629190612e51565b60006040518083038186803b15801561147a57600080fd5b505af415801561148e573d6000803e3d6000fd5b505050506040513d6000823e601f3d908101601f19168201604052610f9c91908101906124c4565b6114c36000610327611a17565b6114e25760405160e560020a62461bcd02815260040161046f90612b93565b60405160e060020a6340b694b502815273__Phases________________________________906340b694b59061151d90600190600401612a47565b60006040518083038186803b15801561153557600080fd5b505af4158015611549573d6000803e3d6000fd5b50506001541515915061157390505760405160e560020a62461bcd02815260040161046f90612c01565b6040517fdfaf519400000000000000000000000000000000000000000000000000000000815273__ExactDollarPartition__________________9063dfaf5194906115c9906001906006908690600401612982565b60006040518083038186803b1580156115e157600080fd5b505af41580156115f5573d6000803e3d6000fd5b5050505050565b6040517f3bfd520600000000000000000000000000000000000000000000000000000000815260609073__Zipper________________________________90633bfd520690611653906001906010906004016128f2565b60006040518083038186803b15801561166b57600080fd5b505af415801561167f573d6000803e3d6000fd5b505050506040513d6000823e601f3d908101601f191682016040526116a79190810190612336565b905090565b6000818152602081905260408120610f9c90611e0f565b6116d06000610327611a17565b6116ef5760405160e560020a62461bcd02815260040161046f90612b93565b60025460ff828116918116600101161461171e5760405160e560020a62461bcd02815260040161046f90612c38565b6002805460ff191660ff92909216919091179055565b60008281526020819052604090206002015461175290610327611a17565b6109515760405160e560020a62461bcd02815260040161046f90612c6f565b6040517f313500ce00000000000000000000000000000000000000000000000000000000815260609073__Proposals_____________________________9063313500ce906110f9906006908690600401612ec3565b600954600160a060020a0316331490565b6117e56000610327611a17565b6118045760405160e560020a62461bcd02815260040161046f90612b93565b60405160e060020a6340b694b502815273__Phases________________________________906340b694b59061183e906004908101612a47565b60006040518083038186803b15801561185657600080fd5b505af415801561186a573d6000803e3d6000fd5b50506040517f614d273c00000000000000000000000000000000000000000000000000000000815273__Proposals_____________________________925063614d273c91506118bf906006906004016129b6565b60206040518083038186803b1580156118d757600080fd5b505af41580156118eb573d6000803e3d6000fd5b505050506040513d601f19601f8201168201806040525081019061190f919061241d565b8211156119315760405160e560020a62461bcd02815260040161046f90612dbd565b6040517ff3ce16ea00000000000000000000000000000000000000000000000000000000815273__ExactDollarPartition__________________9063f3ce16ea9061198b906001906003906004908790899083016128cf565b60006040518083038186803b1580156119a357600080fd5b505af41580156119b7573d6000803e3d6000fd5b5050505073__Phases________________________________63f7ad24d16040518163ffffffff1660e060020a02815260040160006040518083038186803b158015610ab257600080fd5b6000610f9983600160a060020a038416611e1a565b3390565b6000828152602081905260409020611a339082611a02565b1561088557611a40611a17565b600160a060020a031681600160a060020a0316837f2f8788117e7eff1d82e926ec794901d17c78024a50270940304540a733656f0d60405160405180910390a45050565b6000828152602081905260409020611a9c9082611e64565b1561088557611aa9611a17565b600160a060020a031681600160a060020a0316837ff6391f5c32d9c69d2a47ea670b442974b53935d1edc7fd64eb21e047a839171b60405160405180910390a45050565b60405160e060020a6340b694b502815260609073__Phases________________________________906340b694b590611b2b90600390600401612a47565b60006040518083038186803b158015611b4357600080fd5b505af4158015611b57573d6000803e3d6000fd5b50505050611b63612007565b6040517f1aed6b1500000000000000000000000000000000000000000000000000000000815273__Proposals_____________________________90631aed6b1590611bb6906006908c90600401612ec3565b60006040518083038186803b158015611bce57600080fd5b505af4158015611be2573d6000803e3d6000fd5b505050506040513d6000823e601f3d908101601f19168201604052611c0a91908101906124f7565b9050600073__Proposals_____________________________63354de09f836040518263ffffffff1660e060020a028152600401611c489190612e51565b60206040518083038186803b158015611c6057600080fd5b505af4158015611c74573d6000803e3d6000fd5b505050506040513d601f19601f82011682018060405250810190611c98919061241d565b905080611cba5760405160e560020a62461bcd02815260040161046f90612bca565b838614611cdc5760405160e560020a62461bcd02815260040161046f90612d60565b808886868a8a604051602001611cf6959493929190612791565b6040516020818303038152906040528051906020012014611d2c5760405160e560020a62461bcd02815260040161046f90612aff565b7f2b73c41c52d6947c712d5234600fcea9d10b503536c0ad725e635c86692c0ab3818987878b8b8f604051611d6797969594939291906129bf565b60405180910390a150509695505050505050565b6000610f998383611e79565b6000610f9983600160a060020a038416611ec1565b611da96000610327611a17565b611dc85760405160e560020a62461bcd02815260040161046f90612b93565b73__Phases________________________________63afbde9636040518163ffffffff1660e060020a02815260040160006040518083038186803b1580156108fc57600080fd5b6000610f9c82611ed9565b6000611e268383611ec1565b611e5c57508154600181810184556000848152602080822090930184905584548482528286019093526040902091909155610f9c565b506000610f9c565b6000610f9983600160a060020a038416611edd565b81546000908210611e9f5760405160e560020a62461bcd02815260040161046f90612aa2565b826000018281548110611eae57fe5b9060005260206000200154905092915050565b60009081526001919091016020526040902054151590565b5490565b60008181526001830160205260408120548015611f995783546000198083019190810190600090879083908110611f1057fe5b9060005260206000200154905080876000018481548110611f2d57fe5b600091825260208083209091019290925582815260018981019092526040902090840190558654879080611f5d57fe5b60019003818190600052602060002001600090559055866001016000878152602001908152602001600020600090556001945050505050610f9c565b6000915050610f9c565b5092915050565b828054828255906000526020600020908101928215611ff7579160200282015b82811115611ff75782518051611fe7918491602090910190612026565b5091602001919060010190611fca565b5061200392915061206d565b5090565b6040805160608082018352600080835260208301529181019190915290565b828054828255906000526020600020908101928215612061579160200282015b82811115612061578251825591602001919060010190612046565b5061200392915061208a565b80821115612003576000612081828261209f565b5060010161206d565b5b80821115612003576000815560010161208b565b50805460008255906000526020600020908101906120bd919061208a565b50565b8035600160a060020a0381168114610f9c57600080fd5b60008083601f8401126120e8578182fd5b50813567ffffffffffffffff8111156120ff578182fd5b602083019150836020808302850101111561211957600080fd5b9250929050565b600082601f830112612130578081fd5b815161214361213e82612f77565b612f50565b818152915060208083019084810160005b8481101561217d5761216b888484518a0101612188565b84529282019290820190600101612154565b505050505092915050565b600082601f830112612198578081fd5b81516121a661213e82612f77565b8181529150602080830190848101818402860182018710156121c757600080fd5b60005b8481101561217d578151845292820192908201906001016121ca565b60008083601f8401126121f7578182fd5b50813567ffffffffffffffff81111561220e578182fd5b60208301915083602082850101111561211957600080fd5b600082601f830112612236578081fd5b815167ffffffffffffffff81111561224c578182fd5b61225f601f8201601f1916602001612f50565b915080825283602082850101111561227657600080fd5b611fa3816020840160208601612f97565b60008060008060006080868803121561229e578081fd5b6122a887876120c0565b94506122b787602088016120c0565b935060408601359250606086013567ffffffffffffffff8111156122d9578182fd5b6122e5888289016121e6565b969995985093965092949392505050565b60008060208385031215612308578182fd5b823567ffffffffffffffff81111561231e578283fd5b61232a858286016120d7565b90969095509350505050565b600060208284031215612347578081fd5b815167ffffffffffffffff81111561235d578182fd5b61236984828501612120565b949350505050565b60008060408385031215612383578182fd5b825167ffffffffffffffff8082111561239a578384fd5b6123a686838701612120565b935060208501519150808211156123bb578283fd5b506123c885828601612188565b9150509250929050565b6000602082840312156123e3578081fd5b815167ffffffffffffffff8111156123f9578182fd5b61236984828501612188565b600060208284031215612416578081fd5b5035919050565b60006020828403121561242e578081fd5b5051919050565b60008060408385031215612447578182fd5b823591506020830135600160a060020a0381168114612464578182fd5b809150509250929050565b60008060408385031215612481578182fd5b50508035926020909101359150565b600080602083850312156124a2578182fd5b823567ffffffffffffffff8111156124b8578283fd5b61232a858286016121e6565b6000602082840312156124d5578081fd5b815167ffffffffffffffff8111156124eb578182fd5b61236984828501612226565b600060208284031215612508578081fd5b815167ffffffffffffffff8082111561251f578283fd5b9083019060608286031215612532578283fd5b61253c6060612f50565b825181526020830151602082015260408301518281111561255b578485fd5b61256787828601612226565b60408301525095945050505050565b6000806000806000806080878903121561258e578384fd5b8635955060208701359450604087013567ffffffffffffffff808211156125b3578586fd5b6125bf8a838b016120d7565b909650945060608901359150808211156125d7578283fd5b506125e489828a016120d7565b979a9699509497509295939492505050565b600060208284031215612607578081fd5b813560ff81168114612617578182fd5b9392505050565b6000815180845260208085018081965082840281019150828601855b85811015612664578284038952612652848351612702565b9885019893509084019060010161263a565b5091979650505050505050565b60008284527f07ffffffffffffffffffffffffffffffffffffffffffffffffffffffffffffff8311156126a2578081fd5b6020830280836020870137939093016020019283525090919050565b60007f07ffffffffffffffffffffffffffffffffffffffffffffffffffffffffffffff8311156126ec578081fd5b6020830280838637939093019283525090919050565b6000815180845260208085019450808401835b8381101561273157815187529582019590820190600101612715565b509495945050505050565b60008151808452612754816020860160208601612f97565b601f01601f19169290920160200192915050565b60008151835260208201516020840152604082015160606040850152612369606085018261273c565b60008682526127ae6127a76020840187896126be565b84866126be565b979650505050505050565b600160a060020a0391909116815260200190565b600160a060020a039384168152919092166020820152604081019190915260600190565b604080825281018390526000602060608084019082870285010187845b8881101561287c57868303605f190184528135368b9003601e19018112612833578687fd5b8a01803567ffffffffffffffff81111561284b578788fd5b86810236038c131561285b578788fd5b6128688582898501612671565b95870195945050509084019060010161280e565b50509390910193909352509392505050565b600060208252610f99602083018461261e565b6000604082526128b4604083018561261e565b82810360208401526128c68185612702565b95945050505050565b948552602085019390935260408401919091526060830152608082015260a00190565b60006040820160408352808554808352606085019150602092506060838202860101878552838520855b8381101561297057878303605f1901855281548084528288528688208785019190895b8281101561295b5781548452928901926001918201910161293f565b5050509486019492506001918201910161291c565b50509290940194909452949350505050565b9283526020830191909152604082015260600190565b600060208252610f996020830184612702565b901515815260200190565b90815260200190565b600088825287602083015260a060408301526129df60a083018789612671565b82810360608401526129f2818688612671565b91505082608083015298975050505050505050565b7fffffffff0000000000000000000000000000000000000000000000000000000091909116815260200190565b600060208252610f99602083018461273c565b6020810160068310612a5557fe5b91905290565b600088825287602083015286604083015260a06060830152612a8160a083018688612671565b8281036080840152612a94818587612671565b9a9950505050505050505050565b60208082526022908201527f456e756d657261626c655365743a20696e646578206f7574206f6620626f756e60408201527f6473000000000000000000000000000000000000000000000000000000000000606082015260800190565b6020808252600f908201527f4661696c7572652072657665616c210000000000000000000000000000000000604082015260600190565b6020808252602f908201527f416363657373436f6e74726f6c3a2073656e646572206d75737420626520616e60408201527f2061646d696e20746f206772616e740000000000000000000000000000000000606082015260800190565b60208082526016908201527f556e617574686f72697a6564206f7065726174696f6e00000000000000000000604082015260600190565b60208082526012908201527f436f6d6d69746d656e74206e6f74207365740000000000000000000000000000604082015260600190565b60208082526018908201527f50617269746974696f6e20756e696e697469616c697a65640000000000000000604082015260600190565b60208082526016908201527f4a756d70696e67206265747765656e2070686173657300000000000000000000604082015260600190565b60208082526030908201527f416363657373436f6e74726f6c3a2073656e646572206d75737420626520616e60408201527f2061646d696e20746f207265766f6b6500000000000000000000000000000000606082015260800190565b60208082526010908201527f416c72656164792072657665616c656400000000000000000000000000000000604082015260600190565b6020808252602e908201527f446966666572656e74206e756d626572206f662061737369676e6d656e74732060408201527f7468616e2070726f706f73616c73000000000000000000000000000000000000606082015260800190565b60208082526039908201527f496e636f686572656e742064696d656e73696f6e73206265747765656e20617360408201527f7369676e6d656e747320616e64206576616c756174696f6e7300000000000000606082015260800190565b6020808252601e908201527f4d6f72652077696e6e657273207468616e207061727469636970616e74730000604082015260600190565b6020808252602f908201527f416363657373436f6e74726f6c3a2063616e206f6e6c792072656e6f756e636560408201527f20726f6c657320666f722073656c660000000000000000000000000000000000606082015260800190565b600060208252610f996020830184612768565b60008482526040602083015282604083015282846060840137818301606090810191909152601f909201601f1916010192915050565b600084825260606020830152612eb36060830185612768565b9050826040830152949350505050565b918252602082015260400190565b600085825284602083015260606040830152612ef1606083018486612671565b9695505050505050565b60ff91909116815260200190565b6000808335601e19843603018112612f1f578283fd5b83018035915067ffffffffffffffff821115612f39578283fd5b602090810192508102360382131561211957600080fd5b60405181810167ffffffffffffffff81118282101715612f6f57600080fd5b604052919050565b600067ffffffffffffffff821115612f8d578081fd5b5060209081020190565b60005b83811015612fb2578181015183820152602001612f9a565b83811115610910575050600091015256fea2646970667358221220d1573f02d971932e8b77b84c1f45d1013c4eefd409f98dfbbb27cd62b39e341864736f6c634300060c0033",
  "immutableReferences": {},
  "source": "// SPDX-License-Identifier: MIT\n\npragma solidity >=0.6.0 <0.9.0;\npragma experimental ABIEncoderV2;\n\nimport \"./ImpartialSelection.sol\";\nimport \"./ExactDollarPartitionNoStorage.sol\";\n\n/// @title Impartial Selection noStorage implementation\n/// @author Giovanni Rescinito\n/// @notice smart contract implementing the system proposed, using no data structures for storing scores\ncontract ImpartialSelectionNoStorage is ImpartialSelection{\n    mapping(uint=>bool) private revealed;       // dictionary containing information about whether a proposal's commitment was revealed\n    \n    /// @notice creates a new instance of the contract\n    /// @param tokenAddress address of the PET token to connect to the contract\n    constructor(address tokenAddress) ImpartialSelection(tokenAddress) public{}\n\n    /// @notice ends the reveal phase and checks that everyone submitted their scores\n    function endRevealPhase() public override{\n        super.endRevealPhase();\n        ExactDollarPartitionNoStorage.finalizeScores(revealed,partition,scoreAccumulated);\n    }\n\n    /// @notice performs the reveal operation and updates the scores\n    /// @param tokenId token used during the commitment phase, to retrieve the corresponding commitment\n    /// @param randomness randomness used to generate the commitment\n    /// @param evaluations scores used to generate the commitment\n    /// @return the evaluations provided\n    function revealEvaluations(uint tokenId, uint randomness, uint[] calldata evaluations, uint[] calldata assignments) public override returns (uint[] memory){\n        uint id = Proposals.getIdFromToken(proposals,tokenId);\n        require(!revealed[id], \"Already revealed\");\n        super.revealEvaluations(tokenId, randomness, evaluations, assignments);\n        ExactDollarPartitionNoStorage.addScores(revealed,scoreAccumulated,id, assignments, evaluations);\n        return evaluations;\n    }\n}",
  "sourcePath": "C:\\Users\\Claudio\\Desktop\\Tesi\\Codice reviews\\reviews - ipfs\\contracts\\ImpartialSelectionNoStorage.sol",
  "compiler": {
    "name": "solc",
    "version": "0.6.12+commit.27d51765.Emscripten.clang"
  },
  "schemaVersion": "3.4.8",
  "updatedAt": "2022-09-18T09:39:11.278Z",
  "devdoc": {
    "author": "Giovanni Rescinito",
    "kind": "dev",
    "methods": {
      "commitEvaluations(bytes32,uint256)": {
        "params": {
          "commitment": "the commitment to be stored",
          "tokenId": "the token id associated to the proposal for which the assignment was generated"
        }
      },
      "constructor": {
        "params": {
          "tokenAddress": "address of the PET token to connect to the contract"
        }
      },
      "createPartition(uint256)": {
        "params": {
          "l": "the number of clusters to create"
        }
      },
      "generateAssignments(uint256)": {
        "params": {
          "m": "the number of reviews assigned to each user"
        }
      },
      "getAllocations()": {
        "returns": {
          "_0": "the list of possible allocations and a list of their corresponding probabilities of being selected"
        }
      },
      "getAssignmentById(uint256)": {
        "params": {
          "id": "the identifier corresponding to the proposal in the proposals set"
        },
        "returns": {
          "_0": "the list of proposals assigned for the review to the id specified"
        }
      },
      "getAssignmentByToken(uint256)": {
        "params": {
          "tokenId": "the token id corresponding to the proposal for which the assignment is required"
        },
        "returns": {
          "_0": "the list of proposals assigned for the review to the owner of the token identified by tokenId"
        }
      },
      "getCurrentPhase()": {
        "returns": {
          "_0": "a value from the Phases enumeration, representing current state of the contract"
        }
      },
      "getPartition()": {
        "returns": {
          "_0": "the unzipped version of partition data structure, storing clusters"
        }
      },
      "getRoleAdmin(bytes32)": {
        "details": "Returns the admin role that controls `role`. See {grantRole} and {revokeRole}. To change a role's admin, use {_setRoleAdmin}."
      },
      "getRoleMember(bytes32,uint256)": {
        "details": "Returns one of the accounts that have `role`. `index` must be a value between 0 and {getRoleMemberCount}, non-inclusive. Role bearers are not sorted in any particular way, and their ordering may change at any point. WARNING: When using {getRoleMember} and {getRoleMemberCount}, make sure you perform all queries on the same block. See the following https://forum.openzeppelin.com/t/iterating-over-elements-on-enumerableset-in-openzeppelin-contracts/2296[forum post] for more information."
      },
      "getRoleMemberCount(bytes32)": {
        "details": "Returns the number of accounts that have `role`. Can be used together with {getRoleMember} to enumerate all bearers of a role."
      },
      "getTokenAddress()": {
        "returns": {
          "_0": "the address locating the token contract"
        }
      },
      "getWorkById(uint256)": {
        "params": {
          "id": "the identifier corresponding to the proposal in the proposals set"
        },
        "returns": {
          "_0": "the work stored in the proposals set related to the id provided"
        }
      },
      "grantRole(bytes32,address)": {
        "details": "Grants `role` to `account`. If `account` had not been already granted `role`, emits a {RoleGranted} event. Requirements: - the caller must have ``role``'s admin role."
      },
      "hasRole(bytes32,address)": {
        "details": "Returns `true` if `account` has been granted `role`."
      },
      "impartialSelection(uint256,uint256)": {
        "params": {
          "k": "the number of winners to select",
          "randomness": "the randomness used to select the allocation of winners per cluster to use"
        }
      },
      "isImpartialSelection()": {
        "returns": {
          "_0": "the value resulting from the check"
        }
      },
      "onERC721Received(address,address,uint256,bytes)": {
        "params": {
          "data": "eventual data transferred",
          "from": "the owner of the token",
          "operator": "the address transferring the token",
          "tokenId": "the token id"
        },
        "returns": {
          "_0": "the selector of the function"
        }
      },
      "provideAssignments(uint256[][])": {
        "params": {
          "assignments": "the assignment to be stored"
        }
      },
      "providePartition(uint256[][])": {
        "params": {
          "part": "the partition to be stored"
        }
      },
      "renounceRole(bytes32,address)": {
        "details": "Revokes `role` from the calling account. Roles are often managed via {grantRole} and {revokeRole}: this function's purpose is to provide a mechanism for accounts to lose their privileges if they are compromised (such as when a trusted device is misplaced). If the calling account had been granted `role`, emits a {RoleRevoked} event. Requirements: - the caller must be `account`."
      },
      "revealEvaluations(uint256,uint256,uint256[],uint256[])": {
        "params": {
          "evaluations": "scores used to generate the commitment",
          "randomness": "randomness used to generate the commitment",
          "tokenId": "token used during the commitment phase, to retrieve the corresponding commitment"
        },
        "returns": {
          "_0": "the evaluations provided"
        }
      },
      "revokeRole(bytes32,address)": {
        "details": "Revokes `role` from `account`. If `account` had been granted `role`, emits a {RoleRevoked} event. Requirements: - the caller must have ``role``'s admin role."
      },
      "setCurrentPhase(uint8)": {
        "params": {
          "p": "the phase the contract should be put in"
        }
      },
      "submitWork(bytes)": {
        "params": {
          "work": "the work an agent wishes to submit"
        }
      }
    },
    "title": "Impartial Selection noStorage implementation",
    "version": 1
  },
  "userdoc": {
    "kind": "user",
    "methods": {
      "commitEvaluations(bytes32,uint256)": {
        "notice": "stores a commitment of the evaluations for the assigned reviews on the blockchain, after verifying that the user is authorized"
      },
      "constructor": "creates a new instance of the contract",
      "createPartition(uint256)": {
        "notice": "creates a partition of the proposals using the algorithm defined in the library"
      },
      "endAssignmentPhase()": {
        "notice": "ends assignment phase and starts commitment phase"
      },
      "endCommitmentPhase()": {
        "notice": "ends commitment phase and starts reveal phase"
      },
      "endRevealPhase()": {
        "notice": "ends the reveal phase and checks that everyone submitted their scores"
      },
      "endSubmissionPhase()": {
        "notice": "ends submission phase and starts assignment phase"
      },
      "finalizeCreation()": {
        "notice": "sets the following contract as a minter for PET tokens"
      },
      "generateAssignments(uint256)": {
        "notice": "creates the review assignments to the proposals using the algorithm defined in the library"
      },
      "getAllocations()": {
        "notice": "getter returning the different possible combinations of winners per cluster found by the apportionment algorithm"
      },
      "getAssignmentById(uint256)": {
        "notice": "getter returning the reviews assignment correponding to a given proposal id"
      },
      "getAssignmentByToken(uint256)": {
        "notice": "getter returning the reviews assignment correponding to a given tokenId"
      },
      "getCurrentPhase()": {
        "notice": "getter returning the current phase of the contract"
      },
      "getPartition()": {
        "notice": "getter returning the clusters in which the proposals are divided"
      },
      "getTokenAddress()": {
        "notice": "getter returning the token contract"
      },
      "getWorkById(uint256)": {
        "notice": "getter returning the work proposed by a specified proposal id"
      },
      "impartialSelection(uint256,uint256)": {
        "notice": "executes the actual selection by invoking Exact Dollar Partition"
      },
      "isImpartialSelection()": {
        "notice": "used by the token to check if the invoking contract is an instance of an impartial selection contract"
      },
      "onERC721Received(address,address,uint256,bytes)": {
        "notice": "callback invoked on receiving a token"
      },
      "provideAssignments(uint256[][])": {
        "notice": "provides an externally created assignment of the reviews to store on the blockchain"
      },
      "providePartition(uint256[][])": {
        "notice": "provides an externally created partition of the proposals to store on the blockchain"
      },
      "revealEvaluations(uint256,uint256,uint256[],uint256[])": {
        "notice": "performs the reveal operation and updates the scores"
      },
      "setCurrentPhase(uint8)": {
        "notice": "updates the current phase of the contract"
      },
      "submitWork(bytes)": {
        "notice": "used to submit a work to the system and to receive the corresponding token minted"
      }
    },
    "notice": "smart contract implementing the system proposed, using no data structures for storing scores",
    "version": 1
  }
}