{
  "contractName": "ImpartialSelectionMatrix",
  "abi": [
    {
      "inputs": [
        {
          "internalType": "address",
          "name": "tokenAddress",
          "type": "address"
        }
      ],
      "stateMutability": "nonpayable",
      "type": "constructor"
    },
    {
      "anonymous": false,
      "inputs": [
        {
          "indexed": true,
          "internalType": "bytes32",
          "name": "role",
          "type": "bytes32"
        },
        {
          "indexed": true,
          "internalType": "bytes32",
          "name": "previousAdminRole",
          "type": "bytes32"
        },
        {
          "indexed": true,
          "internalType": "bytes32",
          "name": "newAdminRole",
          "type": "bytes32"
        }
      ],
      "name": "RoleAdminChanged",
      "type": "event"
    },
    {
      "anonymous": false,
      "inputs": [
        {
          "indexed": true,
          "internalType": "bytes32",
          "name": "role",
          "type": "bytes32"
        },
        {
          "indexed": true,
          "internalType": "address",
          "name": "account",
          "type": "address"
        },
        {
          "indexed": true,
          "internalType": "address",
          "name": "sender",
          "type": "address"
        }
      ],
      "name": "RoleGranted",
      "type": "event"
    },
    {
      "anonymous": false,
      "inputs": [
        {
          "indexed": true,
          "internalType": "bytes32",
          "name": "role",
          "type": "bytes32"
        },
        {
          "indexed": true,
          "internalType": "address",
          "name": "account",
          "type": "address"
        },
        {
          "indexed": true,
          "internalType": "address",
          "name": "sender",
          "type": "address"
        }
      ],
      "name": "RoleRevoked",
      "type": "event"
    },
    {
      "inputs": [],
      "name": "DEFAULT_ADMIN_ROLE",
      "outputs": [
        {
          "internalType": "bytes32",
          "name": "",
          "type": "bytes32"
        }
      ],
      "stateMutability": "view",
      "type": "function"
    },
    {
      "inputs": [
        {
          "internalType": "bytes32",
          "name": "commitment",
          "type": "bytes32"
        },
        {
          "internalType": "uint256",
          "name": "tokenId",
          "type": "uint256"
        }
      ],
      "name": "commitEvaluations",
      "outputs": [],
      "stateMutability": "nonpayable",
      "type": "function"
    },
    {
      "inputs": [
        {
          "internalType": "uint256",
          "name": "l",
          "type": "uint256"
        }
      ],
      "name": "createPartition",
      "outputs": [],
      "stateMutability": "nonpayable",
      "type": "function"
    },
    {
      "inputs": [],
      "name": "endAssignmentPhase",
      "outputs": [],
      "stateMutability": "nonpayable",
      "type": "function"
    },
    {
      "inputs": [],
      "name": "endSubmissionPhase",
      "outputs": [],
      "stateMutability": "nonpayable",
      "type": "function"
    },
    {
      "inputs": [],
      "name": "finalizeCreation",
      "outputs": [],
      "stateMutability": "nonpayable",
      "type": "function"
    },
    {
      "inputs": [
        {
          "internalType": "uint256",
          "name": "m",
          "type": "uint256"
        }
      ],
      "name": "generateAssignments",
      "outputs": [],
      "stateMutability": "nonpayable",
      "type": "function"
    },
    {
      "inputs": [],
      "name": "getAllocations",
      "outputs": [
        {
          "internalType": "uint256[][]",
          "name": "",
          "type": "uint256[][]"
        },
        {
          "internalType": "uint256[]",
          "name": "",
          "type": "uint256[]"
        }
      ],
      "stateMutability": "view",
      "type": "function"
    },
    {
      "inputs": [
        {
          "internalType": "uint256",
          "name": "id",
          "type": "uint256"
        }
      ],
      "name": "getAssignmentById",
      "outputs": [
        {
          "internalType": "uint256[]",
          "name": "",
          "type": "uint256[]"
        }
      ],
      "stateMutability": "view",
      "type": "function"
    },
    {
      "inputs": [
        {
          "internalType": "uint256",
          "name": "tokenId",
          "type": "uint256"
        }
      ],
      "name": "getAssignmentByToken",
      "outputs": [
        {
          "internalType": "uint256[]",
          "name": "",
          "type": "uint256[]"
        }
      ],
      "stateMutability": "view",
      "type": "function"
    },
    {
      "inputs": [],
      "name": "getCurrentPhase",
      "outputs": [
        {
          "internalType": "uint8",
          "name": "",
          "type": "uint8"
        }
      ],
      "stateMutability": "view",
      "type": "function"
    },
    {
      "inputs": [],
      "name": "getPartition",
      "outputs": [
        {
          "internalType": "uint256[][]",
          "name": "",
          "type": "uint256[][]"
        }
      ],
      "stateMutability": "view",
      "type": "function"
    },
    {
      "inputs": [
        {
          "internalType": "bytes32",
          "name": "role",
          "type": "bytes32"
        }
      ],
      "name": "getRoleAdmin",
      "outputs": [
        {
          "internalType": "bytes32",
          "name": "",
          "type": "bytes32"
        }
      ],
      "stateMutability": "view",
      "type": "function"
    },
    {
      "inputs": [
        {
          "internalType": "bytes32",
          "name": "role",
          "type": "bytes32"
        },
        {
          "internalType": "uint256",
          "name": "index",
          "type": "uint256"
        }
      ],
      "name": "getRoleMember",
      "outputs": [
        {
          "internalType": "address",
          "name": "",
          "type": "address"
        }
      ],
      "stateMutability": "view",
      "type": "function"
    },
    {
      "inputs": [
        {
          "internalType": "bytes32",
          "name": "role",
          "type": "bytes32"
        }
      ],
      "name": "getRoleMemberCount",
      "outputs": [
        {
          "internalType": "uint256",
          "name": "",
          "type": "uint256"
        }
      ],
      "stateMutability": "view",
      "type": "function"
    },
    {
      "inputs": [],
      "name": "getTokenAddress",
      "outputs": [
        {
          "internalType": "address",
          "name": "",
          "type": "address"
        }
      ],
      "stateMutability": "view",
      "type": "function"
    },
    {
      "inputs": [
        {
          "internalType": "uint256",
          "name": "id",
          "type": "uint256"
        }
      ],
      "name": "getWorkById",
      "outputs": [
        {
          "internalType": "bytes",
          "name": "",
          "type": "bytes"
        }
      ],
      "stateMutability": "view",
      "type": "function"
    },
    {
      "inputs": [
        {
          "internalType": "bytes32",
          "name": "role",
          "type": "bytes32"
        },
        {
          "internalType": "address",
          "name": "account",
          "type": "address"
        }
      ],
      "name": "grantRole",
      "outputs": [],
      "stateMutability": "nonpayable",
      "type": "function"
    },
    {
      "inputs": [
        {
          "internalType": "bytes32",
          "name": "role",
          "type": "bytes32"
        },
        {
          "internalType": "address",
          "name": "account",
          "type": "address"
        }
      ],
      "name": "hasRole",
      "outputs": [
        {
          "internalType": "bool",
          "name": "",
          "type": "bool"
        }
      ],
      "stateMutability": "view",
      "type": "function"
    },
    {
      "inputs": [
        {
          "internalType": "uint256",
          "name": "k",
          "type": "uint256"
        },
        {
          "internalType": "uint256",
          "name": "randomness",
          "type": "uint256"
        }
      ],
      "name": "impartialSelection",
      "outputs": [],
      "stateMutability": "nonpayable",
      "type": "function"
    },
    {
      "inputs": [],
      "name": "isImpartialSelection",
      "outputs": [
        {
          "internalType": "bool",
          "name": "",
          "type": "bool"
        }
      ],
      "stateMutability": "view",
      "type": "function"
    },
    {
      "inputs": [
        {
          "internalType": "address",
          "name": "operator",
          "type": "address"
        },
        {
          "internalType": "address",
          "name": "from",
          "type": "address"
        },
        {
          "internalType": "uint256",
          "name": "tokenId",
          "type": "uint256"
        },
        {
          "internalType": "bytes",
          "name": "data",
          "type": "bytes"
        }
      ],
      "name": "onERC721Received",
      "outputs": [
        {
          "internalType": "bytes4",
          "name": "",
          "type": "bytes4"
        }
      ],
      "stateMutability": "nonpayable",
      "type": "function"
    },
    {
      "inputs": [
        {
          "internalType": "uint256[][]",
          "name": "assignments",
          "type": "uint256[][]"
        }
      ],
      "name": "provideAssignments",
      "outputs": [],
      "stateMutability": "nonpayable",
      "type": "function"
    },
    {
      "inputs": [
        {
          "internalType": "uint256[][]",
          "name": "part",
          "type": "uint256[][]"
        }
      ],
      "name": "providePartition",
      "outputs": [],
      "stateMutability": "nonpayable",
      "type": "function"
    },
    {
      "inputs": [
        {
          "internalType": "bytes32",
          "name": "role",
          "type": "bytes32"
        },
        {
          "internalType": "address",
          "name": "account",
          "type": "address"
        }
      ],
      "name": "renounceRole",
      "outputs": [],
      "stateMutability": "nonpayable",
      "type": "function"
    },
    {
      "inputs": [
        {
          "internalType": "bytes32",
          "name": "role",
          "type": "bytes32"
        },
        {
          "internalType": "address",
          "name": "account",
          "type": "address"
        }
      ],
      "name": "revokeRole",
      "outputs": [],
      "stateMutability": "nonpayable",
      "type": "function"
    },
    {
      "inputs": [
        {
          "internalType": "uint8",
          "name": "p",
          "type": "uint8"
        }
      ],
      "name": "setCurrentPhase",
      "outputs": [],
      "stateMutability": "nonpayable",
      "type": "function"
    },
    {
      "inputs": [
        {
          "internalType": "bytes",
          "name": "work",
          "type": "bytes"
        }
      ],
      "name": "submitWork",
      "outputs": [],
      "stateMutability": "nonpayable",
      "type": "function"
    },
    {
      "inputs": [],
      "name": "endCommitmentPhase",
      "outputs": [],
      "stateMutability": "nonpayable",
      "type": "function"
    },
    {
      "inputs": [],
      "name": "endRevealPhase",
      "outputs": [],
      "stateMutability": "nonpayable",
      "type": "function"
    },
    {
      "inputs": [
        {
          "internalType": "uint256",
          "name": "tokenId",
          "type": "uint256"
        },
        {
          "internalType": "uint256",
          "name": "randomness",
          "type": "uint256"
        },
        {
          "internalType": "uint256[]",
          "name": "evaluations",
          "type": "uint256[]"
        },
        {
          "internalType": "uint256[]",
          "name": "assignments",
          "type": "uint256[]"
        }
      ],
      "name": "revealEvaluations",
      "outputs": [
        {
          "internalType": "uint256[]",
          "name": "",
          "type": "uint256[]"
        }
      ],
      "stateMutability": "nonpayable",
      "type": "function"
    },
    {
      "inputs": [],
      "name": "getScores",
      "outputs": [
        {
          "internalType": "uint256[][]",
          "name": "",
          "type": "uint256[][]"
        }
      ],
      "stateMutability": "view",
      "type": "function"
    }
  ],
  "bytecode": "0x60806040526002805460ff191690553480156200001b57600080fd5b50604051620033c0380380620033c08339810160408190526200003e91620001c5565b60098054600160a060020a031916600160a060020a03831617905580620000826000620000736401000000006200008a810204565b6401000000006200008e810204565b5050620001f5565b3390565b620000a38282640100000000620000a7810204565b5050565b6000828152602081905260409020620000cf908264010000000062001b336200012c82021704565b15620000a357620000e86401000000006200008a810204565b600160a060020a031681600160a060020a0316837f2f8788117e7eff1d82e926ec794901d17c78024a50270940304540a733656f0d60405160405180910390a45050565b60006200014c83600160a060020a03841664010000000062000155810204565b90505b92915050565b60006200016c8383640100000000620001ad810204565b620001a4575081546001818101845560008481526020808220909301849055845484825282860190935260409020919091556200014f565b5060006200014f565b60009081526001919091016020526040902054151590565b600060208284031215620001d7578081fd5b8151600160a060020a0381168114620001ee578182fd5b9392505050565b6131bb80620002056000396000f3fe608060405234801561001057600080fd5b50600436106101f45760003560e060020a90048063965fdd5c11610113578063c6daf57f116100a6578063d547741f11610075578063d547741f14610415578063e88033bd14610428578063f4e4a1021461043b578063f803f6a614610443576101f4565b8063c6daf57f146103d4578063c8184fa0146103e7578063ca15c873146103ef578063cd3f291014610402576101f4565b8063a5f4097b116100e2578063a5f4097b14610391578063afbde963146103a4578063b3619e71146103ac578063bdf1fcc9146103b4576101f4565b8063965fdd5c146103595780639969744614610361578063a217fddf14610374578063a3a40ea51461037c576101f4565b806336568abe1161018b5780635da153651161015a5780635da15365146102f057806365ed6e23146103105780639010d07c1461032657806391d1485414610339576101f4565b806336568abe146102af5780634645a954146102c2578063509dbe68146102d557806358b3476a146102e8576101f4565b80631ea1380c116101c75780631ea1380c1461025f578063248a9ca3146102745780632f2ff15d1461029457806334b6d081146102a7576101f4565b80630d9ff8f6146101f957806310fe9ae81461020e578063150b7a021461022c5780631ab27c4c1461024c575b600080fd5b61020c610207366004612497565b610456565b005b6102166105b8565b60405161022391906129d6565b60405180910390f35b61023f61023a366004612428565b6105c7565b6040516102239190612c10565b61020c61025a366004612631565b6105f1565b61026761083c565b6040516102239190612aab565b6102876102823660046125a6565b6108e9565b6040516102239190612bbf565b61020c6102a23660046125d6565b6108fe565b61020c610949565b61020c6102bd3660046125d6565b6109d6565b61020c6102d0366004612610565b610a1b565b61020c6102e3366004612497565b610b8e565b61020c610d91565b6103036102fe366004612717565b610ec8565b6040516102239190612ba1565b610318611071565b604051610223929190612abe565b610216610334366004612610565b61110b565b61034c6103473660046125d6565b61112c565b6040516102239190612bb4565b61020c611144565b61030361036f3660046125a6565b6111b7565b6102876112d7565b6103846112dc565b60405161022391906130bd565b61020c61039f3660046125a6565b6112e5565b61020c611437565b61020c6114ae565b6103c76103c23660046125a6565b611520565b6040516102239190612c3d565b61020c6103e23660046125a6565b611640565b610267611786565b6102876103fd3660046125a6565b6117dd565b61020c610410366004612797565b6117f4565b61020c6104233660046125d6565b611865565b6103036104363660046125a6565b6118a2565b61034c6118f8565b61020c610451366004612610565b611909565b6104636000610347611b48565b61048b5760405160e560020a62461bcd02815260040161048290612d55565b60405180910390fd5b60405160e060020a6340b694b502815273__Phases________________________________906340b694b5906104c690600190600401612c50565b60006040518083038186803b1580156104de57600080fd5b505af41580156104f2573d6000803e3d6000fd5b50506040517fbc0ebb4b00000000000000000000000000000000000000000000000000000000815273__Zipper________________________________925063bc0ebb4b915061054b9085908590601090600401612a0e565b60006040518083038186803b15801561056357600080fd5b505af4158015610577573d6000803e3d6000fd5b505050506040513d6000823e601f3d908101601f1916820160405261059f91908101906124d7565b80516105b39160019160209091019061214e565b505050565b600954600160a060020a031690565b7f150b7a020000000000000000000000000000000000000000000000000000000095945050505050565b60405160e060020a6340b694b502815273__Phases________________________________906340b694b59061062c90600090600401612c50565b60006040518083038186803b15801561064457600080fd5b505af4158015610658573d6000803e3d6000fd5b505050506106646121ab565b6040517fa33265fe00000000000000000000000000000000000000000000000000000000815273__Proposals_____________________________9063a33265fe906106b99060069087908790600401613026565b60006040518083038186803b1580156106d157600080fd5b505af41580156106e5573d6000803e3d6000fd5b505050506040513d6000823e601f3d908101601f1916820160405261070d9190810190612698565b6009546040517f6a627842000000000000000000000000000000000000000000000000000000008152919250600091600160a060020a0390911690636a6278429061075c9033906004016129d6565b602060405180830381600087803b15801561077657600080fd5b505af115801561078a573d6000803e3d6000fd5b505050506040513d601f19601f820116820180604052508101906107ae91906125be565b6040517f0323d6ce00000000000000000000000000000000000000000000000000000000815290915073__Proposals_____________________________90630323d6ce90610806906006908690869060040161305c565b60006040518083038186803b15801561081e57600080fd5b505af4158015610832573d6000803e3d6000fd5b5050505050505050565b6040517fbed379a800000000000000000000000000000000000000000000000000000000815260609073__Zipper________________________________9063bed379a89061089090600a90600401612aec565b60006040518083038186803b1580156108a857600080fd5b505af41580156108bc573d6000803e3d6000fd5b505050506040513d6000823e601f3d908101601f191682016040526108e491908101906124d7565b905090565b60009081526020819052604090206002015490565b60008281526020819052604090206002015461091c90610347611b48565b61093b5760405160e560020a62461bcd02815260040161048290612cf8565b6109458282611b4c565b5050565b6109566000610347611b48565b6109755760405160e560020a62461bcd02815260040161048290612d55565b73__Phases________________________________6334b6d0816040518163ffffffff1660e060020a02815260040160006040518083038186803b1580156109bc57600080fd5b505af41580156109d0573d6000803e3d6000fd5b50505050565b6109de611b48565b600160a060020a031681600160a060020a031614610a115760405160e560020a62461bcd02815260040161048290612fb6565b6109458282611bb5565b60405160e060020a6340b694b502815273__Phases________________________________906340b694b590610a5690600290600401612c50565b60006040518083038186803b158015610a6e57600080fd5b505af4158015610a82573d6000803e3d6000fd5b50506009546040517f42842e0e000000000000000000000000000000000000000000000000000000008152600160a060020a0390911692506342842e0e9150610ad3903390309086906004016129ea565b600060405180830381600087803b158015610aed57600080fd5b505af1158015610b01573d6000803e3d6000fd5b50506040517fa388609b00000000000000000000000000000000000000000000000000000000815273__Proposals_____________________________925063a388609b9150610b5a9060069085908790600401612aff565b60006040518083038186803b158015610b7257600080fd5b505af4158015610b86573d6000803e3d6000fd5b505050505050565b610b9b6000610347611b48565b610bba5760405160e560020a62461bcd02815260040161048290612d55565b60405160e060020a6340b694b502815273__Phases________________________________906340b694b590610bf590600190600401612c50565b60006040518083038186803b158015610c0d57600080fd5b505af4158015610c21573d6000803e3d6000fd5b50506040517f614d273c0000000000000000000000000000000000000000000000000000000081526000925073__Proposals_____________________________915063614d273c90610c7990600690600401612bbf565b60206040518083038186803b158015610c9157600080fd5b505af4158015610ca5573d6000803e3d6000fd5b505050506040513d601f19601f82011682018060405250810190610cc991906125be565b9050818114610ced5760405160e560020a62461bcd02815260040161048290612ec5565b60005b818110156109d05773__Proposals_____________________________63b38d0c58600683878786818110610d2157fe5b9050602002810190610d3391906130cb565b6040518563ffffffff1660e060020a028152600401610d559493929190613093565b60006040518083038186803b158015610d6d57600080fd5b505af4158015610d81573d6000803e3d6000fd5b505060019092019150610cf09050565b610d99611c1e565b73__ExactDollarPartitionMatrix____________6327612d0c73__Proposals_____________________________63614d273c60066040518263ffffffff1660e060020a028152600401610dee9190612bbf565b60206040518083038186803b158015610e0657600080fd5b505af4158015610e1a573d6000803e3d6000fd5b505050506040513d601f19601f82011682018060405250810190610e3e91906125be565b6040518263ffffffff1660e060020a028152600401610e5d9190612bbf565b60006040518083038186803b158015610e7557600080fd5b505af4158015610e89573d6000803e3d6000fd5b505050506040513d6000823e601f3d908101601f19168201604052610eb191908101906124d7565b8051610ec591600a9160209091019061214e565b50565b6060600073__Proposals_____________________________63ed98094160068a6040518363ffffffff1660e060020a028152600401610f09929190613085565b60206040518083038186803b158015610f2157600080fd5b505af4158015610f35573d6000803e3d6000fd5b505050506040513d601f19601f82011682018060405250810190610f5991906125be565b9050600a8181548110610f6857fe5b60009182526020909120015415610f945760405160e560020a62461bcd02815260040161048290612e8e565b610fa2888888888888611c91565b506040517f49953f6e00000000000000000000000000000000000000000000000000000000815273__ExactDollarPartitionMatrix____________906349953f6e9061100190600a9060039086908a908a908e908e90600401612b38565b60006040518083038186803b15801561101957600080fd5b505af415801561102d573d6000803e3d6000fd5b50505050858580806020026020016040519081016040528093929190818152602001838360200280828437600092019190915250929b9a5050505050505050505050565b60608073__Allocations___________________________63a239e25660046040518263ffffffff1660e060020a0281526004016110af9190612bbf565b60006040518083038186803b1580156110c757600080fd5b505af41580156110db573d6000803e3d6000fd5b505050506040513d6000823e601f3d908101601f191682016040526111039190810190612512565b915091509091565b60008281526020819052604081206111239083611f1f565b90505b92915050565b60008281526020819052604081206111239083611f2b565b6111516000610347611b48565b6111705760405160e560020a62461bcd02815260040161048290612d55565b73__Phases________________________________63965fdd5c6040518163ffffffff1660e060020a02815260040160006040518083038186803b1580156109bc57600080fd5b606073__Proposals_____________________________63c12c372873__Proposals_____________________________638ff608e16006866040518363ffffffff1660e060020a028152600401611210929190613085565b60006040518083038186803b15801561122857600080fd5b505af415801561123c573d6000803e3d6000fd5b505050506040513d6000823e601f3d908101601f191682016040526112649190810190612698565b6040518263ffffffff1660e060020a0281526004016112839190613013565b60006040518083038186803b15801561129b57600080fd5b505af41580156112af573d6000803e3d6000fd5b505050506040513d6000823e601f3d908101601f191682016040526111269190810190612573565b600081565b60025460ff1690565b6112f26000610347611b48565b6113115760405160e560020a62461bcd02815260040161048290612d55565b60405160e060020a6340b694b502815273__Phases________________________________906340b694b59061134c90600190600401612c50565b60006040518083038186803b15801561136457600080fd5b505af4158015611378573d6000803e3d6000fd5b50506040517fd4c97d6f00000000000000000000000000000000000000000000000000000000815273__ExactDollarPartition__________________925063d4c97d6f91506113cf906006908590600401613085565b60006040518083038186803b1580156113e757600080fd5b505af41580156113fb573d6000803e3d6000fd5b505050506040513d6000823e601f3d908101601f1916820160405261142391908101906124d7565b80516109459160019160209091019061214e565b61143f611f40565b6040517f79b1961a00000000000000000000000000000000000000000000000000000000815273__ExactDollarPartitionMatrix____________906379b1961a9061149690600a90600190600390600401612aff565b60006040518083038186803b1580156109bc57600080fd5b6114b96000306108fe565b600960009054906101000a9004600160a060020a0316600160a060020a031663031cf5866040518163ffffffff1660e060020a028152600401600060405180830381600087803b15801561150c57600080fd5b505af11580156109d0573d6000803e3d6000fd5b606073__Proposals_____________________________63ef64a3ca73__Proposals_____________________________638ff608e16006866040518363ffffffff1660e060020a028152600401611579929190613085565b60006040518083038186803b15801561159157600080fd5b505af41580156115a5573d6000803e3d6000fd5b505050506040513d6000823e601f3d908101601f191682016040526115cd9190810190612698565b6040518263ffffffff1660e060020a0281526004016115ec9190613013565b60006040518083038186803b15801561160457600080fd5b505af4158015611618573d6000803e3d6000fd5b505050506040513d6000823e601f3d908101601f191682016040526111269190810190612665565b61164d6000610347611b48565b61166c5760405160e560020a62461bcd02815260040161048290612d55565b60405160e060020a6340b694b502815273__Phases________________________________906340b694b5906116a790600190600401612c50565b60006040518083038186803b1580156116bf57600080fd5b505af41580156116d3573d6000803e3d6000fd5b5050600154151591506116fd90505760405160e560020a62461bcd02815260040161048290612dc3565b6040517fdfaf519400000000000000000000000000000000000000000000000000000000815273__ExactDollarPartition__________________9063dfaf519490611753906001906006908690600401612aff565b60006040518083038186803b15801561176b57600080fd5b505af415801561177f573d6000803e3d6000fd5b5050505050565b6040517f3bfd520600000000000000000000000000000000000000000000000000000000815260609073__Zipper________________________________90633bfd52069061089090600190601090600401612b7f565b600081815260208190526040812061112690611fb3565b6118016000610347611b48565b6118205760405160e560020a62461bcd02815260040161048290612d55565b60025460ff828116918116600101161461184f5760405160e560020a62461bcd02815260040161048290612dfa565b6002805460ff191660ff92909216919091179055565b60008281526020819052604090206002015461188390610347611b48565b610a115760405160e560020a62461bcd02815260040161048290612e31565b6040517f313500ce00000000000000000000000000000000000000000000000000000000815260609073__Proposals_____________________________9063313500ce90611283906006908690600401613085565b600954600160a060020a0316331490565b6119166000610347611b48565b6119355760405160e560020a62461bcd02815260040161048290612d55565b60405160e060020a6340b694b502815273__Phases________________________________906340b694b59061196f906004908101612c50565b60006040518083038186803b15801561198757600080fd5b505af415801561199b573d6000803e3d6000fd5b50506040517f614d273c00000000000000000000000000000000000000000000000000000000815273__Proposals_____________________________925063614d273c91506119f090600690600401612bbf565b60206040518083038186803b158015611a0857600080fd5b505af4158015611a1c573d6000803e3d6000fd5b505050506040513d601f19601f82011682018060405250810190611a4091906125be565b821115611a625760405160e560020a62461bcd02815260040161048290612f7f565b6040517ff3ce16ea00000000000000000000000000000000000000000000000000000000815273__ExactDollarPartition__________________9063f3ce16ea90611abc90600190600390600490879089908301612b15565b60006040518083038186803b158015611ad457600080fd5b505af4158015611ae8573d6000803e3d6000fd5b5050505073__Phases________________________________63f7ad24d16040518163ffffffff1660e060020a02815260040160006040518083038186803b158015610b7257600080fd5b600061112383600160a060020a038416611fbe565b3390565b6000828152602081905260409020611b649082611b33565b1561094557611b71611b48565b600160a060020a031681600160a060020a0316837f2f8788117e7eff1d82e926ec794901d17c78024a50270940304540a733656f0d60405160405180910390a45050565b6000828152602081905260409020611bcd9082612008565b1561094557611bda611b48565b600160a060020a031681600160a060020a0316837ff6391f5c32d9c69d2a47ea670b442974b53935d1edc7fd64eb21e047a839171b60405160405180910390a45050565b611c2b6000610347611b48565b611c4a5760405160e560020a62461bcd02815260040161048290612d55565b73__Phases________________________________6358b3476a6040518163ffffffff1660e060020a02815260040160006040518083038186803b1580156109bc57600080fd5b60405160e060020a6340b694b502815260609073__Phases________________________________906340b694b590611ccf90600390600401612c50565b60006040518083038186803b158015611ce757600080fd5b505af4158015611cfb573d6000803e3d6000fd5b50505050611d076121ab565b6040517f1aed6b1500000000000000000000000000000000000000000000000000000000815273__Proposals_____________________________90631aed6b1590611d5a906006908c90600401613085565b60006040518083038186803b158015611d7257600080fd5b505af4158015611d86573d6000803e3d6000fd5b505050506040513d6000823e601f3d908101601f19168201604052611dae9190810190612698565b9050600073__Proposals_____________________________63354de09f836040518263ffffffff1660e060020a028152600401611dec9190613013565b60206040518083038186803b158015611e0457600080fd5b505af4158015611e18573d6000803e3d6000fd5b505050506040513d601f19601f82011682018060405250810190611e3c91906125be565b905080611e5e5760405160e560020a62461bcd02815260040161048290612d8c565b838614611e805760405160e560020a62461bcd02815260040161048290612f22565b808886868a8a604051602001611e9a9594939291906129ae565b6040516020818303038152906040528051906020012014611ed05760405160e560020a62461bcd02815260040161048290612cc1565b7f2b73c41c52d6947c712d5234600fcea9d10b503536c0ad725e635c86692c0ab3818987878b8b8f604051611f0b9796959493929190612bc8565b60405180910390a150509695505050505050565b6000611123838361201d565b600061112383600160a060020a038416612065565b611f4d6000610347611b48565b611f6c5760405160e560020a62461bcd02815260040161048290612d55565b73__Phases________________________________63afbde9636040518163ffffffff1660e060020a02815260040160006040518083038186803b1580156109bc57600080fd5b60006111268261207d565b6000611fca8383612065565b61200057508154600181810184556000848152602080822090930184905584548482528286019093526040902091909155611126565b506000611126565b600061112383600160a060020a038416612081565b815460009082106120435760405160e560020a62461bcd02815260040161048290612c64565b82600001828154811061205257fe5b9060005260206000200154905092915050565b60009081526001919091016020526040902054151590565b5490565b6000818152600183016020526040812054801561213d57835460001980830191908101906000908790839081106120b457fe5b90600052602060002001549050808760000184815481106120d157fe5b60009182526020808320909101929092558281526001898101909252604090209084019055865487908061210157fe5b60019003818190600052602060002001600090559055866001016000878152602001908152602001600020600090556001945050505050611126565b6000915050611126565b5092915050565b82805482825590600052602060002090810192821561219b579160200282015b8281111561219b578251805161218b9184916020909101906121ca565b509160200191906001019061216e565b506121a7929150612211565b5090565b6040805160608082018352600080835260208301529181019190915290565b828054828255906000526020600020908101928215612205579160200282015b828111156122055782518255916020019190600101906121ea565b506121a792915061222e565b808211156121a75760006122258282612243565b50600101612211565b5b808211156121a7576000815560010161222f565b5080546000825590600052602060002090810190610ec5919061222e565b8035600160a060020a038116811461112657600080fd5b60008083601f840112612289578182fd5b50813567ffffffffffffffff8111156122a0578182fd5b60208301915083602080830285010111156122ba57600080fd5b9250929050565b600082601f8301126122d1578081fd5b81516122e46122df82613139565b613112565b818152915060208083019084810160005b8481101561231e5761230c888484518a0101612329565b845292820192908201906001016122f5565b505050505092915050565b600082601f830112612339578081fd5b81516123476122df82613139565b81815291506020808301908481018184028601820187101561236857600080fd5b60005b8481101561231e5781518452928201929082019060010161236b565b60008083601f840112612398578182fd5b50813567ffffffffffffffff8111156123af578182fd5b6020830191508360208285010111156122ba57600080fd5b600082601f8301126123d7578081fd5b815167ffffffffffffffff8111156123ed578182fd5b612400601f8201601f1916602001613112565b915080825283602082850101111561241757600080fd5b612147816020840160208601613159565b60008060008060006080868803121561243f578081fd5b6124498787612261565b94506124588760208801612261565b935060408601359250606086013567ffffffffffffffff81111561247a578182fd5b61248688828901612387565b969995985093965092949392505050565b600080602083850312156124a9578182fd5b823567ffffffffffffffff8111156124bf578283fd5b6124cb85828601612278565b90969095509350505050565b6000602082840312156124e8578081fd5b815167ffffffffffffffff8111156124fe578182fd5b61250a848285016122c1565b949350505050565b60008060408385031215612524578182fd5b825167ffffffffffffffff8082111561253b578384fd5b612547868387016122c1565b9350602085015191508082111561255c578283fd5b5061256985828601612329565b9150509250929050565b600060208284031215612584578081fd5b815167ffffffffffffffff81111561259a578182fd5b61250a84828501612329565b6000602082840312156125b7578081fd5b5035919050565b6000602082840312156125cf578081fd5b5051919050565b600080604083850312156125e8578182fd5b823591506020830135600160a060020a0381168114612605578182fd5b809150509250929050565b60008060408385031215612622578182fd5b50508035926020909101359150565b60008060208385031215612643578182fd5b823567ffffffffffffffff811115612659578283fd5b6124cb85828601612387565b600060208284031215612676578081fd5b815167ffffffffffffffff81111561268c578182fd5b61250a848285016123c7565b6000602082840312156126a9578081fd5b815167ffffffffffffffff808211156126c0578283fd5b90830190606082860312156126d3578283fd5b6126dd6060613112565b82518152602083015160208201526040830151828111156126fc578485fd5b612708878286016123c7565b60408301525095945050505050565b6000806000806000806080878903121561272f578384fd5b8635955060208701359450604087013567ffffffffffffffff80821115612754578586fd5b6127608a838b01612278565b90965094506060890135915080821115612778578283fd5b5061278589828a01612278565b979a9699509497509295939492505050565b6000602082840312156127a8578081fd5b813560ff811681146127b8578182fd5b9392505050565b815260200190565b6000815180845260208085018081965082840281019150828601855b8581101561280d5782840389526127fb84835161291f565b988501989350908401906001016127e3565b5091979650505050505050565b6000815480845260208085018081965082840281019150858552828520855b8581101561280d57828403895281548085528288528588208686019190895b828110156128795761286b8483546127bf565b935060019182019101612858565b50505098850198935060019182019101612839565b60008284527f07ffffffffffffffffffffffffffffffffffffffffffffffffffffffffffffff8311156128bf578081fd5b6020830280836020870137939093016020019283525090919050565b60007f07ffffffffffffffffffffffffffffffffffffffffffffffffffffffffffffff831115612909578081fd5b6020830280838637939093019283525090919050565b6000815180845260208085019450808401835b8381101561294e57815187529582019590820190600101612932565b509495945050505050565b60008151808452612971816020860160208601613159565b601f01601f19169290920160200192915050565b6000815183526020820151602084015260408201516060604085015261250a6060850182612959565b60008682526129cb6129c46020840187896128db565b84866128db565b979650505050505050565b600160a060020a0391909116815260200190565b600160a060020a039384168152919092166020820152604081019190915260600190565b604080825281018390526000602060608084019082870285010187845b88811015612a9957868303605f190184528135368b9003601e19018112612a50578687fd5b8a01803567ffffffffffffffff811115612a68578788fd5b86810236038c1315612a78578788fd5b612a85858289850161288e565b958701959450505090840190600101612a2b565b50509390910193909352509392505050565b60006020825261112360208301846127c7565b600060408252612ad160408301856127c7565b8281036020840152612ae3818561291f565b95945050505050565b600060208252611123602083018461281a565b9283526020830191909152604082015260600190565b948552602085019390935260408401919091526060830152608082015260a00190565b600088825287602083015286604083015260a06060830152612b5e60a08301868861288e565b8281036080840152612b7181858761288e565b9a9950505050505050505050565b600060408252612b92604083018561281a565b90508260208301529392505050565b600060208252611123602083018461291f565b901515815260200190565b90815260200190565b600088825287602083015260a06040830152612be860a08301878961288e565b8281036060840152612bfb81868861288e565b91505082608083015298975050505050505050565b7fffffffff0000000000000000000000000000000000000000000000000000000091909116815260200190565b6000602082526111236020830184612959565b6020810160068310612c5e57fe5b91905290565b60208082526022908201527f456e756d657261626c655365743a20696e646578206f7574206f6620626f756e60408201527f6473000000000000000000000000000000000000000000000000000000000000606082015260800190565b6020808252600f908201527f4661696c7572652072657665616c210000000000000000000000000000000000604082015260600190565b6020808252602f908201527f416363657373436f6e74726f6c3a2073656e646572206d75737420626520616e60408201527f2061646d696e20746f206772616e740000000000000000000000000000000000606082015260800190565b60208082526016908201527f556e617574686f72697a6564206f7065726174696f6e00000000000000000000604082015260600190565b60208082526012908201527f436f6d6d69746d656e74206e6f74207365740000000000000000000000000000604082015260600190565b60208082526018908201527f50617269746974696f6e20756e696e697469616c697a65640000000000000000604082015260600190565b60208082526016908201527f4a756d70696e67206265747765656e2070686173657300000000000000000000604082015260600190565b60208082526030908201527f416363657373436f6e74726f6c3a2073656e646572206d75737420626520616e60408201527f2061646d696e20746f207265766f6b6500000000000000000000000000000000606082015260800190565b60208082526010908201527f416c72656164792072657665616c656400000000000000000000000000000000604082015260600190565b6020808252602e908201527f446966666572656e74206e756d626572206f662061737369676e6d656e74732060408201527f7468616e2070726f706f73616c73000000000000000000000000000000000000606082015260800190565b60208082526039908201527f496e636f686572656e742064696d656e73696f6e73206265747765656e20617360408201527f7369676e6d656e747320616e64206576616c756174696f6e7300000000000000606082015260800190565b6020808252601e908201527f4d6f72652077696e6e657273207468616e207061727469636970616e74730000604082015260600190565b6020808252602f908201527f416363657373436f6e74726f6c3a2063616e206f6e6c792072656e6f756e636560408201527f20726f6c657320666f722073656c660000000000000000000000000000000000606082015260800190565b6000602082526111236020830184612985565b60008482526040602083015282604083015282846060840137818301606090810191909152601f909201601f1916010192915050565b6000848252606060208301526130756060830185612985565b9050826040830152949350505050565b918252602082015260400190565b6000858252846020830152606060408301526130b360608301848661288e565b9695505050505050565b60ff91909116815260200190565b6000808335601e198436030181126130e1578283fd5b83018035915067ffffffffffffffff8211156130fb578283fd5b60209081019250810236038213156122ba57600080fd5b60405181810167ffffffffffffffff8111828210171561313157600080fd5b604052919050565b600067ffffffffffffffff82111561314f578081fd5b5060209081020190565b60005b8381101561317457818101518382015260200161315c565b838111156109d0575050600091015256fea26469706673582212204afbfa667a0d2b346e3d19e39ef85df4b8b77d56660c6d428507932d89e0a9c764736f6c634300060c0033",
  "immutableReferences": {},
  "source": "// SPDX-License-Identifier: MIT\n\npragma solidity >=0.6.0 <0.9.0;\npragma experimental ABIEncoderV2;\n\nimport \"./ImpartialSelection.sol\";\nimport \"./ExactDollarPartitionMatrix.sol\";\n\n/// @title Impartial Selection Matrix implementation\n/// @author Giovanni Rescinito\n/// @notice smart contract implementing the system proposed, using a matrix as support data structure for scores\ncontract ImpartialSelectionMatrix is ImpartialSelection{\n    // scores data structure implemented as a matrix where each row contains the reviews submitted by each agent,\n    // while each column contains the reviews received by each agent\n    uint[][] private scoreMatrix;\n\n    /// @notice creates a new instance of the contract\n    /// @param tokenAddress address of the PET token to connect to the contract\n    constructor(address tokenAddress) ImpartialSelection(tokenAddress) public{}\n\n    /// @notice ends the commitment phase and initializes the score matrix\n    function endCommitmentPhase() public override{\n        super.endCommitmentPhase();\n        scoreMatrix = ExactDollarPartitionMatrix.initializeScoreMatrix(Proposals.length(proposals));\n    }\n\n    /// @notice ends the reveal phase and checks that everyone submitted their scores\n    function endRevealPhase() public override{\n        super.endRevealPhase();\n        ExactDollarPartitionMatrix.finalizeScoreMatrix(scoreMatrix,partition,scoreAccumulated);\n    }\n\n    /// @notice performs the reveal operation and updates the scores\n    /// @param tokenId token used during the commitment phase, to retrieve the corresponding commitment\n    /// @param randomness randomness used to generate the commitment\n    /// @param evaluations scores used to generate the commitment\n    /// @return the evaluations provided\n    function revealEvaluations(uint tokenId, uint randomness, uint[] calldata evaluations, uint[] calldata assignments) public override returns (uint[] memory){\n        uint id = Proposals.getIdFromToken(proposals,tokenId);\n        require(scoreMatrix[id].length == 0, \"Already revealed\");\n        super.revealEvaluations(tokenId, randomness, evaluations, assignments);\n        ExactDollarPartitionMatrix.addToScoreMatrix(scoreMatrix,scoreAccumulated,id, assignments, evaluations);\n        return evaluations;\n    }\n\n    /// @notice returns a representation of the scores provided\n    /// @return the scores matrix\n    function getScores() external view returns (uint[][] memory){\n        return Zipper.reconstructScoreMatrix(scoreMatrix);\n    }\n}",
  "sourcePath": "C:\\Users\\Claudio\\Desktop\\Tesi\\Codice reviews\\reviews - ipfs\\contracts\\ImpartialSelectionMatrix.sol",
  "compiler": {
    "name": "solc",
    "version": "0.6.12+commit.27d51765.Emscripten.clang"
  },
  "schemaVersion": "3.4.8",
  "updatedAt": "2022-09-18T09:39:11.275Z",
  "devdoc": {
    "author": "Giovanni Rescinito",
    "kind": "dev",
    "methods": {
      "commitEvaluations(bytes32,uint256)": {
        "params": {
          "commitment": "the commitment to be stored",
          "tokenId": "the token id associated to the proposal for which the assignment was generated"
        }
      },
      "constructor": {
        "params": {
          "tokenAddress": "address of the PET token to connect to the contract"
        }
      },
      "createPartition(uint256)": {
        "params": {
          "l": "the number of clusters to create"
        }
      },
      "generateAssignments(uint256)": {
        "params": {
          "m": "the number of reviews assigned to each user"
        }
      },
      "getAllocations()": {
        "returns": {
          "_0": "the list of possible allocations and a list of their corresponding probabilities of being selected"
        }
      },
      "getAssignmentById(uint256)": {
        "params": {
          "id": "the identifier corresponding to the proposal in the proposals set"
        },
        "returns": {
          "_0": "the list of proposals assigned for the review to the id specified"
        }
      },
      "getAssignmentByToken(uint256)": {
        "params": {
          "tokenId": "the token id corresponding to the proposal for which the assignment is required"
        },
        "returns": {
          "_0": "the list of proposals assigned for the review to the owner of the token identified by tokenId"
        }
      },
      "getCurrentPhase()": {
        "returns": {
          "_0": "a value from the Phases enumeration, representing current state of the contract"
        }
      },
      "getPartition()": {
        "returns": {
          "_0": "the unzipped version of partition data structure, storing clusters"
        }
      },
      "getRoleAdmin(bytes32)": {
        "details": "Returns the admin role that controls `role`. See {grantRole} and {revokeRole}. To change a role's admin, use {_setRoleAdmin}."
      },
      "getRoleMember(bytes32,uint256)": {
        "details": "Returns one of the accounts that have `role`. `index` must be a value between 0 and {getRoleMemberCount}, non-inclusive. Role bearers are not sorted in any particular way, and their ordering may change at any point. WARNING: When using {getRoleMember} and {getRoleMemberCount}, make sure you perform all queries on the same block. See the following https://forum.openzeppelin.com/t/iterating-over-elements-on-enumerableset-in-openzeppelin-contracts/2296[forum post] for more information."
      },
      "getRoleMemberCount(bytes32)": {
        "details": "Returns the number of accounts that have `role`. Can be used together with {getRoleMember} to enumerate all bearers of a role."
      },
      "getScores()": {
        "returns": {
          "_0": "the scores matrix"
        }
      },
      "getTokenAddress()": {
        "returns": {
          "_0": "the address locating the token contract"
        }
      },
      "getWorkById(uint256)": {
        "params": {
          "id": "the identifier corresponding to the proposal in the proposals set"
        },
        "returns": {
          "_0": "the work stored in the proposals set related to the id provided"
        }
      },
      "grantRole(bytes32,address)": {
        "details": "Grants `role` to `account`. If `account` had not been already granted `role`, emits a {RoleGranted} event. Requirements: - the caller must have ``role``'s admin role."
      },
      "hasRole(bytes32,address)": {
        "details": "Returns `true` if `account` has been granted `role`."
      },
      "impartialSelection(uint256,uint256)": {
        "params": {
          "k": "the number of winners to select",
          "randomness": "the randomness used to select the allocation of winners per cluster to use"
        }
      },
      "isImpartialSelection()": {
        "returns": {
          "_0": "the value resulting from the check"
        }
      },
      "onERC721Received(address,address,uint256,bytes)": {
        "params": {
          "data": "eventual data transferred",
          "from": "the owner of the token",
          "operator": "the address transferring the token",
          "tokenId": "the token id"
        },
        "returns": {
          "_0": "the selector of the function"
        }
      },
      "provideAssignments(uint256[][])": {
        "params": {
          "assignments": "the assignment to be stored"
        }
      },
      "providePartition(uint256[][])": {
        "params": {
          "part": "the partition to be stored"
        }
      },
      "renounceRole(bytes32,address)": {
        "details": "Revokes `role` from the calling account. Roles are often managed via {grantRole} and {revokeRole}: this function's purpose is to provide a mechanism for accounts to lose their privileges if they are compromised (such as when a trusted device is misplaced). If the calling account had been granted `role`, emits a {RoleRevoked} event. Requirements: - the caller must be `account`."
      },
      "revealEvaluations(uint256,uint256,uint256[],uint256[])": {
        "params": {
          "evaluations": "scores used to generate the commitment",
          "randomness": "randomness used to generate the commitment",
          "tokenId": "token used during the commitment phase, to retrieve the corresponding commitment"
        },
        "returns": {
          "_0": "the evaluations provided"
        }
      },
      "revokeRole(bytes32,address)": {
        "details": "Revokes `role` from `account`. If `account` had been granted `role`, emits a {RoleRevoked} event. Requirements: - the caller must have ``role``'s admin role."
      },
      "setCurrentPhase(uint8)": {
        "params": {
          "p": "the phase the contract should be put in"
        }
      },
      "submitWork(bytes)": {
        "params": {
          "work": "the work an agent wishes to submit"
        }
      }
    },
    "title": "Impartial Selection Matrix implementation",
    "version": 1
  },
  "userdoc": {
    "kind": "user",
    "methods": {
      "commitEvaluations(bytes32,uint256)": {
        "notice": "stores a commitment of the evaluations for the assigned reviews on the blockchain, after verifying that the user is authorized"
      },
      "constructor": "creates a new instance of the contract",
      "createPartition(uint256)": {
        "notice": "creates a partition of the proposals using the algorithm defined in the library"
      },
      "endAssignmentPhase()": {
        "notice": "ends assignment phase and starts commitment phase"
      },
      "endCommitmentPhase()": {
        "notice": "ends the commitment phase and initializes the score matrix"
      },
      "endRevealPhase()": {
        "notice": "ends the reveal phase and checks that everyone submitted their scores"
      },
      "endSubmissionPhase()": {
        "notice": "ends submission phase and starts assignment phase"
      },
      "finalizeCreation()": {
        "notice": "sets the following contract as a minter for PET tokens"
      },
      "generateAssignments(uint256)": {
        "notice": "creates the review assignments to the proposals using the algorithm defined in the library"
      },
      "getAllocations()": {
        "notice": "getter returning the different possible combinations of winners per cluster found by the apportionment algorithm"
      },
      "getAssignmentById(uint256)": {
        "notice": "getter returning the reviews assignment correponding to a given proposal id"
      },
      "getAssignmentByToken(uint256)": {
        "notice": "getter returning the reviews assignment correponding to a given tokenId"
      },
      "getCurrentPhase()": {
        "notice": "getter returning the current phase of the contract"
      },
      "getPartition()": {
        "notice": "getter returning the clusters in which the proposals are divided"
      },
      "getScores()": {
        "notice": "returns a representation of the scores provided"
      },
      "getTokenAddress()": {
        "notice": "getter returning the token contract"
      },
      "getWorkById(uint256)": {
        "notice": "getter returning the work proposed by a specified proposal id"
      },
      "impartialSelection(uint256,uint256)": {
        "notice": "executes the actual selection by invoking Exact Dollar Partition"
      },
      "isImpartialSelection()": {
        "notice": "used by the token to check if the invoking contract is an instance of an impartial selection contract"
      },
      "onERC721Received(address,address,uint256,bytes)": {
        "notice": "callback invoked on receiving a token"
      },
      "provideAssignments(uint256[][])": {
        "notice": "provides an externally created assignment of the reviews to store on the blockchain"
      },
      "providePartition(uint256[][])": {
        "notice": "provides an externally created partition of the proposals to store on the blockchain"
      },
      "revealEvaluations(uint256,uint256,uint256[],uint256[])": {
        "notice": "performs the reveal operation and updates the scores"
      },
      "setCurrentPhase(uint8)": {
        "notice": "updates the current phase of the contract"
      },
      "submitWork(bytes)": {
        "notice": "used to submit a work to the system and to receive the corresponding token minted"
      }
    },
    "notice": "smart contract implementing the system proposed, using a matrix as support data structure for scores",
    "version": 1
  }
}