{
  "contractName": "IpfsStorage",
  "abi": [
    {
      "inputs": [
        {
          "internalType": "address",
          "name": "addr",
          "type": "address"
        },
        {
          "internalType": "string",
          "name": "hashIpfs",
          "type": "string"
        }
      ],
      "name": "setEnc",
      "outputs": [],
      "stateMutability": "nonpayable",
      "type": "function"
    },
    {
      "inputs": [
        {
          "internalType": "address",
          "name": "addr",
          "type": "address"
        }
      ],
      "name": "getEnc",
      "outputs": [
        {
          "internalType": "string",
          "name": "",
          "type": "string"
        }
      ],
      "stateMutability": "view",
      "type": "function",
      "constant": true
    },
    {
      "inputs": [
        {
          "internalType": "address",
          "name": "addr",
          "type": "address"
        },
        {
          "internalType": "string",
          "name": "hashIpfs",
          "type": "string"
        }
      ],
      "name": "setProof",
      "outputs": [],
      "stateMutability": "nonpayable",
      "type": "function"
    },
    {
      "inputs": [
        {
          "internalType": "address",
          "name": "addr",
          "type": "address"
        }
      ],
      "name": "getProof",
      "outputs": [
        {
          "internalType": "string",
          "name": "",
          "type": "string"
        }
      ],
      "stateMutability": "view",
      "type": "function",
      "constant": true
    }
  ],
  "bytecode": "0x608060405234801561001057600080fd5b506104d3806100206000396000f3fe608060405234801561001057600080fd5b5060043610610068577c010000000000000000000000000000000000000000000000000000000060003504633eea79d1811461006d57806344a78dc9146100965780634a5cfa3c146100a957806361612d51146100be575b600080fd5b61008061007b366004610372565b6100d1565b60405161008d9190610413565b60405180910390f35b6100806100a4366004610372565b61017b565b6100bc6100b7366004610394565b6101ed565b005b6100bc6100cc366004610394565b610261565b600160a060020a03811660009081526001602081815260409283902080548451600294821615610100026000190190911693909304601f8101839004830284018301909452838352606093909183018282801561016f5780601f106101445761010080835404028352916020019161016f565b820191906000526020600020905b81548152906001019060200180831161015257829003601f168201915b50505050509050919050565b600160a060020a0381166000908152602081815260409182902080548351601f600260001961010060018616150201909316929092049182018490048402810184019094528084526060939283018282801561016f5780601f106101445761010080835404028352916020019161016f565b600160a060020a0383163314610238576040517f08c379a000000000000000000000000000000000000000000000000000000000815260040161022f90610466565b60405180910390fd5b600160a060020a038316600090815260016020526040902061025b9083836102c2565b50505050565b600160a060020a03831633146102a3576040517f08c379a000000000000000000000000000000000000000000000000000000000815260040161022f90610466565b600160a060020a038316600090815260208190526040902061025b9083835b828054600181600116156101000203166002900490600052602060002090601f016020900481019282601f106103035782800160ff19823516178555610330565b82800160010185558215610330579182015b82811115610330578235825591602001919060010190610315565b5061033c929150610340565b5090565b5b8082111561033c5760008155600101610341565b8035600160a060020a038116811461036c57600080fd5b92915050565b600060208284031215610383578081fd5b61038d8383610355565b9392505050565b6000806000604084860312156103a8578182fd5b6103b28585610355565b9250602084013567ffffffffffffffff808211156103ce578384fd5b818601915086601f8301126103e1578384fd5b8135818111156103ef578485fd5b876020828501011115610400578485fd5b6020830194508093505050509250925092565b6000602080835283518082850152825b8181101561043f57858101830151858201604001528201610423565b818111156104505783604083870101525b50601f01601f1916929092016040019392505050565b6020808252600f908201527f57726974696e672064656e69656421000000000000000000000000000000000060408201526060019056fea2646970667358221220ad34c12a496435612027d270e55f32ec35c4418b7e5ea8db9917eb84ff807cc364736f6c634300060c0033",
  "immutableReferences": {},
  "source": "// SPDX-License-Identifier: MIT\r\npragma solidity >=0.4.22 <0.9.0;\r\npragma experimental ABIEncoderV2;\r\n\r\ncontract IpfsStorage {\r\n\r\n  mapping (address => string) hashIpfs_Enc;\r\n  mapping (address => string) hashIpfs_Proof;\r\n\r\n  // This function stores hash returned by IPFS relative to encrypted matrix\r\n  function setEnc(address addr, string calldata hashIpfs) public {\r\n    require(addr == msg.sender, \"Writing denied!\");\r\n    hashIpfs_Enc[addr] = hashIpfs;\r\n  }\r\n\r\n  // This function returns IPFS hash relative to encrypted matrix\r\n  function getEnc(address addr) public view returns (string memory) {\r\n    return hashIpfs_Enc[addr];\r\n  }\r\n\r\n  // This function stores hash returned by IPFS relative to proof\r\n  function setProof(address addr, string calldata hashIpfs) public {\r\n    require(addr == msg.sender, \"Writing denied!\");\r\n    hashIpfs_Proof[addr] = hashIpfs;\r\n  }\r\n\r\n  // This function returns IPFS hash relative to proof\r\n  function getProof(address addr) public view returns (string memory) {\r\n    return hashIpfs_Proof[addr];\r\n  }\r\n\r\n}",
  "sourcePath": "C:\\Users\\Claudio\\Desktop\\Tesi\\Codice reviews\\reviews - ipfs\\contracts\\IpfsStorage.sol",
  "compiler": {
    "name": "solc",
    "version": "0.6.12+commit.27d51765.Emscripten.clang"
  },
  "schemaVersion": "3.4.8",
  "updatedAt": "2022-09-18T09:39:15.436Z",
  "networkType": "ethereum",
  "devdoc": {
    "kind": "dev",
    "methods": {},
    "version": 1
  },
  "userdoc": {
    "kind": "user",
    "methods": {},
    "version": 1
  }
}