{
  "contractName": "Phases",
  "abi": [
    {
      "inputs": [
        {
          "internalType": "enum Phases.Phase",
          "name": "p",
          "type": "Phases.Phase"
        }
      ],
      "name": "checkPhase",
      "outputs": [],
      "stateMutability": "view",
      "type": "function",
      "constant": true
    }
  ],
  "bytecode": "0x610355610026600b82828239805160001a60731461001957fe5b30600052607381538281f3fe730000000000000000000000000000000000000000301460806040526004361061006f5760e060020a600035046334b6d081811461007457806340b694b51461008b57806358b3476a1461009e578063965fdd5c146100b3578063afbde963146100c8578063f7ad24d1146100dd575b600080fd5b81801561008057600080fd5b506100896100f2565b005b610089610099366004610293565b61010a565b8180156100aa57600080fd5b506100896101dd565b8180156100bf57600080fd5b506100896101f2565b8180156100d457600080fd5b50610089610207565b8180156100e957600080fd5b5061008961021c565b60006100fd8161010a565b610107600161022d565b50565b80600581111561011657fe5b60ff163073ffffffffffffffffffffffffffffffffffffffff1663a3a40ea56040518163ffffffff1660e060020a02815260040160206040518083038186803b15801561016257600080fd5b505afa158015610176573d6000803e3d6000fd5b505050506040513d601f19601f8201168201806040525081019061019a91906102b9565b60ff1614610107576040517f08c379a00000000000000000000000000000000000000000000000000000000081526004016101d4906102da565b60405180910390fd5b60026101e88161010a565b610107600361022d565b60016101fd8161010a565b610107600261022d565b60036102128161010a565b610107600461022d565b60046102278161010a565b61010760055b3063cd3f291082600581111561023f57fe5b6040518263ffffffff1660e060020a02815260040161025e9190610311565b600060405180830381600087803b15801561027857600080fd5b505af115801561028c573d6000803e3d6000fd5b5050505050565b6000602082840312156102a4578081fd5b8135600681106102b2578182fd5b9392505050565b6000602082840312156102ca578081fd5b815160ff811681146102b2578182fd5b6020808252601d908201527f446966666572656e74207068617365207468616e206578706563746564000000604082015260600190565b60ff9190911681526020019056fea2646970667358221220e6ef878d7d67a16971674c2e5b07b07c15140a33be158169a6363e75ff7c13b764736f6c634300060c0033",
  "immutableReferences": {},
  "source": "// SPDX-License-Identifier: MIT\n\npragma solidity >=0.4.18;\npragma experimental ABIEncoderV2;\n\nimport \"./ImpartialSelectionInterface.sol\";\n\n/// @title Execution Phases\n/// @author Giovanni Rescinito\n/// @notice phases occurring the system execution\nlibrary Phases{\n    // Enumeration of the possible execution phases of the system\n    enum Phase {Submission, \n                Assignment, \n                Commitment, \n                Reveal, \n                Selection, \n                Completed}\n\n    /// @notice checks that the contract's current phase is the expected one\n    /// @param p expected phase\n    modifier check(Phase p) {\n        checkPhase(p);\n        _;\n    }\n\n    /// @notice checks that the contract's current phase is the expected one\n    /// @param p expected phase\n    function checkPhase(Phase p) view public {\n        require(ImpartialSelectionInterface(address(this)).getCurrentPhase() == uint8(p), \"Different phase than expected\"); \n    }\n\n    /// @notice updates the current phase of the contract\n    /// @param phase the phase the contract should be put in\n    function changePhase(Phase phase) private {\n        ImpartialSelectionInterface(address(this)).setCurrentPhase(uint8(phase));\n    }\n\n    /// @notice ends submission phase and starts assignment phase\n    function endSubmissionPhase() external check(Phase.Submission) {\n        changePhase(Phase.Assignment);\n    }\n\n    /// @notice ends assignment phase and starts commitment phase\n    function endAssignmentPhase() external check(Phase.Assignment) {\n        changePhase(Phase.Commitment);\n    }\n\n    /// @notice ends commitment phase and starts reveal phase\n    function endCommitmentPhase() external check(Phase.Commitment){\n        changePhase(Phase.Reveal);\n    }\n\n    /// @notice ends reveal phase and starts selection phase\n    function endRevealPhase() external check(Phase.Reveal){\n        changePhase(Phase.Selection);\n    }\n\n    /// @notice ends selection phase and starts completed phase\n    function endSelectionPhase() external check(Phase.Selection) {\n        changePhase(Phase.Completed);\n    }\n}",
  "sourcePath": "C:\\Users\\Claudio\\Desktop\\Tesi\\Codice reviews\\reviews - ipfs\\contracts\\Phases.sol",
  "compiler": {
    "name": "solc",
    "version": "0.6.12+commit.27d51765.Emscripten.clang"
  },
  "schemaVersion": "3.4.8",
  "updatedAt": "2022-09-18T09:39:15.210Z",
  "networkType": "ethereum",
  "devdoc": {
    "author": "Giovanni Rescinito",
    "kind": "dev",
    "methods": {
      "checkPhase(Phases.Phase)": {
        "params": {
          "p": "expected phase"
        }
      }
    },
    "title": "Execution Phases",
    "version": 1
  },
  "userdoc": {
    "kind": "user",
    "methods": {
      "checkPhase(Phases.Phase)": {
        "notice": "checks that the contract's current phase is the expected one"
      },
      "endAssignmentPhase()": {
        "notice": "ends assignment phase and starts commitment phase"
      },
      "endCommitmentPhase()": {
        "notice": "ends commitment phase and starts reveal phase"
      },
      "endRevealPhase()": {
        "notice": "ends reveal phase and starts selection phase"
      },
      "endSelectionPhase()": {
        "notice": "ends selection phase and starts completed phase"
      },
      "endSubmissionPhase()": {
        "notice": "ends submission phase and starts assignment phase"
      }
    },
    "notice": "phases occurring the system execution",
    "version": 1
  }
}