{
  "contractName": "Proposals",
  "abi": [
    {
      "anonymous": false,
      "inputs": [
        {
          "indexed": false,
          "internalType": "uint256",
          "name": "tokenId",
          "type": "uint256"
        },
        {
          "indexed": false,
          "internalType": "bytes32",
          "name": "commitment",
          "type": "bytes32"
        }
      ],
      "name": "Committed",
      "type": "event"
    },
    {
      "anonymous": false,
      "inputs": [
        {
          "indexed": false,
          "internalType": "bytes32",
          "name": "hashedWork",
          "type": "bytes32"
        },
        {
          "indexed": false,
          "internalType": "uint256",
          "name": "ID",
          "type": "uint256"
        }
      ],
      "name": "ProposalSubmitted",
      "type": "event"
    },
    {
      "anonymous": false,
      "inputs": [
        {
          "indexed": false,
          "internalType": "bytes32",
          "name": "commitment",
          "type": "bytes32"
        },
        {
          "indexed": false,
          "internalType": "uint256",
          "name": "randomness",
          "type": "uint256"
        },
        {
          "indexed": false,
          "internalType": "uint256[]",
          "name": "assignments",
          "type": "uint256[]"
        },
        {
          "indexed": false,
          "internalType": "uint256[]",
          "name": "evaluations",
          "type": "uint256[]"
        },
        {
          "indexed": false,
          "internalType": "uint256",
          "name": "tokenId",
          "type": "uint256"
        }
      ],
      "name": "Revealed",
      "type": "event"
    },
    {
      "inputs": [
        {
          "components": [
            {
              "internalType": "uint256",
              "name": "assignment",
              "type": "uint256"
            },
            {
              "internalType": "bytes32",
              "name": "commitment",
              "type": "bytes32"
            },
            {
              "internalType": "bytes",
              "name": "work",
              "type": "bytes"
            }
          ],
          "internalType": "struct Proposals.Proposal",
          "name": "p",
          "type": "tuple"
        }
      ],
      "name": "getAssignment",
      "outputs": [
        {
          "internalType": "uint256[]",
          "name": "",
          "type": "uint256[]"
        }
      ],
      "stateMutability": "pure",
      "type": "function",
      "constant": true
    },
    {
      "inputs": [
        {
          "components": [
            {
              "internalType": "uint256",
              "name": "assignment",
              "type": "uint256"
            },
            {
              "internalType": "bytes32",
              "name": "commitment",
              "type": "bytes32"
            },
            {
              "internalType": "bytes",
              "name": "work",
              "type": "bytes"
            }
          ],
          "internalType": "struct Proposals.Proposal",
          "name": "p",
          "type": "tuple"
        }
      ],
      "name": "getWork",
      "outputs": [
        {
          "internalType": "bytes",
          "name": "",
          "type": "bytes"
        }
      ],
      "stateMutability": "pure",
      "type": "function",
      "constant": true
    },
    {
      "inputs": [
        {
          "components": [
            {
              "internalType": "uint256",
              "name": "assignment",
              "type": "uint256"
            },
            {
              "internalType": "bytes32",
              "name": "commitment",
              "type": "bytes32"
            },
            {
              "internalType": "bytes",
              "name": "work",
              "type": "bytes"
            }
          ],
          "internalType": "struct Proposals.Proposal",
          "name": "p",
          "type": "tuple"
        }
      ],
      "name": "getCommitment",
      "outputs": [
        {
          "internalType": "bytes32",
          "name": "",
          "type": "bytes32"
        }
      ],
      "stateMutability": "pure",
      "type": "function",
      "constant": true
    }
  ],
  "bytecode": "0x610ee5610026600b82828239805160001a60731461001957fe5b30600052607381538281f3fe73000000000000000000000000000000000000000030146080604052600436106100db576000357c010000000000000000000000000000000000000000000000000000000090048063a33265fe11610098578063a33265fe14610191578063a388609b146101b1578063b38d0c58146101d1578063c12c3728146101f1578063ed98094114610204578063ef64a3ca14610217576100db565b80630323d6ce146100e05780631aed6b1514610102578063313500ce1461012b578063354de09f1461014b578063614d273c1461016b5780638ff608e11461017e575b600080fd5b8180156100ec57600080fd5b506101006100fb366004610af6565b610237565b005b610115610110366004610b44565b610259565b6040516101229190610ded565b60405180910390f35b61013e610139366004610b44565b610276565b6040516101229190610cda565b61015e610159366004610a34565b61033c565b6040516101229190610d1e565b61015e610179366004610a67565b610343565b61011561018c366004610b44565b610347565b81801561019d57600080fd5b506101156101ac366004610a7f565b610465565b8180156101bd57600080fd5b506101006101cc366004610be2565b6105b2565b8180156101dd57600080fd5b506101006101ec366004610b65565b610647565b61013e6101ff366004610a34565b610739565b61015e610212366004610b44565b6107ea565b61022a610225366004610a34565b610826565b6040516101229190610d35565b6102418383610870565b60009182526002909301602052604090209190915550565b6102616108d6565b61026f8361018c85856107ea565b9392505050565b60606102806108d6565b61028a8484610259565b80516040517fb9ea425200000000000000000000000000000000000000000000000000000000815291925073__Zipper________________________________9163b9ea4252916102e091601090600401610d27565b60006040518083038186803b1580156102f857600080fd5b505af415801561030c573d6000803e3d6000fd5b505050506040513d6000823e601f3d908101601f19168201604052610334919081019061099f565b949350505050565b6020013590565b5490565b61034f6108d6565b82828154811061037d5760405160e560020a62461bcd02815260040161037490610d7f565b60405180910390fd5b84600001848154811061038c57fe5b90600052602060002090600302016040518060600160405290816000820154815260200160018201548152602001600282018054600181600116156101000203166002900480601f0160208091040260200160405190810160405280929190818152602001828054600181600116156101000203166002900480156104525780601f1061042757610100808354040283529160200191610452565b820191906000526020600020905b81548152906001019060200180831161043557829003601f168201915b5050505050815250509250505092915050565b61046d6108d6565b600061047984846108a3565b600081815260018701602052604090205490915080156104ae5760405160e560020a62461bcd02815260040161037490610db6565b6104b66108d6565b6040518060600160405280600081526020016000600102815260200187878080601f0160208091040260200160405190810160405280939291908181526020018383808284376000920182905250939094525050895460018181018c558b83526020928390208551600390930201918255828501519082015560408401518051949550859491935061054f9260028501929101906108f5565b50508754600085815260018a01602052604090819020829055519093507fc2bd5b80b32640ae843c6c1942cb613e0df704b80d9c888a9e6d65f573833b7591506105a0908590600019860190610d27565b60405180910390a19695505050505050565b60006105be84846107ea565b9050835481106105e35760405160e560020a62461bcd02815260040161037490610d7f565b818460000182815481106105f357fe5b9060005260206000209060030201600101819055507f68e0867601a98978930107aee7f425665e61edd70ca594c68ca5da9e81f84c298383604051610639929190610d27565b60405180910390a150505050565b83838154811061066c5760405160e560020a62461bcd02815260040161037490610d7f565b6040517fd4a8c0e100000000000000000000000000000000000000000000000000000000815273__Zipper________________________________9063d4a8c0e1906106c19087908790601090600401610c80565b60206040518083038186803b1580156106d957600080fd5b505af41580156106ed573d6000803e3d6000fd5b505050506040513d601f19601f820116820180604052508101906107119190610c0d565b86600001868154811061072057fe5b6000918252602090912060039091020155505050505050565b6040517fb9ea425200000000000000000000000000000000000000000000000000000000815260609073__Zipper________________________________9063b9ea42529061079090853590601090600401610d27565b60006040518083038186803b1580156107a857600080fd5b505af41580156107bc573d6000803e3d6000fd5b505050506040513d6000823e601f3d908101601f191682016040526107e4919081019061099f565b92915050565b60008181526002830160205260408120548061081b5760405160e560020a62461bcd02815260040161037490610d48565b600019019392505050565b60606108356040830183610e1c565b8080601f0160208091040260200160405190810160405280939291908181526020018383808284376000920191909152509295945050505050565b6000600183018161088c6108876040860186610e1c565b6108a3565b815260200190815260200160002054905092915050565b600082826040516020016108b8929190610c70565b60405160208183030381529060405280519060200120905092915050565b6040805160608082018352600080835260208301529181019190915290565b828054600181600116156101000203166002900490600052602060002090601f016020900481019282601f1061093657805160ff1916838001178555610963565b82800160010185558215610963579182015b82811115610963578251825591602001919060010190610948565b5061096f929150610973565b5090565b5b8082111561096f5760008155600101610974565b600060608284031215610999578081fd5b50919050565b600060208083850312156109b1578182fd5b825167ffffffffffffffff8111156109c7578283fd5b8301601f810185136109d7578283fd5b80516109ea6109e582610e8f565b610e68565b8181528381019083850185840285018601891015610a06578687fd5b8694505b83851015610a28578051835260019490940193918501918501610a0a565b50979650505050505050565b600060208284031215610a45578081fd5b813567ffffffffffffffff811115610a5b578182fd5b61033484828501610988565b600060208284031215610a78578081fd5b5035919050565b600080600060408486031215610a93578182fd5b83359250602084013567ffffffffffffffff80821115610ab1578384fd5b818601915086601f830112610ac4578384fd5b813581811115610ad2578485fd5b876020828501011115610ae3578485fd5b6020830194508093505050509250925092565b600080600060608486031215610b0a578283fd5b83359250602084013567ffffffffffffffff811115610b27578283fd5b610b3386828701610988565b925050604084013590509250925092565b60008060408385031215610b56578182fd5b50508035926020909101359150565b60008060008060608587031215610b7a578081fd5b8435935060208501359250604085013567ffffffffffffffff80821115610b9f578283fd5b818701915087601f830112610bb2578283fd5b813581811115610bc0578384fd5b8860208083028501011115610bd3578384fd5b95989497505060200194505050565b600080600060608486031215610bf6578283fd5b505081359360208301359350604090920135919050565b600060208284031215610c1e578081fd5b5051919050565b60008151808452815b81811015610c4a57602081850181015186830182015201610c2e565b81811115610c5b5782602083870101525b50601f01601f19169290920160200192915050565b6000828483379101908152919050565b6000604082528360408301527f07ffffffffffffffffffffffffffffffffffffffffffffffffffffffffffffff841115610cb8578081fd5b6020840280866060850137820160600190815260209091019190915292915050565b6020808252825182820181905260009190848201906040850190845b81811015610d1257835183529284019291840191600101610cf6565b50909695505050505050565b90815260200190565b918252602082015260400190565b60006020825261026f6020830184610c25565b60208082526011908201527f546f6b656e20756e617661696c61626c65000000000000000000000000000000604082015260600190565b60208082526011908201527f536574206f7574206f6620626f756e6473000000000000000000000000000000604082015260600190565b60208082526015908201527f576f726b20616c72656164792070726f706f7365640000000000000000000000604082015260600190565b600060208252825160208301526020830151604083015260408301516060808401526103346080840182610c25565b6000808335601e19843603018112610e32578283fd5b83018035915067ffffffffffffffff821115610e4c578283fd5b602001915036819003821315610e6157600080fd5b9250929050565b60405181810167ffffffffffffffff81118282101715610e8757600080fd5b604052919050565b600067ffffffffffffffff821115610ea5578081fd5b506020908102019056fea2646970667358221220cff47eba73ac3cb04ac7713dab1c3d768a7f2671ca7748d1c294219f26d6cf5f64736f6c634300060c0033",
  "immutableReferences": {},
  "source": "// SPDX-License-Identifier: MIT\n\npragma solidity >=0.4.18;\npragma experimental ABIEncoderV2;\n\nimport \"./Zipper.sol\";\n\n/// @title Set containing proposals\n/// @author Giovanni Rescinito\n/// @notice proposals submitted by agents, along with the corresponding assignment and commitment\nlibrary Proposals{\n    //Data Structures\n\n    /// @notice Data structure related to a single proposal\n    struct Proposal {\n        uint assignment;        // zipped assignment associated to the proposal\n        bytes32 commitment;     // commitment associated to the proposal\n        bytes work;             // work submitted\n    }\n\n    /// @notice Set data structure containing proposals\n    struct Set {\n        Proposal[] elements;                    // list of the proposals submitted\n        mapping (bytes32 => uint) idx;          // maps the proposal to the index in the list\n        mapping (uint => uint) tokenToIndex;    // maps the token associated to the proposal to the corresponding index in the list\n    }\n\n    //Events\n    event ProposalSubmitted(bytes32 hashedWork, uint ID);\n    event Committed(uint tokenId, bytes32 commitment);\n    event Revealed(bytes32 commitment,uint randomness, uint[] assignments, uint[] evaluations, uint tokenId);\n\n    /// @notice checks that the index corresponds to an existing value in the set\n    /// @param s the set to check\n    /// @param index the index to check\n    modifier checkIndex(Set storage s, uint index) {\n        require(index >= 0 && index < s.elements.length, \"Set out of bounds\");\n        _;\n    }\n\n    //Utility\n\n    /// @notice returns the number of proposals submitted\n    /// @param s set containing proposals\n    /// @return the length of the list contained in the set\n    function length(Set storage s) view external returns (uint) {\n        return s.elements.length;\n    }\n\n    /// @notice hashes the work submitted to obtain the index of the set\n    /// @param work the work to be hashed\n    /// @return the keccak256 hash of the work\n    function encodeWork(bytes calldata work) pure private returns (bytes32){\n        return keccak256(abi.encodePacked(work));\n    }\n\n    //Setters\n\n    /// @notice stores a proposal in the set\n    /// @param s set containing proposals\n    /// @param work the work submitted\n    /// @return the proposal created from the work\n    function propose(Set storage s, bytes calldata work) external returns (Proposal memory){\n        bytes32 h = encodeWork(work);\n        uint index = s.idx[h];\n        require(index == 0, \"Work already proposed\");\n        Proposal memory p = Proposal(0, 0x0, work);\n        s.elements.push(p);\n        index = s.elements.length;\n        s.idx[h] = index;\n        emit ProposalSubmitted(h, index - 1);\n        return p;\n    }\n\n    /// @notice updates the assignment in the set given a specific index\n    /// @param s set containing proposals\n    /// @param index index in the list of elements of the set to update\n    /// @param assignment the assignment to be stored\n    function updateAssignment(Set storage s, uint index, uint[] calldata assignment) external checkIndex(s, index) {\n        s.elements[index].assignment = Zipper.zipArrayWithSize(assignment,16);\n    }\n\n    /// @notice associates a proposal to a token\n    /// @param s set containing proposals\n    /// @param p proposal to consider\n    /// @param tokenId token to associate to the proposal\n    function setToken(Set storage s, Proposal calldata p, uint tokenId) external{\n        s.tokenToIndex[tokenId] = getId(s, p);\n    }\n\n    /// @notice stores the commitment in the proposal considered\n    /// @param s set containing proposals\n    /// @param tokenId token associated to the proposal for which the evaluations' commitment should be stored\n    /// @param com the commitment to save\n    function setCommitment(Set storage s, uint tokenId, bytes32 com)  external{\n        uint id = getIdFromToken(s,tokenId);\n        require(id >= 0 && id < s.elements.length, \"Set out of bounds\"); \n        s.elements[id].commitment = com;\n        emit Committed(tokenId, com);\n    }\n\n    //Getters\n\n    /// @param p proposal considered\n    /// @return the assignment associated to the proposal\n    function getAssignment(Proposal calldata p) pure external returns (uint[] memory) {\n        return Zipper.unzipArrayWithSize(p.assignment,16);\n    }\n\n    /// @param p proposal considered\n    /// @return the work associated to the proposal\n    function getWork(Proposal calldata p) pure external returns (bytes memory) {\n        return p.work;\n    }\n\n    /// @param p proposal considered\n    /// @return the commitment associated to the proposal\n    function getCommitment(Proposal calldata p) pure external returns (bytes32){\n        return p.commitment;\n    }\n\n    /// @param s set containing proposals\n    /// @param p proposal considered\n    /// @return the index associated to the proposal\n    function getId(Set storage s, Proposal calldata p) view private returns (uint){\n        return s.idx[encodeWork(p.work)];\n    }\n\n    /// @param s set containing proposals\n    /// @param tokenId the token associated to the proposal\n    /// @return the index associated to the proposal\n    function getIdFromToken(Set storage s, uint tokenId) view public returns (uint){\n        uint id = s.tokenToIndex[tokenId];\n        require(id != 0, \"Token unavailable\");\n        return id - 1;\n    }\n    \n    /// @param s set containing proposals\n    /// @param index the index in the list of proposals\n    /// @return the proposal associated to the index in the list\n    function getProposalAt(Set storage s, uint index) view public checkIndex(s, index) returns (Proposal memory) {\n        return s.elements[index];\n    }\n\n    /// @param s set containing proposals\n    /// @param tokenId the token associated to the proposal\n    /// @return the proposal associated to the token provided\n    function getProposalByToken(Set storage s, uint tokenId) view public returns (Proposal memory){\n        return getProposalAt(s, getIdFromToken(s,tokenId));\n    }\n\n    /// @param s set containing proposals\n    /// @param tokenId the token associated to the proposal\n    /// @return the assignment associated to the proposal related to the token provided\n    function getAssignmentByToken(Set storage s, uint tokenId) view external returns (uint[] memory) {\n        Proposal memory p = getProposalByToken(s, tokenId);\n        return Zipper.unzipArrayWithSize(p.assignment,16);\n    }\n}",
  "sourcePath": "C:\\Users\\Claudio\\Desktop\\Tesi\\Codice reviews\\reviews - ipfs\\contracts\\Proposals.sol",
  "compiler": {
    "name": "solc",
    "version": "0.6.12+commit.27d51765.Emscripten.clang"
  },
  "schemaVersion": "3.4.8",
  "updatedAt": "2022-09-18T09:39:15.214Z",
  "networkType": "ethereum",
  "devdoc": {
    "author": "Giovanni Rescinito",
    "kind": "dev",
    "methods": {
      "getAssignment(Proposals.Proposal)": {
        "params": {
          "p": "proposal considered"
        },
        "returns": {
          "_0": "the assignment associated to the proposal"
        }
      },
      "getAssignmentByToken(Proposals.Set storage,uint256)": {
        "params": {
          "s": "set containing proposals",
          "tokenId": "the token associated to the proposal"
        },
        "returns": {
          "_0": "the assignment associated to the proposal related to the token provided"
        }
      },
      "getCommitment(Proposals.Proposal)": {
        "params": {
          "p": "proposal considered"
        },
        "returns": {
          "_0": "the commitment associated to the proposal"
        }
      },
      "getIdFromToken(Proposals.Set storage,uint256)": {
        "params": {
          "s": "set containing proposals",
          "tokenId": "the token associated to the proposal"
        },
        "returns": {
          "_0": "the index associated to the proposal"
        }
      },
      "getProposalAt(Proposals.Set storage,uint256)": {
        "params": {
          "index": "the index in the list of proposals",
          "s": "set containing proposals"
        },
        "returns": {
          "_0": "the proposal associated to the index in the list"
        }
      },
      "getProposalByToken(Proposals.Set storage,uint256)": {
        "params": {
          "s": "set containing proposals",
          "tokenId": "the token associated to the proposal"
        },
        "returns": {
          "_0": "the proposal associated to the token provided"
        }
      },
      "getWork(Proposals.Proposal)": {
        "params": {
          "p": "proposal considered"
        },
        "returns": {
          "_0": "the work associated to the proposal"
        }
      },
      "length(Proposals.Set storage)": {
        "params": {
          "s": "set containing proposals"
        },
        "returns": {
          "_0": "the length of the list contained in the set"
        }
      },
      "propose(Proposals.Set storage,bytes)": {
        "params": {
          "s": "set containing proposals",
          "work": "the work submitted"
        },
        "returns": {
          "_0": "the proposal created from the work"
        }
      },
      "setCommitment(Proposals.Set storage,uint256,bytes32)": {
        "params": {
          "com": "the commitment to save",
          "s": "set containing proposals",
          "tokenId": "token associated to the proposal for which the evaluations' commitment should be stored"
        }
      },
      "setToken(Proposals.Set storage,Proposals.Proposal,uint256)": {
        "params": {
          "p": "proposal to consider",
          "s": "set containing proposals",
          "tokenId": "token to associate to the proposal"
        }
      },
      "updateAssignment(Proposals.Set storage,uint256,uint256[])": {
        "params": {
          "assignment": "the assignment to be stored",
          "index": "index in the list of elements of the set to update",
          "s": "set containing proposals"
        }
      }
    },
    "title": "Set containing proposals",
    "version": 1
  },
  "userdoc": {
    "kind": "user",
    "methods": {
      "length(Proposals.Set storage)": {
        "notice": "returns the number of proposals submitted"
      },
      "propose(Proposals.Set storage,bytes)": {
        "notice": "stores a proposal in the set"
      },
      "setCommitment(Proposals.Set storage,uint256,bytes32)": {
        "notice": "stores the commitment in the proposal considered"
      },
      "setToken(Proposals.Set storage,Proposals.Proposal,uint256)": {
        "notice": "associates a proposal to a token"
      },
      "updateAssignment(Proposals.Set storage,uint256,uint256[])": {
        "notice": "updates the assignment in the set given a specific index"
      }
    },
    "notice": "proposals submitted by agents, along with the corresponding assignment and commitment",
    "version": 1
  }
}