{
  "contractName": "Protocol",
  "abi": [
    {
      "inputs": [
        {
          "internalType": "address",
          "name": "nodeId",
          "type": "address"
        },
        {
          "internalType": "uint256[]",
          "name": "cypher",
          "type": "uint256[]"
        }
      ],
      "name": "insert_encrypted_matrix",
      "outputs": [],
      "stateMutability": "nonpayable",
      "type": "function"
    },
    {
      "inputs": [
        {
          "internalType": "address",
          "name": "nodeId",
          "type": "address"
        }
      ],
      "name": "get_encrypted_matrix",
      "outputs": [
        {
          "internalType": "uint256[]",
          "name": "cypher",
          "type": "uint256[]"
        }
      ],
      "stateMutability": "view",
      "type": "function",
      "constant": true
    },
    {
      "inputs": [],
      "name": "insert_proof",
      "outputs": [],
      "stateMutability": "nonpayable",
      "type": "function"
    },
    {
      "inputs": [],
      "name": "get_proof",
      "outputs": [],
      "stateMutability": "view",
      "type": "function",
      "constant": true
    }
  ],
  "bytecode": "0x608060405234801561001057600080fd5b506102cc806100206000396000f3fe608060405234801561001057600080fd5b5060043610610068577c010000000000000000000000000000000000000000000000000000000060003504631a56bbb3811461006d57806370372632146100fc578063c52cdaaa146100fc578063d318227814610104575b600080fd5b6100fa6004803603604081101561008357600080fd5b73ffffffffffffffffffffffffffffffffffffffff82351691908101906040810160208201356401000000008111156100bb57600080fd5b8201836020820111156100cd57600080fd5b803590602001918460208302840111640100000000831117156100ef57600080fd5b509092509050610187565b005b6100fa6101bd565b6101376004803603602081101561011a57600080fd5b503573ffffffffffffffffffffffffffffffffffffffff166101bf565b60408051602080825283518183015283519192839290830191858101910280838360005b8381101561017357818101518382015260200161015b565b505050509050019250505060405180910390f35b73ffffffffffffffffffffffffffffffffffffffff831660009081526020819052604090206101b7908383610236565b50505050565b565b73ffffffffffffffffffffffffffffffffffffffff81166000908152602081815260409182902080548351818402810184019094528084526060939283018282801561022a57602002820191906000526020600020905b815481526020019060010190808311610216575b50505050509050919050565b828054828255906000526020600020908101928215610271579160200282015b82811115610271578235825591602001919060010190610256565b5061027d929150610281565b5090565b5b8082111561027d576000815560010161028256fea26469706673582212209d4e146b3b05d17f772c59e008009de5c9685f30168bf9800644c4b2201266f864736f6c634300060c0033",
  "immutableReferences": {},
  "source": "// SPDX-License-Identifier: MIT\r\npragma solidity >=0.4.22 <0.9.0;\r\n\r\ncontract Protocol {\r\n\r\n    struct CypherText {\r\n        uint[] c;\r\n    }\r\n\r\n    mapping(address => CypherText) mapNode;\r\n\r\n    function insert_encrypted_matrix(address nodeId, uint[] calldata cypher) public {\r\n        mapNode[nodeId].c = cypher;\r\n    }\r\n\r\n    function get_encrypted_matrix(address nodeId) public view returns (uint[] memory cypher) {\r\n        return mapNode[nodeId].c;\r\n    }\r\n\r\n    function insert_proof() public {\r\n\r\n    }\r\n\r\n    function get_proof() public view {\r\n\r\n    }\r\n\r\n}",
  "sourcePath": "C:\\Users\\Claudio\\Desktop\\Tesi 03-08-2022\\Codice reviews\\reviews1\\contracts\\Protocol.sol",
  "compiler": {
    "name": "solc",
    "version": "0.6.12+commit.27d51765.Emscripten.clang"
  },
  "schemaVersion": "3.4.8",
  "updatedAt": "2022-08-29T08:46:40.147Z",
  "networkType": "ethereum",
  "devdoc": {
    "kind": "dev",
    "methods": {},
    "version": 1
  },
  "userdoc": {
    "kind": "user",
    "methods": {},
    "version": 1
  }
}