{
  "contractName": "Token",
  "abi": [
    {
      "inputs": [
        {
          "internalType": "string",
          "name": "name",
          "type": "string"
        },
        {
          "internalType": "string",
          "name": "symbol",
          "type": "string"
        },
        {
          "internalType": "string",
          "name": "baseURI",
          "type": "string"
        }
      ],
      "stateMutability": "nonpayable",
      "type": "constructor"
    },
    {
      "anonymous": false,
      "inputs": [
        {
          "indexed": true,
          "internalType": "address",
          "name": "owner",
          "type": "address"
        },
        {
          "indexed": true,
          "internalType": "address",
          "name": "approved",
          "type": "address"
        },
        {
          "indexed": true,
          "internalType": "uint256",
          "name": "tokenId",
          "type": "uint256"
        }
      ],
      "name": "Approval",
      "type": "event"
    },
    {
      "anonymous": false,
      "inputs": [
        {
          "indexed": true,
          "internalType": "address",
          "name": "owner",
          "type": "address"
        },
        {
          "indexed": true,
          "internalType": "address",
          "name": "operator",
          "type": "address"
        },
        {
          "indexed": false,
          "internalType": "bool",
          "name": "approved",
          "type": "bool"
        }
      ],
      "name": "ApprovalForAll",
      "type": "event"
    },
    {
      "anonymous": false,
      "inputs": [
        {
          "indexed": true,
          "internalType": "bytes32",
          "name": "role",
          "type": "bytes32"
        },
        {
          "indexed": true,
          "internalType": "bytes32",
          "name": "previousAdminRole",
          "type": "bytes32"
        },
        {
          "indexed": true,
          "internalType": "bytes32",
          "name": "newAdminRole",
          "type": "bytes32"
        }
      ],
      "name": "RoleAdminChanged",
      "type": "event"
    },
    {
      "anonymous": false,
      "inputs": [
        {
          "indexed": true,
          "internalType": "bytes32",
          "name": "role",
          "type": "bytes32"
        },
        {
          "indexed": true,
          "internalType": "address",
          "name": "account",
          "type": "address"
        },
        {
          "indexed": true,
          "internalType": "address",
          "name": "sender",
          "type": "address"
        }
      ],
      "name": "RoleGranted",
      "type": "event"
    },
    {
      "anonymous": false,
      "inputs": [
        {
          "indexed": true,
          "internalType": "bytes32",
          "name": "role",
          "type": "bytes32"
        },
        {
          "indexed": true,
          "internalType": "address",
          "name": "account",
          "type": "address"
        },
        {
          "indexed": true,
          "internalType": "address",
          "name": "sender",
          "type": "address"
        }
      ],
      "name": "RoleRevoked",
      "type": "event"
    },
    {
      "anonymous": false,
      "inputs": [
        {
          "indexed": false,
          "internalType": "address",
          "name": "to",
          "type": "address"
        },
        {
          "indexed": false,
          "internalType": "uint256",
          "name": "tokenId",
          "type": "uint256"
        }
      ],
      "name": "TokenAssigned",
      "type": "event"
    },
    {
      "anonymous": false,
      "inputs": [
        {
          "indexed": true,
          "internalType": "address",
          "name": "from",
          "type": "address"
        },
        {
          "indexed": true,
          "internalType": "address",
          "name": "to",
          "type": "address"
        },
        {
          "indexed": true,
          "internalType": "uint256",
          "name": "tokenId",
          "type": "uint256"
        }
      ],
      "name": "Transfer",
      "type": "event"
    },
    {
      "inputs": [],
      "name": "DEFAULT_ADMIN_ROLE",
      "outputs": [
        {
          "internalType": "bytes32",
          "name": "",
          "type": "bytes32"
        }
      ],
      "stateMutability": "view",
      "type": "function",
      "constant": true
    },
    {
      "inputs": [],
      "name": "MINTER_ROLE",
      "outputs": [
        {
          "internalType": "bytes32",
          "name": "",
          "type": "bytes32"
        }
      ],
      "stateMutability": "view",
      "type": "function",
      "constant": true
    },
    {
      "inputs": [
        {
          "internalType": "address",
          "name": "to",
          "type": "address"
        },
        {
          "internalType": "uint256",
          "name": "tokenId",
          "type": "uint256"
        }
      ],
      "name": "approve",
      "outputs": [],
      "stateMutability": "nonpayable",
      "type": "function"
    },
    {
      "inputs": [
        {
          "internalType": "address",
          "name": "owner",
          "type": "address"
        }
      ],
      "name": "balanceOf",
      "outputs": [
        {
          "internalType": "uint256",
          "name": "",
          "type": "uint256"
        }
      ],
      "stateMutability": "view",
      "type": "function",
      "constant": true
    },
    {
      "inputs": [],
      "name": "baseURI",
      "outputs": [
        {
          "internalType": "string",
          "name": "",
          "type": "string"
        }
      ],
      "stateMutability": "view",
      "type": "function",
      "constant": true
    },
    {
      "inputs": [
        {
          "internalType": "uint256",
          "name": "tokenId",
          "type": "uint256"
        }
      ],
      "name": "getApproved",
      "outputs": [
        {
          "internalType": "address",
          "name": "",
          "type": "address"
        }
      ],
      "stateMutability": "view",
      "type": "function",
      "constant": true
    },
    {
      "inputs": [
        {
          "internalType": "bytes32",
          "name": "role",
          "type": "bytes32"
        }
      ],
      "name": "getRoleAdmin",
      "outputs": [
        {
          "internalType": "bytes32",
          "name": "",
          "type": "bytes32"
        }
      ],
      "stateMutability": "view",
      "type": "function",
      "constant": true
    },
    {
      "inputs": [
        {
          "internalType": "bytes32",
          "name": "role",
          "type": "bytes32"
        },
        {
          "internalType": "uint256",
          "name": "index",
          "type": "uint256"
        }
      ],
      "name": "getRoleMember",
      "outputs": [
        {
          "internalType": "address",
          "name": "",
          "type": "address"
        }
      ],
      "stateMutability": "view",
      "type": "function",
      "constant": true
    },
    {
      "inputs": [
        {
          "internalType": "bytes32",
          "name": "role",
          "type": "bytes32"
        }
      ],
      "name": "getRoleMemberCount",
      "outputs": [
        {
          "internalType": "uint256",
          "name": "",
          "type": "uint256"
        }
      ],
      "stateMutability": "view",
      "type": "function",
      "constant": true
    },
    {
      "inputs": [
        {
          "internalType": "bytes32",
          "name": "role",
          "type": "bytes32"
        },
        {
          "internalType": "address",
          "name": "account",
          "type": "address"
        }
      ],
      "name": "grantRole",
      "outputs": [],
      "stateMutability": "nonpayable",
      "type": "function"
    },
    {
      "inputs": [
        {
          "internalType": "bytes32",
          "name": "role",
          "type": "bytes32"
        },
        {
          "internalType": "address",
          "name": "account",
          "type": "address"
        }
      ],
      "name": "hasRole",
      "outputs": [
        {
          "internalType": "bool",
          "name": "",
          "type": "bool"
        }
      ],
      "stateMutability": "view",
      "type": "function",
      "constant": true
    },
    {
      "inputs": [
        {
          "internalType": "address",
          "name": "owner",
          "type": "address"
        },
        {
          "internalType": "address",
          "name": "operator",
          "type": "address"
        }
      ],
      "name": "isApprovedForAll",
      "outputs": [
        {
          "internalType": "bool",
          "name": "",
          "type": "bool"
        }
      ],
      "stateMutability": "view",
      "type": "function",
      "constant": true
    },
    {
      "inputs": [],
      "name": "name",
      "outputs": [
        {
          "internalType": "string",
          "name": "",
          "type": "string"
        }
      ],
      "stateMutability": "view",
      "type": "function",
      "constant": true
    },
    {
      "inputs": [
        {
          "internalType": "uint256",
          "name": "tokenId",
          "type": "uint256"
        }
      ],
      "name": "ownerOf",
      "outputs": [
        {
          "internalType": "address",
          "name": "",
          "type": "address"
        }
      ],
      "stateMutability": "view",
      "type": "function",
      "constant": true
    },
    {
      "inputs": [
        {
          "internalType": "bytes32",
          "name": "role",
          "type": "bytes32"
        },
        {
          "internalType": "address",
          "name": "account",
          "type": "address"
        }
      ],
      "name": "renounceRole",
      "outputs": [],
      "stateMutability": "nonpayable",
      "type": "function"
    },
    {
      "inputs": [
        {
          "internalType": "bytes32",
          "name": "role",
          "type": "bytes32"
        },
        {
          "internalType": "address",
          "name": "account",
          "type": "address"
        }
      ],
      "name": "revokeRole",
      "outputs": [],
      "stateMutability": "nonpayable",
      "type": "function"
    },
    {
      "inputs": [
        {
          "internalType": "address",
          "name": "from",
          "type": "address"
        },
        {
          "internalType": "address",
          "name": "to",
          "type": "address"
        },
        {
          "internalType": "uint256",
          "name": "tokenId",
          "type": "uint256"
        }
      ],
      "name": "safeTransferFrom",
      "outputs": [],
      "stateMutability": "nonpayable",
      "type": "function"
    },
    {
      "inputs": [
        {
          "internalType": "address",
          "name": "from",
          "type": "address"
        },
        {
          "internalType": "address",
          "name": "to",
          "type": "address"
        },
        {
          "internalType": "uint256",
          "name": "tokenId",
          "type": "uint256"
        },
        {
          "internalType": "bytes",
          "name": "_data",
          "type": "bytes"
        }
      ],
      "name": "safeTransferFrom",
      "outputs": [],
      "stateMutability": "nonpayable",
      "type": "function"
    },
    {
      "inputs": [
        {
          "internalType": "address",
          "name": "operator",
          "type": "address"
        },
        {
          "internalType": "bool",
          "name": "approved",
          "type": "bool"
        }
      ],
      "name": "setApprovalForAll",
      "outputs": [],
      "stateMutability": "nonpayable",
      "type": "function"
    },
    {
      "inputs": [
        {
          "internalType": "bytes4",
          "name": "interfaceId",
          "type": "bytes4"
        }
      ],
      "name": "supportsInterface",
      "outputs": [
        {
          "internalType": "bool",
          "name": "",
          "type": "bool"
        }
      ],
      "stateMutability": "view",
      "type": "function",
      "constant": true
    },
    {
      "inputs": [],
      "name": "symbol",
      "outputs": [
        {
          "internalType": "string",
          "name": "",
          "type": "string"
        }
      ],
      "stateMutability": "view",
      "type": "function",
      "constant": true
    },
    {
      "inputs": [
        {
          "internalType": "uint256",
          "name": "index",
          "type": "uint256"
        }
      ],
      "name": "tokenByIndex",
      "outputs": [
        {
          "internalType": "uint256",
          "name": "",
          "type": "uint256"
        }
      ],
      "stateMutability": "view",
      "type": "function",
      "constant": true
    },
    {
      "inputs": [
        {
          "internalType": "address",
          "name": "owner",
          "type": "address"
        },
        {
          "internalType": "uint256",
          "name": "index",
          "type": "uint256"
        }
      ],
      "name": "tokenOfOwnerByIndex",
      "outputs": [
        {
          "internalType": "uint256",
          "name": "",
          "type": "uint256"
        }
      ],
      "stateMutability": "view",
      "type": "function",
      "constant": true
    },
    {
      "inputs": [
        {
          "internalType": "uint256",
          "name": "tokenId",
          "type": "uint256"
        }
      ],
      "name": "tokenURI",
      "outputs": [
        {
          "internalType": "string",
          "name": "",
          "type": "string"
        }
      ],
      "stateMutability": "view",
      "type": "function",
      "constant": true
    },
    {
      "inputs": [],
      "name": "totalSupply",
      "outputs": [
        {
          "internalType": "uint256",
          "name": "",
          "type": "uint256"
        }
      ],
      "stateMutability": "view",
      "type": "function",
      "constant": true
    },
    {
      "inputs": [
        {
          "internalType": "address",
          "name": "from",
          "type": "address"
        },
        {
          "internalType": "address",
          "name": "to",
          "type": "address"
        },
        {
          "internalType": "uint256",
          "name": "tokenId",
          "type": "uint256"
        }
      ],
      "name": "transferFrom",
      "outputs": [],
      "stateMutability": "nonpayable",
      "type": "function"
    },
    {
      "inputs": [],
      "name": "addMinter",
      "outputs": [],
      "stateMutability": "nonpayable",
      "type": "function"
    },
    {
      "inputs": [
        {
          "internalType": "address",
          "name": "to",
          "type": "address"
        }
      ],
      "name": "mint",
      "outputs": [
        {
          "internalType": "uint256",
          "name": "",
          "type": "uint256"
        }
      ],
      "stateMutability": "nonpayable",
      "type": "function"
    }
  ],
  "bytecode": "0x60806040523480156200001157600080fd5b506040516200299738038062002997833981810160405260608110156200003757600080fd5b81019080805160405193929190846401000000008211156200005857600080fd5b9083019060208201858111156200006e57600080fd5b82516401000000008111828201881017156200008957600080fd5b82525081516020918201929091019080838360005b83811015620000b85781810151838201526020016200009e565b50505050905090810190601f168015620000e65780820380516001836020036101000a031916815260200191505b50604052602001805160405193929190846401000000008211156200010a57600080fd5b9083019060208201858111156200012057600080fd5b82516401000000008111828201881017156200013b57600080fd5b82525081516020918201929091019080838360005b838110156200016a57818101518382015260200162000150565b50505050905090810190601f168015620001985780820380516001836020036101000a031916815260200191505b5060405260200180516040519392919084640100000000821115620001bc57600080fd5b908301906020820185811115620001d257600080fd5b8251640100000000811182820188101715620001ed57600080fd5b82525081516020918201929091019080838360005b838110156200021c57818101518382015260200162000202565b50505050905090810190601f1680156200024a5780820380516001836020036101000a031916815260200191505b5060405250849150839050620002897f01ffc9a70000000000000000000000000000000000000000000000000000000064010000000062000376810204565b81516200029e90600790602085019062000461565b508051620002b490600890602084019062000461565b50620002e97f80ac58cd0000000000000000000000000000000000000000000000000000000064010000000062000376810204565b6200031d7f5b5e139f0000000000000000000000000000000000000000000000000000000064010000000062000376810204565b620003517f780e9d630000000000000000000000000000000000000000000000000000000064010000000062000376810204565b50506200036d8162000448640100000000026401000000009004565b505050620004fd565b7fffffffff0000000000000000000000000000000000000000000000000000000080821614156200040857604080517f08c379a000000000000000000000000000000000000000000000000000000000815260206004820152601c60248201527f4552433136353a20696e76616c696420696e7465726661636520696400000000604482015290519081900360640190fd5b7fffffffff00000000000000000000000000000000000000000000000000000000166000908152600160208190526040909120805460ff19169091179055565b80516200045d90600a90602084019062000461565b5050565b828054600181600116156101000203166002900490600052602060002090601f016020900481019282601f10620004a457805160ff1916838001178555620004d4565b82800160010185558215620004d4579182015b82811115620004d4578251825591602001919060010190620004b7565b50620004e2929150620004e6565b5090565b5b80821115620004e25760008155600101620004e7565b61248a806200050d6000396000f3fe608060405234801561001057600080fd5b50600436106101e1576000357c0100000000000000000000000000000000000000000000000000000000900480636a62784211610116578063a22cb465116100b4578063ca15c8731161008e578063ca15c87314610647578063d539139314610664578063d547741f1461066c578063e985e9c514610698576101e1565b8063a22cb46514610536578063b88d4fde14610564578063c87b56dd1461062a576101e1565b80639010d07c116100f05780639010d07c146104d757806391d14854146104fa57806395d89b4114610526578063a217fddf1461052e576101e1565b80636a627842146104835780636c0360eb146104a957806370a08231146104b1576101e1565b8063248a9ca31161018357806336568abe1161015d57806336568abe146103e757806342842e0e146104135780634f6ccce7146104495780636352211e14610466576101e1565b8063248a9ca3146103725780632f2ff15d1461038f5780632f745c59146103bb576101e1565b8063081812fc116101bf578063081812fc146102bd578063095ea7b3146102f657806318160ddd1461032257806323b872dd1461033c576101e1565b806301ffc9a7146101e6578063031cf5861461023657806306fdde0314610240575b600080fd5b610222600480360360208110156101fc57600080fd5b50357bffffffffffffffffffffffffffffffffffffffffffffffffffffffff19166106c6565b604080519115158252519081900360200190f35b61023e6106fe565b005b6102486107fb565b6040805160208082528351818301528351919283929083019185019080838360005b8381101561028257818101518382015260200161026a565b50505050905090810190601f1680156102af5780820380516001836020036101000a031916815260200191505b509250505060405180910390f35b6102da600480360360208110156102d357600080fd5b5035610891565b60408051600160a060020a039092168252519081900360200190f35b61023e6004803603604081101561030c57600080fd5b50600160a060020a0381351690602001356108f6565b61032a6109d7565b60408051918252519081900360200190f35b61023e6004803603606081101561035257600080fd5b50600160a060020a038135811691602081013590911690604001356109e8565b61032a6004803603602081101561038857600080fd5b5035610a42565b61023e600480360360408110156103a557600080fd5b5080359060200135600160a060020a0316610a57565b61032a600480360360408110156103d157600080fd5b50600160a060020a038135169060200135610ac6565b61023e600480360360408110156103fd57600080fd5b5080359060200135600160a060020a0316610af1565b61023e6004803603606081101561042957600080fd5b50600160a060020a03813581169160208101359091169060400135610b55565b61032a6004803603602081101561045f57600080fd5b5035610b70565b6102da6004803603602081101561047c57600080fd5b5035610b86565b61032a6004803603602081101561049957600080fd5b5035600160a060020a0316610bae565b610248610ca9565b61032a600480360360208110156104c757600080fd5b5035600160a060020a0316610d0a565b6102da600480360360408110156104ed57600080fd5b5080359060200135610d75565b6102226004803603604081101561051057600080fd5b5080359060200135600160a060020a0316610d8d565b610248610da5565b61032a610e06565b61023e6004803603604081101561054c57600080fd5b50600160a060020a0381351690602001351515610e0b565b61023e6004803603608081101561057a57600080fd5b600160a060020a038235811692602081013590911691604082013591908101906080810160608201356401000000008111156105b557600080fd5b8201836020820111156105c757600080fd5b803590602001918460018302840111640100000000831117156105e957600080fd5b91908080601f016020809104026020016040519081016040528093929190818152602001838380828437600092019190915250929550610f13945050505050565b6102486004803603602081101561064057600080fd5b5035610f74565b61032a6004803603602081101561065d57600080fd5b503561121e565b61032a611235565b61023e6004803603604081101561068257600080fd5b5080359060200135600160a060020a0316611247565b610222600480360360408110156106ae57600080fd5b50600160a060020a03813581169160200135166112a3565b7bffffffffffffffffffffffffffffffffffffffffffffffffffffffff19811660009081526001602052604090205460ff165b919050565b6107066112d1565b600160a060020a031663f4e4a1026040518163ffffffff167c010000000000000000000000000000000000000000000000000000000002815260040160206040518083038186803b15801561075a57600080fd5b505afa15801561076e573d6000803e3d6000fd5b505050506040513d602081101561078457600080fd5b50516107da576040805160e560020a62461bcd02815260206004820152601760248201527f53656e646572206973206e6f74207573696e6720504554000000000000000000604482015290519081900360640190fd5b6107f96000805160206123908339815191526107f46112d1565b610ab8565b565b60078054604080516020601f60026000196101006001881615020190951694909404938401819004810282018101909252828152606093909290918301828280156108875780601f1061085c57610100808354040283529160200191610887565b820191906000526020600020905b81548152906001019060200180831161086a57829003601f168201915b5050505050905090565b600061089c826112d5565b6108da5760405160e560020a62461bcd02815260040180806020018281038252602c81526020018061230c602c913960400191505060405180910390fd5b50600090815260056020526040902054600160a060020a031690565b600061090182610b86565b905080600160a060020a031683600160a060020a031614156109575760405160e560020a62461bcd0281526004018080602001828103825260218152602001806123b06021913960400191505060405180910390fd5b80600160a060020a03166109696112d1565b600160a060020a0316148061098a575061098a816109856112d1565b6112a3565b6109c85760405160e560020a62461bcd02815260040180806020018281038252603881526020018061225f6038913960400191505060405180910390fd5b6109d283836112e2565b505050565b60006109e3600361135d565b905090565b6109f96109f36112d1565b82611368565b610a375760405160e560020a62461bcd0281526004018080602001828103825260318152602001806123d16031913960400191505060405180910390fd5b6109d283838361140f565b60009081526020819052604090206002015490565b600082815260208190526040902060020154610a7a90610a756112d1565b610d8d565b610ab85760405160e560020a62461bcd02815260040180806020018281038252602f81526020018061214b602f913960400191505060405180910390fd5b610ac28282611561565b5050565b600160a060020a0382166000908152600260205260408120610ae890836115ca565b90505b92915050565b610af96112d1565b600160a060020a031681600160a060020a031614610b4b5760405160e560020a62461bcd02815260040180806020018281038252602f815260200180612426602f913960400191505060405180910390fd5b610ac282826115d6565b6109d283838360405180602001604052806000815250610f13565b600080610b7e60038461163f565b509392505050565b6000610aeb826040518060600160405280602981526020016122c1602991396003919061165b565b6000610bca600080516020612390833981519152610a756112d1565b610c085760405160e560020a62461bcd0281526004018080602001828103825260248152602001806124026024913960400191505060405180910390fd5b6000610c14600b611672565b9050610c208382611676565b610c2a600b6117aa565b610c326112d1565b6000828152600c6020908152604091829020805473ffffffffffffffffffffffffffffffffffffffff1916600160a060020a0394851617905581519286168352820183905280517f6bc8a45c65c35442262b7016aaee767cdac067525f4f6dc73f5999bd00b5287f9281900390910190a192915050565b600a8054604080516020601f60026000196101006001881615020190951694909404938401819004810282018101909252828152606093909290918301828280156108875780601f1061085c57610100808354040283529160200191610887565b6000600160a060020a038216610d545760405160e560020a62461bcd02815260040180806020018281038252602a815260200180612297602a913960400191505060405180910390fd5b600160a060020a0382166000908152600260205260409020610aeb9061135d565b6000828152602081905260408120610ae890836115ca565b6000828152602081905260408120610ae890836117b3565b60088054604080516020601f60026000196101006001881615020190951694909404938401819004810282018101909252828152606093909290918301828280156108875780601f1061085c57610100808354040283529160200191610887565b600081565b610e136112d1565b600160a060020a031682600160a060020a03161415610e7c576040805160e560020a62461bcd02815260206004820152601960248201527f4552433732313a20617070726f766520746f2063616c6c657200000000000000604482015290519081900360640190fd5b8060066000610e896112d1565b600160a060020a03908116825260208083019390935260409182016000908120918716808252919093529120805460ff191692151592909217909155610ecd6112d1565b600160a060020a03167f17307eab39ab6107e8899845ad3d59bd9653f200f220920489ca2b5937696c318360405180821515815260200191505060405180910390a35050565b610f24610f1e6112d1565b83611368565b610f625760405160e560020a62461bcd0281526004018080602001828103825260318152602001806123d16031913960400191505060405180910390fd5b610f6e848484846117c8565b50505050565b6060610f7f826112d5565b610fbd5760405160e560020a62461bcd02815260040180806020018281038252602f815260200180612361602f913960400191505060405180910390fd5b60008281526009602090815260409182902080548351601f60026000196101006001861615020190931692909204918201849004840281018401909452808452606093928301828280156110525780601f1061102757610100808354040283529160200191611052565b820191906000526020600020905b81548152906001019060200180831161103557829003601f168201915b5050600a549394505050506002600019610100600184161502019091160461107b5790506106f9565b80511561114c57600a8160405160200180838054600181600116156101000203166002900480156110e35780601f106110c15761010080835404028352918201916110e3565b820191906000526020600020905b8154815290600101906020018083116110cf575b5050825160208401908083835b6020831061110f5780518252601f1990920191602091820191016110f0565b6001836020036101000a038019825116818451168082178552505050505050905001925050506040516020818303038152906040529150506106f9565b600a6111578461181d565b60405160200180838054600181600116156101000203166002900480156111b55780601f106111935761010080835404028352918201916111b5565b820191906000526020600020905b8154815290600101906020018083116111a1575b5050825160208401908083835b602083106111e15780518252601f1990920191602091820191016111c2565b6001836020036101000a03801982511681845116808217855250505050505090500192505050604051602081830303815290604052915050919050565b6000818152602081905260408120610aeb9061135d565b60008051602061239083398151915281565b60008281526020819052604090206002015461126590610a756112d1565b610b4b5760405160e560020a62461bcd02815260040180806020018281038252603081526020018061222f6030913960400191505060405180910390fd5b600160a060020a03918216600090815260066020908152604080832093909416825291909152205460ff1690565b3390565b6000610aeb60038361194b565b6000818152600560205260409020805473ffffffffffffffffffffffffffffffffffffffff1916600160a060020a038416908117909155819061132482610b86565b600160a060020a03167f8c5be1e5ebec7d5bd14f71427d1e84f3dd0314c0f7b2291e5b200ac8c7c3b92560405160405180910390a45050565b6000610aeb82611672565b6000611373826112d5565b6113b15760405160e560020a62461bcd02815260040180806020018281038252602c815260200180612203602c913960400191505060405180910390fd5b60006113bc83610b86565b905080600160a060020a031684600160a060020a031614806113f7575083600160a060020a03166113ec84610891565b600160a060020a0316145b80611407575061140781856112a3565b949350505050565b82600160a060020a031661142282610b86565b600160a060020a03161461146a5760405160e560020a62461bcd0281526004018080602001828103825260298152602001806123386029913960400191505060405180910390fd5b600160a060020a0382166114b25760405160e560020a62461bcd0281526004018080602001828103825260248152602001806121ac6024913960400191505060405180910390fd5b6114bd838383611957565b6114c86000826112e2565b600160a060020a03831660009081526002602052604090206114ea90826119ee565b50600160a060020a038216600090815260026020526040902061150d90826119fa565b5061151a60038284611a06565b508082600160a060020a031684600160a060020a03167fddf252ad1be2c89b69c2b068fc378daa952ba7f163c4a11628f55a4df523b3ef60405160405180910390a4505050565b60008281526020819052604090206115799082611a1c565b15610ac2576115866112d1565b600160a060020a031681600160a060020a0316837f2f8788117e7eff1d82e926ec794901d17c78024a50270940304540a733656f0d60405160405180910390a45050565b6000610ae88383611a31565b60008281526020819052604090206115ee9082611a98565b15610ac2576115fb6112d1565b600160a060020a031681600160a060020a0316837ff6391f5c32d9c69d2a47ea670b442974b53935d1edc7fd64eb21e047a839171b60405160405180910390a45050565b600080808061164e8686611aad565b9097909650945050505050565b6000611668848484611b2b565b90505b9392505050565b5490565b600160a060020a0382166116d4576040805160e560020a62461bcd02815260206004820181905260248201527f4552433732313a206d696e7420746f20746865207a65726f2061646472657373604482015290519081900360640190fd5b6116dd816112d5565b15611732576040805160e560020a62461bcd02815260206004820152601c60248201527f4552433732313a20746f6b656e20616c7265616479206d696e74656400000000604482015290519081900360640190fd5b61173e60008383611957565b600160a060020a038216600090815260026020526040902061176090826119fa565b5061176d60038284611a06565b506040518190600160a060020a038416906000907fddf252ad1be2c89b69c2b068fc378daa952ba7f163c4a11628f55a4df523b3ef908290a45050565b80546001019055565b6000610ae883600160a060020a038416611bf8565b6117d384848461140f565b6117df84848484611c10565b610f6e5760405160e560020a62461bcd02815260040180806020018281038252603281526020018061217a6032913960400191505060405180910390fd5b60608161185e575060408051808201909152600181527f300000000000000000000000000000000000000000000000000000000000000060208201526106f9565b8160005b811561187657600101600a82049150611862565b60608167ffffffffffffffff8111801561188f57600080fd5b506040519080825280601f01601f1916602001820160405280156118ba576020820181803683370190505b50859350905060001982015b831561194257600a84066030017f0100000000000000000000000000000000000000000000000000000000000000028282806001900393508151811061190857fe5b60200101907effffffffffffffffffffffffffffffffffffffffffffffffffffffffffffff1916908160001a905350600a840493506118c6565b50949350505050565b6000610ae88383611bf8565b600160a060020a03831615806119a5575061198060008051602061239083398151915283610d8d565b80156119a557506000818152600c6020526040902054600160a060020a038381169116145b6119e35760405160e560020a62461bcd0281526004018080602001828103825260338152602001806121d06033913960400191505060405180910390fd5b6109d28383836109d2565b6000610ae88383611de9565b6000610ae88383611eaf565b60006116688484600160a060020a038516611ef9565b6000610ae883600160a060020a038416611eaf565b81546000908210611a765760405160e560020a62461bcd0281526004018080602001828103825260228152602001806121296022913960400191505060405180910390fd5b826000018281548110611a8557fe5b9060005260206000200154905092915050565b6000610ae883600160a060020a038416611de9565b815460009081908310611af45760405160e560020a62461bcd0281526004018080602001828103825260228152602001806122ea6022913960400191505060405180910390fd5b6000846000018481548110611b0557fe5b906000526020600020906002020190508060000154816001015492509250509250929050565b60008281526001840160205260408120548281611bc95760405160e560020a62461bcd0281526004018080602001828103825283818151815260200191508051906020019080838360005b83811015611b8e578181015183820152602001611b76565b50505050905090810190601f168015611bbb5780820380516001836020036101000a031916815260200191505b509250505060405180910390fd5b50846000016001820381548110611bdc57fe5b9060005260206000209060020201600101549150509392505050565b60009081526001919091016020526040902054151590565b6000611c2484600160a060020a0316611f90565b611c3057506001611407565b6060611d817f150b7a0200000000000000000000000000000000000000000000000000000000611c5e6112d1565b8887876040516024018085600160a060020a0316815260200184600160a060020a0316815260200183815260200180602001828103825283818151815260200191508051906020019080838360005b83811015611cc5578181015183820152602001611cad565b50505050905090810190601f168015611cf25780820380516001836020036101000a031916815260200191505b5095505050505050604051602081830303815290604052907bffffffffffffffffffffffffffffffffffffffffffffffffffffffff19166020820180517bffffffffffffffffffffffffffffffffffffffffffffffffffffffff838183161783525050505060405180606001604052806032815260200161217a60329139600160a060020a0388169190611f96565b90506000818060200190516020811015611d9a57600080fd5b50517bffffffffffffffffffffffffffffffffffffffffffffffffffffffff19167f150b7a02000000000000000000000000000000000000000000000000000000001492505050949350505050565b60008181526001830160205260408120548015611ea55783546000198083019190810190600090879083908110611e1c57fe5b9060005260206000200154905080876000018481548110611e3957fe5b600091825260208083209091019290925582815260018981019092526040902090840190558654879080611e6957fe5b60019003818190600052602060002001600090559055866001016000878152602001908152602001600020600090556001945050505050610aeb565b6000915050610aeb565b6000611ebb8383611bf8565b611ef157508154600181810184556000848152602080822090930184905584548482528286019093526040902091909155610aeb565b506000610aeb565b600082815260018401602052604081205480611f5e57505060408051808201825283815260208082018481528654600181810189556000898152848120955160029093029095019182559151908201558654868452818801909252929091205561166b565b82856000016001830381548110611f7157fe5b906000526020600020906002020160010181905550600091505061166b565b3b151590565b6060611668848460008585611faa85611f90565b611ffe576040805160e560020a62461bcd02815260206004820152601d60248201527f416464726573733a2063616c6c20746f206e6f6e2d636f6e7472616374000000604482015290519081900360640190fd5b6000606086600160a060020a031685876040518082805190602001908083835b6020831061203d5780518252601f19909201916020918201910161201e565b6001836020036101000a03801982511681845116808217855250505050505090500191505060006040518083038185875af1925050503d806000811461209f576040519150601f19603f3d011682016040523d82523d6000602084013e6120a4565b606091505b50915091506120b48282866120bf565b979650505050505050565b606083156120ce57508161166b565b8251156120de5782518084602001fd5b60405160e560020a62461bcd028152602060048201818152845160248401528451859391928392604401919085019080838360008315611b8e578181015183820152602001611b7656fe456e756d657261626c655365743a20696e646578206f7574206f6620626f756e6473416363657373436f6e74726f6c3a2073656e646572206d75737420626520616e2061646d696e20746f206772616e744552433732313a207472616e7366657220746f206e6f6e20455243373231526563656976657220696d706c656d656e7465724552433732313a207472616e7366657220746f20746865207a65726f2061646472657373546f6b656e3a206d7573742062652073656e7420746f2074686520636f6e7472616374207468617420637265617465642069744552433732313a206f70657261746f7220717565727920666f72206e6f6e6578697374656e7420746f6b656e416363657373436f6e74726f6c3a2073656e646572206d75737420626520616e2061646d696e20746f207265766f6b654552433732313a20617070726f76652063616c6c6572206973206e6f74206f776e6572206e6f7220617070726f76656420666f7220616c6c4552433732313a2062616c616e636520717565727920666f7220746865207a65726f20616464726573734552433732313a206f776e657220717565727920666f72206e6f6e6578697374656e7420746f6b656e456e756d657261626c654d61703a20696e646578206f7574206f6620626f756e64734552433732313a20617070726f76656420717565727920666f72206e6f6e6578697374656e7420746f6b656e4552433732313a207472616e73666572206f6620746f6b656e2074686174206973206e6f74206f776e4552433732314d657461646174613a2055524920717565727920666f72206e6f6e6578697374656e7420746f6b656e9f2df0fed2c77648de5860a4cc508cd0818c85b8b8a1ab4ceeef8d981c8956a64552433732313a20617070726f76616c20746f2063757272656e74206f776e65724552433732313a207472616e736665722063616c6c6572206973206e6f74206f776e6572206e6f7220617070726f766564546f6b656e3a206d7573742068617665206d696e74657220726f6c6520746f206d696e74416363657373436f6e74726f6c3a2063616e206f6e6c792072656e6f756e636520726f6c657320666f722073656c66a26469706673582212207941c9bf25fade735b033b43a55f246aa1903a618df67cf02df616a00f76085a64736f6c634300060c0033",
  "immutableReferences": {},
  "source": "// SPDX-License-Identifier: MIT\n\npragma solidity >=0.6.0 <0.8.0;\n\nimport \"@openzeppelin/contracts/access/AccessControl.sol\";\nimport \"@openzeppelin/contracts/GSN/Context.sol\";\nimport \"@openzeppelin/contracts/utils/Counters.sol\";\nimport \"@openzeppelin/contracts/token/ERC721/ERC721.sol\";\nimport \"./ImpartialSelectionInterface.sol\";\n\n/// @title Proposal Evaluation Token\n/// @author Giovanni Rescinito\n/// @notice ERC721 token used to authorize agents to commit their evaluations\ncontract Token is Context, AccessControl, ERC721 {\n    using Counters for Counters.Counter;\n    Counters.Counter private _tokenIdTracker;\n\n    mapping(uint => address) private tokenMinter;                       // maps the token to the contract that minted it\n    bytes32 public constant MINTER_ROLE = keccak256(\"MINTER_ROLE\");     // constant used to identify minters\n    \n    event TokenAssigned(address to, uint tokenId);\n    \n    /// @notice creates a new instance of the token contract\n    /// @param name name of the token created\n    /// @param symbol symbol associated to the token\n    /// @param baseURI uri used as a prefix to identify tokens through strings\n    constructor(string memory name, string memory symbol, string memory baseURI) public ERC721(name, symbol) {\n        _setBaseURI(baseURI);\n    }\n\n    /// @notice grants the minter role to the invoking contract\n    function addMinter() external {\n        require(ImpartialSelectionInterface(_msgSender()).isImpartialSelection(), \"Sender is not using PET\");\n        _setupRole(MINTER_ROLE, _msgSender());\n    }\n\n    /// @notice creates a new token and assigns it to the user submitting the proposal\n    /// @param to address of the submitter receiving the token\n    /// @return the id of the created token\n    function mint(address to) public virtual returns (uint) {\n        require(hasRole(MINTER_ROLE, _msgSender()), \"Token: must have minter role to mint\");\n        uint tokenId = _tokenIdTracker.current();\n        _mint(to,tokenId);\n        _tokenIdTracker.increment();\n        tokenMinter[tokenId] = _msgSender();\n        emit TokenAssigned(to, tokenId);\n        return tokenId;\n    }\n\n    /// @notice checks authorizations for token transfer\n    /// @param from address transferring the token\n    /// @param to address receiving the token\n    /// @param tokenId id of the transferred token\n    function _beforeTokenTransfer(address from, address to, uint256 tokenId) internal virtual override(ERC721) {\n        require(from == address(0) || (hasRole(MINTER_ROLE, to) && tokenMinter[tokenId] == to), \"Token: must be sent to the contract that created it\");\n        super._beforeTokenTransfer(from, to, tokenId);\n    }\n}\n",
  "sourcePath": "C:\\Users\\Claudio\\Desktop\\Tesi\\Codice reviews\\reviews - ipfs\\contracts\\Token.sol",
  "compiler": {
    "name": "solc",
    "version": "0.6.12+commit.27d51765.Emscripten.clang"
  },
  "schemaVersion": "3.4.8",
  "updatedAt": "2022-09-18T09:39:15.240Z",
  "networkType": "ethereum",
  "devdoc": {
    "author": "Giovanni Rescinito",
    "kind": "dev",
    "methods": {
      "approve(address,uint256)": {
        "details": "See {IERC721-approve}."
      },
      "balanceOf(address)": {
        "details": "See {IERC721-balanceOf}."
      },
      "baseURI()": {
        "details": "Returns the base URI set via {_setBaseURI}. This will be automatically added as a prefix in {tokenURI} to each token's URI, or to the token ID if no specific URI is set for that token ID."
      },
      "constructor": {
        "params": {
          "baseURI": "uri used as a prefix to identify tokens through strings",
          "name": "name of the token created",
          "symbol": "symbol associated to the token"
        }
      },
      "getApproved(uint256)": {
        "details": "See {IERC721-getApproved}."
      },
      "getRoleAdmin(bytes32)": {
        "details": "Returns the admin role that controls `role`. See {grantRole} and {revokeRole}. To change a role's admin, use {_setRoleAdmin}."
      },
      "getRoleMember(bytes32,uint256)": {
        "details": "Returns one of the accounts that have `role`. `index` must be a value between 0 and {getRoleMemberCount}, non-inclusive. Role bearers are not sorted in any particular way, and their ordering may change at any point. WARNING: When using {getRoleMember} and {getRoleMemberCount}, make sure you perform all queries on the same block. See the following https://forum.openzeppelin.com/t/iterating-over-elements-on-enumerableset-in-openzeppelin-contracts/2296[forum post] for more information."
      },
      "getRoleMemberCount(bytes32)": {
        "details": "Returns the number of accounts that have `role`. Can be used together with {getRoleMember} to enumerate all bearers of a role."
      },
      "grantRole(bytes32,address)": {
        "details": "Grants `role` to `account`. If `account` had not been already granted `role`, emits a {RoleGranted} event. Requirements: - the caller must have ``role``'s admin role."
      },
      "hasRole(bytes32,address)": {
        "details": "Returns `true` if `account` has been granted `role`."
      },
      "isApprovedForAll(address,address)": {
        "details": "See {IERC721-isApprovedForAll}."
      },
      "mint(address)": {
        "params": {
          "to": "address of the submitter receiving the token"
        },
        "returns": {
          "_0": "the id of the created token"
        }
      },
      "name()": {
        "details": "See {IERC721Metadata-name}."
      },
      "ownerOf(uint256)": {
        "details": "See {IERC721-ownerOf}."
      },
      "renounceRole(bytes32,address)": {
        "details": "Revokes `role` from the calling account. Roles are often managed via {grantRole} and {revokeRole}: this function's purpose is to provide a mechanism for accounts to lose their privileges if they are compromised (such as when a trusted device is misplaced). If the calling account had been granted `role`, emits a {RoleRevoked} event. Requirements: - the caller must be `account`."
      },
      "revokeRole(bytes32,address)": {
        "details": "Revokes `role` from `account`. If `account` had been granted `role`, emits a {RoleRevoked} event. Requirements: - the caller must have ``role``'s admin role."
      },
      "safeTransferFrom(address,address,uint256)": {
        "details": "See {IERC721-safeTransferFrom}."
      },
      "safeTransferFrom(address,address,uint256,bytes)": {
        "details": "See {IERC721-safeTransferFrom}."
      },
      "setApprovalForAll(address,bool)": {
        "details": "See {IERC721-setApprovalForAll}."
      },
      "supportsInterface(bytes4)": {
        "details": "See {IERC165-supportsInterface}. Time complexity O(1), guaranteed to always use less than 30 000 gas."
      },
      "symbol()": {
        "details": "See {IERC721Metadata-symbol}."
      },
      "tokenByIndex(uint256)": {
        "details": "See {IERC721Enumerable-tokenByIndex}."
      },
      "tokenOfOwnerByIndex(address,uint256)": {
        "details": "See {IERC721Enumerable-tokenOfOwnerByIndex}."
      },
      "tokenURI(uint256)": {
        "details": "See {IERC721Metadata-tokenURI}."
      },
      "totalSupply()": {
        "details": "See {IERC721Enumerable-totalSupply}."
      },
      "transferFrom(address,address,uint256)": {
        "details": "See {IERC721-transferFrom}."
      }
    },
    "title": "Proposal Evaluation Token",
    "version": 1
  },
  "userdoc": {
    "kind": "user",
    "methods": {
      "addMinter()": {
        "notice": "grants the minter role to the invoking contract"
      },
      "constructor": "creates a new instance of the token contract",
      "mint(address)": {
        "notice": "creates a new token and assigns it to the user submitting the proposal"
      }
    },
    "notice": "ERC721 token used to authorize agents to commit their evaluations",
    "version": 1
  }
}