{
  "contractName": "Utils",
  "abi": [
    {
      "inputs": [],
      "name": "C",
      "outputs": [
        {
          "internalType": "uint256",
          "name": "",
          "type": "uint256"
        }
      ],
      "stateMutability": "view",
      "type": "function",
      "constant": true
    },
    {
      "inputs": [
        {
          "internalType": "uint256",
          "name": "x",
          "type": "uint256"
        }
      ],
      "name": "ceil",
      "outputs": [
        {
          "internalType": "uint256",
          "name": "",
          "type": "uint256"
        }
      ],
      "stateMutability": "pure",
      "type": "function",
      "constant": true
    },
    {
      "inputs": [
        {
          "internalType": "uint256",
          "name": "x",
          "type": "uint256"
        }
      ],
      "name": "floor",
      "outputs": [
        {
          "internalType": "uint256",
          "name": "",
          "type": "uint256"
        }
      ],
      "stateMutability": "pure",
      "type": "function",
      "constant": true
    },
    {
      "inputs": [
        {
          "internalType": "uint256",
          "name": "x",
          "type": "uint256"
        }
      ],
      "name": "round",
      "outputs": [
        {
          "internalType": "uint256",
          "name": "",
          "type": "uint256"
        }
      ],
      "stateMutability": "pure",
      "type": "function",
      "constant": true
    },
    {
      "inputs": [
        {
          "internalType": "uint256",
          "name": "upper",
          "type": "uint256"
        }
      ],
      "name": "range",
      "outputs": [
        {
          "internalType": "uint256[]",
          "name": "",
          "type": "uint256[]"
        }
      ],
      "stateMutability": "pure",
      "type": "function",
      "constant": true
    },
    {
      "inputs": [
        {
          "internalType": "uint256[]",
          "name": "data",
          "type": "uint256[]"
        }
      ],
      "name": "sort",
      "outputs": [
        {
          "components": [
            {
              "internalType": "uint256",
              "name": "id",
              "type": "uint256"
            },
            {
              "internalType": "uint256",
              "name": "value",
              "type": "uint256"
            }
          ],
          "internalType": "struct Utils.Element[]",
          "name": "",
          "type": "tuple[]"
        }
      ],
      "stateMutability": "pure",
      "type": "function",
      "constant": true
    }
  ],
  "bytecode": "0x61055b610026600b82828239805160001a60731461001957fe5b30600052607381538281f3fe7300000000000000000000000000000000000000003014608060405260043610610088577c0100000000000000000000000000000000000000000000000000000000600035046334d5f37b811461008d57806340f0a21f146100b6578063504f5e56146100c957806383dfe5fd146100dc5780639ec8b026146100e4578063a5e45bec14610104575b600080fd5b6100a061009b366004610471565b610124565b6040516100ad919061051c565b60405180910390f35b6100a06100c4366004610471565b610158565b6100a06100d7366004610471565b61016c565b6100a0610178565b6100f76100f2366004610402565b61017e565b6040516100ad9190610489565b610117610112366004610471565b61023e565b6040516100ad91906104d8565b6000617fff6101328361016c565b8303101561014a576101438261016c565b9050610153565b61014382610158565b919050565b600061ffff8061fffe84015b040292915050565b600061ffff8083610164565b61ffff81565b6060808267ffffffffffffffff8111801561019857600080fd5b506040519080825280602002602001820160405280156101d257816020015b6101bf6103e8565b8152602001906001900390816101b75790505b50905060005b838110156102265760405180604001604052808281526020018686848181106101fd57fe5b9050602002013581525082828151811061021357fe5b60209081029190910101526001016101d8565b5061023781600060018451036102b7565b9392505050565b6060808267ffffffffffffffff8111801561025857600080fd5b50604051908082528060200260200182016040528015610282578160200160208202803683370190505b50905060005b838110156102b0578082828151811061029d57fe5b6020908102919091010152600101610288565b5092915050565b8181808214156102c85750506103e3565b6000856002868603058601815181106102dd57fe5b60200260200101516020015190505b8183136103b9575b8086848151811061030157fe5b602002602001015160200151101561031e576001909201916102f4565b85828151811061032a57fe5b602002602001015160200151811015610349576000199091019061031e565b8183136103b45785828151811061035c57fe5b602002602001015186848151811061037057fe5b602002602001015187858151811061038457fe5b6020026020010188858151811061039757fe5b602090810291909101019190915252600190920191600019909101905b6102ec565b818512156103cc576103cc8686846102b7565b838312156103df576103df8684866102b7565b5050505b505050565b604051806040016040528060008152602001600081525090565b60008060208385031215610414578182fd5b823567ffffffffffffffff8082111561042b578384fd5b818501915085601f83011261043e578384fd5b81358181111561044c578485fd5b866020808302850101111561045f578485fd5b60209290920196919550909350505050565b600060208284031215610482578081fd5b5035919050565b602080825282518282018190526000919060409081850190868401855b828110156104cb578151805185528601518685015292840192908501906001016104a6565b5091979650505050505050565b6020808252825182820181905260009190848201906040850190845b81811015610510578351835292840192918401916001016104f4565b50909695505050505050565b9081526020019056fea2646970667358221220ee9ba5561e9b0c481714d76849002579e2cbaf20e70cb75ed653064a612a74ee64736f6c634300060c0033",
  "immutableReferences": {},
  "source": "// SPDX-License-Identifier: MIT\n\npragma solidity >=0.4.18;\npragma experimental ABIEncoderV2;\n\n/// @title Utility functions\n/// @author Giovanni Rescinito\n/// @notice math utilities and sorting functions\nlibrary Utils {\n    //Constants\n    uint constant public C = 2**16-1;       // constant used to scale value\n    \n    //Data Structures\n\n    /// @notice container used to maintain agent id and score together\n    struct Element {\n        uint id;                        // agent id\n        uint value;                     // score\n    }\n\n    //Math functions\n\n    /// @notice returns the smallest integer value that is bigger than or equal to a number, using scaling by C\n    /// @param x the value to be rounded\n    /// @return the rounded value\n    function ceil(uint x) pure public returns (uint){\n        return ((x + C - 1) / C) * C;\n    }\n\n    /// @notice returns the largest integer value that is less than or equal to a number, using scaling by C\n    /// @param x the value to be rounded\n    /// @return the rounded value\n    function floor(uint x) pure public returns (uint){\n        return (x/C)*C;\n    }\n\n    /// @notice returns the nearest integer to a number, using scaling by C\n    /// @param x the value to be rounded\n    /// @return the rounded value\n    function round(uint x) pure public returns (uint){\n        if (x-floor(x) < C/2){\n            return floor(x);\n        }else{\n            return ceil(x);\n        }\n    }\n\n    /// @notice produces a range of n values, from 0 to n-1\n    /// @param upper the number values to produce\n    /// @return a list of integer values, from 0 to upper-1\n    function range(uint upper) pure external returns (uint[] memory) {\n        uint[] memory a = new uint[](upper);\n        for (uint i=0;i<upper;i++){\n            a[i] = i;\n        }\n        return a;\n    }\n    \n    //Sorting functions\n\n    /// @notice sorts a list of values in ascending order\n    /// @param data the list of values to order\n    /// @return the ordered values with the corresponding ordered indices\n    /// base implementation provided by https://gist.github.com/subhodi/b3b86cc13ad2636420963e692a4d896f\n    function sort(uint[] calldata data) pure external returns(Element[] memory) {\n        Element[] memory dataElements = new Element[](data.length);\n        for (uint i=0; i<data.length; i++){\n            dataElements[i] = Element(i,data[i]);\n        }\n       quickSort(dataElements, int(0), int(dataElements.length - 1));\n       return dataElements;\n    }\n    \n    /// @notice implements sorting using quicksort algorithm\n    /// @param arr the list of elements to order\n    /// @param left the starting index of the subset of values ordered\n    /// @param right the final index of the subset of values ordered\n    /// base implementation provided by https://gist.github.com/subhodi/b3b86cc13ad2636420963e692a4d896f\n    function quickSort(Element[] memory arr, int left, int right) pure internal{\n        int i = left;\n        int j = right;\n        if(i==j) return;\n        uint pivot = arr[uint(left + (right - left) / 2)].value;\n        while (i <= j) {\n            while (arr[uint(i)].value < pivot) i++;\n            while (pivot < arr[uint(j)].value) j--;\n            if (i <= j) {\n                (arr[uint(i)], arr[uint(j)]) = (arr[uint(j)], arr[uint(i)]);\n                i++;\n                j--;\n            }\n        }\n        if (left < j)\n            quickSort(arr, left, j);\n        if (i < right)\n            quickSort(arr, i, right);\n    }\n}",
  "sourcePath": "C:\\Users\\Claudio\\Desktop\\Tesi\\Codice reviews\\reviews - ipfs\\contracts\\Utils.sol",
  "compiler": {
    "name": "solc",
    "version": "0.6.12+commit.27d51765.Emscripten.clang"
  },
  "schemaVersion": "3.4.8",
  "updatedAt": "2022-09-18T09:39:15.226Z",
  "networkType": "ethereum",
  "devdoc": {
    "author": "Giovanni Rescinito",
    "kind": "dev",
    "methods": {
      "ceil(uint256)": {
        "params": {
          "x": "the value to be rounded"
        },
        "returns": {
          "_0": "the rounded value"
        }
      },
      "floor(uint256)": {
        "params": {
          "x": "the value to be rounded"
        },
        "returns": {
          "_0": "the rounded value"
        }
      },
      "range(uint256)": {
        "params": {
          "upper": "the number values to produce"
        },
        "returns": {
          "_0": "a list of integer values, from 0 to upper-1"
        }
      },
      "round(uint256)": {
        "params": {
          "x": "the value to be rounded"
        },
        "returns": {
          "_0": "the rounded value"
        }
      },
      "sort(uint256[])": {
        "params": {
          "data": "the list of values to order"
        },
        "returns": {
          "_0": "the ordered values with the corresponding ordered indices base implementation provided by https://gist.github.com/subhodi/b3b86cc13ad2636420963e692a4d896f"
        }
      }
    },
    "title": "Utility functions",
    "version": 1
  },
  "userdoc": {
    "kind": "user",
    "methods": {
      "ceil(uint256)": {
        "notice": "returns the smallest integer value that is bigger than or equal to a number, using scaling by C"
      },
      "floor(uint256)": {
        "notice": "returns the largest integer value that is less than or equal to a number, using scaling by C"
      },
      "range(uint256)": {
        "notice": "produces a range of n values, from 0 to n-1"
      },
      "round(uint256)": {
        "notice": "returns the nearest integer to a number, using scaling by C"
      },
      "sort(uint256[])": {
        "notice": "sorts a list of values in ascending order"
      }
    },
    "notice": "math utilities and sorting functions",
    "version": 1
  }
}