{
  "contractName": "Zipper",
  "abi": [
    {
      "inputs": [
        {
          "internalType": "uint256[]",
          "name": "array",
          "type": "uint256[]"
        },
        {
          "internalType": "uint256",
          "name": "width",
          "type": "uint256"
        }
      ],
      "name": "zipArrayWithSize",
      "outputs": [
        {
          "internalType": "uint256",
          "name": "",
          "type": "uint256"
        }
      ],
      "stateMutability": "pure",
      "type": "function",
      "constant": true
    },
    {
      "inputs": [
        {
          "internalType": "uint256",
          "name": "zipped",
          "type": "uint256"
        },
        {
          "internalType": "uint256",
          "name": "width",
          "type": "uint256"
        }
      ],
      "name": "unzipArrayWithSize",
      "outputs": [
        {
          "internalType": "uint256[]",
          "name": "",
          "type": "uint256[]"
        }
      ],
      "stateMutability": "pure",
      "type": "function",
      "constant": true
    },
    {
      "inputs": [
        {
          "internalType": "uint256[]",
          "name": "array",
          "type": "uint256[]"
        },
        {
          "internalType": "uint256",
          "name": "width",
          "type": "uint256"
        }
      ],
      "name": "zipArray",
      "outputs": [
        {
          "internalType": "uint256[]",
          "name": "",
          "type": "uint256[]"
        }
      ],
      "stateMutability": "pure",
      "type": "function",
      "constant": true
    },
    {
      "inputs": [
        {
          "internalType": "uint256[]",
          "name": "array",
          "type": "uint256[]"
        },
        {
          "internalType": "uint256",
          "name": "width",
          "type": "uint256"
        }
      ],
      "name": "unzipArray",
      "outputs": [
        {
          "internalType": "uint256[]",
          "name": "",
          "type": "uint256[]"
        }
      ],
      "stateMutability": "pure",
      "type": "function",
      "constant": true
    },
    {
      "inputs": [
        {
          "internalType": "uint256[][]",
          "name": "matrix",
          "type": "uint256[][]"
        },
        {
          "internalType": "uint256",
          "name": "width",
          "type": "uint256"
        }
      ],
      "name": "zipMatrix",
      "outputs": [
        {
          "internalType": "uint256[][]",
          "name": "",
          "type": "uint256[][]"
        }
      ],
      "stateMutability": "pure",
      "type": "function",
      "constant": true
    },
    {
      "inputs": [
        {
          "internalType": "uint256[][]",
          "name": "matrix",
          "type": "uint256[][]"
        },
        {
          "internalType": "uint256",
          "name": "width",
          "type": "uint256"
        }
      ],
      "name": "unzipMatrix",
      "outputs": [
        {
          "internalType": "uint256[][]",
          "name": "",
          "type": "uint256[][]"
        }
      ],
      "stateMutability": "pure",
      "type": "function",
      "constant": true
    },
    {
      "inputs": [
        {
          "internalType": "uint256[][]",
          "name": "scoreMat",
          "type": "uint256[][]"
        }
      ],
      "name": "reconstructScoreMatrix",
      "outputs": [
        {
          "internalType": "uint256[][]",
          "name": "",
          "type": "uint256[][]"
        }
      ],
      "stateMutability": "pure",
      "type": "function",
      "constant": true
    }
  ],
  "bytecode": "0x610f32610026600b82828239805160001a60731461001957fe5b30600052607381538281f3fe73000000000000000000000000000000000000000030146080604052600436106100a4576000357c010000000000000000000000000000000000000000000000000000000090048063bc0ebb4b11610082578063bc0ebb4b14610105578063bed379a814610118578063d4a8c0e11461012b578063fe69dbfa1461014b576100a4565b80633bfd5206146100a95780638bca1634146100d2578063b9ea4252146100f2575b600080fd5b6100bc6100b7366004610cbb565b61015e565b6040516100c99190610d8d565b60405180910390f35b6100e56100e0366004610cfe565b610269565b6040516100c99190610ded565b6100e5610100366004610d32565b610442565b6100bc610113366004610cbb565b6104cd565b6100bc610126366004610c80565b6105c3565b61013e610139366004610cfe565b610743565b6040516100c99190610eac565b6100e5610159366004610cfe565b6107f1565b60608180600414806101705750806008145b8061017b5750806010145b806101865750806020145b806101915750806040145b8061019c5750806080145b6101c45760405160e560020a62461bcd0281526004016101bb90610e75565b60405180910390fd5b835160608167ffffffffffffffff811180156101df57600080fd5b5060405190808252806020026020018201604052801561021357816020015b60608152602001906001900390816101fe5790505b50905060005b8281101561025d5761023e87828151811061023057fe5b602002602001015187610269565b82828151811061024a57fe5b6020908102919091010152600101610219565b509250505b5092915050565b606081806004148061027b5750806008145b806102865750806010145b806102915750806020145b8061029c5750806040145b806102a75750806080145b6102c65760405160e560020a62461bcd0281526004016101bb90610e75565b8351806102e457506040805160008152602081019091529150610262565b600084610100816102f157fe5b0490506000606061031888600186038151811061030a57fe5b602002602001015188610442565b9050606081516001860385020167ffffffffffffffff8111801561033b57600080fd5b50604051908082528060200260200182016040528015610365578160200160208202803683370190505b50905060005b600186038110156103e95760606103968b838151811061038757fe5b60200260200101518b88610a4c565b9050858202945060005b868110156103df578181815181106103b457fe5b60200260200101518487815181106103c857fe5b6020908102919091010152600195860195016103a0565b505060010161036b565b50600185038402925060005b82518110156104355782818151811061040a57fe5b602002602001015182858151811061041e57fe5b6020908102919091010152600193840193016103f5565b5098975050505050505050565b60608180600414806104545750806008145b8061045f5750806010145b8061046a5750806020145b806104755750806040145b806104805750806080145b61049f5760405160e560020a62461bcd0281526004016101bb90610e75565b60008360020a85816104ad57fe5b600286900a909604950690506104c4858583610a4c565b95945050505050565b60608180600414806104df5750806008145b806104ea5750806010145b806104f55750806020145b806105005750806040145b8061050b5750806080145b61052a5760405160e560020a62461bcd0281526004016101bb90610e75565b835160608167ffffffffffffffff8111801561054557600080fd5b5060405190808252806020026020018201604052801561057957816020015b60608152602001906001900390816105645790505b50905060005b8281101561025d576105a487828151811061059657fe5b6020026020010151876107f1565b8282815181106105b057fe5b602090810291909101015260010161057f565b6060806105d183601061015e565b805190915060608167ffffffffffffffff811180156105ef57600080fd5b5060405190808252806020026020018201604052801561062357816020015b606081526020019060019003908161060e5790505b50905060005b8281101561073a578267ffffffffffffffff8111801561064857600080fd5b50604051908082528060200260200182016040528015610672578160200160208202803683370190505b5082828151811061067f57fe5b6020026020010181905250600084828151811061069857fe5b602002602001015151905060005b81811015610730578583815181106106ba57fe5b602002602001015181600101815181106106d057fe5b60200260200101518484815181106106e457fe5b60200260200101518785815181106106f857fe5b6020026020010151838151811061070b57fe5b60200260200101518151811061071d57fe5b60209081029190910101526002016106a6565b5050600101610629565b50949350505050565b60008180600414806107555750806008145b806107605750806010145b8061076b5750806020145b806107765750806040145b806107815750806080145b6107a05760405160e560020a62461bcd0281526004016101bb90610e75565b8351600184610100816107af57fe5b04038111156107d35760405160e560020a62461bcd0281526004016101bb90610e3e565b60006107df8686610ad3565b60029590950a90940201949350505050565b60608180600414806108035750806008145b8061080e5750806010145b806108195750806020145b806108245750806040145b8061082f5750806080145b61084e5760405160e560020a62461bcd0281526004016101bb90610e75565b6000836101008161085b57fe5b86519190049150600082828161086d57fe5b049050600083838161087b57fe5b06905060608260010167ffffffffffffffff8111801561089a57600080fd5b506040519080825280602002602001820160405280156108c4578160200160208202803683370190505b50905060606000805b8581101561098f578767ffffffffffffffff811180156108ec57600080fd5b50604051908082528060200260200182016040528015610916578160200160208202803683370190505b509250600091508088025b888260010102811015610965578c818151811061093a57fe5b602002602001015184848151811061094e57fe5b602090810291909101015260019283019201610921565b50610970838c610ad3565b84828151811061097c57fe5b60209081029190910101526001016108cd565b508367ffffffffffffffff811180156109a757600080fd5b506040519080825280602002602001820160405280156109d1578160200160208202803683370190505b509150600090508487025b86811015610a1b578b81815181106109f057fe5b6020026020010151838381518110610a0457fe5b6020908102919091010152600191820191016109dc565b50610a26828b610743565b838681518110610a3257fe5b602090810291909101015250909998505050505050505050565b6060808267ffffffffffffffff81118015610a6657600080fd5b50604051908082528060200260200182016040528015610a90578160200160208202803683370190505b50905060005b8381101561073a578460020a8681610aaa57fe5b06828281518110610ab757fe5b6020908102919091010152600285900a90950494600101610a96565b8151600090819080610ae757509050610bb4565b805b6001811115610b5b578460020a866001830381518110610b0557fe5b602002602001015110610b2d5760405160e560020a62461bcd0281526004016101bb90610e07565b856001820381518110610b3c57fe5b602090810291909101015192909201600285900a029160001901610ae9565b508360020a85600081518110610b6d57fe5b602002602001015110610b955760405160e560020a62461bcd0281526004016101bb90610e07565b84600081518110610ba257fe5b60200260200101518201915081925050505b92915050565b600082601f830112610bca578081fd5b8135610bdd610bd882610edc565b610eb5565b818152915060208083019084810160005b84811015610c1757610c05888484358a0101610c22565b84529282019290820190600101610bee565b505050505092915050565b600082601f830112610c32578081fd5b8135610c40610bd882610edc565b818152915060208083019084810181840286018201871015610c6157600080fd5b60005b84811015610c1757813584529282019290820190600101610c64565b600060208284031215610c91578081fd5b813567ffffffffffffffff811115610ca7578182fd5b610cb384828501610bba565b949350505050565b60008060408385031215610ccd578081fd5b823567ffffffffffffffff811115610ce3578182fd5b610cef85828601610bba565b95602094909401359450505050565b60008060408385031215610d10578182fd5b823567ffffffffffffffff811115610d26578283fd5b610cef85828601610c22565b60008060408385031215610d44578182fd5b50508035926020909101359150565b6000815180845260208085019450808401835b83811015610d8257815187529582019590820190600101610d66565b509495945050505050565b6000602080830181845280855180835260408601915060408482028701019250838701855b82811015610de057603f19888603018452610dce858351610d53565b94509285019290850190600101610db2565b5092979650505050505050565b600060208252610e006020830184610d53565b9392505050565b60208082526017908201527f56616c756520657863656564696e6720325e7769647468000000000000000000604082015260600190565b6020808252600f908201527f546f6f206d616e792076616c7565730000000000000000000000000000000000604082015260600190565b60208082526011908201527f576964746820756e737570706f72746564000000000000000000000000000000604082015260600190565b90815260200190565b60405181810167ffffffffffffffff81118282101715610ed457600080fd5b604052919050565b600067ffffffffffffffff821115610ef2578081fd5b506020908102019056fea26469706673582212208e56bf2ca22cd4570e5a8989b29aca3f41194771133809aa174a94e637f0863764736f6c634300060c0033",
  "immutableReferences": {},
  "source": "// SPDX-License-Identifier: MIT\n\npragma solidity >=0.4.18;\npragma experimental ABIEncoderV2;\n\n/// @title Data zipping functions\n/// @author Giovanni Rescinito\n/// @notice implements the zipping operations used to compress lists of values in a single data location\nlibrary Zipper {    \n    /// @notice checks that the width proposed is compatible with the zipping operations\n    /// @param width the value to check\n    modifier checkWidth(uint width){\n        require((width == 4) || (width == 8) || (width == 16) || (width == 32) || (width == 64) || (width == 128),\n                 \"Width unsupported\");\n        _;\n    }\n\n    /// @notice zips an array of values to a single data location\n    /// @param array the array to zip\n    /// @param width the number of bits used for each value\n    /// @return the zipped version of the array\n    function zip(uint[] memory array, uint width) pure private returns (uint){\n        uint zipped = 0;\n        uint size = array.length;\n        if (size == 0){\n            return zipped;\n        }\n        for (uint i=size;i>1;i--){\n            require(array[i-1] < (2**width), \"Value exceeding 2^width\");\n            zipped += array[i-1];\n            zipped = zipped << width;\n        }\n        require(array[0] < (2**width), \"Value exceeding 2^width\");\n        zipped += array[0];\n        return zipped;\n    }\n\n    /// @notice unzips a zipped value to the corresponding array of values\n    /// @param zipped the zipped value\n    /// @param width the number of bits used for each value\n    /// @param size the number of values to extract\n    /// @return the array of the unzipped values\n    function unzip(uint zipped, uint width, uint size) pure private returns (uint[] memory){\n        uint[] memory array = new uint[](size);\n        for (uint i=0;i<size;i++){\n            array[i] = zipped % (2**width);\n            zipped = zipped >> width;\n        }\n        return array;\n    }\n\n    /// @notice zips an array of values using two different widths in an alternate manner, including the size at the end\n    /// @param array the values to zip\n    /// @param width the number of bits used for each value\n    /// @return the zipped version of the array\n    function zipArrayWithSize(uint[] memory array, uint width) pure public checkWidth(width) returns (uint){\n        uint size = array.length;\n        require(size<=(256/width - 1), \"Too many values\");\n        uint zipped = zip(array,width);\n        zipped = zipped << width;\n        zipped += size;\n        return zipped;\n    }\n\n    /// @notice unzips a value, after extracting the size, to the corresponding array of values \n    /// @param zipped the zipped value\n    /// @param width the number of bits used for each value\n    /// @return the array of the unzipped values\n    function unzipArrayWithSize(uint zipped, uint width) pure public checkWidth(width) returns (uint[] memory){\n        uint size = zipped % (2**width);\n        zipped = zipped >> width;\n        return unzip(zipped,width,size);\n    }\n\n    /// @notice zips an arbitrary length array of values\n    /// @param array the values to zip\n    /// @param width the number of bits used for each value\n    /// @return an array containing all the zipped values required to zip the starting array\n    function zipArray(uint[] memory array, uint width) pure public checkWidth(width) returns (uint[] memory){\n        uint n = 256/width;\n        uint cols = array.length;\n        uint size = cols/n;\n        uint last_size = cols%n;\n        uint[] memory zipped = new uint[](size+1);\n        uint[] memory tmp;\n        uint x;\n        for (uint j=0;j<size;j++){\n            tmp = new uint[](n);\n            x = 0;\n            for (uint k=j*n;k<(j+1)*n;k++){\n                tmp[x] = array[k];\n                x++;\n            }\n            zipped[j] = zip(tmp,width);\n        }\n        tmp = new uint[](last_size);\n        x = 0;\n        for (uint k=size*n;k<cols;k++){\n            tmp[x] = array[k];\n            x++;\n        }\n        zipped[size] = zipArrayWithSize(tmp,width);\n        return zipped;\n    }\n\n    /// @notice unzips an array of zipped values\n    /// @param array the values to unzip\n    /// @param width the number of bits used for each value\n    /// @return an array containing all the values obtained after unzipping each of the values of the provided array\n    function unzipArray(uint[] memory array, uint width)pure public checkWidth(width) returns (uint[] memory){\n        uint size = array.length;\n        if (size == 0){\n            return new uint[](0);\n        }\n        uint n = 256/width;\n        uint index;\n        uint[] memory last = unzipArrayWithSize(array[size-1],width);\n        uint[] memory unzipped = new uint[](n*(size-1) + last.length);\n        for (uint i=0;i<size-1;i++){\n            uint[] memory tmp = unzip(array[i],width,n);\n            index = i*n;\n            for (uint j=0;j<n;j++){\n                unzipped[index] = tmp[j];\n                index++;\n            }\n        }\n        index = n*(size-1);\n        for (uint i=0;i<last.length;i++){\n            unzipped[index] = last[i];\n            index++;\n        }\n        return unzipped;\n    }\n    \n    /// @notice zips a matrix of values, row by row\n    /// @param matrix the matrix of values to zip\n    /// @param width the number of bits used for each value\n    /// @return a zipped matrix, where each row is a zipped array containing all the values of that row zipped\n    function zipMatrix(uint[][] memory matrix, uint width) pure public checkWidth(width) returns (uint[][] memory){\n        uint rows = matrix.length;\n        uint[][] memory zipped = new uint[][](rows);\n        for (uint i=0;i<rows;i++){\n            zipped[i] = zipArray(matrix[i],width);\n        }\n        return zipped;\n    }\n\n    /// @notice unzips a matrix of values, row by row\n    /// @param matrix the matrix of values to unzip\n    /// @param width the number of bits used for each value\n    /// @return a matrix, where each row contains all the values obtained after unzipping that row\n    function unzipMatrix(uint[][] memory matrix, uint width)pure public checkWidth(width) returns (uint[][] memory){\n        uint rows = matrix.length;\n        uint[][] memory unzipped = new uint[][](rows);\n        for (uint i=0;i<rows;i++){\n            unzipped[i] = unzipArray(matrix[i],width);\n        }\n        return unzipped;\n    }\n\n    /// @notice unzips the zipped score matrix and reconstructs the nxn starting matrix\n    /// @param scoreMat the zipped score matrix\n    /// @return the unzipped nxn score matrix\n    function reconstructScoreMatrix(uint[][] memory scoreMat) pure public returns (uint[][] memory){\n        uint[][] memory scores = unzipMatrix(scoreMat,16);\n        uint n = scores.length;\n        uint[][] memory scoreMatrix = new uint[][](n);\n        for (uint i=0;i<n;i++){\n            scoreMatrix[i] = new uint[](n);\n            uint len = scores[i].length;\n            for (uint j=0;j<len;j+=2){\n                scoreMatrix[i][scores[i][j]] = scores[i][j+1];\n            }\n        }\n        return scoreMatrix;\n    }   \n}",
  "sourcePath": "C:\\Users\\Claudio\\Desktop\\Tesi\\Codice reviews\\reviews - ipfs\\contracts\\Zipper.sol",
  "compiler": {
    "name": "solc",
    "version": "0.6.12+commit.27d51765.Emscripten.clang"
  },
  "schemaVersion": "3.4.8",
  "updatedAt": "2022-09-18T09:39:15.232Z",
  "networkType": "ethereum",
  "devdoc": {
    "author": "Giovanni Rescinito",
    "kind": "dev",
    "methods": {
      "reconstructScoreMatrix(uint256[][])": {
        "params": {
          "scoreMat": "the zipped score matrix"
        },
        "returns": {
          "_0": "the unzipped nxn score matrix"
        }
      },
      "unzipArray(uint256[],uint256)": {
        "params": {
          "array": "the values to unzip",
          "width": "the number of bits used for each value"
        },
        "returns": {
          "_0": "an array containing all the values obtained after unzipping each of the values of the provided array"
        }
      },
      "unzipArrayWithSize(uint256,uint256)": {
        "params": {
          "width": "the number of bits used for each value",
          "zipped": "the zipped value"
        },
        "returns": {
          "_0": "the array of the unzipped values"
        }
      },
      "unzipMatrix(uint256[][],uint256)": {
        "params": {
          "matrix": "the matrix of values to unzip",
          "width": "the number of bits used for each value"
        },
        "returns": {
          "_0": "a matrix, where each row contains all the values obtained after unzipping that row"
        }
      },
      "zipArray(uint256[],uint256)": {
        "params": {
          "array": "the values to zip",
          "width": "the number of bits used for each value"
        },
        "returns": {
          "_0": "an array containing all the zipped values required to zip the starting array"
        }
      },
      "zipArrayWithSize(uint256[],uint256)": {
        "params": {
          "array": "the values to zip",
          "width": "the number of bits used for each value"
        },
        "returns": {
          "_0": "the zipped version of the array"
        }
      },
      "zipMatrix(uint256[][],uint256)": {
        "params": {
          "matrix": "the matrix of values to zip",
          "width": "the number of bits used for each value"
        },
        "returns": {
          "_0": "a zipped matrix, where each row is a zipped array containing all the values of that row zipped"
        }
      }
    },
    "title": "Data zipping functions",
    "version": 1
  },
  "userdoc": {
    "kind": "user",
    "methods": {
      "reconstructScoreMatrix(uint256[][])": {
        "notice": "unzips the zipped score matrix and reconstructs the nxn starting matrix"
      },
      "unzipArray(uint256[],uint256)": {
        "notice": "unzips an array of zipped values"
      },
      "unzipArrayWithSize(uint256,uint256)": {
        "notice": "unzips a value, after extracting the size, to the corresponding array of values "
      },
      "unzipMatrix(uint256[][],uint256)": {
        "notice": "unzips a matrix of values, row by row"
      },
      "zipArray(uint256[],uint256)": {
        "notice": "zips an arbitrary length array of values"
      },
      "zipArrayWithSize(uint256[],uint256)": {
        "notice": "zips an array of values using two different widths in an alternate manner, including the size at the end"
      },
      "zipMatrix(uint256[][],uint256)": {
        "notice": "zips a matrix of values, row by row"
      }
    },
    "notice": "implements the zipping operations used to compress lists of values in a single data location",
    "version": 1
  }
}