{
  "contractName": "Crypto",
  "abi": [
    {
      "inputs": [
        {
          "internalType": "bytes",
          "name": "primeVal",
          "type": "bytes"
        },
        {
          "internalType": "bytes",
          "name": "gVal",
          "type": "bytes"
        }
      ],
      "stateMutability": "nonpayable",
      "type": "constructor"
    },
    {
      "inputs": [],
      "name": "Unauthorized",
      "type": "error"
    },
    {
      "inputs": [],
      "name": "g",
      "outputs": [
        {
          "internalType": "bytes",
          "name": "val",
          "type": "bytes"
        },
        {
          "internalType": "bool",
          "name": "neg",
          "type": "bool"
        },
        {
          "internalType": "uint256",
          "name": "bitlen",
          "type": "uint256"
        }
      ],
      "stateMutability": "view",
      "type": "function",
      "constant": true
    },
    {
      "inputs": [],
      "name": "prime",
      "outputs": [
        {
          "internalType": "bytes",
          "name": "val",
          "type": "bytes"
        },
        {
          "internalType": "bool",
          "name": "neg",
          "type": "bool"
        },
        {
          "internalType": "uint256",
          "name": "bitlen",
          "type": "uint256"
        }
      ],
      "stateMutability": "view",
      "type": "function",
      "constant": true
    },
    {
      "inputs": [],
      "name": "publicKey",
      "outputs": [
        {
          "internalType": "bytes",
          "name": "val",
          "type": "bytes"
        },
        {
          "internalType": "bool",
          "name": "neg",
          "type": "bool"
        },
        {
          "internalType": "uint256",
          "name": "bitlen",
          "type": "uint256"
        }
      ],
      "stateMutability": "view",
      "type": "function",
      "constant": true
    },
    {
      "inputs": [
        {
          "internalType": "bytes",
          "name": "publicKeyVal",
          "type": "bytes"
        }
      ],
      "name": "setPublicKey",
      "outputs": [],
      "stateMutability": "nonpayable",
      "type": "function"
    },
    {
      "inputs": [
        {
          "internalType": "bytes",
          "name": "yVal",
          "type": "bytes"
        },
        {
          "internalType": "bytes",
          "name": "publicKeyVal",
          "type": "bytes"
        },
        {
          "internalType": "bytes",
          "name": "plaintext1Val",
          "type": "bytes"
        },
        {
          "internalType": "bytes",
          "name": "plaintext2Val",
          "type": "bytes"
        }
      ],
      "name": "ElGamalEnc",
      "outputs": [
        {
          "internalType": "bytes",
          "name": "",
          "type": "bytes"
        },
        {
          "internalType": "bytes",
          "name": "",
          "type": "bytes"
        }
      ],
      "stateMutability": "view",
      "type": "function",
      "constant": true
    },
    {
      "inputs": [
        {
          "internalType": "bytes",
          "name": "c1Val",
          "type": "bytes"
        },
        {
          "internalType": "bytes",
          "name": "secretKeyVal",
          "type": "bytes"
        }
      ],
      "name": "ElGamalDecPart1",
      "outputs": [
        {
          "internalType": "bytes",
          "name": "",
          "type": "bytes"
        }
      ],
      "stateMutability": "view",
      "type": "function",
      "constant": true
    },
    {
      "inputs": [
        {
          "internalType": "bytes",
          "name": "c2Val",
          "type": "bytes"
        },
        {
          "internalType": "bytes",
          "name": "mulDecPart1Val",
          "type": "bytes"
        },
        {
          "internalType": "bytes",
          "name": "userResultVal",
          "type": "bytes"
        }
      ],
      "name": "ElGamalDecPart2",
      "outputs": [
        {
          "internalType": "bytes",
          "name": "",
          "type": "bytes"
        }
      ],
      "stateMutability": "view",
      "type": "function",
      "constant": true
    },
    {
      "inputs": [
        {
          "internalType": "bytes",
          "name": "sVal",
          "type": "bytes"
        },
        {
          "internalType": "bytes",
          "name": "cVal",
          "type": "bytes"
        },
        {
          "internalType": "bytes",
          "name": "tVal",
          "type": "bytes"
        },
        {
          "internalType": "bytes[]",
          "name": "oldVal",
          "type": "bytes[]"
        },
        {
          "internalType": "bytes[]",
          "name": "newVal",
          "type": "bytes[]"
        },
        {
          "internalType": "bytes",
          "name": "userResult1Val",
          "type": "bytes"
        },
        {
          "internalType": "bytes",
          "name": "userResult2Val",
          "type": "bytes"
        }
      ],
      "name": "verifyProof",
      "outputs": [
        {
          "internalType": "bool",
          "name": "",
          "type": "bool"
        }
      ],
      "stateMutability": "view",
      "type": "function",
      "constant": true
    },
    {
      "inputs": [
        {
          "internalType": "bytes[][]",
          "name": "a",
          "type": "bytes[][]"
        }
      ],
      "name": "shuffle",
      "outputs": [
        {
          "internalType": "bytes[][]",
          "name": "",
          "type": "bytes[][]"
        }
      ],
      "stateMutability": "view",
      "type": "function",
      "constant": true
    }
  ],
  "bytecode": "0x60a06040523480156200001157600080fd5b5060405162004ea438038062004ea4833981810160405281019062000037919062000640565b3373ffffffffffffffffffffffffffffffffffffffff1660808173ffffffffffffffffffffffffffffffffffffffff1681525050620000866000836200013660201b620020ac1790919060201c565b6000808201518160000190816200009e919062000910565b5060208201518160010160006101000a81548160ff02191690831515021790555060408201518160020155905050620000e76000826200013660201b620020ac1790919060201c565b6003600082015181600001908162000100919062000910565b5060208201518160010160006101000a81548160ff021916908315150217905550604082015181600201559050505050620009f7565b620001406200048a565b62000154838360006200015c60201b60201c565b905092915050565b620001666200048a565b60208401845160005960006020840614600181146200019a57602084066020036020818401019350808501835250620001a4565b6020820192508382525b508282848660046101c2fa50602081510181016040528085528660208601525050505060008214620001d75781620001ed565b620001ec8160000151620001fd60201b60201c565b5b8160400181815250509392505050565b6000806020830151905062000218816200022c60201b60201c565b915060086020845103028201915050919050565b6000808214600181146200047f578260018403935060028404841793506004840484179350601084048417935061010084048417935062010000840484179350640100000000840484179350680100000000000000008404841793507001000000000000000000000000000000008404841793506001840193506040517ff8f9cbfae6cc78fbefe7cdc3a1793dfcf4f0e8bbd8cec470b6a28a7a5a3e1efd81527ff5ecf1b3e9debc68e1d9cfabc5997135bfb7a7a3938b7b606b5b4b3f2f1f0ffe60208201527ff6e4ed9ff2d6b458eadcdf97bd91692de2d4da8fd2d0ac50c6ae9a827252361660408201527fc8c0b887b0a8a4489c948c7f847c6125746c645c544c444038302820181008ff60608201527ff7cae577eec2a03cf3bad76fb589591debb2dd67e0aa9834bea6925f6a4a2e0e60808201527fe39ed557db96902cd38ed14fad815115c786af479b7e8324736353433727170760a08201527fc976c13bb96e881cb166a933a55e490d9d56952b8d4e801485467d236242260660c08201527f753a6d1b65325d0c552a4d1345224105391a310b29122104190a11030902010060e082015261010081016040527e818283848586878898a8b8c8d8e8f929395969799a9b9d9e9faaeb6bedeeff7f01000000000000000000000000000000000000000000000000000000000000008082880204818160ff038501510496507f8000000000000000000000000000000000000000000000000000000000000000851161010002870196506000600186038616146001810362000473576001880197505b50505050505062000484565b600091505b50919050565b604051806060016040528060608152602001600015158152602001600081525090565b6000604051905090565b600080fd5b600080fd5b600080fd5b600080fd5b6000601f19601f8301169050919050565b7f4e487b7100000000000000000000000000000000000000000000000000000000600052604160045260246000fd5b6200051682620004cb565b810181811067ffffffffffffffff82111715620005385762000537620004dc565b5b80604052505050565b60006200054d620004ad565b90506200055b82826200050b565b919050565b600067ffffffffffffffff8211156200057e576200057d620004dc565b5b6200058982620004cb565b9050602081019050919050565b60005b83811015620005b657808201518184015260208101905062000599565b60008484015250505050565b6000620005d9620005d38462000560565b62000541565b905082815260208101848484011115620005f857620005f7620004c6565b5b6200060584828562000596565b509392505050565b600082601f830112620006255762000624620004c1565b5b815162000637848260208601620005c2565b91505092915050565b600080604083850312156200065a5762000659620004b7565b5b600083015167ffffffffffffffff8111156200067b576200067a620004bc565b5b62000689858286016200060d565b925050602083015167ffffffffffffffff811115620006ad57620006ac620004bc565b5b620006bb858286016200060d565b9150509250929050565b600081519050919050565b7f4e487b7100000000000000000000000000000000000000000000000000000000600052602260045260246000fd5b600060028204905060018216806200071857607f821691505b6020821081036200072e576200072d620006d0565b5b50919050565b60008190508160005260206000209050919050565b60006020601f8301049050919050565b600082821b905092915050565b600060088302620007987fffffffffffffffffffffffffffffffffffffffffffffffffffffffffffffffff8262000759565b620007a4868362000759565b95508019841693508086168417925050509392505050565b6000819050919050565b6000819050919050565b6000620007f1620007eb620007e584620007bc565b620007c6565b620007bc565b9050919050565b6000819050919050565b6200080d83620007d0565b620008256200081c82620007f8565b84845462000766565b825550505050565b600090565b6200083c6200082d565b6200084981848462000802565b505050565b5b8181101562000871576200086560008262000832565b6001810190506200084f565b5050565b601f821115620008c0576200088a8162000734565b620008958462000749565b81016020851015620008a5578190505b620008bd620008b48562000749565b8301826200084e565b50505b505050565b600082821c905092915050565b6000620008e560001984600802620008c5565b1980831691505092915050565b6000620009008383620008d2565b9150826002028217905092915050565b6200091b82620006c5565b67ffffffffffffffff811115620009375762000936620004dc565b5b620009438254620006ff565b6200095082828562000875565b600060209050601f83116001811462000988576000841562000973578287015190505b6200097f8582620008f2565b865550620009ef565b601f198416620009988662000734565b60005b82811015620009c2578489015182556001820191506020850194506020810190506200099b565b86831015620009e25784890151620009de601f891682620008d2565b8355505b6001600288020188555050505b505050505050565b60805161449162000a136000396000611bcc01526144916000f3fe608060405234801561001057600080fd5b50600436106100935760003560e01c8063a91d58b411610066578063a91d58b414610149578063c7ee005e14610165578063e2179b8e14610185578063ebcd58df146101a5578063f92e4607146101d557610093565b80630ac09229146100985780634d56f4ac146100c957806363ffab31146100f9578063a454af3d14610119575b600080fd5b6100b260048036038101906100ad9190613315565b610205565b6040516100c092919061348e565b60405180910390f35b6100e360048036038101906100de91906134c5565b6107a4565b6040516100f09190613579565b60405180910390f35b610101610a6a565b604051610110939291906135cf565b60405180910390f35b610133600480360381019061012e9190613793565b610b17565b604051610140919061390b565b60405180910390f35b610163600480360381019061015e9190613926565b611bb3565b005b61016d611cd9565b60405161017c939291906135cf565b60405180910390f35b61018d611d86565b60405161019c939291906135cf565b60405180910390f35b6101bf60048036038101906101ba9190613b35565b611e33565b6040516101cc9190613d4c565b60405180910390f35b6101ef60048036038101906101ea9190613d6e565b611f16565b6040516101fc9190613579565b60405180910390f35b606080600061026260008c8c8080601f016020809104026020016040519081016040528093929190818152602001838380828437600081840152601f19601f820116905080830192505050505050506120ac90919063ffffffff16565b905061052d61040282600060405180606001604052908160008201805461028890613e1e565b80601f01602080910402602001604051908101604052809291908181526020018280546102b490613e1e565b80156103015780601f106102d657610100808354040283529160200191610301565b820191906000526020600020905b8154815290600101906020018083116102e457829003601f168201915b505050505081526020016001820160009054906101000a900460ff16151515158152602001600282015481525050600360405180606001604052908160008201805461034c90613e1e565b80601f016020809104026020016040519081016040528092919081815260200182805461037890613e1e565b80156103c55780601f1061039a576101008083540402835291602001916103c5565b820191906000526020600020905b8154815290600101906020018083116103a857829003601f168201915b505050505081526020016001820160009054906101000a900460ff161515151581526020016002820154815250506120c89092919063ffffffff16565b600060405180606001604052908160008201805461041f90613e1e565b80601f016020809104026020016040519081016040528092919081815260200182805461044b90613e1e565b80156104985780601f1061046d57610100808354040283529160200191610498565b820191906000526020600020905b81548152906001019060200180831161047b57829003601f168201915b505050505081526020016001820160009054906101000a900460ff1615151515815260200160028201548152505061051e60008b8b8080601f016020809104026020016040519081016040528093929190818152602001838380828437600081840152601f19601f820116905080830192505050505050506120ac90919063ffffffff16565b6121aa9092919063ffffffff16565b6000015161078e61066383600060405180606001604052908160008201805461055590613e1e565b80601f016020809104026020016040519081016040528092919081815260200182805461058190613e1e565b80156105ce5780601f106105a3576101008083540402835291602001916105ce565b820191906000526020600020905b8154815290600101906020018083116105b157829003601f168201915b505050505081526020016001820160009054906101000a900460ff1615151515815260200160028201548152505061065460008f8f8080601f016020809104026020016040519081016040528093929190818152602001838380828437600081840152601f19601f820116905080830192505050505050506120ac90919063ffffffff16565b6120c89092919063ffffffff16565b600060405180606001604052908160008201805461068090613e1e565b80601f01602080910402602001604051908101604052809291908181526020018280546106ac90613e1e565b80156106f95780601f106106ce576101008083540402835291602001916106f9565b820191906000526020600020905b8154815290600101906020018083116106dc57829003601f168201915b505050505081526020016001820160009054906101000a900460ff1615151515815260200160028201548152505061077f60008a8a8080601f016020809104026020016040519081016040528093929190818152602001838380828437600081840152601f19601f820116905080830192505050505050506120ac90919063ffffffff16565b6121aa9092919063ffffffff16565b6000015192509250509850989650505050505050565b6060610a5a61092f60006040518060600160405290816000820180546107c990613e1e565b80601f01602080910402602001604051908101604052809291908181526020018280546107f590613e1e565b80156108425780601f1061081757610100808354040283529160200191610842565b820191906000526020600020905b81548152906001019060200180831161082557829003601f168201915b505050505081526020016001820160009054906101000a900460ff161515151581526020016002820154815250506108c8600087878080601f016020809104026020016040519081016040528093929190818152602001838380828437600081840152601f19601f820116905080830192505050505050506120ac90919063ffffffff16565b61092060008a8a8080601f016020809104026020016040519081016040528093929190818152602001838380828437600081840152601f19601f820116905080830192505050505050506120ac90919063ffffffff16565b6121ce9092919063ffffffff16565b600060405180606001604052908160008201805461094c90613e1e565b80601f016020809104026020016040519081016040528092919081815260200182805461097890613e1e565b80156109c55780601f1061099a576101008083540402835291602001916109c5565b820191906000526020600020905b8154815290600101906020018083116109a857829003601f168201915b505050505081526020016001820160009054906101000a900460ff16151515158152602001600282015481525050610a4b60008b8b8080601f016020809104026020016040519081016040528093929190818152602001838380828437600081840152601f19601f820116905080830192505050505050506120ac90919063ffffffff16565b6121aa9092919063ffffffff16565b6000015190509695505050505050565b6006806000018054610a7b90613e1e565b80601f0160208091040260200160405190810160405280929190818152602001828054610aa790613e1e565b8015610af45780601f10610ac957610100808354040283529160200191610af4565b820191906000526020600020905b815481529060010190602001808311610ad757829003601f168201915b5050505050908060010160009054906101000a900460ff16908060020154905083565b600080610b2e60008e6120ac90919063ffffffff16565b90506000610b4660008d6120ac90919063ffffffff16565b90506000610b5e60008f6120ac90919063ffffffff16565b90506000610bde60008e8e6000818110610b7b57610b7a613e4f565b5b9050602002810190610b8d9190613e8d565b8080601f016020809104026020016040519081016040528093929190818152602001838380828437600081840152601f19601f820116905080830192505050505050506120ac90919063ffffffff16565b90506000610c5e60008f8f6001818110610bfb57610bfa613e4f565b5b9050602002810190610c0d9190613e8d565b8080601f016020809104026020016040519081016040528093929190818152602001838380828437600081840152601f19601f820116905080830192505050505050506120ac90919063ffffffff16565b90506000610cde60008e8e6000818110610c7b57610c7a613e4f565b5b9050602002810190610c8d9190613e8d565b8080601f016020809104026020016040519081016040528093929190818152602001838380828437600081840152601f19601f820116905080830192505050505050506120ac90919063ffffffff16565b90506000610d5e60008f8f6001818110610cfb57610cfa613e4f565b5b9050602002810190610d0d9190613e8d565b8080601f016020809104026020016040519081016040528093929190818152602001838380828437600081840152601f19601f820116905080830192505050505050506120ac90919063ffffffff16565b90506000610dba60008e8e8080601f016020809104026020016040519081016040528093929190818152602001838380828437600081840152601f19601f820116905080830192505050505050506120ac90919063ffffffff16565b90506000610e1660008d8d8080601f016020809104026020016040519081016040528093929190818152602001838380828437600081840152601f19601f820116905080830192505050505050506120ac90919063ffffffff16565b905060006114c06113146110a68a6000604051806060016040529081600082018054610e4190613e1e565b80601f0160208091040260200160405190810160405280929190818152602001828054610e6d90613e1e565b8015610eba5780601f10610e8f57610100808354040283529160200191610eba565b820191906000526020600020905b815481529060010190602001808311610e9d57829003601f168201915b505050505081526020016001820160009054906101000a900460ff16151515158152602001600282015481525050611097610fc36000604051806060016040529081600082018054610f0b90613e1e565b80601f0160208091040260200160405190810160405280929190818152602001828054610f3790613e1e565b8015610f845780601f10610f5957610100808354040283529160200191610f84565b820191906000526020600020905b815481529060010190602001808311610f6757829003601f168201915b505050505081526020016001820160009054906101000a900460ff161515151581526020016002820154815250508a8f6121ce9092919063ffffffff16565b6000604051806060016040529081600082018054610fe090613e1e565b80601f016020809104026020016040519081016040528092919081815260200182805461100c90613e1e565b80156110595780601f1061102e57610100808354040283529160200191611059565b820191906000526020600020905b81548152906001019060200180831161103c57829003601f168201915b505050505081526020016001820160009054906101000a900460ff161515151581526020016002820154815250508c6121aa9092919063ffffffff16565b6120c89092919063ffffffff16565b60006040518060600160405290816000820180546110c390613e1e565b80601f01602080910402602001604051908101604052809291908181526020018280546110ef90613e1e565b801561113c5780601f106111115761010080835404028352916020019161113c565b820191906000526020600020905b81548152906001019060200180831161111f57829003601f168201915b505050505081526020016001820160009054906101000a900460ff161515151581526020016002820154815250506113058e600060405180606001604052908160008201805461118b90613e1e565b80601f01602080910402602001604051908101604052809291908181526020018280546111b790613e1e565b80156112045780601f106111d957610100808354040283529160200191611204565b820191906000526020600020905b8154815290600101906020018083116111e757829003601f168201915b505050505081526020016001820160009054906101000a900460ff16151515158152602001600282015481525050600360405180606001604052908160008201805461124f90613e1e565b80601f016020809104026020016040519081016040528092919081815260200182805461127b90613e1e565b80156112c85780601f1061129d576101008083540402835291602001916112c8565b820191906000526020600020905b8154815290600101906020018083116112ab57829003601f168201915b505050505081526020016001820160009054906101000a900460ff161515151581526020016002820154815250506120c89092919063ffffffff16565b6121aa9092919063ffffffff16565b60006114b18c600060405180606001604052908160008201805461133790613e1e565b80601f016020809104026020016040519081016040528092919081815260200182805461136390613e1e565b80156113b05780601f10611385576101008083540402835291602001916113b0565b820191906000526020600020905b81548152906001019060200180831161139357829003601f168201915b505050505081526020016001820160009054906101000a900460ff1615151515815260200160028201548152505060036040518060600160405290816000820180546113fb90613e1e565b80601f016020809104026020016040519081016040528092919081815260200182805461142790613e1e565b80156114745780601f1061144957610100808354040283529160200191611474565b820191906000526020600020905b81548152906001019060200180831161145757829003601f168201915b505050505081526020016001820160009054906101000a900460ff161515151581526020016002820154815250506120c89092919063ffffffff16565b6122659092919063ffffffff16565b03611b96576000611b6d6119c16117538a60006040518060600160405290816000820180546114ee90613e1e565b80601f016020809104026020016040519081016040528092919081815260200182805461151a90613e1e565b80156115675780601f1061153c57610100808354040283529160200191611567565b820191906000526020600020905b81548152906001019060200180831161154a57829003601f168201915b505050505081526020016001820160009054906101000a900460ff1615151515815260200160028201548152505061174461167060006040518060600160405290816000820180546115b890613e1e565b80601f01602080910402602001604051908101604052809291908181526020018280546115e490613e1e565b80156116315780601f1061160657610100808354040283529160200191611631565b820191906000526020600020905b81548152906001019060200180831161161457829003601f168201915b505050505081526020016001820160009054906101000a900460ff16151515158152602001600282015481525050898e6121ce9092919063ffffffff16565b600060405180606001604052908160008201805461168d90613e1e565b80601f01602080910402602001604051908101604052809291908181526020018280546116b990613e1e565b80156117065780601f106116db57610100808354040283529160200191611706565b820191906000526020600020905b8154815290600101906020018083116116e957829003601f168201915b505050505081526020016001820160009054906101000a900460ff161515151581526020016002820154815250508b6121aa9092919063ffffffff16565b6120c89092919063ffffffff16565b600060405180606001604052908160008201805461177090613e1e565b80601f016020809104026020016040519081016040528092919081815260200182805461179c90613e1e565b80156117e95780601f106117be576101008083540402835291602001916117e9565b820191906000526020600020905b8154815290600101906020018083116117cc57829003601f168201915b505050505081526020016001820160009054906101000a900460ff161515151581526020016002820154815250506119b28e600060405180606001604052908160008201805461183890613e1e565b80601f016020809104026020016040519081016040528092919081815260200182805461186490613e1e565b80156118b15780601f10611886576101008083540402835291602001916118b1565b820191906000526020600020905b81548152906001019060200180831161189457829003601f168201915b505050505081526020016001820160009054906101000a900460ff1615151515815260200160028201548152505060066040518060600160405290816000820180546118fc90613e1e565b80601f016020809104026020016040519081016040528092919081815260200182805461192890613e1e565b80156119755780601f1061194a57610100808354040283529160200191611975565b820191906000526020600020905b81548152906001019060200180831161195857829003601f168201915b505050505081526020016001820160009054906101000a900460ff161515151581526020016002820154815250506120c89092919063ffffffff16565b6121aa9092919063ffffffff16565b6000611b5e8c60006040518060600160405290816000820180546119e490613e1e565b80601f0160208091040260200160405190810160405280929190818152602001828054611a1090613e1e565b8015611a5d5780601f10611a3257610100808354040283529160200191611a5d565b820191906000526020600020905b815481529060010190602001808311611a4057829003601f168201915b505050505081526020016001820160009054906101000a900460ff161515151581526020016002820154815250506006604051806060016040529081600082018054611aa890613e1e565b80601f0160208091040260200160405190810160405280929190818152602001828054611ad490613e1e565b8015611b215780601f10611af657610100808354040283529160200191611b21565b820191906000526020600020905b815481529060010190602001808311611b0457829003601f168201915b505050505081526020016001820160009054906101000a900460ff161515151581526020016002820154815250506120c89092919063ffffffff16565b6122659092919063ffffffff16565b03611b845760019950505050505050505050611ba4565b60009950505050505050505050611ba4565b600099505050505050505050505b9b9a5050505050505050505050565b3373ffffffffffffffffffffffffffffffffffffffff167f000000000000000000000000000000000000000000000000000000000000000073ffffffffffffffffffffffffffffffffffffffff1614611c38576040517f82b4290000000000000000000000000000000000000000000000000000000000815260040160405180910390fd5b611c90600083838080601f016020809104026020016040519081016040528093929190818152602001838380828437600081840152601f19601f820116905080830192505050505050506120ac90919063ffffffff16565b60066000820151816000019081611ca7919061409c565b5060208201518160010160006101000a81548160ff021916908315150217905550604082015181600201559050505050565b6000806000018054611cea90613e1e565b80601f0160208091040260200160405190810160405280929190818152602001828054611d1690613e1e565b8015611d635780601f10611d3857610100808354040283529160200191611d63565b820191906000526020600020905b815481529060010190602001808311611d4657829003601f168201915b5050505050908060010160009054906101000a900460ff16908060020154905083565b6003806000018054611d9790613e1e565b80601f0160208091040260200160405190810160405280929190818152602001828054611dc390613e1e565b8015611e105780601f10611de557610100808354040283529160200191611e10565b820191906000526020600020905b815481529060010190602001808311611df357829003601f168201915b5050505050908060010160009054906101000a900460ff16908060020154905083565b6060600082519050606060005b60008314611f0b5782424433604051602001611e5e93929190614209565b6040516020818303038152906040528051906020012060001c611e819190614275565b90508280611e8e906142d5565b935050848381518110611ea457611ea3613e4f565b5b60200260200101519150848181518110611ec157611ec0613e4f565b5b6020026020010151858481518110611edc57611edb613e4f565b5b602002602001018190525081858281518110611efb57611efa613e4f565b5b6020026020010181905250611e40565b849350505050919050565b606061209e611f73600085858080601f016020809104026020016040519081016040528093929190818152602001838380828437600081840152601f19601f820116905080830192505050505050506120ac90919063ffffffff16565b6000604051806060016040529081600082018054611f9090613e1e565b80601f0160208091040260200160405190810160405280929190818152602001828054611fbc90613e1e565b80156120095780601f10611fde57610100808354040283529160200191612009565b820191906000526020600020905b815481529060010190602001808311611fec57829003601f168201915b505050505081526020016001820160009054906101000a900460ff1615151515815260200160028201548152505061208f600089898080601f016020809104026020016040519081016040528093929190818152602001838380828437600081840152601f19601f820116905080830192505050505050506120ac90919063ffffffff16565b6120c89092919063ffffffff16565b600001519050949350505050565b6120b4613279565b6120c08383600061245a565b905092915050565b6120d0613279565b6000151583602001511515146120e557600080fd5b60006120fe8560000151856000015185600001516124ed565b905060006020820151905061010060016020845161211c91906142fe565b612126919061432f565b6121309190614363565b612139826125b4565b61214391906143a5565b90508183600001819052506000151586602001511515148061217a575085602001518015612179575060006121778661280f565b145b5b612185576001612188565b60005b8360200190151590811515815250508083604001818152505050509392505050565b6121b2613279565b6121c56121bf8585612824565b8361287d565b90509392505050565b6121d6613279565b60001515846020015115151480156121f657506000151583602001511515145b6121ff57600080fd5b60006040518060600160405280604051806040016040528060208152602001600181525081526020016000151581526020016001815250905060006122506122488786886121aa565b836001612265565b1461225a57600080fd5b829150509392505050565b6000806001905082156123305784602001518015612284575083602001515b156122b1577fffffffffffffffffffffffffffffffffffffffffffffffffffffffffffffffff905061232f565b60001515856020015115151480156122d157506001151584602001511515145b156122e0576001915050612453565b600115158560200151151514801561230057506000151584602001511515145b1561232e577fffffffffffffffffffffffffffffffffffffffffffffffffffffffffffffffff915050612453565b5b5b8360400151856040015111156123555780600161234d91906143e3565b915050612453565b84604001518460400151111561239957807fffffffffffffffffffffffffffffffffffffffffffffffffffffffffffffffff61239191906143e3565b915050612453565b6000806000806000896000015151905060208a510194506020895101935060005b8181101561244757808601519350808501519250828411156123f1578660016123e391906143e3565b975050505050505050612453565b8383111561243357867fffffffffffffffffffffffffffffffffffffffffffffffffffffffffffffffff61242591906143e3565b975050505050505050612453565b60208161244091906143a5565b90506123ba565b50600096505050505050505b9392505050565b612462613279565b60208401845160005960006020840614600181146124945760208406602003602081840101935080850183525061249e565b6020820192508382525b508282848660046101c2fa506020815101810160405280855286602086015250505050600082146124cf57816124dd565b6124dc81600001516128d2565b5b8160400181815250509392505050565b606083518351835160405183815282602082015281604082015283606082018560208b0160046101c2fa84606001848184018660208c0160046101c2fa91508481019050838184018560208b0160046101c2fa9150816000810361254d57fe5b5083810190508383606001828560056105465a03fa9150816000810361256f57fe5b5083836060015b600160008251140361259357602081019050602082039150612576565b60208103985081895285856060010160405250505050505050509392505050565b600080821460018114612804578260018403935060028404841793506004840484179350601084048417935061010084048417935062010000840484179350640100000000840484179350680100000000000000008404841793507001000000000000000000000000000000008404841793506001840193506040517ff8f9cbfae6cc78fbefe7cdc3a1793dfcf4f0e8bbd8cec470b6a28a7a5a3e1efd81527ff5ecf1b3e9debc68e1d9cfabc5997135bfb7a7a3938b7b606b5b4b3f2f1f0ffe60208201527ff6e4ed9ff2d6b458eadcdf97bd91692de2d4da8fd2d0ac50c6ae9a827252361660408201527fc8c0b887b0a8a4489c948c7f847c6125746c645c544c444038302820181008ff60608201527ff7cae577eec2a03cf3bad76fb589591debb2dd67e0aa9834bea6925f6a4a2e0e60808201527fe39ed557db96902cd38ed14fad815115c786af479b7e8324736353433727170760a08201527fc976c13bb96e881cb166a933a55e490d9d56952b8d4e801485467d236242260660c08201527f753a6d1b65325d0c552a4d1345224105391a310b29122104190a11030902010060e082015261010081016040527e818283848586878898a8b8c8d8e8f929395969799a9b9d9e9faaeb6bedeeff7f01000000000000000000000000000000000000000000000000000000000000008082880204818160ff038501510496507f800000000000000000000000000000000000000000000000000000000000000085116101000287019650600060018603861614600181036127f9576001880197505b505050505050612809565b600091505b50919050565b60008151518251016002815106915050919050565b61282c613279565b612838838360006128f9565b9050600061284884846001612265565b1461286b57600061285b848460016128f9565b90506128678282612a02565b9150505b612876816002612c53565b5092915050565b612885613279565b6000604051806060016040528060405180604001604052806020815260200160018152508152602001600015158152602001600181525090506128c98482856120c8565b91505092915050565b600080602083015190506128e5816125b4565b915060086020845103028201915050919050565b612901613279565b600060405180606001604052806040518060400160405280602081526020016002815250815260200160001515815260200160028152509050600080606060008614612956576129518888612a02565b612961565b6129608888612dbc565b5b9450600085604001519050600281029350610100846129809190614275565b6001901b92506040518060400160405280602081526020016000815250915060206001610100860401028252826020830152602082510182016040526129c4613279565b8281600001819052506000816020019015159081151581525050848160400181815250506129f38787836120c8565b96505050505050509392505050565b612a0a613279565b6000604051806060016040528060405180604001604052806020815260200160008152508152602001600015158152602001600081525090506060600080612a5487876000612265565b9150866020015180612a67575085602001515b15612b985786602001518015612a7e575085602001515b15612b245760018203612abb57612a9d87600001518760000151613014565b80925081945050506001856020019015159081151581525050612b1f565b7fffffffffffffffffffffffffffffffffffffffffffffffffffffffffffffffff8203612b1257612af486600001518860000151613014565b80925081945050506000856020019015159081151581525050612b1e565b83945050505050612c4d565b5b612b93565b60008212612b5057612b4387600001518760000151896040015161313f565b8092508194505050612b70565b612b6786600001518860000151886040015161313f565b80925081945050505b8660200151612b80576000612b83565b60015b8560200190151590811515815250505b612c35565b60018203612bd057612bb287600001518760000151613014565b80925081945050506000856020019015159081151581525050612c34565b7fffffffffffffffffffffffffffffffffffffffffffffffffffffffffffffffff8203612c2757612c0986600001518860000151613014565b80925081945050506001856020019015159081151581525050612c33565b83945050505050612c4d565b5b5b82856000018190525080856040018181525050505050505b92915050565b612c5b613279565b60008351519050600881612c6f9190614363565b8310612cb2576040518060600160405280604051806040016040528060208152602001600081525081526020016000151581526020016000815250915050612db6565b828460400151612cc2919061432f565b846040018181525050610100831461010084111760018103612cf65760206101008504028203915081855152610100840693505b5083516000600885061460018114612d68576000808661010003858501865b600080821403612d5e576020811460018114612d375760208303519550612d3c565b600095505b5081518a1c935084831b94508484178252602082039150602081039050612d15565b5050505050612d91565b60088504865180518282018382038082848660046101c2fa6000601f8401538385525050505050505b5060208101600081511460018103612dae57602083510382528187525b505050839150505b92915050565b612dc4613279565b60006040518060600160405280604051806040016040528060208152602001600081525081526020016000151581526020016000815250905060008460400151148015612e15575060008360400151145b15612e23578091505061300e565b6000846040015103612e38578291505061300e565b6000836040015103612e4d578391505061300e565b6060600080612e5e87876000612265565b9050866020015180612e71575085602001515b15612f985786602001518015612e88575085602001515b15612eef5760008112612eb957612eac87600001518760000151896040015161313f565b8093508194505050612ed9565b612ed086600001518860000151886040015161313f565b80935081945050505b6001856020019015159081151581525050612f93565b60018103612f2a57612f0987600001518760000151613014565b80935081945050508660200151856020019015159081151581525050612f92565b7fffffffffffffffffffffffffffffffffffffffffffffffffffffffffffffffff8103612f8557612f6386600001518860000151613014565b8093508194505050866020015115856020019015159081151581525050612f91565b8394505050505061300e565b5b5b612ff6565b60008112612fc457612fb787600001518760000151896040015161313f565b8093508194505050612fe4565b612fdb86600001518860000151886040015161313f565b80935081945050505b60008560200190151590811515815250505b82856000018190525081856040018181525050505050505b92915050565b6060600060606000807fffffffffffffffffffffffffffffffffffffffffffffffffffffffffffffffff90505987518751808203828b01828b0184860160208101865b6000808214036130e757845186821160018114613098578c8203855260018d1460008314166001811461308d5760009d50613092565b60019d505b506130ce565b85518d81840303865260018e148d8214168e8201841017600181146130c05760009e506130c5565b60019e505b50602087039650505b5060208403935060208603955050602081039050613057565b506020820191505b600082510361310f576020880197506020870396506020820191506130ef565b879a50868b52806040525050505050505050600061312c846128d2565b9050838195509550505050509250929050565b606060006060596000600160000388518901885189018a5160208601018b515b60008082140361320b5783518c518e51038211600181146131a3578782018452600188148288141660018114613198576000985061319d565b600198505b506131f2565b84518881840101855288810388038311600181146131e4576000821160008b111789851416600181146131d95760009a506131de565b60019a505b506131e9565b600199505b50602086039550505b506020830392506020850394505060208103905061315f565b5060008514600181146132215760018252613228565b6020870196505b50859650846020028c510187526020875101870160405260208701516001816101008d061c146001821417600181036132625760018c019b505b505050505050505080849250925050935093915050565b604051806060016040528060608152602001600015158152602001600081525090565b6000604051905090565b600080fd5b600080fd5b600080fd5b600080fd5b600080fd5b60008083601f8401126132d5576132d46132b0565b5b8235905067ffffffffffffffff8111156132f2576132f16132b5565b5b60208301915083600182028301111561330e5761330d6132ba565b5b9250929050565b6000806000806000806000806080898b031215613335576133346132a6565b5b600089013567ffffffffffffffff811115613353576133526132ab565b5b61335f8b828c016132bf565b9850985050602089013567ffffffffffffffff811115613382576133816132ab565b5b61338e8b828c016132bf565b9650965050604089013567ffffffffffffffff8111156133b1576133b06132ab565b5b6133bd8b828c016132bf565b9450945050606089013567ffffffffffffffff8111156133e0576133df6132ab565b5b6133ec8b828c016132bf565b92509250509295985092959890939650565b600081519050919050565b600082825260208201905092915050565b60005b8381101561343857808201518184015260208101905061341d565b60008484015250505050565b6000601f19601f8301169050919050565b6000613460826133fe565b61346a8185613409565b935061347a81856020860161341a565b61348381613444565b840191505092915050565b600060408201905081810360008301526134a88185613455565b905081810360208301526134bc8184613455565b90509392505050565b600080600080600080606087890312156134e2576134e16132a6565b5b600087013567ffffffffffffffff811115613500576134ff6132ab565b5b61350c89828a016132bf565b9650965050602087013567ffffffffffffffff81111561352f5761352e6132ab565b5b61353b89828a016132bf565b9450945050604087013567ffffffffffffffff81111561355e5761355d6132ab565b5b61356a89828a016132bf565b92509250509295509295509295565b600060208201905081810360008301526135938184613455565b905092915050565b60008115159050919050565b6135b08161359b565b82525050565b6000819050919050565b6135c9816135b6565b82525050565b600060608201905081810360008301526135e98186613455565b90506135f860208301856135a7565b61360560408301846135c0565b949350505050565b600080fd5b7f4e487b7100000000000000000000000000000000000000000000000000000000600052604160045260246000fd5b61364a82613444565b810181811067ffffffffffffffff8211171561366957613668613612565b5b80604052505050565b600061367c61329c565b90506136888282613641565b919050565b600067ffffffffffffffff8211156136a8576136a7613612565b5b6136b182613444565b9050602081019050919050565b82818337600083830152505050565b60006136e06136db8461368d565b613672565b9050828152602081018484840111156136fc576136fb61360d565b5b6137078482856136be565b509392505050565b600082601f830112613724576137236132b0565b5b81356137348482602086016136cd565b91505092915050565b60008083601f840112613753576137526132b0565b5b8235905067ffffffffffffffff8111156137705761376f6132b5565b5b60208301915083602082028301111561378c5761378b6132ba565b5b9250929050565b600080600080600080600080600080600060e08c8e0312156137b8576137b76132a6565b5b60008c013567ffffffffffffffff8111156137d6576137d56132ab565b5b6137e28e828f0161370f565b9b505060208c013567ffffffffffffffff811115613803576138026132ab565b5b61380f8e828f0161370f565b9a505060408c013567ffffffffffffffff8111156138305761382f6132ab565b5b61383c8e828f0161370f565b99505060608c013567ffffffffffffffff81111561385d5761385c6132ab565b5b6138698e828f0161373d565b985098505060808c013567ffffffffffffffff81111561388c5761388b6132ab565b5b6138988e828f0161373d565b965096505060a08c013567ffffffffffffffff8111156138bb576138ba6132ab565b5b6138c78e828f016132bf565b945094505060c08c013567ffffffffffffffff8111156138ea576138e96132ab565b5b6138f68e828f016132bf565b92509250509295989b509295989b9093969950565b600060208201905061392060008301846135a7565b92915050565b6000806020838503121561393d5761393c6132a6565b5b600083013567ffffffffffffffff81111561395b5761395a6132ab565b5b613967858286016132bf565b92509250509250929050565b600067ffffffffffffffff82111561398e5761398d613612565b5b602082029050602081019050919050565b600067ffffffffffffffff8211156139ba576139b9613612565b5b602082029050602081019050919050565b60006139de6139d98461399f565b613672565b90508083825260208201905060208402830185811115613a0157613a006132ba565b5b835b81811015613a4857803567ffffffffffffffff811115613a2657613a256132b0565b5b808601613a33898261370f565b85526020850194505050602081019050613a03565b5050509392505050565b600082601f830112613a6757613a666132b0565b5b8135613a778482602086016139cb565b91505092915050565b6000613a93613a8e84613973565b613672565b90508083825260208201905060208402830185811115613ab657613ab56132ba565b5b835b81811015613afd57803567ffffffffffffffff811115613adb57613ada6132b0565b5b808601613ae88982613a52565b85526020850194505050602081019050613ab8565b5050509392505050565b600082601f830112613b1c57613b1b6132b0565b5b8135613b2c848260208601613a80565b91505092915050565b600060208284031215613b4b57613b4a6132a6565b5b600082013567ffffffffffffffff811115613b6957613b686132ab565b5b613b7584828501613b07565b91505092915050565b600081519050919050565b600082825260208201905092915050565b6000819050602082019050919050565b600081519050919050565b600082825260208201905092915050565b6000819050602082019050919050565b600082825260208201905092915050565b6000613bf2826133fe565b613bfc8185613bd6565b9350613c0c81856020860161341a565b613c1581613444565b840191505092915050565b6000613c2c8383613be7565b905092915050565b6000602082019050919050565b6000613c4c82613baa565b613c568185613bb5565b935083602082028501613c6885613bc6565b8060005b85811015613ca45784840389528151613c858582613c20565b9450613c9083613c34565b925060208a01995050600181019050613c6c565b50829750879550505050505092915050565b6000613cc28383613c41565b905092915050565b6000602082019050919050565b6000613ce282613b7e565b613cec8185613b89565b935083602082028501613cfe85613b9a565b8060005b85811015613d3a5784840389528151613d1b8582613cb6565b9450613d2683613cca565b925060208a01995050600181019050613d02565b50829750879550505050505092915050565b60006020820190508181036000830152613d668184613cd7565b905092915050565b60008060008060408587031215613d8857613d876132a6565b5b600085013567ffffffffffffffff811115613da657613da56132ab565b5b613db2878288016132bf565b9450945050602085013567ffffffffffffffff811115613dd557613dd46132ab565b5b613de1878288016132bf565b925092505092959194509250565b7f4e487b7100000000000000000000000000000000000000000000000000000000600052602260045260246000fd5b60006002820490506001821680613e3657607f821691505b602082108103613e4957613e48613def565b5b50919050565b7f4e487b7100000000000000000000000000000000000000000000000000000000600052603260045260246000fd5b600080fd5b600080fd5b600080fd5b60008083356001602003843603038112613eaa57613ea9613e7e565b5b80840192508235915067ffffffffffffffff821115613ecc57613ecb613e83565b5b602083019250600182023603831315613ee857613ee7613e88565b5b509250929050565b60008190508160005260206000209050919050565b60006020601f8301049050919050565b600082821b905092915050565b600060088302613f527fffffffffffffffffffffffffffffffffffffffffffffffffffffffffffffffff82613f15565b613f5c8683613f15565b95508019841693508086168417925050509392505050565b6000819050919050565b6000613f99613f94613f8f846135b6565b613f74565b6135b6565b9050919050565b6000819050919050565b613fb383613f7e565b613fc7613fbf82613fa0565b848454613f22565b825550505050565b600090565b613fdc613fcf565b613fe7818484613faa565b505050565b5b8181101561400b57614000600082613fd4565b600181019050613fed565b5050565b601f8211156140505761402181613ef0565b61402a84613f05565b81016020851015614039578190505b61404d61404585613f05565b830182613fec565b50505b505050565b600082821c905092915050565b600061407360001984600802614055565b1980831691505092915050565b600061408c8383614062565b9150826002028217905092915050565b6140a5826133fe565b67ffffffffffffffff8111156140be576140bd613612565b5b6140c88254613e1e565b6140d382828561400f565b600060209050601f83116001811461410657600084156140f4578287015190505b6140fe8582614080565b865550614166565b601f19841661411486613ef0565b60005b8281101561413c57848901518255600182019150602085019450602081019050614117565b868310156141595784890151614155601f891682614062565b8355505b6001600288020188555050505b505050505050565b6000819050919050565b614189614184826135b6565b61416e565b82525050565b600073ffffffffffffffffffffffffffffffffffffffff82169050919050565b60006141ba8261418f565b9050919050565b60008160601b9050919050565b60006141d9826141c1565b9050919050565b60006141eb826141ce565b9050919050565b6142036141fe826141af565b6141e0565b82525050565b60006142158286614178565b6020820191506142258285614178565b60208201915061423582846141f2565b601482019150819050949350505050565b7f4e487b7100000000000000000000000000000000000000000000000000000000600052601260045260246000fd5b6000614280826135b6565b915061428b836135b6565b92508261429b5761429a614246565b5b828206905092915050565b7f4e487b7100000000000000000000000000000000000000000000000000000000600052601160045260246000fd5b60006142e0826135b6565b9150600082036142f3576142f26142a6565b5b600182039050919050565b6000614309826135b6565b9150614314836135b6565b92508261432457614323614246565b5b828204905092915050565b600061433a826135b6565b9150614345836135b6565b925082820390508181111561435d5761435c6142a6565b5b92915050565b600061436e826135b6565b9150614379836135b6565b9250828202614387816135b6565b9150828204841483151761439e5761439d6142a6565b5b5092915050565b60006143b0826135b6565b91506143bb836135b6565b92508282019050808211156143d3576143d26142a6565b5b92915050565b6000819050919050565b60006143ee826143d9565b91506143f9836143d9565b9250828202614407816143d9565b91507f8000000000000000000000000000000000000000000000000000000000000000841460008412161561443f5761443e6142a6565b5b8282058414831517614454576144536142a6565b5b509291505056fea26469706673582212203aa734984fbf33a942403290588b1e90b09b30ba5ed44c786905624e41c083d564736f6c63430008110033",
  "immutableReferences": {
    "2151": [
      {
        "length": 32,
        "start": 7116
      }
    ]
  },
  "source": "// SPDX-License-Identifier: MIT\r\npragma solidity 0.8.17;\r\n\r\nimport \"./BigNumbers.sol\";\r\n\r\ncontract Crypto is IBigNumbers {\r\n\r\n    using BigNumbers for *;\r\n\r\n    BigNumber public prime;        // prime\r\n    BigNumber public g;            // generator\r\n    BigNumber public publicKey;    // public key relative to secret key that has been splitted and shared with each user\r\n\r\n    address immutable owner;\r\n\r\n    error Unauthorized();\r\n\r\n    // Constructor stores address of owner and cryptographic parameters\r\n    constructor(bytes memory primeVal, bytes memory gVal) {\r\n        owner = msg.sender;\r\n        prime = primeVal.init(false);\r\n        g = gVal.init(false);\r\n    }\r\n  \r\n    // This function stores public key\r\n    function setPublicKey(bytes calldata publicKeyVal) external {\r\n        if(owner != msg.sender) {\r\n            revert Unauthorized();\r\n        }\r\n        publicKey = publicKeyVal.init(false);\r\n    }\r\n    \r\n    // These function carry out El Gamal algorithm\r\n    function ElGamalEnc(bytes calldata yVal, bytes calldata publicKeyVal, bytes calldata plaintext1Val, bytes calldata plaintext2Val) external view returns (bytes memory, bytes memory) {\r\n        BigNumber memory y = yVal.init(false);\r\n        return (((plaintext1Val.init(false)).modmul(g.prepare_modexp(y, prime), prime)).val, ((plaintext2Val.init(false)).modmul((publicKeyVal.init(false)).prepare_modexp(y, prime), prime)).val);\r\n    }\r\n    function ElGamalDecPart1(bytes calldata c1Val, bytes calldata secretKeyVal) external view returns (bytes memory) {\r\n        return ((c1Val.init(false)).prepare_modexp(secretKeyVal.init(false), prime)).val;\r\n    }\r\n    function ElGamalDecPart2(bytes calldata c2Val, bytes calldata mulDecPart1Val, bytes calldata userResultVal) external view returns (bytes memory) {\r\n        return ((c2Val.init(false)).modmul((mulDecPart1Val.init(false)).mod_inverse(prime, userResultVal.init(false)), prime)).val;\r\n    }\r\n\r\n    // This function verifies the generated proofs by oracles\r\n    function verifyProof(bytes memory sVal, bytes memory cVal, bytes memory tVal, bytes[] calldata oldVal, bytes[] calldata newVal, bytes calldata userResult1Val, bytes calldata userResult2Val) external view returns (bool) {\r\n        BigNumber memory s = sVal.init(false);\r\n        BigNumber memory t = tVal.init(false);\r\n        BigNumber memory c = cVal.init(false);\r\n        BigNumber memory c1_old = oldVal[0].init(false);\r\n        BigNumber memory c2_old = oldVal[1].init(false);\r\n        BigNumber memory c1_new = newVal[0].init(false);\r\n        BigNumber memory c2_new = newVal[1].init(false);\r\n        BigNumber memory res1 = userResult1Val.init(false);\r\n        BigNumber memory res2 = userResult2Val.init(false);\r\n        if( (g.prepare_modexp(t, prime)).cmp((g.prepare_modexp(s, prime)).modmul((c1_new.modmul(c1_old.mod_inverse(prime, res1), prime)).prepare_modexp(c, prime) , prime), false) == 0) {\r\n            if( (publicKey.prepare_modexp(t, prime)).cmp((publicKey.prepare_modexp(s, prime)).modmul((c2_new.modmul(c2_old.mod_inverse(prime, res2), prime)).prepare_modexp(c, prime), prime), false) == 0 ) {\r\n                return true;\r\n            }\r\n            else {\r\n                return false;\r\n            }\r\n        }\r\n        else {\r\n            return false;\r\n        }\r\n    }\r\n\r\n    // This function performs mixing with random permutation\r\n    function shuffle(bytes[][] memory a) external view returns (bytes[][] memory) {\r\n        uint currentIndex = a.length;\r\n        bytes[] memory tmp;\r\n        uint randomIndex;\r\n        while(currentIndex != 0) {\r\n            randomIndex = uint(keccak256(abi.encodePacked(block.timestamp, block.difficulty, msg.sender))) % currentIndex;\r\n            currentIndex--;\r\n            tmp = a[currentIndex];\r\n            a[currentIndex] = a[randomIndex];\r\n            a[randomIndex] = tmp;\r\n        }\r\n        return a;\r\n    }\r\n    \r\n}",
  "sourcePath": "C:\\Users\\Claudio\\Desktop\\Codice\\Piecewise Uniform\\contracts\\Crypto.sol",
  "compiler": {
    "name": "solc",
    "version": "0.8.17+commit.8df45f5f.Emscripten.clang"
  },
  "schemaVersion": "3.4.11",
  "updatedAt": "2023-01-06T18:11:38.735Z",
  "networkType": "ethereum",
  "devdoc": {
    "kind": "dev",
    "methods": {},
    "version": 1
  },
  "userdoc": {
    "kind": "user",
    "methods": {},
    "version": 1
  }
}