{
  "contractName": "IpfsStorage",
  "abi": [
    {
      "inputs": [],
      "stateMutability": "nonpayable",
      "type": "constructor"
    },
    {
      "inputs": [],
      "name": "PartSecret",
      "outputs": [
        {
          "internalType": "string",
          "name": "",
          "type": "string"
        }
      ],
      "stateMutability": "view",
      "type": "function",
      "constant": true
    },
    {
      "inputs": [
        {
          "internalType": "address",
          "name": "",
          "type": "address"
        }
      ],
      "name": "mapHash",
      "outputs": [
        {
          "internalType": "string",
          "name": "CommittedPartition",
          "type": "string"
        },
        {
          "internalType": "string",
          "name": "ReEncryption",
          "type": "string"
        },
        {
          "internalType": "string",
          "name": "DecryptionC1",
          "type": "string"
        },
        {
          "internalType": "string",
          "name": "Proofs",
          "type": "string"
        },
        {
          "internalType": "string",
          "name": "Partitions",
          "type": "string"
        },
        {
          "internalType": "string",
          "name": "SortedPartitions",
          "type": "string"
        }
      ],
      "stateMutability": "view",
      "type": "function",
      "constant": true
    },
    {
      "inputs": [
        {
          "internalType": "string",
          "name": "hashIpfs",
          "type": "string"
        }
      ],
      "name": "setCypher",
      "outputs": [],
      "stateMutability": "nonpayable",
      "type": "function"
    },
    {
      "inputs": [
        {
          "internalType": "address",
          "name": "addr",
          "type": "address"
        },
        {
          "internalType": "string",
          "name": "hashIpfs",
          "type": "string"
        }
      ],
      "name": "setCommitPartition",
      "outputs": [],
      "stateMutability": "nonpayable",
      "type": "function"
    },
    {
      "inputs": [
        {
          "internalType": "address",
          "name": "addr",
          "type": "address"
        },
        {
          "internalType": "string",
          "name": "hashIpfs",
          "type": "string"
        }
      ],
      "name": "setCommitReEnc",
      "outputs": [],
      "stateMutability": "nonpayable",
      "type": "function"
    },
    {
      "inputs": [
        {
          "internalType": "address",
          "name": "addr",
          "type": "address"
        },
        {
          "internalType": "string",
          "name": "hashIpfs",
          "type": "string"
        }
      ],
      "name": "setProof",
      "outputs": [],
      "stateMutability": "nonpayable",
      "type": "function"
    },
    {
      "inputs": [
        {
          "internalType": "address",
          "name": "addr",
          "type": "address"
        },
        {
          "internalType": "string",
          "name": "hashIpfs",
          "type": "string"
        }
      ],
      "name": "setDecC1",
      "outputs": [],
      "stateMutability": "nonpayable",
      "type": "function"
    },
    {
      "inputs": [
        {
          "internalType": "address",
          "name": "addr",
          "type": "address"
        },
        {
          "internalType": "string",
          "name": "hashIpfs",
          "type": "string"
        }
      ],
      "name": "setRevealPartitions",
      "outputs": [],
      "stateMutability": "nonpayable",
      "type": "function"
    },
    {
      "inputs": [
        {
          "internalType": "address",
          "name": "addr",
          "type": "address"
        },
        {
          "internalType": "string",
          "name": "hashIpfs",
          "type": "string"
        }
      ],
      "name": "setSortedPartitions",
      "outputs": [],
      "stateMutability": "nonpayable",
      "type": "function"
    }
  ],
  "bytecode": "0x60a060405234801561001057600080fd5b503373ffffffffffffffffffffffffffffffffffffffff1660808173ffffffffffffffffffffffffffffffffffffffff16815250506080516115116100606000396000610ce501526115116000f3fe608060405234801561001057600080fd5b50600436106100935760003560e01c80634da25b41116100665780634da25b411461010857806371da5491146101245780637cd49c3a146101425780638bb920ab1461015e578063b144248e1461019357610093565b806309a6226c146100985780631c49f07d146100b457806336860b04146100d05780634a5cfa3c146100ec575b600080fd5b6100b260048036038101906100ad9190610e7e565b6101af565b005b6100ce60048036038101906100c99190610e7e565b6102f5565b005b6100ea60048036038101906100e59190610e7e565b61043b565b005b61010660048036038101906101019190610e7e565b610581565b005b610122600480360381019061011d9190610e7e565b6106c7565b005b61012c61080d565b6040516101399190610f6e565b60405180910390f35b61015c60048036038101906101579190610e7e565b61089b565b005b61017860048036038101906101739190610f90565b610960565b60405161018a96959493929190610fbd565b60405180910390f35b6101ad60048036038101906101a89190611048565b610ccc565b005b3373ffffffffffffffffffffffffffffffffffffffff168373ffffffffffffffffffffffffffffffffffffffff1614801561025f57507fc5d2460186f7233c927e7db2dcc703c0e500b653ca82273b7bfad8045d85a470600160008573ffffffffffffffffffffffffffffffffffffffff1673ffffffffffffffffffffffffffffffffffffffff1681526020019081526020016000206004016040516102559190611198565b6040518091039020145b61029e576040517f08c379a0000000000000000000000000000000000000000000000000000000008152600401610295906111fb565b60405180910390fd5b8181600160008673ffffffffffffffffffffffffffffffffffffffff1673ffffffffffffffffffffffffffffffffffffffff16815260200190815260200160002060040191826102ef92919061140b565b50505050565b3373ffffffffffffffffffffffffffffffffffffffff168373ffffffffffffffffffffffffffffffffffffffff161480156103a557507fc5d2460186f7233c927e7db2dcc703c0e500b653ca82273b7bfad8045d85a470600160008573ffffffffffffffffffffffffffffffffffffffff1673ffffffffffffffffffffffffffffffffffffffff16815260200190815260200160002060000160405161039b9190611198565b6040518091039020145b6103e4576040517f08c379a00000000000000000000000000000000000000000000000000000000081526004016103db906111fb565b60405180910390fd5b8181600160008673ffffffffffffffffffffffffffffffffffffffff1673ffffffffffffffffffffffffffffffffffffffff168152602001908152602001600020600001918261043592919061140b565b50505050565b3373ffffffffffffffffffffffffffffffffffffffff168373ffffffffffffffffffffffffffffffffffffffff161480156104eb57507fc5d2460186f7233c927e7db2dcc703c0e500b653ca82273b7bfad8045d85a470600160008573ffffffffffffffffffffffffffffffffffffffff1673ffffffffffffffffffffffffffffffffffffffff1681526020019081526020016000206002016040516104e19190611198565b6040518091039020145b61052a576040517f08c379a0000000000000000000000000000000000000000000000000000000008152600401610521906111fb565b60405180910390fd5b8181600160008673ffffffffffffffffffffffffffffffffffffffff1673ffffffffffffffffffffffffffffffffffffffff168152602001908152602001600020600201918261057b92919061140b565b50505050565b3373ffffffffffffffffffffffffffffffffffffffff168373ffffffffffffffffffffffffffffffffffffffff1614801561063157507fc5d2460186f7233c927e7db2dcc703c0e500b653ca82273b7bfad8045d85a470600160008573ffffffffffffffffffffffffffffffffffffffff1673ffffffffffffffffffffffffffffffffffffffff1681526020019081526020016000206003016040516106279190611198565b6040518091039020145b610670576040517f08c379a0000000000000000000000000000000000000000000000000000000008152600401610667906111fb565b60405180910390fd5b8181600160008673ffffffffffffffffffffffffffffffffffffffff1673ffffffffffffffffffffffffffffffffffffffff16815260200190815260200160002060030191826106c192919061140b565b50505050565b3373ffffffffffffffffffffffffffffffffffffffff168373ffffffffffffffffffffffffffffffffffffffff1614801561077757507fc5d2460186f7233c927e7db2dcc703c0e500b653ca82273b7bfad8045d85a470600160008573ffffffffffffffffffffffffffffffffffffffff1673ffffffffffffffffffffffffffffffffffffffff16815260200190815260200160002060010160405161076d9190611198565b6040518091039020145b6107b6576040517f08c379a00000000000000000000000000000000000000000000000000000000081526004016107ad906111fb565b60405180910390fd5b8181600160008673ffffffffffffffffffffffffffffffffffffffff1673ffffffffffffffffffffffffffffffffffffffff168152602001908152602001600020600101918261080792919061140b565b50505050565b6000805461081a906110c4565b80601f0160208091040260200160405190810160405280929190818152602001828054610846906110c4565b80156108935780601f1061086857610100808354040283529160200191610893565b820191906000526020600020905b81548152906001019060200180831161087657829003601f168201915b505050505081565b3373ffffffffffffffffffffffffffffffffffffffff168373ffffffffffffffffffffffffffffffffffffffff1614610909576040517f08c379a0000000000000000000000000000000000000000000000000000000008152600401610900906111fb565b60405180910390fd5b8181600160008673ffffffffffffffffffffffffffffffffffffffff1673ffffffffffffffffffffffffffffffffffffffff168152602001908152602001600020600501918261095a92919061140b565b50505050565b6001602052806000526040600020600091509050806000018054610983906110c4565b80601f01602080910402602001604051908101604052809291908181526020018280546109af906110c4565b80156109fc5780601f106109d1576101008083540402835291602001916109fc565b820191906000526020600020905b8154815290600101906020018083116109df57829003601f168201915b505050505090806001018054610a11906110c4565b80601f0160208091040260200160405190810160405280929190818152602001828054610a3d906110c4565b8015610a8a5780601f10610a5f57610100808354040283529160200191610a8a565b820191906000526020600020905b815481529060010190602001808311610a6d57829003601f168201915b505050505090806002018054610a9f906110c4565b80601f0160208091040260200160405190810160405280929190818152602001828054610acb906110c4565b8015610b185780601f10610aed57610100808354040283529160200191610b18565b820191906000526020600020905b815481529060010190602001808311610afb57829003601f168201915b505050505090806003018054610b2d906110c4565b80601f0160208091040260200160405190810160405280929190818152602001828054610b59906110c4565b8015610ba65780601f10610b7b57610100808354040283529160200191610ba6565b820191906000526020600020905b815481529060010190602001808311610b8957829003601f168201915b505050505090806004018054610bbb906110c4565b80601f0160208091040260200160405190810160405280929190818152602001828054610be7906110c4565b8015610c345780601f10610c0957610100808354040283529160200191610c34565b820191906000526020600020905b815481529060010190602001808311610c1757829003601f168201915b505050505090806005018054610c49906110c4565b80601f0160208091040260200160405190810160405280929190818152602001828054610c75906110c4565b8015610cc25780601f10610c9757610100808354040283529160200191610cc2565b820191906000526020600020905b815481529060010190602001808311610ca557829003601f168201915b5050505050905086565b3373ffffffffffffffffffffffffffffffffffffffff167f000000000000000000000000000000000000000000000000000000000000000073ffffffffffffffffffffffffffffffffffffffff16148015610d5c57507fc5d2460186f7233c927e7db2dcc703c0e500b653ca82273b7bfad8045d85a4706000604051610d529190611198565b6040518091039020145b610d9b576040517f08c379a0000000000000000000000000000000000000000000000000000000008152600401610d92906111fb565b60405180910390fd5b818160009182610dac92919061140b565b505050565b600080fd5b600080fd5b600073ffffffffffffffffffffffffffffffffffffffff82169050919050565b6000610de682610dbb565b9050919050565b610df681610ddb565b8114610e0157600080fd5b50565b600081359050610e1381610ded565b92915050565b600080fd5b600080fd5b600080fd5b60008083601f840112610e3e57610e3d610e19565b5b8235905067ffffffffffffffff811115610e5b57610e5a610e1e565b5b602083019150836001820283011115610e7757610e76610e23565b5b9250929050565b600080600060408486031215610e9757610e96610db1565b5b6000610ea586828701610e04565b935050602084013567ffffffffffffffff811115610ec657610ec5610db6565b5b610ed286828701610e28565b92509250509250925092565b600081519050919050565b600082825260208201905092915050565b60005b83811015610f18578082015181840152602081019050610efd565b60008484015250505050565b6000601f19601f8301169050919050565b6000610f4082610ede565b610f4a8185610ee9565b9350610f5a818560208601610efa565b610f6381610f24565b840191505092915050565b60006020820190508181036000830152610f888184610f35565b905092915050565b600060208284031215610fa657610fa5610db1565b5b6000610fb484828501610e04565b91505092915050565b600060c0820190508181036000830152610fd78189610f35565b90508181036020830152610feb8188610f35565b90508181036040830152610fff8187610f35565b905081810360608301526110138186610f35565b905081810360808301526110278185610f35565b905081810360a083015261103b8184610f35565b9050979650505050505050565b6000806020838503121561105f5761105e610db1565b5b600083013567ffffffffffffffff81111561107d5761107c610db6565b5b61108985828601610e28565b92509250509250929050565b7f4e487b7100000000000000000000000000000000000000000000000000000000600052602260045260246000fd5b600060028204905060018216806110dc57607f821691505b6020821081036110ef576110ee611095565b5b50919050565b600081905092915050565b60008190508160005260206000209050919050565b60008154611122816110c4565b61112c81866110f5565b94506001821660008114611147576001811461115c5761118f565b60ff198316865281151582028601935061118f565b61116585611100565b60005b8381101561118757815481890152600182019150602081019050611168565b838801955050505b50505092915050565b60006111a48284611115565b915081905092915050565b7f57726974696e672064656e696564000000000000000000000000000000000000600082015250565b60006111e5600e83610ee9565b91506111f0826111af565b602082019050919050565b60006020820190508181036000830152611214816111d8565b9050919050565b600082905092915050565b7f4e487b7100000000000000000000000000000000000000000000000000000000600052604160045260246000fd5b60008190508160005260206000209050919050565b60006020601f8301049050919050565b600082821b905092915050565b6000600883026112b77fffffffffffffffffffffffffffffffffffffffffffffffffffffffffffffffff8261127a565b6112c1868361127a565b95508019841693508086168417925050509392505050565b6000819050919050565b6000819050919050565b60006113086113036112fe846112d9565b6112e3565b6112d9565b9050919050565b6000819050919050565b611322836112ed565b61133661132e8261130f565b848454611287565b825550505050565b600090565b61134b61133e565b611356818484611319565b505050565b5b8181101561137a5761136f600082611343565b60018101905061135c565b5050565b601f8211156113bf5761139081611255565b6113998461126a565b810160208510156113a8578190505b6113bc6113b48561126a565b83018261135b565b50505b505050565b600082821c905092915050565b60006113e2600019846008026113c4565b1980831691505092915050565b60006113fb83836113d1565b9150826002028217905092915050565b611415838361121b565b67ffffffffffffffff81111561142e5761142d611226565b5b61143882546110c4565b61144382828561137e565b6000601f8311600181146114725760008415611460578287013590505b61146a85826113ef565b8655506114d2565b601f19841661148086611255565b60005b828110156114a857848901358255600182019150602085019450602081019050611483565b868310156114c557848901356114c1601f8916826113d1565b8355505b6001600288020188555050505b5050505050505056fea2646970667358221220f5617f5fbf2f69af4dba33990f5ccb55476caa20249a508408c48938c0179f0c64736f6c63430008110033",
  "immutableReferences": {
    "3317": [
      {
        "length": 32,
        "start": 3301
      }
    ]
  },
  "source": "// SPDX-License-Identifier: MIT\r\npragma solidity 0.8.17;\r\npragma experimental ABIEncoderV2;\r\n\r\ncontract IpfsStorage {\r\n\r\n  address immutable owner;\r\n  string public PartSecret;\r\n\r\n  struct HashIPFS {\r\n    string CommittedPartition;\r\n    string ReEncryption;\r\n    string DecryptionC1;\r\n    string Proofs;\r\n    string Partitions;\r\n    string SortedPartitions;\r\n  }\r\n  mapping(address => HashIPFS) public mapHash;\r\n\r\n  constructor() {\r\n    owner = msg.sender;\r\n  }\r\n\r\n  // These functions (whose name comes from the stored file) stores IPFS hash relative to file that has been added on IPFS\r\n  function setCypher(string calldata hashIpfs) external {\r\n    require(owner == msg.sender && keccak256(bytes(PartSecret)) == keccak256(''), \"Writing denied\");\r\n    PartSecret = hashIpfs;\r\n  }\r\n  function setCommitPartition(address addr, string calldata hashIpfs) external {\r\n    require(addr == msg.sender && keccak256(bytes(mapHash[addr].CommittedPartition)) == keccak256(''), \"Writing denied\");\r\n    mapHash[addr].CommittedPartition = hashIpfs;\r\n  }\r\n  function setCommitReEnc(address addr, string calldata hashIpfs) external {\r\n    require(addr == msg.sender && keccak256(bytes(mapHash[addr].ReEncryption)) == keccak256(''), \"Writing denied\");\r\n    mapHash[addr].ReEncryption = hashIpfs;\r\n  }\r\n  function setProof(address addr, string calldata hashIpfs) external {\r\n    require(addr == msg.sender && keccak256(bytes(mapHash[addr].Proofs)) == keccak256(''), \"Writing denied\");\r\n    mapHash[addr].Proofs = hashIpfs;\r\n  }\r\n  function setDecC1(address addr, string calldata hashIpfs) external {\r\n    require(addr == msg.sender && keccak256(bytes(mapHash[addr].DecryptionC1)) == keccak256(''), \"Writing denied\");\r\n    mapHash[addr].DecryptionC1 = hashIpfs;\r\n  }\r\n  function setRevealPartitions(address addr, string calldata hashIpfs) external {\r\n    require(addr == msg.sender && keccak256(bytes(mapHash[addr].Partitions)) == keccak256(''), \"Writing denied\");\r\n    mapHash[addr].Partitions = hashIpfs;\r\n  }\r\n  function setSortedPartitions(address addr, string calldata hashIpfs) external {\r\n    require(addr == msg.sender, \"Writing denied\");\r\n    mapHash[addr].SortedPartitions = hashIpfs;\r\n  }\r\n  \r\n}",
  "sourcePath": "C:\\Users\\Claudio\\Desktop\\Codice\\Piecewise Uniform\\contracts\\IpfsStorage.sol",
  "compiler": {
    "name": "solc",
    "version": "0.8.17+commit.8df45f5f.Emscripten.clang"
  },
  "schemaVersion": "3.4.11",
  "updatedAt": "2023-01-06T18:11:38.215Z",
  "networkType": "ethereum",
  "devdoc": {
    "kind": "dev",
    "methods": {},
    "version": 1
  },
  "userdoc": {
    "kind": "user",
    "methods": {},
    "version": 1
  }
}