{
  "contractName": "PiecewiseUniform",
  "abi": [
    {
      "inputs": [],
      "stateMutability": "nonpayable",
      "type": "constructor"
    },
    {
      "inputs": [],
      "name": "AlreadyCommitted",
      "type": "error"
    },
    {
      "inputs": [],
      "name": "NotCommitPhase",
      "type": "error"
    },
    {
      "inputs": [],
      "name": "NotRegistrationPhase",
      "type": "error"
    },
    {
      "inputs": [],
      "name": "Unauthorized",
      "type": "error"
    },
    {
      "inputs": [
        {
          "internalType": "address",
          "name": "",
          "type": "address"
        }
      ],
      "name": "publicKey",
      "outputs": [
        {
          "internalType": "bytes",
          "name": "",
          "type": "bytes"
        }
      ],
      "stateMutability": "view",
      "type": "function",
      "constant": true
    },
    {
      "inputs": [],
      "name": "registrationPhaseOn",
      "outputs": [],
      "stateMutability": "nonpayable",
      "type": "function"
    },
    {
      "inputs": [],
      "name": "commitPhaseOn",
      "outputs": [],
      "stateMutability": "nonpayable",
      "type": "function"
    },
    {
      "inputs": [],
      "name": "mixnetPhaseOn",
      "outputs": [],
      "stateMutability": "nonpayable",
      "type": "function"
    },
    {
      "inputs": [],
      "name": "verifyPhaseOn",
      "outputs": [],
      "stateMutability": "nonpayable",
      "type": "function"
    },
    {
      "inputs": [],
      "name": "revealPhaseOn",
      "outputs": [],
      "stateMutability": "nonpayable",
      "type": "function"
    },
    {
      "inputs": [
        {
          "internalType": "bytes",
          "name": "_publicKey",
          "type": "bytes"
        }
      ],
      "name": "insertUsers",
      "outputs": [],
      "stateMutability": "nonpayable",
      "type": "function"
    },
    {
      "inputs": [
        {
          "internalType": "uint256",
          "name": "num",
          "type": "uint256"
        },
        {
          "internalType": "uint256",
          "name": "den",
          "type": "uint256"
        }
      ],
      "name": "computePhantomValues",
      "outputs": [],
      "stateMutability": "nonpayable",
      "type": "function"
    },
    {
      "inputs": [
        {
          "internalType": "uint256[][]",
          "name": "allPartitions",
          "type": "uint256[][]"
        },
        {
          "internalType": "uint256",
          "name": "percentageAccuracy",
          "type": "uint256"
        },
        {
          "internalType": "uint256",
          "name": "p",
          "type": "uint256"
        },
        {
          "internalType": "address",
          "name": "addr",
          "type": "address"
        }
      ],
      "name": "computePartition",
      "outputs": [
        {
          "components": [
            {
              "internalType": "uint256",
              "name": "value",
              "type": "uint256"
            }
          ],
          "internalType": "struct DecimalMath.UFixed[]",
          "name": "",
          "type": "tuple[]"
        }
      ],
      "stateMutability": "view",
      "type": "function",
      "constant": true
    },
    {
      "inputs": [
        {
          "components": [
            {
              "internalType": "uint256",
              "name": "value",
              "type": "uint256"
            }
          ],
          "internalType": "struct DecimalMath.UFixed[]",
          "name": "a",
          "type": "tuple[]"
        },
        {
          "internalType": "uint256",
          "name": "len",
          "type": "uint256"
        }
      ],
      "name": "sort",
      "outputs": [
        {
          "components": [
            {
              "internalType": "uint256",
              "name": "value",
              "type": "uint256"
            }
          ],
          "internalType": "struct DecimalMath.UFixed[]",
          "name": "",
          "type": "tuple[]"
        }
      ],
      "stateMutability": "pure",
      "type": "function",
      "constant": true
    },
    {
      "inputs": [
        {
          "components": [
            {
              "internalType": "uint256",
              "name": "value",
              "type": "uint256"
            }
          ],
          "internalType": "struct DecimalMath.UFixed[]",
          "name": "medians",
          "type": "tuple[]"
        },
        {
          "internalType": "uint256",
          "name": "numProjects",
          "type": "uint256"
        }
      ],
      "name": "verify",
      "outputs": [],
      "stateMutability": "nonpayable",
      "type": "function"
    },
    {
      "inputs": [
        {
          "internalType": "address",
          "name": "addr",
          "type": "address"
        }
      ],
      "name": "getPhantoms",
      "outputs": [
        {
          "components": [
            {
              "internalType": "uint256",
              "name": "value",
              "type": "uint256"
            }
          ],
          "internalType": "struct DecimalMath.UFixed[3]",
          "name": "",
          "type": "tuple[3]"
        }
      ],
      "stateMutability": "view",
      "type": "function",
      "constant": true
    },
    {
      "inputs": [
        {
          "internalType": "address",
          "name": "addr",
          "type": "address"
        }
      ],
      "name": "getSumMedians",
      "outputs": [
        {
          "components": [
            {
              "internalType": "uint256",
              "name": "value",
              "type": "uint256"
            }
          ],
          "internalType": "struct DecimalMath.UFixed",
          "name": "",
          "type": "tuple"
        }
      ],
      "stateMutability": "view",
      "type": "function",
      "constant": true
    },
    {
      "inputs": [],
      "name": "getVerify",
      "outputs": [
        {
          "internalType": "bool",
          "name": "",
          "type": "bool"
        }
      ],
      "stateMutability": "view",
      "type": "function",
      "constant": true
    }
  ],
  "bytecode": "0x60a060405234801561001057600080fd5b503373ffffffffffffffffffffffffffffffffffffffff1660808173ffffffffffffffffffffffffffffffffffffffff16815250506080516122a761007c6000396000818161029c0152818161036001528181610ac301528181610f63015261115301526122a76000f3fe608060405234801561001057600080fd5b50600436106100ea5760003560e01c8063888ade0a1161008c578063b3aa040111610066578063b3aa04011461020f578063bb84573f1461023f578063c821ebb714610249578063f58cd0f614610279576100ea565b8063888ade0a146101a5578063a0faaf02146101d5578063b00d2d1f14610205576100ea565b80634bd93bef116100c85780634bd93bef1461011f5780634fda724d1461014f57806360758f311461016b57806382291e6a14610189576100ea565b806305fac0c3146100ef57806315ae7b5a146100f957806341f059dc14610103575b600080fd5b6100f7610283565b005b610101610347565b005b61011d6004803603810190610118919061141b565b6103ea565b005b610139600480360381019061013491906114d9565b6104c6565b6040516101469190611531565b60405180910390f35b6101696004803603810190610164919061154c565b610529565b005b610173610787565b60405161018091906115a7565b60405180910390f35b6101a3600480360381019061019e9190611618565b6107b4565b005b6101bf60048036038101906101ba91906114d9565b6108fd565b6040516101cc91906116f5565b60405180910390f35b6101ef60048036038101906101ea9190611896565b61099d565b6040516101fc91906119bd565b60405180910390f35b61020d610aaa565b005b61022960048036038101906102249190611a35565b610b6e565b60405161023691906119bd565b60405180910390f35b610247610f4a565b005b610263600480360381019061025e91906114d9565b61100e565b6040516102709190611b41565b60405180910390f35b61028161113a565b005b3373ffffffffffffffffffffffffffffffffffffffff167f000000000000000000000000000000000000000000000000000000000000000073ffffffffffffffffffffffffffffffffffffffff16141580156102f2575060046000600b9054906101000a900460ff1660ff1614155b15610329576040517f82b4290000000000000000000000000000000000000000000000000000000000815260040160405180910390fd5b60086000600b6101000a81548160ff021916908360ff160217905550565b3373ffffffffffffffffffffffffffffffffffffffff167f000000000000000000000000000000000000000000000000000000000000000073ffffffffffffffffffffffffffffffffffffffff16146103cc576040517f82b4290000000000000000000000000000000000000000000000000000000000815260040160405180910390fd5b60016000600b6101000a81548160ff021916908360ff160217905550565b6103f261132c565b60005b8281101561043c5761042f85858381811061041357610412611b5c565b5b9050602002018036038101906104299190611b8b565b836111fe565b91508060010190506103f5565b5061045160018261123090919063ffffffff16565b156104735760206000600b6101000a81548160ff021916908360ff1602179055505b80600560003373ffffffffffffffffffffffffffffffffffffffff1673ffffffffffffffffffffffffffffffffffffffff1681526020019081526020016000206000820151816000015590505050505050565b6104ce61132c565b600560008373ffffffffffffffffffffffffffffffffffffffff1673ffffffffffffffffffffffffffffffffffffffff1681526020019081526020016000206040518060200160405290816000820154815250509050919050565b6000600460003373ffffffffffffffffffffffffffffffffffffffff1673ffffffffffffffffffffffffffffffffffffffff1681526020019081526020016000209050600060018060008054906101000a900467ffffffffffffffff1667ffffffffffffffff16901c61059c9190611bfb565b67ffffffffffffffff1690506000600185901b905060008460008054906101000a900467ffffffffffffffff1667ffffffffffffffff166105dd9190611c37565b905060008060009054906101000a900467ffffffffffffffff1667ffffffffffffffff168361060c9190611c37565b90506000600184901b905060008760036106269190611c37565b9050610660610648600261063a6001611258565b61127690919063ffffffff16565b6106528b8b611298565b6112ba90919063ffffffff16565b156106d15761066f6000611258565b87600001600082015181600001559050506106a08387846106909190611c37565b61069a9190611c79565b85611298565b87600101600082015181600001559050506106bb8285611298565b876002016000820151816000015590505061077c565b6106e688866106e09190611c79565b85611298565b87600001600082015181600001559050506107448460026107079190611c37565b87876107139190611c37565b838961071f9190611c37565b8661072a9190611cad565b6107349190611c79565b61073e9190611c79565b85611298565b876001016000820151816000015590505061076a85826107649190611c79565b85611298565b87600201600082015181600001559050505b505050505050505050565b600060206000600b9054906101000a900460ff1660ff16036107ac57600190506107b1565b600090505b90565b60016000600b9054906101000a900460ff1660ff1614610800576040517f8e755cc400000000000000000000000000000000000000000000000000000000815260040160405180910390fd5b6001339080600181540180825580915050600190039060005260206000200160009091909190916101000a81548173ffffffffffffffffffffffffffffffffffffffff021916908373ffffffffffffffffffffffffffffffffffffffff1602179055508181600360003373ffffffffffffffffffffffffffffffffffffffff1673ffffffffffffffffffffffffffffffffffffffff16815260200190815260200160002091826108b1929190611ef8565b5060008081819054906101000a900467ffffffffffffffff166108d390611fc8565b91906101000a81548167ffffffffffffffff021916908367ffffffffffffffff1602179055505050565b6003602052806000526040600020600091509050805461091c90611d1b565b80601f016020809104026020016040519081016040528092919081815260200182805461094890611d1b565b80156109955780601f1061096a57610100808354040283529160200191610995565b820191906000526020600020905b81548152906001019060200180831161097857829003601f168201915b505050505081565b60606000600190505b82811015610aa05760008482815181106109c3576109c2611b5c565b5b6020026020010151905060008290505b60018110158015610a195750610a18866001836109f09190611c79565b81518110610a0157610a00611b5c565b5b6020026020010151836112ba90919063ffffffff16565b5b15610a745785600182610a2c9190611c79565b81518110610a3d57610a3c611b5c565b5b6020026020010151868281518110610a5857610a57611b5c565b5b602002602001018190525080610a6d90611ff8565b90506109d3565b81868281518110610a8857610a87611b5c565b5b602002602001018190525082600101925050506109a6565b5082905092915050565b3373ffffffffffffffffffffffffffffffffffffffff167f000000000000000000000000000000000000000000000000000000000000000073ffffffffffffffffffffffffffffffffffffffff1614158015610b19575060026000600b9054906101000a900460ff1660ff1614155b15610b50576040517f82b4290000000000000000000000000000000000000000000000000000000000815260040160405180910390fd5b60046000600b6101000a81548160ff021916908360ff160217905550565b6060600060018060008054906101000a900467ffffffffffffffff1667ffffffffffffffff16901b610ba09190611bfb565b67ffffffffffffffff1690506000600160008054906101000a900467ffffffffffffffff16610bcf9190611bfb565b67ffffffffffffffff169050600060018060008054906101000a900467ffffffffffffffff1667ffffffffffffffff16901c610c0b9190611bfb565b67ffffffffffffffff16905060008088600a610c279190612154565b905060008567ffffffffffffffff811115610c4557610c44611717565b5b604051908082528060200260200182016040528015610c7e57816020015b610c6b61132c565b815260200190600190039081610c635790505b5090506040518060200160405280600081525081600081518110610ca557610ca4611b5c565b5b60200260200101819052506000600190505b86811015610f375784811015610d6457610d41828581518110610cdd57610cdc611b5c565b5b6020026020010151600460008c73ffffffffffffffffffffffffffffffffffffffff1673ffffffffffffffffffffffffffffffffffffffff1681526020019081526020016000206000016040518060200160405290816000820154815250506111fe565b828281518110610d5457610d53611b5c565b5b6020026020010181905250610f26565b848103610de557600460008a73ffffffffffffffffffffffffffffffffffffffff1673ffffffffffffffffffffffffffffffffffffffff168152602001908152602001600020600101604051806020016040529081600082015481525050828281518110610dd557610dd4611b5c565b5b6020026020010181905250610f25565b8481118015610e12575060008054906101000a900467ffffffffffffffff1667ffffffffffffffff168111155b15610eb457610e91828581518110610e2d57610e2c611b5c565b5b6020026020010151600460008c73ffffffffffffffffffffffffffffffffffffffff1673ffffffffffffffffffffffffffffffffffffffff1681526020019081526020016000206002016040518060200160405290816000820154815250506111fe565b828281518110610ea457610ea3611b5c565b5b6020026020010181905250610f24565b610f058d8d8884610ec59190611c79565b818110610ed557610ed4611b5c565b5b9050602002810190610ee791906121ae565b8c818110610ef857610ef7611b5c565b5b9050602002013584611298565b828281518110610f1857610f17611b5c565b5b60200260200101819052505b5b5b836001019350806001019050610cb7565b5080965050505050505095945050505050565b3373ffffffffffffffffffffffffffffffffffffffff167f000000000000000000000000000000000000000000000000000000000000000073ffffffffffffffffffffffffffffffffffffffff1614158015610fb9575060086000600b9054906101000a900460ff1660ff1614155b15610ff0576040517f82b4290000000000000000000000000000000000000000000000000000000000815260040160405180910390fd5b60106000600b6101000a81548160ff021916908360ff160217905550565b61101661133f565b6040518060600160405280600460008573ffffffffffffffffffffffffffffffffffffffff1673ffffffffffffffffffffffffffffffffffffffff1681526020019081526020016000206000016040518060200160405290816000820154815250508152602001600460008573ffffffffffffffffffffffffffffffffffffffff1673ffffffffffffffffffffffffffffffffffffffff1681526020019081526020016000206001016040518060200160405290816000820154815250508152602001600460008573ffffffffffffffffffffffffffffffffffffffff1673ffffffffffffffffffffffffffffffffffffffff1681526020019081526020016000206002016040518060200160405290816000820154815250508152509050919050565b3373ffffffffffffffffffffffffffffffffffffffff167f000000000000000000000000000000000000000000000000000000000000000073ffffffffffffffffffffffffffffffffffffffff16141580156111a9575060016000600b9054906101000a900460ff1660ff1614155b156111e0576040517f82b4290000000000000000000000000000000000000000000000000000000000815260040160405180910390fd5b60026000600b6101000a81548160ff021916908360ff160217905550565b61120661132c565b6040518060200160405280836000015185600001516112259190611cad565b815250905092915050565b60006b033b2e3c9fd0803ce80000008261124a9190611c37565b836000015114905092915050565b61126061132c565b6040518060200160405280838152509050919050565b61127e61132c565b6112908361128b84611258565b6112cf565b905092915050565b6112a061132c565b6112b26112ac84611258565b83611276565b905092915050565b60008160000151836000015110905092915050565b6112d761132c565b60405180602001604052806112f08560000151856112fb565b815250905092915050565b600081600001516b033b2e3c9fd0803ce80000008461131a9190611c37565b6113249190612240565b905092915050565b6040518060200160405280600081525090565b60405180606001604052806003905b61135661132c565b81526020019060019003908161134e5790505090565b6000604051905090565b600080fd5b600080fd5b600080fd5b600080fd5b600080fd5b60008083601f8401126113a5576113a4611380565b5b8235905067ffffffffffffffff8111156113c2576113c1611385565b5b6020830191508360208202830111156113de576113dd61138a565b5b9250929050565b6000819050919050565b6113f8816113e5565b811461140357600080fd5b50565b600081359050611415816113ef565b92915050565b60008060006040848603121561143457611433611376565b5b600084013567ffffffffffffffff8111156114525761145161137b565b5b61145e8682870161138f565b9350935050602061147186828701611406565b9150509250925092565b600073ffffffffffffffffffffffffffffffffffffffff82169050919050565b60006114a68261147b565b9050919050565b6114b68161149b565b81146114c157600080fd5b50565b6000813590506114d3816114ad565b92915050565b6000602082840312156114ef576114ee611376565b5b60006114fd848285016114c4565b91505092915050565b61150f816113e5565b82525050565b60208201600082015161152b6000850182611506565b50505050565b60006020820190506115466000830184611515565b92915050565b6000806040838503121561156357611562611376565b5b600061157185828601611406565b925050602061158285828601611406565b9150509250929050565b60008115159050919050565b6115a18161158c565b82525050565b60006020820190506115bc6000830184611598565b92915050565b60008083601f8401126115d8576115d7611380565b5b8235905067ffffffffffffffff8111156115f5576115f4611385565b5b6020830191508360018202830111156116115761161061138a565b5b9250929050565b6000806020838503121561162f5761162e611376565b5b600083013567ffffffffffffffff81111561164d5761164c61137b565b5b611659858286016115c2565b92509250509250929050565b600081519050919050565b600082825260208201905092915050565b60005b8381101561169f578082015181840152602081019050611684565b60008484015250505050565b6000601f19601f8301169050919050565b60006116c782611665565b6116d18185611670565b93506116e1818560208601611681565b6116ea816116ab565b840191505092915050565b6000602082019050818103600083015261170f81846116bc565b905092915050565b7f4e487b7100000000000000000000000000000000000000000000000000000000600052604160045260246000fd5b61174f826116ab565b810181811067ffffffffffffffff8211171561176e5761176d611717565b5b80604052505050565b600061178161136c565b905061178d8282611746565b919050565b600067ffffffffffffffff8211156117ad576117ac611717565b5b602082029050602081019050919050565b600080fd5b6000602082840312156117d9576117d86117be565b5b6117e36020611777565b905060006117f384828501611406565b60008301525092915050565b600061181261180d84611792565b611777565b905080838252602082019050602084028301858111156118355761183461138a565b5b835b8181101561185e578061184a88826117c3565b845260208401935050602081019050611837565b5050509392505050565b600082601f83011261187d5761187c611380565b5b813561188d8482602086016117ff565b91505092915050565b600080604083850312156118ad576118ac611376565b5b600083013567ffffffffffffffff8111156118cb576118ca61137b565b5b6118d785828601611868565b92505060206118e885828601611406565b9150509250929050565b600081519050919050565b600082825260208201905092915050565b6000819050602082019050919050565b6020820160008201516119346000850182611506565b50505050565b6000611946838361191e565b60208301905092915050565b6000602082019050919050565b600061196a826118f2565b61197481856118fd565b935061197f8361190e565b8060005b838110156119b0578151611997888261193a565b97506119a283611952565b925050600181019050611983565b5085935050505092915050565b600060208201905081810360008301526119d7818461195f565b905092915050565b60008083601f8401126119f5576119f4611380565b5b8235905067ffffffffffffffff811115611a1257611a11611385565b5b602083019150836020820283011115611a2e57611a2d61138a565b5b9250929050565b600080600080600060808688031215611a5157611a50611376565b5b600086013567ffffffffffffffff811115611a6f57611a6e61137b565b5b611a7b888289016119df565b95509550506020611a8e88828901611406565b9350506040611a9f88828901611406565b9250506060611ab0888289016114c4565b9150509295509295909350565b600060039050919050565b600081905092915050565b6000819050919050565b6000602082019050919050565b611af381611abd565b611afd8184611ac8565b9250611b0882611ad3565b8060005b83811015611b39578151611b20878261193a565b9650611b2b83611add565b925050600181019050611b0c565b505050505050565b6000606082019050611b566000830184611aea565b92915050565b7f4e487b7100000000000000000000000000000000000000000000000000000000600052603260045260246000fd5b600060208284031215611ba157611ba0611376565b5b6000611baf848285016117c3565b91505092915050565b600067ffffffffffffffff82169050919050565b7f4e487b7100000000000000000000000000000000000000000000000000000000600052601160045260246000fd5b6000611c0682611bb8565b9150611c1183611bb8565b9250828201905067ffffffffffffffff811115611c3157611c30611bcc565b5b92915050565b6000611c42826113e5565b9150611c4d836113e5565b9250828202611c5b816113e5565b91508282048414831517611c7257611c71611bcc565b5b5092915050565b6000611c84826113e5565b9150611c8f836113e5565b9250828203905081811115611ca757611ca6611bcc565b5b92915050565b6000611cb8826113e5565b9150611cc3836113e5565b9250828201905080821115611cdb57611cda611bcc565b5b92915050565b600082905092915050565b7f4e487b7100000000000000000000000000000000000000000000000000000000600052602260045260246000fd5b60006002820490506001821680611d3357607f821691505b602082108103611d4657611d45611cec565b5b50919050565b60008190508160005260206000209050919050565b60006020601f8301049050919050565b600082821b905092915050565b600060088302611dae7fffffffffffffffffffffffffffffffffffffffffffffffffffffffffffffffff82611d71565b611db88683611d71565b95508019841693508086168417925050509392505050565b6000819050919050565b6000611df5611df0611deb846113e5565b611dd0565b6113e5565b9050919050565b6000819050919050565b611e0f83611dda565b611e23611e1b82611dfc565b848454611d7e565b825550505050565b600090565b611e38611e2b565b611e43818484611e06565b505050565b5b81811015611e6757611e5c600082611e30565b600181019050611e49565b5050565b601f821115611eac57611e7d81611d4c565b611e8684611d61565b81016020851015611e95578190505b611ea9611ea185611d61565b830182611e48565b50505b505050565b600082821c905092915050565b6000611ecf60001984600802611eb1565b1980831691505092915050565b6000611ee88383611ebe565b9150826002028217905092915050565b611f028383611ce1565b67ffffffffffffffff811115611f1b57611f1a611717565b5b611f258254611d1b565b611f30828285611e6b565b6000601f831160018114611f5f5760008415611f4d578287013590505b611f578582611edc565b865550611fbf565b601f198416611f6d86611d4c565b60005b82811015611f9557848901358255600182019150602085019450602081019050611f70565b86831015611fb25784890135611fae601f891682611ebe565b8355505b6001600288020188555050505b50505050505050565b6000611fd382611bb8565b915067ffffffffffffffff8203611fed57611fec611bcc565b5b600182019050919050565b6000612003826113e5565b91506000820361201657612015611bcc565b5b600182039050919050565b60008160011c9050919050565b6000808291508390505b60018511156120785780860481111561205457612053611bcc565b5b60018516156120635780820291505b808102905061207185612021565b9450612038565b94509492505050565b600082612091576001905061214d565b8161209f576000905061214d565b81600181146120b557600281146120bf576120ee565b600191505061214d565b60ff8411156120d1576120d0611bcc565b5b8360020a9150848211156120e8576120e7611bcc565b5b5061214d565b5060208310610133831016604e8410600b84101617156121235782820a90508381111561211e5761211d611bcc565b5b61214d565b612130848484600161202e565b9250905081840481111561214757612146611bcc565b5b81810290505b9392505050565b600061215f826113e5565b915061216a836113e5565b92506121977fffffffffffffffffffffffffffffffffffffffffffffffffffffffffffffffff8484612081565b905092915050565b600080fd5b600080fd5b600080fd5b600080833560016020038436030381126121cb576121ca61219f565b5b80840192508235915067ffffffffffffffff8211156121ed576121ec6121a4565b5b602083019250602082023603831315612209576122086121a9565b5b509250929050565b7f4e487b7100000000000000000000000000000000000000000000000000000000600052601260045260246000fd5b600061224b826113e5565b9150612256836113e5565b92508261226657612265612211565b5b82820490509291505056fea264697066735822122067264bbfc33e7fefa34febc7ef8832895a1264f3041669b64277d3ebc366c40a64736f6c63430008110033",
  "immutableReferences": {
    "3631": [
      {
        "length": 32,
        "start": 668
      },
      {
        "length": 32,
        "start": 864
      },
      {
        "length": 32,
        "start": 2755
      },
      {
        "length": 32,
        "start": 3939
      },
      {
        "length": 32,
        "start": 4435
      }
    ]
  },
  "source": "// SPDX-License-Identifier: MIT\r\npragma solidity 0.8.17;\r\npragma experimental ABIEncoderV2;\r\n\r\nimport \"./DecimalMath.sol\";\r\n\r\ncontract PiecewiseUniform {\r\n\r\n    using DecimalMath for *;\r\n\r\n    uint64 numUsers;\r\n    uint24 numOracles;\r\n    uint8 boolean; // Nan, Nan, finish, revealPhase, verifyPhase, mixnetPhase, commitPhase, registrationPhase\r\n    address immutable owner;\r\n\r\n    address[] usersAddress;\r\n    address[] oraclesAddress;\r\n\r\n    struct Phantom {\r\n        DecimalMath.UFixed offsetBlack;\r\n        DecimalMath.UFixed startRed;\r\n        DecimalMath.UFixed offsetRed;\r\n    }\r\n\r\n    mapping(address => bytes) public publicKey;\r\n    mapping(address => Phantom) phantom;\r\n    mapping(address => DecimalMath.UFixed) result;\r\n\r\n    error Unauthorized();\r\n    error NotRegistrationPhase();\r\n    error NotCommitPhase();\r\n    error AlreadyCommitted();\r\n\r\n    // Constructor initializes variables\r\n    constructor() {\r\n        owner = msg.sender;\r\n    }\r\n\r\n    // These functions update phases\r\n    function registrationPhaseOn() external {\r\n        if(owner != msg.sender) {\r\n            revert Unauthorized();\r\n        }\r\n        boolean = 1;\r\n    }\r\n    function commitPhaseOn() external {\r\n        if(owner != msg.sender && boolean != 1) {\r\n            revert Unauthorized();\r\n        }\r\n        boolean = 2;\r\n    }\r\n    function mixnetPhaseOn() external {\r\n        if(owner != msg.sender && boolean != 2) {\r\n            revert Unauthorized();\r\n        }\r\n        boolean = 4;\r\n    }\r\n    function verifyPhaseOn() external {\r\n        if(owner != msg.sender && boolean != 4) {\r\n            revert Unauthorized();\r\n        }\r\n        boolean = 8;\r\n    }\r\n    function revealPhaseOn() external {\r\n        if(owner != msg.sender && boolean != 8) {\r\n            revert Unauthorized();\r\n        }\r\n        boolean = 16;\r\n    }\r\n\r\n    // This functions store users\r\n    function insertUsers(bytes calldata _publicKey) external {\r\n        if(boolean != 1) {\r\n            revert NotRegistrationPhase();\r\n        }\r\n        usersAddress.push(msg.sender);\r\n        publicKey[msg.sender] = _publicKey;\r\n        ++numUsers;\r\n    }\r\n\r\n    // This function computes phantom values for a given t\r\n    function computePhantomValues(uint num, uint den) external {\r\n        Phantom storage f = phantom[msg.sender];\r\n        uint threshold = (numUsers >> 1) + 1;\r\n        uint doublenum = num << 1;\r\n        uint nUden = numUsers * den;\r\n        uint dNnU = doublenum * numUsers;\r\n        uint ddn = doublenum << 1;\r\n        uint td = 3 * den;\r\n        if(DecimalMath.divd(num, den).lt(DecimalMath.toUFixed(1).divd(2))) {\r\n            f.offsetBlack = DecimalMath.toUFixed(0);\r\n            f.startRed = DecimalMath.divd((ddn * threshold) - dNnU, nUden);\r\n            f.offsetRed = DecimalMath.divd(ddn, nUden);\r\n        }\r\n        else {\r\n            f.offsetBlack = DecimalMath.divd((doublenum - den), nUden);\r\n            f.startRed = DecimalMath.divd(dNnU + (threshold * td) - (doublenum * threshold) - (2 * nUden), nUden);\r\n            f.offsetRed = DecimalMath.divd(td - doublenum, nUden);\r\n        }\r\n    }\r\n\r\n    // This function computes median for each project\r\n    function computePartition(uint[][] calldata allPartitions, uint percentageAccuracy, uint p, address addr) external view returns (DecimalMath.UFixed[] memory) {\r\n        uint len = (numUsers << 1) + 1;\r\n        uint offset = numUsers + 1;\r\n        uint bound = (numUsers >> 1) + 1;\r\n        uint lastPos;\r\n        uint max = 10**percentageAccuracy;\r\n        DecimalMath.UFixed[] memory tmp = new DecimalMath.UFixed[](len);\r\n        tmp[0] = DecimalMath.UFixed(0);\r\n        for(uint i = 1; i < len;) {\r\n            if(i < bound) {\r\n                tmp[i] = DecimalMath.addd(tmp[lastPos], phantom[addr].offsetBlack);\r\n            }\r\n            else if(i == bound) {\r\n                tmp[i] = phantom[addr].startRed;\r\n            }\r\n            else if(i > bound && i <= numUsers) {\r\n                tmp[i] = DecimalMath.addd(tmp[lastPos], phantom[addr].offsetRed);\r\n            }\r\n            else {\r\n                tmp[i] = DecimalMath.divd(allPartitions[i-offset][p], max);\r\n            }\r\n            unchecked {\r\n                ++lastPos;\r\n                ++i;\r\n            }\r\n        }\r\n        return tmp;\r\n    }\r\n\r\n    // This function sorts in increasing order given partition\r\n    function sort(DecimalMath.UFixed[] memory a, uint len) external pure returns (DecimalMath.UFixed[] memory) {\r\n        for(uint i = 1; i < len;) {\r\n        DecimalMath.UFixed memory temp = a[i];\r\n        uint k = i;\r\n        while((k >= 1) && (temp.lt(a[k - 1]))) {\r\n            a[k] = a[k - 1];\r\n            --k;\r\n        }\r\n        a[k] = temp;\r\n        unchecked {\r\n            ++i;\r\n        }\r\n        }\r\n        return a;\r\n    }\r\n\r\n    // This function verifies that medians' normalization is achieved\r\n    function verify(DecimalMath.UFixed[] calldata medians, uint numProjects) external {\r\n        DecimalMath.UFixed memory count;\r\n        for(uint p; p < numProjects;) {\r\n            count = DecimalMath.addd(medians[p], count);\r\n            unchecked {\r\n                ++p;\r\n            }\r\n        }\r\n        if(count.eq(1)) {\r\n            boolean = 32;\r\n        }\r\n        result[msg.sender] = count;\r\n    }\r\n\r\n    // This function returns phantom values\r\n    function getPhantoms(address addr) external view returns (DecimalMath.UFixed[3] memory) {\r\n        return [phantom[addr].offsetBlack, phantom[addr].startRed, phantom[addr].offsetRed];\r\n    }\r\n\r\n    // These functions returns respectively sum of medians and flag that defines if process is ended or not\r\n    function getSumMedians(address addr) external view returns (DecimalMath.UFixed memory) {\r\n        return result[addr];\r\n    }\r\n    function getVerify() external view returns (bool) {\r\n        if(boolean == 32) {\r\n            return true;\r\n        }\r\n        else {\r\n            return false;\r\n        }\r\n    }\r\n\r\n}",
  "sourcePath": "C:\\Users\\Claudio\\Desktop\\Codice\\Piecewise Uniform\\contracts\\PiecewiseUniform.sol",
  "compiler": {
    "name": "solc",
    "version": "0.8.17+commit.8df45f5f.Emscripten.clang"
  },
  "schemaVersion": "3.4.11",
  "updatedAt": "2023-01-06T18:11:38.368Z",
  "networkType": "ethereum",
  "devdoc": {
    "kind": "dev",
    "methods": {},
    "version": 1
  },
  "userdoc": {
    "kind": "user",
    "methods": {},
    "version": 1
  }
}