{
  "contractName": "Crypto",
  "abi": [
    {
      "inputs": [
        {
          "internalType": "bytes",
          "name": "primeVal",
          "type": "bytes"
        },
        {
          "internalType": "bytes",
          "name": "gVal",
          "type": "bytes"
        }
      ],
      "stateMutability": "nonpayable",
      "type": "constructor"
    },
    {
      "inputs": [],
      "name": "g",
      "outputs": [
        {
          "internalType": "bytes",
          "name": "val",
          "type": "bytes"
        },
        {
          "internalType": "bool",
          "name": "neg",
          "type": "bool"
        },
        {
          "internalType": "uint256",
          "name": "bitlen",
          "type": "uint256"
        }
      ],
      "stateMutability": "view",
      "type": "function",
      "constant": true
    },
    {
      "inputs": [],
      "name": "prime",
      "outputs": [
        {
          "internalType": "bytes",
          "name": "val",
          "type": "bytes"
        },
        {
          "internalType": "bool",
          "name": "neg",
          "type": "bool"
        },
        {
          "internalType": "uint256",
          "name": "bitlen",
          "type": "uint256"
        }
      ],
      "stateMutability": "view",
      "type": "function",
      "constant": true
    },
    {
      "inputs": [],
      "name": "publicKey",
      "outputs": [
        {
          "internalType": "bytes",
          "name": "val",
          "type": "bytes"
        },
        {
          "internalType": "bool",
          "name": "neg",
          "type": "bool"
        },
        {
          "internalType": "uint256",
          "name": "bitlen",
          "type": "uint256"
        }
      ],
      "stateMutability": "view",
      "type": "function",
      "constant": true
    },
    {
      "inputs": [
        {
          "internalType": "bytes",
          "name": "publicKeyVal",
          "type": "bytes"
        }
      ],
      "name": "setPublicKey",
      "outputs": [],
      "stateMutability": "nonpayable",
      "type": "function"
    },
    {
      "inputs": [
        {
          "internalType": "bytes",
          "name": "yVal",
          "type": "bytes"
        },
        {
          "internalType": "bytes",
          "name": "publicKeyVal",
          "type": "bytes"
        },
        {
          "internalType": "bytes",
          "name": "plaintext1Val",
          "type": "bytes"
        },
        {
          "internalType": "bytes",
          "name": "plaintext2Val",
          "type": "bytes"
        }
      ],
      "name": "ElGamalEnc",
      "outputs": [
        {
          "internalType": "bytes",
          "name": "",
          "type": "bytes"
        },
        {
          "internalType": "bytes",
          "name": "",
          "type": "bytes"
        }
      ],
      "stateMutability": "view",
      "type": "function",
      "constant": true
    },
    {
      "inputs": [
        {
          "internalType": "bytes",
          "name": "c1Val",
          "type": "bytes"
        },
        {
          "internalType": "bytes",
          "name": "secretKeyVal",
          "type": "bytes"
        }
      ],
      "name": "ElGamalDecPart1",
      "outputs": [
        {
          "internalType": "bytes",
          "name": "",
          "type": "bytes"
        }
      ],
      "stateMutability": "view",
      "type": "function",
      "constant": true
    },
    {
      "inputs": [
        {
          "internalType": "bytes",
          "name": "c2Val",
          "type": "bytes"
        },
        {
          "internalType": "bytes",
          "name": "mulDecPart1Val",
          "type": "bytes"
        },
        {
          "internalType": "bytes",
          "name": "userResultVal",
          "type": "bytes"
        }
      ],
      "name": "ElGamalDecPart2",
      "outputs": [
        {
          "internalType": "bytes",
          "name": "",
          "type": "bytes"
        }
      ],
      "stateMutability": "view",
      "type": "function",
      "constant": true
    },
    {
      "inputs": [
        {
          "internalType": "bytes",
          "name": "sVal",
          "type": "bytes"
        },
        {
          "internalType": "bytes",
          "name": "cVal",
          "type": "bytes"
        },
        {
          "internalType": "bytes",
          "name": "tVal",
          "type": "bytes"
        },
        {
          "internalType": "bytes[]",
          "name": "oldVal",
          "type": "bytes[]"
        },
        {
          "internalType": "bytes[]",
          "name": "newVal",
          "type": "bytes[]"
        },
        {
          "internalType": "bytes",
          "name": "userResult1Val",
          "type": "bytes"
        },
        {
          "internalType": "bytes",
          "name": "userResult2Val",
          "type": "bytes"
        }
      ],
      "name": "verifyProof",
      "outputs": [
        {
          "internalType": "bool",
          "name": "",
          "type": "bool"
        }
      ],
      "stateMutability": "view",
      "type": "function",
      "constant": true
    },
    {
      "inputs": [
        {
          "internalType": "bytes[][]",
          "name": "a",
          "type": "bytes[][]"
        }
      ],
      "name": "shuffle",
      "outputs": [
        {
          "internalType": "bytes[][]",
          "name": "",
          "type": "bytes[][]"
        }
      ],
      "stateMutability": "view",
      "type": "function",
      "constant": true
    }
  ],
  "bytecode": "0x60a06040523480156200001157600080fd5b5060405162004f2a38038062004f2a833981810160405281019062000037919062000640565b3373ffffffffffffffffffffffffffffffffffffffff1660808173ffffffffffffffffffffffffffffffffffffffff1681525050620000866000836200013660201b620020b51790919060201c565b6000808201518160000190816200009e919062000910565b5060208201518160010160006101000a81548160ff02191690831515021790555060408201518160020155905050620000e76000826200013660201b620020b51790919060201c565b6003600082015181600001908162000100919062000910565b5060208201518160010160006101000a81548160ff021916908315150217905550604082015181600201559050505050620009f7565b620001406200048a565b62000154838360006200015c60201b60201c565b905092915050565b620001666200048a565b60208401845160005960006020840614600181146200019a57602084066020036020818401019350808501835250620001a4565b6020820192508382525b508282848660046101c2fa50602081510181016040528085528660208601525050505060008214620001d75781620001ed565b620001ec8160000151620001fd60201b60201c565b5b8160400181815250509392505050565b6000806020830151905062000218816200022c60201b60201c565b915060086020845103028201915050919050565b6000808214600181146200047f578260018403935060028404841793506004840484179350601084048417935061010084048417935062010000840484179350640100000000840484179350680100000000000000008404841793507001000000000000000000000000000000008404841793506001840193506040517ff8f9cbfae6cc78fbefe7cdc3a1793dfcf4f0e8bbd8cec470b6a28a7a5a3e1efd81527ff5ecf1b3e9debc68e1d9cfabc5997135bfb7a7a3938b7b606b5b4b3f2f1f0ffe60208201527ff6e4ed9ff2d6b458eadcdf97bd91692de2d4da8fd2d0ac50c6ae9a827252361660408201527fc8c0b887b0a8a4489c948c7f847c6125746c645c544c444038302820181008ff60608201527ff7cae577eec2a03cf3bad76fb589591debb2dd67e0aa9834bea6925f6a4a2e0e60808201527fe39ed557db96902cd38ed14fad815115c786af479b7e8324736353433727170760a08201527fc976c13bb96e881cb166a933a55e490d9d56952b8d4e801485467d236242260660c08201527f753a6d1b65325d0c552a4d1345224105391a310b29122104190a11030902010060e082015261010081016040527e818283848586878898a8b8c8d8e8f929395969799a9b9d9e9faaeb6bedeeff7f01000000000000000000000000000000000000000000000000000000000000008082880204818160ff038501510496507f8000000000000000000000000000000000000000000000000000000000000000851161010002870196506000600186038616146001810362000473576001880197505b50505050505062000484565b600091505b50919050565b604051806060016040528060608152602001600015158152602001600081525090565b6000604051905090565b600080fd5b600080fd5b600080fd5b600080fd5b6000601f19601f8301169050919050565b7f4e487b7100000000000000000000000000000000000000000000000000000000600052604160045260246000fd5b6200051682620004cb565b810181811067ffffffffffffffff82111715620005385762000537620004dc565b5b80604052505050565b60006200054d620004ad565b90506200055b82826200050b565b919050565b600067ffffffffffffffff8211156200057e576200057d620004dc565b5b6200058982620004cb565b9050602081019050919050565b60005b83811015620005b657808201518184015260208101905062000599565b60008484015250505050565b6000620005d9620005d38462000560565b62000541565b905082815260208101848484011115620005f857620005f7620004c6565b5b6200060584828562000596565b509392505050565b600082601f830112620006255762000624620004c1565b5b815162000637848260208601620005c2565b91505092915050565b600080604083850312156200065a5762000659620004b7565b5b600083015167ffffffffffffffff8111156200067b576200067a620004bc565b5b62000689858286016200060d565b925050602083015167ffffffffffffffff811115620006ad57620006ac620004bc565b5b620006bb858286016200060d565b9150509250929050565b600081519050919050565b7f4e487b7100000000000000000000000000000000000000000000000000000000600052602260045260246000fd5b600060028204905060018216806200071857607f821691505b6020821081036200072e576200072d620006d0565b5b50919050565b60008190508160005260206000209050919050565b60006020601f8301049050919050565b600082821b905092915050565b600060088302620007987fffffffffffffffffffffffffffffffffffffffffffffffffffffffffffffffff8262000759565b620007a4868362000759565b95508019841693508086168417925050509392505050565b6000819050919050565b6000819050919050565b6000620007f1620007eb620007e584620007bc565b620007c6565b620007bc565b9050919050565b6000819050919050565b6200080d83620007d0565b620008256200081c82620007f8565b84845462000766565b825550505050565b600090565b6200083c6200082d565b6200084981848462000802565b505050565b5b8181101562000871576200086560008262000832565b6001810190506200084f565b5050565b601f821115620008c0576200088a8162000734565b620008958462000749565b81016020851015620008a5578190505b620008bd620008b48562000749565b8301826200084e565b50505b505050565b600082821c905092915050565b6000620008e560001984600802620008c5565b1980831691505092915050565b6000620009008383620008d2565b9150826002028217905092915050565b6200091b82620006c5565b67ffffffffffffffff811115620009375762000936620004dc565b5b620009438254620006ff565b6200095082828562000875565b600060209050601f83116001811462000988576000841562000973578287015190505b6200097f8582620008f2565b865550620009ef565b601f198416620009988662000734565b60005b82811015620009c2578489015182556001820191506020850194506020810190506200099b565b86831015620009e25784890151620009de601f891682620008d2565b8355505b6001600288020188555050505b505050505050565b60805161451762000a136000396000611bcc01526145176000f3fe608060405234801561001057600080fd5b50600436106100935760003560e01c8063a91d58b411610066578063a91d58b414610149578063c7ee005e14610165578063e2179b8e14610185578063ebcd58df146101a5578063f92e4607146101d557610093565b80630ac09229146100985780634d56f4ac146100c957806363ffab31146100f9578063a454af3d14610119575b600080fd5b6100b260048036038101906100ad919061331e565b610205565b6040516100c0929190613497565b60405180910390f35b6100e360048036038101906100de91906134ce565b6107a4565b6040516100f09190613582565b60405180910390f35b610101610a6a565b604051610110939291906135d8565b60405180910390f35b610133600480360381019061012e919061379c565b610b17565b6040516101409190613914565b60405180910390f35b610163600480360381019061015e919061392f565b611bb3565b005b61016d611ce2565b60405161017c939291906135d8565b60405180910390f35b61018d611d8f565b60405161019c939291906135d8565b60405180910390f35b6101bf60048036038101906101ba9190613b3e565b611e3c565b6040516101cc9190613d55565b60405180910390f35b6101ef60048036038101906101ea9190613d77565b611f1f565b6040516101fc9190613582565b60405180910390f35b606080600061026260008c8c8080601f016020809104026020016040519081016040528093929190818152602001838380828437600081840152601f19601f820116905080830192505050505050506120b590919063ffffffff16565b905061052d61040282600060405180606001604052908160008201805461028890613e27565b80601f01602080910402602001604051908101604052809291908181526020018280546102b490613e27565b80156103015780601f106102d657610100808354040283529160200191610301565b820191906000526020600020905b8154815290600101906020018083116102e457829003601f168201915b505050505081526020016001820160009054906101000a900460ff16151515158152602001600282015481525050600360405180606001604052908160008201805461034c90613e27565b80601f016020809104026020016040519081016040528092919081815260200182805461037890613e27565b80156103c55780601f1061039a576101008083540402835291602001916103c5565b820191906000526020600020905b8154815290600101906020018083116103a857829003601f168201915b505050505081526020016001820160009054906101000a900460ff161515151581526020016002820154815250506120d19092919063ffffffff16565b600060405180606001604052908160008201805461041f90613e27565b80601f016020809104026020016040519081016040528092919081815260200182805461044b90613e27565b80156104985780601f1061046d57610100808354040283529160200191610498565b820191906000526020600020905b81548152906001019060200180831161047b57829003601f168201915b505050505081526020016001820160009054906101000a900460ff1615151515815260200160028201548152505061051e60008b8b8080601f016020809104026020016040519081016040528093929190818152602001838380828437600081840152601f19601f820116905080830192505050505050506120b590919063ffffffff16565b6121b39092919063ffffffff16565b6000015161078e61066383600060405180606001604052908160008201805461055590613e27565b80601f016020809104026020016040519081016040528092919081815260200182805461058190613e27565b80156105ce5780601f106105a3576101008083540402835291602001916105ce565b820191906000526020600020905b8154815290600101906020018083116105b157829003601f168201915b505050505081526020016001820160009054906101000a900460ff1615151515815260200160028201548152505061065460008f8f8080601f016020809104026020016040519081016040528093929190818152602001838380828437600081840152601f19601f820116905080830192505050505050506120b590919063ffffffff16565b6120d19092919063ffffffff16565b600060405180606001604052908160008201805461068090613e27565b80601f01602080910402602001604051908101604052809291908181526020018280546106ac90613e27565b80156106f95780601f106106ce576101008083540402835291602001916106f9565b820191906000526020600020905b8154815290600101906020018083116106dc57829003601f168201915b505050505081526020016001820160009054906101000a900460ff1615151515815260200160028201548152505061077f60008a8a8080601f016020809104026020016040519081016040528093929190818152602001838380828437600081840152601f19601f820116905080830192505050505050506120b590919063ffffffff16565b6121b39092919063ffffffff16565b6000015192509250509850989650505050505050565b6060610a5a61092f60006040518060600160405290816000820180546107c990613e27565b80601f01602080910402602001604051908101604052809291908181526020018280546107f590613e27565b80156108425780601f1061081757610100808354040283529160200191610842565b820191906000526020600020905b81548152906001019060200180831161082557829003601f168201915b505050505081526020016001820160009054906101000a900460ff161515151581526020016002820154815250506108c8600087878080601f016020809104026020016040519081016040528093929190818152602001838380828437600081840152601f19601f820116905080830192505050505050506120b590919063ffffffff16565b61092060008a8a8080601f016020809104026020016040519081016040528093929190818152602001838380828437600081840152601f19601f820116905080830192505050505050506120b590919063ffffffff16565b6121d79092919063ffffffff16565b600060405180606001604052908160008201805461094c90613e27565b80601f016020809104026020016040519081016040528092919081815260200182805461097890613e27565b80156109c55780601f1061099a576101008083540402835291602001916109c5565b820191906000526020600020905b8154815290600101906020018083116109a857829003601f168201915b505050505081526020016001820160009054906101000a900460ff16151515158152602001600282015481525050610a4b60008b8b8080601f016020809104026020016040519081016040528093929190818152602001838380828437600081840152601f19601f820116905080830192505050505050506120b590919063ffffffff16565b6121b39092919063ffffffff16565b6000015190509695505050505050565b6006806000018054610a7b90613e27565b80601f0160208091040260200160405190810160405280929190818152602001828054610aa790613e27565b8015610af45780601f10610ac957610100808354040283529160200191610af4565b820191906000526020600020905b815481529060010190602001808311610ad757829003601f168201915b5050505050908060010160009054906101000a900460ff16908060020154905083565b600080610b2e60008e6120b590919063ffffffff16565b90506000610b4660008d6120b590919063ffffffff16565b90506000610b5e60008f6120b590919063ffffffff16565b90506000610bde60008e8e6000818110610b7b57610b7a613e58565b5b9050602002810190610b8d9190613e96565b8080601f016020809104026020016040519081016040528093929190818152602001838380828437600081840152601f19601f820116905080830192505050505050506120b590919063ffffffff16565b90506000610c5e60008f8f6001818110610bfb57610bfa613e58565b5b9050602002810190610c0d9190613e96565b8080601f016020809104026020016040519081016040528093929190818152602001838380828437600081840152601f19601f820116905080830192505050505050506120b590919063ffffffff16565b90506000610cde60008e8e6000818110610c7b57610c7a613e58565b5b9050602002810190610c8d9190613e96565b8080601f016020809104026020016040519081016040528093929190818152602001838380828437600081840152601f19601f820116905080830192505050505050506120b590919063ffffffff16565b90506000610d5e60008f8f6001818110610cfb57610cfa613e58565b5b9050602002810190610d0d9190613e96565b8080601f016020809104026020016040519081016040528093929190818152602001838380828437600081840152601f19601f820116905080830192505050505050506120b590919063ffffffff16565b90506000610dba60008e8e8080601f016020809104026020016040519081016040528093929190818152602001838380828437600081840152601f19601f820116905080830192505050505050506120b590919063ffffffff16565b90506000610e1660008d8d8080601f016020809104026020016040519081016040528093929190818152602001838380828437600081840152601f19601f820116905080830192505050505050506120b590919063ffffffff16565b905060006114c06113146110a68a6000604051806060016040529081600082018054610e4190613e27565b80601f0160208091040260200160405190810160405280929190818152602001828054610e6d90613e27565b8015610eba5780601f10610e8f57610100808354040283529160200191610eba565b820191906000526020600020905b815481529060010190602001808311610e9d57829003601f168201915b505050505081526020016001820160009054906101000a900460ff16151515158152602001600282015481525050611097610fc36000604051806060016040529081600082018054610f0b90613e27565b80601f0160208091040260200160405190810160405280929190818152602001828054610f3790613e27565b8015610f845780601f10610f5957610100808354040283529160200191610f84565b820191906000526020600020905b815481529060010190602001808311610f6757829003601f168201915b505050505081526020016001820160009054906101000a900460ff161515151581526020016002820154815250508a8f6121d79092919063ffffffff16565b6000604051806060016040529081600082018054610fe090613e27565b80601f016020809104026020016040519081016040528092919081815260200182805461100c90613e27565b80156110595780601f1061102e57610100808354040283529160200191611059565b820191906000526020600020905b81548152906001019060200180831161103c57829003601f168201915b505050505081526020016001820160009054906101000a900460ff161515151581526020016002820154815250508c6121b39092919063ffffffff16565b6120d19092919063ffffffff16565b60006040518060600160405290816000820180546110c390613e27565b80601f01602080910402602001604051908101604052809291908181526020018280546110ef90613e27565b801561113c5780601f106111115761010080835404028352916020019161113c565b820191906000526020600020905b81548152906001019060200180831161111f57829003601f168201915b505050505081526020016001820160009054906101000a900460ff161515151581526020016002820154815250506113058e600060405180606001604052908160008201805461118b90613e27565b80601f01602080910402602001604051908101604052809291908181526020018280546111b790613e27565b80156112045780601f106111d957610100808354040283529160200191611204565b820191906000526020600020905b8154815290600101906020018083116111e757829003601f168201915b505050505081526020016001820160009054906101000a900460ff16151515158152602001600282015481525050600360405180606001604052908160008201805461124f90613e27565b80601f016020809104026020016040519081016040528092919081815260200182805461127b90613e27565b80156112c85780601f1061129d576101008083540402835291602001916112c8565b820191906000526020600020905b8154815290600101906020018083116112ab57829003601f168201915b505050505081526020016001820160009054906101000a900460ff161515151581526020016002820154815250506120d19092919063ffffffff16565b6121b39092919063ffffffff16565b60006114b18c600060405180606001604052908160008201805461133790613e27565b80601f016020809104026020016040519081016040528092919081815260200182805461136390613e27565b80156113b05780601f10611385576101008083540402835291602001916113b0565b820191906000526020600020905b81548152906001019060200180831161139357829003601f168201915b505050505081526020016001820160009054906101000a900460ff1615151515815260200160028201548152505060036040518060600160405290816000820180546113fb90613e27565b80601f016020809104026020016040519081016040528092919081815260200182805461142790613e27565b80156114745780601f1061144957610100808354040283529160200191611474565b820191906000526020600020905b81548152906001019060200180831161145757829003601f168201915b505050505081526020016001820160009054906101000a900460ff161515151581526020016002820154815250506120d19092919063ffffffff16565b61226e9092919063ffffffff16565b03611b96576000611b6d6119c16117538a60006040518060600160405290816000820180546114ee90613e27565b80601f016020809104026020016040519081016040528092919081815260200182805461151a90613e27565b80156115675780601f1061153c57610100808354040283529160200191611567565b820191906000526020600020905b81548152906001019060200180831161154a57829003601f168201915b505050505081526020016001820160009054906101000a900460ff1615151515815260200160028201548152505061174461167060006040518060600160405290816000820180546115b890613e27565b80601f01602080910402602001604051908101604052809291908181526020018280546115e490613e27565b80156116315780601f1061160657610100808354040283529160200191611631565b820191906000526020600020905b81548152906001019060200180831161161457829003601f168201915b505050505081526020016001820160009054906101000a900460ff16151515158152602001600282015481525050898e6121d79092919063ffffffff16565b600060405180606001604052908160008201805461168d90613e27565b80601f01602080910402602001604051908101604052809291908181526020018280546116b990613e27565b80156117065780601f106116db57610100808354040283529160200191611706565b820191906000526020600020905b8154815290600101906020018083116116e957829003601f168201915b505050505081526020016001820160009054906101000a900460ff161515151581526020016002820154815250508b6121b39092919063ffffffff16565b6120d19092919063ffffffff16565b600060405180606001604052908160008201805461177090613e27565b80601f016020809104026020016040519081016040528092919081815260200182805461179c90613e27565b80156117e95780601f106117be576101008083540402835291602001916117e9565b820191906000526020600020905b8154815290600101906020018083116117cc57829003601f168201915b505050505081526020016001820160009054906101000a900460ff161515151581526020016002820154815250506119b28e600060405180606001604052908160008201805461183890613e27565b80601f016020809104026020016040519081016040528092919081815260200182805461186490613e27565b80156118b15780601f10611886576101008083540402835291602001916118b1565b820191906000526020600020905b81548152906001019060200180831161189457829003601f168201915b505050505081526020016001820160009054906101000a900460ff1615151515815260200160028201548152505060066040518060600160405290816000820180546118fc90613e27565b80601f016020809104026020016040519081016040528092919081815260200182805461192890613e27565b80156119755780601f1061194a57610100808354040283529160200191611975565b820191906000526020600020905b81548152906001019060200180831161195857829003601f168201915b505050505081526020016001820160009054906101000a900460ff161515151581526020016002820154815250506120d19092919063ffffffff16565b6121b39092919063ffffffff16565b6000611b5e8c60006040518060600160405290816000820180546119e490613e27565b80601f0160208091040260200160405190810160405280929190818152602001828054611a1090613e27565b8015611a5d5780601f10611a3257610100808354040283529160200191611a5d565b820191906000526020600020905b815481529060010190602001808311611a4057829003601f168201915b505050505081526020016001820160009054906101000a900460ff161515151581526020016002820154815250506006604051806060016040529081600082018054611aa890613e27565b80601f0160208091040260200160405190810160405280929190818152602001828054611ad490613e27565b8015611b215780601f10611af657610100808354040283529160200191611b21565b820191906000526020600020905b815481529060010190602001808311611b0457829003601f168201915b505050505081526020016001820160009054906101000a900460ff161515151581526020016002820154815250506120d19092919063ffffffff16565b61226e9092919063ffffffff16565b03611b845760019950505050505050505050611ba4565b60009950505050505050505050611ba4565b600099505050505050505050505b9b9a5050505050505050505050565b3373ffffffffffffffffffffffffffffffffffffffff167f000000000000000000000000000000000000000000000000000000000000000073ffffffffffffffffffffffffffffffffffffffff1614611c41576040517f08c379a0000000000000000000000000000000000000000000000000000000008152600401611c3890613f56565b60405180910390fd5b611c99600083838080601f016020809104026020016040519081016040528093929190818152602001838380828437600081840152601f19601f820116905080830192505050505050506120b590919063ffffffff16565b60066000820151816000019081611cb09190614122565b5060208201518160010160006101000a81548160ff021916908315150217905550604082015181600201559050505050565b6000806000018054611cf390613e27565b80601f0160208091040260200160405190810160405280929190818152602001828054611d1f90613e27565b8015611d6c5780601f10611d4157610100808354040283529160200191611d6c565b820191906000526020600020905b815481529060010190602001808311611d4f57829003601f168201915b5050505050908060010160009054906101000a900460ff16908060020154905083565b6003806000018054611da090613e27565b80601f0160208091040260200160405190810160405280929190818152602001828054611dcc90613e27565b8015611e195780601f10611dee57610100808354040283529160200191611e19565b820191906000526020600020905b815481529060010190602001808311611dfc57829003601f168201915b5050505050908060010160009054906101000a900460ff16908060020154905083565b6060600082519050606060005b60008314611f145782424433604051602001611e679392919061428f565b6040516020818303038152906040528051906020012060001c611e8a91906142fb565b90508280611e979061435b565b935050848381518110611ead57611eac613e58565b5b60200260200101519150848181518110611eca57611ec9613e58565b5b6020026020010151858481518110611ee557611ee4613e58565b5b602002602001018190525081858281518110611f0457611f03613e58565b5b6020026020010181905250611e49565b849350505050919050565b60606120a7611f7c600085858080601f016020809104026020016040519081016040528093929190818152602001838380828437600081840152601f19601f820116905080830192505050505050506120b590919063ffffffff16565b6000604051806060016040529081600082018054611f9990613e27565b80601f0160208091040260200160405190810160405280929190818152602001828054611fc590613e27565b80156120125780601f10611fe757610100808354040283529160200191612012565b820191906000526020600020905b815481529060010190602001808311611ff557829003601f168201915b505050505081526020016001820160009054906101000a900460ff16151515158152602001600282015481525050612098600089898080601f016020809104026020016040519081016040528093929190818152602001838380828437600081840152601f19601f820116905080830192505050505050506120b590919063ffffffff16565b6120d19092919063ffffffff16565b600001519050949350505050565b6120bd613282565b6120c983836000612463565b905092915050565b6120d9613282565b6000151583602001511515146120ee57600080fd5b60006121078560000151856000015185600001516124f6565b90506000602082015190506101006001602084516121259190614384565b61212f91906143b5565b61213991906143e9565b612142826125bd565b61214c919061442b565b9050818360000181905250600015158660200151151514806121835750856020015180156121825750600061218086612818565b145b5b61218e576001612191565b60005b8360200190151590811515815250508083604001818152505050509392505050565b6121bb613282565b6121ce6121c8858561282d565b83612886565b90509392505050565b6121df613282565b60001515846020015115151480156121ff57506000151583602001511515145b61220857600080fd5b60006040518060600160405280604051806040016040528060208152602001600181525081526020016000151581526020016001815250905060006122596122518786886121b3565b83600161226e565b1461226357600080fd5b829150509392505050565b600080600190508215612339578460200151801561228d575083602001515b156122ba577fffffffffffffffffffffffffffffffffffffffffffffffffffffffffffffffff9050612338565b60001515856020015115151480156122da57506001151584602001511515145b156122e957600191505061245c565b600115158560200151151514801561230957506000151584602001511515145b15612337577fffffffffffffffffffffffffffffffffffffffffffffffffffffffffffffffff91505061245c565b5b5b83604001518560400151111561235e578060016123569190614469565b91505061245c565b8460400151846040015111156123a257807fffffffffffffffffffffffffffffffffffffffffffffffffffffffffffffffff61239a9190614469565b91505061245c565b6000806000806000896000015151905060208a510194506020895101935060005b8181101561245057808601519350808501519250828411156123fa578660016123ec9190614469565b97505050505050505061245c565b8383111561243c57867fffffffffffffffffffffffffffffffffffffffffffffffffffffffffffffffff61242e9190614469565b97505050505050505061245c565b602081612449919061442b565b90506123c3565b50600096505050505050505b9392505050565b61246b613282565b602084018451600059600060208406146001811461249d576020840660200360208184010193508085018352506124a7565b6020820192508382525b508282848660046101c2fa506020815101810160405280855286602086015250505050600082146124d857816124e6565b6124e581600001516128db565b5b8160400181815250509392505050565b606083518351835160405183815282602082015281604082015283606082018560208b0160046101c2fa84606001848184018660208c0160046101c2fa91508481019050838184018560208b0160046101c2fa9150816000810361255657fe5b5083810190508383606001828560056105465a03fa9150816000810361257857fe5b5083836060015b600160008251140361259c5760208101905060208203915061257f565b60208103985081895285856060010160405250505050505050509392505050565b60008082146001811461280d578260018403935060028404841793506004840484179350601084048417935061010084048417935062010000840484179350640100000000840484179350680100000000000000008404841793507001000000000000000000000000000000008404841793506001840193506040517ff8f9cbfae6cc78fbefe7cdc3a1793dfcf4f0e8bbd8cec470b6a28a7a5a3e1efd81527ff5ecf1b3e9debc68e1d9cfabc5997135bfb7a7a3938b7b606b5b4b3f2f1f0ffe60208201527ff6e4ed9ff2d6b458eadcdf97bd91692de2d4da8fd2d0ac50c6ae9a827252361660408201527fc8c0b887b0a8a4489c948c7f847c6125746c645c544c444038302820181008ff60608201527ff7cae577eec2a03cf3bad76fb589591debb2dd67e0aa9834bea6925f6a4a2e0e60808201527fe39ed557db96902cd38ed14fad815115c786af479b7e8324736353433727170760a08201527fc976c13bb96e881cb166a933a55e490d9d56952b8d4e801485467d236242260660c08201527f753a6d1b65325d0c552a4d1345224105391a310b29122104190a11030902010060e082015261010081016040527e818283848586878898a8b8c8d8e8f929395969799a9b9d9e9faaeb6bedeeff7f01000000000000000000000000000000000000000000000000000000000000008082880204818160ff038501510496507f80000000000000000000000000000000000000000000000000000000000000008511610100028701965060006001860386161460018103612802576001880197505b505050505050612812565b600091505b50919050565b60008151518251016002815106915050919050565b612835613282565b61284183836000612902565b905060006128518484600161226e565b1461287457600061286484846001612902565b90506128708282612a0b565b9150505b61287f816002612c5c565b5092915050565b61288e613282565b6000604051806060016040528060405180604001604052806020815260200160018152508152602001600015158152602001600181525090506128d28482856120d1565b91505092915050565b600080602083015190506128ee816125bd565b915060086020845103028201915050919050565b61290a613282565b60006040518060600160405280604051806040016040528060208152602001600281525081526020016000151581526020016002815250905060008060606000861461295f5761295a8888612a0b565b61296a565b6129698888612dc5565b5b94506000856040015190506002810293506101008461298991906142fb565b6001901b92506040518060400160405280602081526020016000815250915060206001610100860401028252826020830152602082510182016040526129cd613282565b8281600001819052506000816020019015159081151581525050848160400181815250506129fc8787836120d1565b96505050505050509392505050565b612a13613282565b6000604051806060016040528060405180604001604052806020815260200160008152508152602001600015158152602001600081525090506060600080612a5d8787600061226e565b9150866020015180612a70575085602001515b15612ba15786602001518015612a87575085602001515b15612b2d5760018203612ac457612aa68760000151876000015161301d565b80925081945050506001856020019015159081151581525050612b28565b7fffffffffffffffffffffffffffffffffffffffffffffffffffffffffffffffff8203612b1b57612afd8660000151886000015161301d565b80925081945050506000856020019015159081151581525050612b27565b83945050505050612c56565b5b612b9c565b60008212612b5957612b4c876000015187600001518960400151613148565b8092508194505050612b79565b612b70866000015188600001518860400151613148565b80925081945050505b8660200151612b89576000612b8c565b60015b8560200190151590811515815250505b612c3e565b60018203612bd957612bbb8760000151876000015161301d565b80925081945050506000856020019015159081151581525050612c3d565b7fffffffffffffffffffffffffffffffffffffffffffffffffffffffffffffffff8203612c3057612c128660000151886000015161301d565b80925081945050506001856020019015159081151581525050612c3c565b83945050505050612c56565b5b5b82856000018190525080856040018181525050505050505b92915050565b612c64613282565b60008351519050600881612c7891906143e9565b8310612cbb576040518060600160405280604051806040016040528060208152602001600081525081526020016000151581526020016000815250915050612dbf565b828460400151612ccb91906143b5565b846040018181525050610100831461010084111760018103612cff5760206101008504028203915081855152610100840693505b5083516000600885061460018114612d71576000808661010003858501865b600080821403612d67576020811460018114612d405760208303519550612d45565b600095505b5081518a1c935084831b94508484178252602082039150602081039050612d1e565b5050505050612d9a565b60088504865180518282018382038082848660046101c2fa6000601f8401538385525050505050505b5060208101600081511460018103612db757602083510382528187525b505050839150505b92915050565b612dcd613282565b60006040518060600160405280604051806040016040528060208152602001600081525081526020016000151581526020016000815250905060008460400151148015612e1e575060008360400151145b15612e2c5780915050613017565b6000846040015103612e415782915050613017565b6000836040015103612e565783915050613017565b6060600080612e678787600061226e565b9050866020015180612e7a575085602001515b15612fa15786602001518015612e91575085602001515b15612ef85760008112612ec257612eb5876000015187600001518960400151613148565b8093508194505050612ee2565b612ed9866000015188600001518860400151613148565b80935081945050505b6001856020019015159081151581525050612f9c565b60018103612f3357612f128760000151876000015161301d565b80935081945050508660200151856020019015159081151581525050612f9b565b7fffffffffffffffffffffffffffffffffffffffffffffffffffffffffffffffff8103612f8e57612f6c8660000151886000015161301d565b8093508194505050866020015115856020019015159081151581525050612f9a565b83945050505050613017565b5b5b612fff565b60008112612fcd57612fc0876000015187600001518960400151613148565b8093508194505050612fed565b612fe4866000015188600001518860400151613148565b80935081945050505b60008560200190151590811515815250505b82856000018190525081856040018181525050505050505b92915050565b6060600060606000807fffffffffffffffffffffffffffffffffffffffffffffffffffffffffffffffff90505987518751808203828b01828b0184860160208101865b6000808214036130f0578451868211600181146130a1578c8203855260018d146000831416600181146130965760009d5061309b565b60019d505b506130d7565b85518d81840303865260018e148d8214168e8201841017600181146130c95760009e506130ce565b60019e505b50602087039650505b5060208403935060208603955050602081039050613060565b506020820191505b6000825103613118576020880197506020870396506020820191506130f8565b879a50868b528060405250505050505050506000613135846128db565b9050838195509550505050509250929050565b606060006060596000600160000388518901885189018a5160208601018b515b6000808214036132145783518c518e51038211600181146131ac5787820184526001881482881416600181146131a157600098506131a6565b600198505b506131fb565b84518881840101855288810388038311600181146131ed576000821160008b111789851416600181146131e25760009a506131e7565b60019a505b506131f2565b600199505b50602086039550505b5060208303925060208503945050602081039050613168565b50600085146001811461322a5760018252613231565b6020870196505b50859650846020028c510187526020875101870160405260208701516001816101008d061c1460018214176001810361326b5760018c019b505b505050505050505080849250925050935093915050565b604051806060016040528060608152602001600015158152602001600081525090565b6000604051905090565b600080fd5b600080fd5b600080fd5b600080fd5b600080fd5b60008083601f8401126132de576132dd6132b9565b5b8235905067ffffffffffffffff8111156132fb576132fa6132be565b5b602083019150836001820283011115613317576133166132c3565b5b9250929050565b6000806000806000806000806080898b03121561333e5761333d6132af565b5b600089013567ffffffffffffffff81111561335c5761335b6132b4565b5b6133688b828c016132c8565b9850985050602089013567ffffffffffffffff81111561338b5761338a6132b4565b5b6133978b828c016132c8565b9650965050604089013567ffffffffffffffff8111156133ba576133b96132b4565b5b6133c68b828c016132c8565b9450945050606089013567ffffffffffffffff8111156133e9576133e86132b4565b5b6133f58b828c016132c8565b92509250509295985092959890939650565b600081519050919050565b600082825260208201905092915050565b60005b83811015613441578082015181840152602081019050613426565b60008484015250505050565b6000601f19601f8301169050919050565b600061346982613407565b6134738185613412565b9350613483818560208601613423565b61348c8161344d565b840191505092915050565b600060408201905081810360008301526134b1818561345e565b905081810360208301526134c5818461345e565b90509392505050565b600080600080600080606087890312156134eb576134ea6132af565b5b600087013567ffffffffffffffff811115613509576135086132b4565b5b61351589828a016132c8565b9650965050602087013567ffffffffffffffff811115613538576135376132b4565b5b61354489828a016132c8565b9450945050604087013567ffffffffffffffff811115613567576135666132b4565b5b61357389828a016132c8565b92509250509295509295509295565b6000602082019050818103600083015261359c818461345e565b905092915050565b60008115159050919050565b6135b9816135a4565b82525050565b6000819050919050565b6135d2816135bf565b82525050565b600060608201905081810360008301526135f2818661345e565b905061360160208301856135b0565b61360e60408301846135c9565b949350505050565b600080fd5b7f4e487b7100000000000000000000000000000000000000000000000000000000600052604160045260246000fd5b6136538261344d565b810181811067ffffffffffffffff821117156136725761367161361b565b5b80604052505050565b60006136856132a5565b9050613691828261364a565b919050565b600067ffffffffffffffff8211156136b1576136b061361b565b5b6136ba8261344d565b9050602081019050919050565b82818337600083830152505050565b60006136e96136e484613696565b61367b565b90508281526020810184848401111561370557613704613616565b5b6137108482856136c7565b509392505050565b600082601f83011261372d5761372c6132b9565b5b813561373d8482602086016136d6565b91505092915050565b60008083601f84011261375c5761375b6132b9565b5b8235905067ffffffffffffffff811115613779576137786132be565b5b602083019150836020820283011115613795576137946132c3565b5b9250929050565b600080600080600080600080600080600060e08c8e0312156137c1576137c06132af565b5b60008c013567ffffffffffffffff8111156137df576137de6132b4565b5b6137eb8e828f01613718565b9b505060208c013567ffffffffffffffff81111561380c5761380b6132b4565b5b6138188e828f01613718565b9a505060408c013567ffffffffffffffff811115613839576138386132b4565b5b6138458e828f01613718565b99505060608c013567ffffffffffffffff811115613866576138656132b4565b5b6138728e828f01613746565b985098505060808c013567ffffffffffffffff811115613895576138946132b4565b5b6138a18e828f01613746565b965096505060a08c013567ffffffffffffffff8111156138c4576138c36132b4565b5b6138d08e828f016132c8565b945094505060c08c013567ffffffffffffffff8111156138f3576138f26132b4565b5b6138ff8e828f016132c8565b92509250509295989b509295989b9093969950565b600060208201905061392960008301846135b0565b92915050565b60008060208385031215613946576139456132af565b5b600083013567ffffffffffffffff811115613964576139636132b4565b5b613970858286016132c8565b92509250509250929050565b600067ffffffffffffffff8211156139975761399661361b565b5b602082029050602081019050919050565b600067ffffffffffffffff8211156139c3576139c261361b565b5b602082029050602081019050919050565b60006139e76139e2846139a8565b61367b565b90508083825260208201905060208402830185811115613a0a57613a096132c3565b5b835b81811015613a5157803567ffffffffffffffff811115613a2f57613a2e6132b9565b5b808601613a3c8982613718565b85526020850194505050602081019050613a0c565b5050509392505050565b600082601f830112613a7057613a6f6132b9565b5b8135613a808482602086016139d4565b91505092915050565b6000613a9c613a978461397c565b61367b565b90508083825260208201905060208402830185811115613abf57613abe6132c3565b5b835b81811015613b0657803567ffffffffffffffff811115613ae457613ae36132b9565b5b808601613af18982613a5b565b85526020850194505050602081019050613ac1565b5050509392505050565b600082601f830112613b2557613b246132b9565b5b8135613b35848260208601613a89565b91505092915050565b600060208284031215613b5457613b536132af565b5b600082013567ffffffffffffffff811115613b7257613b716132b4565b5b613b7e84828501613b10565b91505092915050565b600081519050919050565b600082825260208201905092915050565b6000819050602082019050919050565b600081519050919050565b600082825260208201905092915050565b6000819050602082019050919050565b600082825260208201905092915050565b6000613bfb82613407565b613c058185613bdf565b9350613c15818560208601613423565b613c1e8161344d565b840191505092915050565b6000613c358383613bf0565b905092915050565b6000602082019050919050565b6000613c5582613bb3565b613c5f8185613bbe565b935083602082028501613c7185613bcf565b8060005b85811015613cad5784840389528151613c8e8582613c29565b9450613c9983613c3d565b925060208a01995050600181019050613c75565b50829750879550505050505092915050565b6000613ccb8383613c4a565b905092915050565b6000602082019050919050565b6000613ceb82613b87565b613cf58185613b92565b935083602082028501613d0785613ba3565b8060005b85811015613d435784840389528151613d248582613cbf565b9450613d2f83613cd3565b925060208a01995050600181019050613d0b565b50829750879550505050505092915050565b60006020820190508181036000830152613d6f8184613ce0565b905092915050565b60008060008060408587031215613d9157613d906132af565b5b600085013567ffffffffffffffff811115613daf57613dae6132b4565b5b613dbb878288016132c8565b9450945050602085013567ffffffffffffffff811115613dde57613ddd6132b4565b5b613dea878288016132c8565b925092505092959194509250565b7f4e487b7100000000000000000000000000000000000000000000000000000000600052602260045260246000fd5b60006002820490506001821680613e3f57607f821691505b602082108103613e5257613e51613df8565b5b50919050565b7f4e487b7100000000000000000000000000000000000000000000000000000000600052603260045260246000fd5b600080fd5b600080fd5b600080fd5b60008083356001602003843603038112613eb357613eb2613e87565b5b80840192508235915067ffffffffffffffff821115613ed557613ed4613e8c565b5b602083019250600182023603831315613ef157613ef0613e91565b5b509250929050565b600082825260208201905092915050565b7f556e617574686f72697a65640000000000000000000000000000000000000000600082015250565b6000613f40600c83613ef9565b9150613f4b82613f0a565b602082019050919050565b60006020820190508181036000830152613f6f81613f33565b9050919050565b60008190508160005260206000209050919050565b60006020601f8301049050919050565b600082821b905092915050565b600060088302613fd87fffffffffffffffffffffffffffffffffffffffffffffffffffffffffffffffff82613f9b565b613fe28683613f9b565b95508019841693508086168417925050509392505050565b6000819050919050565b600061401f61401a614015846135bf565b613ffa565b6135bf565b9050919050565b6000819050919050565b61403983614004565b61404d61404582614026565b848454613fa8565b825550505050565b600090565b614062614055565b61406d818484614030565b505050565b5b818110156140915761408660008261405a565b600181019050614073565b5050565b601f8211156140d6576140a781613f76565b6140b084613f8b565b810160208510156140bf578190505b6140d36140cb85613f8b565b830182614072565b50505b505050565b600082821c905092915050565b60006140f9600019846008026140db565b1980831691505092915050565b600061411283836140e8565b9150826002028217905092915050565b61412b82613407565b67ffffffffffffffff8111156141445761414361361b565b5b61414e8254613e27565b614159828285614095565b600060209050601f83116001811461418c576000841561417a578287015190505b6141848582614106565b8655506141ec565b601f19841661419a86613f76565b60005b828110156141c25784890151825560018201915060208501945060208101905061419d565b868310156141df57848901516141db601f8916826140e8565b8355505b6001600288020188555050505b505050505050565b6000819050919050565b61420f61420a826135bf565b6141f4565b82525050565b600073ffffffffffffffffffffffffffffffffffffffff82169050919050565b600061424082614215565b9050919050565b60008160601b9050919050565b600061425f82614247565b9050919050565b600061427182614254565b9050919050565b61428961428482614235565b614266565b82525050565b600061429b82866141fe565b6020820191506142ab82856141fe565b6020820191506142bb8284614278565b601482019150819050949350505050565b7f4e487b7100000000000000000000000000000000000000000000000000000000600052601260045260246000fd5b6000614306826135bf565b9150614311836135bf565b925082614321576143206142cc565b5b828206905092915050565b7f4e487b7100000000000000000000000000000000000000000000000000000000600052601160045260246000fd5b6000614366826135bf565b9150600082036143795761437861432c565b5b600182039050919050565b600061438f826135bf565b915061439a836135bf565b9250826143aa576143a96142cc565b5b828204905092915050565b60006143c0826135bf565b91506143cb836135bf565b92508282039050818111156143e3576143e261432c565b5b92915050565b60006143f4826135bf565b91506143ff836135bf565b925082820261440d816135bf565b915082820484148315176144245761442361432c565b5b5092915050565b6000614436826135bf565b9150614441836135bf565b92508282019050808211156144595761445861432c565b5b92915050565b6000819050919050565b60006144748261445f565b915061447f8361445f565b925082820261448d8161445f565b91507f800000000000000000000000000000000000000000000000000000000000000084146000841216156144c5576144c461432c565b5b82820584148315176144da576144d961432c565b5b509291505056fea2646970667358221220b55b4047ecb841a4120be144c315592ee7103b315192bbee7b0a327d9d3423bc64736f6c63430008110033",
  "immutableReferences": {
    "2151": [
      {
        "length": 32,
        "start": 7116
      }
    ]
  },
  "source": "// SPDX-License-Identifier: MIT\r\npragma solidity 0.8.17;\r\n\r\nimport \"./BigNumbers.sol\";\r\n\r\ncontract Crypto is IBigNumbers {\r\n\r\n    using BigNumbers for *;\r\n\r\n    BigNumber public prime;        // prime\r\n    BigNumber public g;            // generator\r\n    BigNumber public publicKey;    // public key relative to secret key that has been splitted and shared with each user\r\n\r\n    address immutable owner;\r\n\r\n    // Constructor stores address of owner and cryptographic parameters\r\n    constructor(bytes memory primeVal, bytes memory gVal) {\r\n        owner = msg.sender;\r\n        prime = primeVal.init(false);\r\n        g = gVal.init(false);\r\n    }\r\n  \r\n    // This function stores public key\r\n    function setPublicKey(bytes calldata publicKeyVal) external {\r\n        require(owner == msg.sender, \"Unauthorized\");\r\n        publicKey = publicKeyVal.init(false);\r\n    }\r\n    \r\n    // These function carry out El Gamal algorithm\r\n    function ElGamalEnc(bytes calldata yVal, bytes calldata publicKeyVal, bytes calldata plaintext1Val, bytes calldata plaintext2Val) external view returns (bytes memory, bytes memory) {\r\n        BigNumber memory y = yVal.init(false);\r\n        return (((plaintext1Val.init(false)).modmul(g.prepare_modexp(y, prime), prime)).val, ((plaintext2Val.init(false)).modmul((publicKeyVal.init(false)).prepare_modexp(y, prime), prime)).val);\r\n    }\r\n    function ElGamalDecPart1(bytes calldata c1Val, bytes calldata secretKeyVal) external view returns (bytes memory) {\r\n        return ((c1Val.init(false)).prepare_modexp(secretKeyVal.init(false), prime)).val;\r\n    }\r\n    function ElGamalDecPart2(bytes calldata c2Val, bytes calldata mulDecPart1Val, bytes calldata userResultVal) external view returns (bytes memory) {\r\n        return ((c2Val.init(false)).modmul((mulDecPart1Val.init(false)).mod_inverse(prime, userResultVal.init(false)), prime)).val;\r\n    }\r\n\r\n    // This function verifies the generated proofs by oracles\r\n    function verifyProof(bytes memory sVal, bytes memory cVal, bytes memory tVal, bytes[] calldata oldVal, bytes[] calldata newVal, bytes calldata userResult1Val, bytes calldata userResult2Val) external view returns (bool) {\r\n        BigNumber memory s = sVal.init(false);\r\n        BigNumber memory t = tVal.init(false);\r\n        BigNumber memory c = cVal.init(false);\r\n        BigNumber memory c1_old = oldVal[0].init(false);\r\n        BigNumber memory c2_old = oldVal[1].init(false);\r\n        BigNumber memory c1_new = newVal[0].init(false);\r\n        BigNumber memory c2_new = newVal[1].init(false);\r\n        BigNumber memory res1 = userResult1Val.init(false);\r\n        BigNumber memory res2 = userResult2Val.init(false);\r\n        if( (g.prepare_modexp(t, prime)).cmp((g.prepare_modexp(s, prime)).modmul((c1_new.modmul(c1_old.mod_inverse(prime, res1), prime)).prepare_modexp(c, prime) , prime), false) == 0) {\r\n            if( (publicKey.prepare_modexp(t, prime)).cmp((publicKey.prepare_modexp(s, prime)).modmul((c2_new.modmul(c2_old.mod_inverse(prime, res2), prime)).prepare_modexp(c, prime), prime), false) == 0 ) {\r\n                return true;\r\n            }\r\n            else {\r\n                return false;\r\n            }\r\n        }\r\n        else {\r\n            return false;\r\n        }\r\n    }\r\n\r\n    // This function performs mixing with random permutation\r\n    function shuffle(bytes[][] memory a) external view returns (bytes[][] memory) {\r\n        uint currentIndex = a.length;\r\n        bytes[] memory tmp;\r\n        uint randomIndex;\r\n        while(currentIndex != 0) {\r\n            randomIndex = uint(keccak256(abi.encodePacked(block.timestamp, block.difficulty, msg.sender))) % currentIndex;\r\n            currentIndex--;\r\n            tmp = a[currentIndex];\r\n            a[currentIndex] = a[randomIndex];\r\n            a[randomIndex] = tmp;\r\n        }\r\n        return a;\r\n    }\r\n    \r\n}",
  "sourcePath": "C:\\Users\\Claudio\\Desktop\\Codice\\Approval Vote with Default\\contracts\\Crypto.sol",
  "compiler": {
    "name": "solc",
    "version": "0.8.17+commit.8df45f5f.Emscripten.clang"
  },
  "schemaVersion": "3.4.11",
  "updatedAt": "2023-01-06T18:02:11.150Z",
  "networkType": "ethereum",
  "devdoc": {
    "kind": "dev",
    "methods": {},
    "version": 1
  },
  "userdoc": {
    "kind": "user",
    "methods": {},
    "version": 1
  }
}