{
  "contractName": "Election",
  "abi": [
    {
      "inputs": [],
      "stateMutability": "nonpayable",
      "type": "constructor"
    },
    {
      "inputs": [
        {
          "internalType": "uint256",
          "name": "",
          "type": "uint256"
        }
      ],
      "name": "votersAddress",
      "outputs": [
        {
          "internalType": "address",
          "name": "",
          "type": "address"
        }
      ],
      "stateMutability": "view",
      "type": "function",
      "constant": true
    },
    {
      "inputs": [],
      "name": "registrationPhaseOn",
      "outputs": [],
      "stateMutability": "nonpayable",
      "type": "function"
    },
    {
      "inputs": [],
      "name": "commitPhaseOn",
      "outputs": [],
      "stateMutability": "nonpayable",
      "type": "function"
    },
    {
      "inputs": [],
      "name": "mixnetPhaseOn",
      "outputs": [],
      "stateMutability": "nonpayable",
      "type": "function"
    },
    {
      "inputs": [],
      "name": "verifyPhaseOn",
      "outputs": [],
      "stateMutability": "nonpayable",
      "type": "function"
    },
    {
      "inputs": [],
      "name": "revealPhaseOn",
      "outputs": [],
      "stateMutability": "nonpayable",
      "type": "function"
    },
    {
      "inputs": [],
      "name": "countingPhaseOn",
      "outputs": [],
      "stateMutability": "nonpayable",
      "type": "function"
    },
    {
      "inputs": [
        {
          "internalType": "bytes",
          "name": "_publicKey",
          "type": "bytes"
        }
      ],
      "name": "insertVoters",
      "outputs": [],
      "stateMutability": "nonpayable",
      "type": "function"
    },
    {
      "inputs": [
        {
          "internalType": "uint256[]",
          "name": "a",
          "type": "uint256[]"
        },
        {
          "internalType": "uint256",
          "name": "len",
          "type": "uint256"
        }
      ],
      "name": "sort",
      "outputs": [
        {
          "internalType": "uint256[]",
          "name": "",
          "type": "uint256[]"
        }
      ],
      "stateMutability": "view",
      "type": "function",
      "constant": true
    },
    {
      "inputs": [
        {
          "internalType": "uint256[]",
          "name": "revealedVotes",
          "type": "uint256[]"
        }
      ],
      "name": "countWinner",
      "outputs": [],
      "stateMutability": "nonpayable",
      "type": "function"
    },
    {
      "inputs": [
        {
          "internalType": "address",
          "name": "addr",
          "type": "address"
        }
      ],
      "name": "getPublicKey",
      "outputs": [
        {
          "internalType": "bytes",
          "name": "",
          "type": "bytes"
        }
      ],
      "stateMutability": "view",
      "type": "function",
      "constant": true
    },
    {
      "inputs": [
        {
          "internalType": "address",
          "name": "addr",
          "type": "address"
        }
      ],
      "name": "getWinner",
      "outputs": [
        {
          "internalType": "address",
          "name": "",
          "type": "address"
        }
      ],
      "stateMutability": "view",
      "type": "function",
      "constant": true
    }
  ],
  "bytecode": "0x60a060405234801561001057600080fd5b503373ffffffffffffffffffffffffffffffffffffffff1660808173ffffffffffffffffffffffffffffffffffffffff16815250506080516118d661008360003960008181610206015281816102d0015281816103bb01528181610763015281816109460152610b9901526118d66000f3fe608060405234801561001057600080fd5b50600436106100b45760003560e01c8063b00d2d1f11610071578063b00d2d1f14610153578063b90c899d1461015d578063bb84573f1461018d578063c28731cd14610197578063f58cd0f6146101c7578063f8ec8410146101d1576100b4565b806305fac0c3146100b957806315ae7b5a146100c357806343242daa146100cd578063636d336b146100fd578063857cdbb8146101075780638e2ebafb14610137575b600080fd5b6100c16101ed565b005b6100cb6102b7565b005b6100e760048036038101906100e29190610e6f565b610363565b6040516100f49190610edd565b60405180910390f35b6101056103a2565b005b610121600480360381019061011c9190610f24565b61046c565b60405161012e9190610fe1565b60405180910390f35b610151600480360381019061014c9190611068565b6105cf565b005b61015b61074a565b005b61017760048036038101906101729190610f24565b610814565b6040516101849190610edd565b60405180910390f35b61019561092d565b005b6101b160048036038101906101ac91906111f3565b6109f7565b6040516101be919061130d565b60405180910390f35b6101cf610b80565b005b6101eb60048036038101906101e69190611385565b610c4a565b005b3373ffffffffffffffffffffffffffffffffffffffff167f000000000000000000000000000000000000000000000000000000000000000073ffffffffffffffffffffffffffffffffffffffff1614801561025a575060046000600b9054906101000a900460ff1660ff16145b610299576040517f08c379a00000000000000000000000000000000000000000000000000000000081526004016102909061142f565b60405180910390fd5b60086000600b6101000a81548160ff021916908360ff160217905550565b3373ffffffffffffffffffffffffffffffffffffffff167f000000000000000000000000000000000000000000000000000000000000000073ffffffffffffffffffffffffffffffffffffffff1614610345576040517f08c379a000000000000000000000000000000000000000000000000000000000815260040161033c9061142f565b60405180910390fd5b60016000600b6101000a81548160ff021916908360ff160217905550565b6001818154811061037357600080fd5b906000526020600020016000915054906101000a900473ffffffffffffffffffffffffffffffffffffffff1681565b3373ffffffffffffffffffffffffffffffffffffffff167f000000000000000000000000000000000000000000000000000000000000000073ffffffffffffffffffffffffffffffffffffffff1614801561040f575060106000600b9054906101000a900460ff1660ff16145b61044e576040517f08c379a00000000000000000000000000000000000000000000000000000000081526004016104459061142f565b60405180910390fd5b60206000600b6101000a81548160ff021916908360ff160217905550565b6060600260003373ffffffffffffffffffffffffffffffffffffffff1673ffffffffffffffffffffffffffffffffffffffff16815260200190815260200160002060010160009054906101000a900460ff166104fd576040517f08c379a00000000000000000000000000000000000000000000000000000000081526004016104f49061142f565b60405180910390fd5b600260008373ffffffffffffffffffffffffffffffffffffffff1673ffffffffffffffffffffffffffffffffffffffff168152602001908152602001600020600001805461054a9061147e565b80601f01602080910402602001604051908101604052809291908181526020018280546105769061147e565b80156105c35780601f10610598576101008083540402835291602001916105c3565b820191906000526020600020905b8154815290600101906020018083116105a657829003601f168201915b50505050509050919050565b60016000600b9054906101000a900460ff1660ff1614610624576040517f08c379a000000000000000000000000000000000000000000000000000000000815260040161061b906114fb565b60405180910390fd5b6001339080600181540180825580915050600190039060005260206000200160009091909190916101000a81548173ffffffffffffffffffffffffffffffffffffffff021916908373ffffffffffffffffffffffffffffffffffffffff1602179055506000600260003373ffffffffffffffffffffffffffffffffffffffff1673ffffffffffffffffffffffffffffffffffffffff168152602001908152602001600020905082828260000191826106dd9291906116d2565b5060018160010160006101000a81548160ff02191690831515021790555060008081819054906101000a90046affffffffffffffffffffff1660010191906101000a8154816affffffffffffffffffffff02191690836affffffffffffffffffffff160217905550505050565b3373ffffffffffffffffffffffffffffffffffffffff167f000000000000000000000000000000000000000000000000000000000000000073ffffffffffffffffffffffffffffffffffffffff161480156107b7575060026000600b9054906101000a900460ff1660ff16145b6107f6576040517f08c379a00000000000000000000000000000000000000000000000000000000081526004016107ed9061142f565b60405180910390fd5b60046000600b6101000a81548160ff021916908360ff160217905550565b6000600260003373ffffffffffffffffffffffffffffffffffffffff1673ffffffffffffffffffffffffffffffffffffffff16815260200190815260200160002060010160009054906101000a900460ff166108a5576040517f08c379a000000000000000000000000000000000000000000000000000000000815260040161089c9061142f565b60405180910390fd5b6001600260008473ffffffffffffffffffffffffffffffffffffffff1673ffffffffffffffffffffffffffffffffffffffff16815260200190815260200160002060020154815481106108fb576108fa6117a2565b5b9060005260206000200160009054906101000a900473ffffffffffffffffffffffffffffffffffffffff169050919050565b3373ffffffffffffffffffffffffffffffffffffffff167f000000000000000000000000000000000000000000000000000000000000000073ffffffffffffffffffffffffffffffffffffffff1614801561099a575060086000600b9054906101000a900460ff1660ff16145b6109d9576040517f08c379a00000000000000000000000000000000000000000000000000000000081526004016109d09061142f565b60405180910390fd5b60106000600b6101000a81548160ff021916908360ff160217905550565b6060600260003373ffffffffffffffffffffffffffffffffffffffff1673ffffffffffffffffffffffffffffffffffffffff16815260200190815260200160002060010160009054906101000a900460ff16610a88576040517f08c379a0000000000000000000000000000000000000000000000000000000008152600401610a7f9061142f565b60405180910390fd5b6000600190505b82811015610b76576000848281518110610aac57610aab6117a2565b5b6020026020010151905060008290505b60018110158015610af2575085600182610ad69190611800565b81518110610ae757610ae66117a2565b5b602002602001015182105b15610b495785600182610b059190611800565b81518110610b1657610b156117a2565b5b6020026020010151868281518110610b3157610b306117a2565b5b60200260200101818152505080600190039050610abc565b81868281518110610b5d57610b5c6117a2565b5b6020026020010181815250508260010192505050610a8f565b5082905092915050565b3373ffffffffffffffffffffffffffffffffffffffff167f000000000000000000000000000000000000000000000000000000000000000073ffffffffffffffffffffffffffffffffffffffff16148015610bed575060016000600b9054906101000a900460ff1660ff16145b610c2c576040517f08c379a0000000000000000000000000000000000000000000000000000000008152600401610c239061142f565b60405180910390fd5b60026000600b6101000a81548160ff021916908360ff160217905550565b600260003373ffffffffffffffffffffffffffffffffffffffff1673ffffffffffffffffffffffffffffffffffffffff16815260200190815260200160002060010160009054906101000a900460ff16610cd9576040517f08c379a0000000000000000000000000000000000000000000000000000000008152600401610cd09061142f565b60405180910390fd5b60206000600b9054906101000a900460ff1660ff1614610d2e576040517f08c379a0000000000000000000000000000000000000000000000000000000008152600401610d2590611880565b60405180910390fd5b60008060008085859050905060005b60008054906101000a90046affffffffffffffffffffff166affffffffffffffffffffff16811015610dd5576000808490505b83811015610db957888882818110610d8b57610d8a6117a2565b5b905060200201358303610da957846001019450816001019150610dae565b610db9565b806001019050610d70565b5085811115610dc9578095508194505b81600101915050610d3d565b5082600260003373ffffffffffffffffffffffffffffffffffffffff1673ffffffffffffffffffffffffffffffffffffffff16815260200190815260200160002060020181905550505050505050565b6000604051905090565b600080fd5b600080fd5b6000819050919050565b610e4c81610e39565b8114610e5757600080fd5b50565b600081359050610e6981610e43565b92915050565b600060208284031215610e8557610e84610e2f565b5b6000610e9384828501610e5a565b91505092915050565b600073ffffffffffffffffffffffffffffffffffffffff82169050919050565b6000610ec782610e9c565b9050919050565b610ed781610ebc565b82525050565b6000602082019050610ef26000830184610ece565b92915050565b610f0181610ebc565b8114610f0c57600080fd5b50565b600081359050610f1e81610ef8565b92915050565b600060208284031215610f3a57610f39610e2f565b5b6000610f4884828501610f0f565b91505092915050565b600081519050919050565b600082825260208201905092915050565b60005b83811015610f8b578082015181840152602081019050610f70565b60008484015250505050565b6000601f19601f8301169050919050565b6000610fb382610f51565b610fbd8185610f5c565b9350610fcd818560208601610f6d565b610fd681610f97565b840191505092915050565b60006020820190508181036000830152610ffb8184610fa8565b905092915050565b600080fd5b600080fd5b600080fd5b60008083601f84011261102857611027611003565b5b8235905067ffffffffffffffff81111561104557611044611008565b5b6020830191508360018202830111156110615761106061100d565b5b9250929050565b6000806020838503121561107f5761107e610e2f565b5b600083013567ffffffffffffffff81111561109d5761109c610e34565b5b6110a985828601611012565b92509250509250929050565b7f4e487b7100000000000000000000000000000000000000000000000000000000600052604160045260246000fd5b6110ed82610f97565b810181811067ffffffffffffffff8211171561110c5761110b6110b5565b5b80604052505050565b600061111f610e25565b905061112b82826110e4565b919050565b600067ffffffffffffffff82111561114b5761114a6110b5565b5b602082029050602081019050919050565b600061116f61116a84611130565b611115565b905080838252602082019050602084028301858111156111925761119161100d565b5b835b818110156111bb57806111a78882610e5a565b845260208401935050602081019050611194565b5050509392505050565b600082601f8301126111da576111d9611003565b5b81356111ea84826020860161115c565b91505092915050565b6000806040838503121561120a57611209610e2f565b5b600083013567ffffffffffffffff81111561122857611227610e34565b5b611234858286016111c5565b925050602061124585828601610e5a565b9150509250929050565b600081519050919050565b600082825260208201905092915050565b6000819050602082019050919050565b61128481610e39565b82525050565b6000611296838361127b565b60208301905092915050565b6000602082019050919050565b60006112ba8261124f565b6112c4818561125a565b93506112cf8361126b565b8060005b838110156113005781516112e7888261128a565b97506112f2836112a2565b9250506001810190506112d3565b5085935050505092915050565b6000602082019050818103600083015261132781846112af565b905092915050565b60008083601f84011261134557611344611003565b5b8235905067ffffffffffffffff81111561136257611361611008565b5b60208301915083602082028301111561137e5761137d61100d565b5b9250929050565b6000806020838503121561139c5761139b610e2f565b5b600083013567ffffffffffffffff8111156113ba576113b9610e34565b5b6113c68582860161132f565b92509250509250929050565b600082825260208201905092915050565b7f556e617574686f72697a65640000000000000000000000000000000000000000600082015250565b6000611419600c836113d2565b9150611424826113e3565b602082019050919050565b600060208201905081810360008301526114488161140c565b9050919050565b7f4e487b7100000000000000000000000000000000000000000000000000000000600052602260045260246000fd5b6000600282049050600182168061149657607f821691505b6020821081036114a9576114a861144f565b5b50919050565b7f4e6f74526567697374726174696f6e5068617365000000000000000000000000600082015250565b60006114e56014836113d2565b91506114f0826114af565b602082019050919050565b60006020820190508181036000830152611514816114d8565b9050919050565b600082905092915050565b60008190508160005260206000209050919050565b60006020601f8301049050919050565b600082821b905092915050565b6000600883026115887fffffffffffffffffffffffffffffffffffffffffffffffffffffffffffffffff8261154b565b611592868361154b565b95508019841693508086168417925050509392505050565b6000819050919050565b60006115cf6115ca6115c584610e39565b6115aa565b610e39565b9050919050565b6000819050919050565b6115e9836115b4565b6115fd6115f5826115d6565b848454611558565b825550505050565b600090565b611612611605565b61161d8184846115e0565b505050565b5b818110156116415761163660008261160a565b600181019050611623565b5050565b601f8211156116865761165781611526565b6116608461153b565b8101602085101561166f578190505b61168361167b8561153b565b830182611622565b50505b505050565b600082821c905092915050565b60006116a96000198460080261168b565b1980831691505092915050565b60006116c28383611698565b9150826002028217905092915050565b6116dc838361151b565b67ffffffffffffffff8111156116f5576116f46110b5565b5b6116ff825461147e565b61170a828285611645565b6000601f8311600181146117395760008415611727578287013590505b61173185826116b6565b865550611799565b601f19841661174786611526565b60005b8281101561176f5784890135825560018201915060208501945060208101905061174a565b8683101561178c5784890135611788601f891682611698565b8355505b6001600288020188555050505b50505050505050565b7f4e487b7100000000000000000000000000000000000000000000000000000000600052603260045260246000fd5b7f4e487b7100000000000000000000000000000000000000000000000000000000600052601160045260246000fd5b600061180b82610e39565b915061181683610e39565b925082820390508181111561182e5761182d6117d1565b5b92915050565b7f4e6f74436f756e74696e67506861736500000000000000000000000000000000600082015250565b600061186a6010836113d2565b915061187582611834565b602082019050919050565b600060208201905081810360008301526118998161185d565b905091905056fea2646970667358221220839ee6e89ae79168534537ad4cd4f295d0be0b3bf78089bd591b6955d897072a64736f6c63430008110033",
  "immutableReferences": {
    "2586": [
      {
        "length": 32,
        "start": 518
      },
      {
        "length": 32,
        "start": 720
      },
      {
        "length": 32,
        "start": 955
      },
      {
        "length": 32,
        "start": 1891
      },
      {
        "length": 32,
        "start": 2374
      },
      {
        "length": 32,
        "start": 2969
      }
    ]
  },
  "source": "// SPDX-License-Identifier: MIT\r\npragma solidity 0.8.17;\r\n\r\nimport \"./BigNumbers.sol\";\r\n\r\ncontract Election {\r\n\r\n  uint88 countVoters;\r\n  uint8 boolean; // Nan, Nan, countingPhase, revealPhase, verifyPhase, mixnetPhase, commitPhase, registrationPhase\r\n  address immutable owner;\r\n\r\n  address[] public votersAddress;\r\n\r\n  struct Voter {\r\n    bytes publicKey;\r\n    bool checkAddress;\r\n    uint winner;\r\n  }\r\n  mapping(address => Voter) mapVoters;\r\n\r\n  // Function constructor is used to initialize state variables of a contract\r\n  constructor() {\r\n    owner = msg.sender;\r\n  }\r\n\r\n  // These functions update election's status\r\n  function registrationPhaseOn() external {\r\n    require(owner == msg.sender, \"Unauthorized\");\r\n    boolean = 1;\r\n  }\r\n  function commitPhaseOn() external {\r\n    require(owner == msg.sender && boolean == 1, \"Unauthorized\");\r\n    boolean = 2;\r\n  }\r\n  function mixnetPhaseOn() external {\r\n    require(owner == msg.sender && boolean == 2, \"Unauthorized\");\r\n    boolean = 4;\r\n  }\r\n  function verifyPhaseOn() external {\r\n    require(owner == msg.sender && boolean == 4, \"Unauthorized\");\r\n    boolean = 8;\r\n  }\r\n  function revealPhaseOn() external {\r\n    require(owner == msg.sender && boolean == 8, \"Unauthorized\");\r\n    boolean = 16;\r\n  }\r\n  function countingPhaseOn() external {\r\n    require(owner == msg.sender && boolean == 16, \"Unauthorized\");\r\n    boolean = 32;\r\n  }\r\n\r\n  // This functions store voters\r\n  function insertVoters(bytes calldata _publicKey) external {\r\n    require(boolean == 1, \"NotRegistrationPhase\");\r\n    votersAddress.push(msg.sender);\r\n    Voter storage v = mapVoters[msg.sender];\r\n    v.publicKey = _publicKey;\r\n    v.checkAddress = true;\r\n    unchecked {\r\n      ++countVoters;\r\n    }\r\n  }\r\n\r\n  // This function sorts in increasing order given revealed votes\r\n  function sort(uint[] memory a, uint len) external view returns (uint[] memory) {\r\n    require(mapVoters[msg.sender].checkAddress, \"Unauthorized\");\r\n    for(uint i = 1; i < len;) {\r\n      uint temp = a[i];\r\n      uint k = i;\r\n      while((k >= 1) && (temp < a[k - 1])) {\r\n        a[k] = a[k - 1];\r\n        unchecked {\r\n          --k; \r\n        }        \r\n      }\r\n      a[k] = temp;\r\n      unchecked {\r\n        ++i;\r\n      }\r\n    }\r\n    return a;\r\n  }\r\n\r\n  // This function carries out the electoral count\r\n  function countWinner(uint[] calldata revealedVotes) external {\r\n    require(mapVoters[msg.sender].checkAddress, \"Unauthorized\");\r\n    require(boolean == 32, \"NotCountingPhase\");\r\n    uint max;\r\n    uint tmpWinner;\r\n    uint lastPos;\r\n    uint len = revealedVotes.length;\r\n    for(uint i; i < countVoters;) {\r\n      uint count;\r\n      for(uint j = lastPos; j < len;) {\r\n        if(i == revealedVotes[j]) {\r\n          unchecked {\r\n            ++lastPos;\r\n            ++count;\r\n          }\r\n        }\r\n        else {\r\n          break;\r\n        }\r\n        unchecked {\r\n          ++j;\r\n        }\r\n      }\r\n      if(count > max) {\r\n        max = count;\r\n        tmpWinner = i;\r\n      }\r\n      unchecked {\r\n        ++i;\r\n      }\r\n    }\r\n    mapVoters[msg.sender].winner = tmpWinner;\r\n  }\r\n\r\n  function getPublicKey(address addr) external view returns (bytes memory) {\r\n    require(mapVoters[msg.sender].checkAddress, \"Unauthorized\");\r\n    return mapVoters[addr].publicKey;\r\n  }\r\n\r\n  // Voters can verify that the winner is the same for all other voters\r\n  function getWinner(address addr) external view returns (address) {\r\n    require(mapVoters[msg.sender].checkAddress, \"Unauthorized\");\r\n    return votersAddress[mapVoters[addr].winner];\r\n  }\r\n\r\n}",
  "sourcePath": "C:\\Users\\Claudio\\Desktop\\Codice\\Approval Vote with Default\\contracts\\Election.sol",
  "compiler": {
    "name": "solc",
    "version": "0.8.17+commit.8df45f5f.Emscripten.clang"
  },
  "schemaVersion": "3.4.11",
  "updatedAt": "2023-01-06T18:02:10.889Z",
  "networkType": "ethereum",
  "devdoc": {
    "kind": "dev",
    "methods": {},
    "version": 1
  },
  "userdoc": {
    "kind": "user",
    "methods": {},
    "version": 1
  }
}