{
  "contractName": "IpfsStorage",
  "abi": [
    {
      "inputs": [],
      "stateMutability": "nonpayable",
      "type": "constructor"
    },
    {
      "inputs": [],
      "name": "PartSecret",
      "outputs": [
        {
          "internalType": "string",
          "name": "",
          "type": "string"
        }
      ],
      "stateMutability": "view",
      "type": "function",
      "constant": true
    },
    {
      "inputs": [
        {
          "internalType": "address",
          "name": "",
          "type": "address"
        }
      ],
      "name": "mapHash",
      "outputs": [
        {
          "internalType": "string",
          "name": "CommittedVotes",
          "type": "string"
        },
        {
          "internalType": "string",
          "name": "ReEncryption",
          "type": "string"
        },
        {
          "internalType": "string",
          "name": "DecryptionC1",
          "type": "string"
        },
        {
          "internalType": "string",
          "name": "Proofs",
          "type": "string"
        },
        {
          "internalType": "string",
          "name": "Votes",
          "type": "string"
        }
      ],
      "stateMutability": "view",
      "type": "function",
      "constant": true
    },
    {
      "inputs": [
        {
          "internalType": "string",
          "name": "hashIpfs",
          "type": "string"
        }
      ],
      "name": "setCypher",
      "outputs": [],
      "stateMutability": "nonpayable",
      "type": "function"
    },
    {
      "inputs": [
        {
          "internalType": "address",
          "name": "addr",
          "type": "address"
        },
        {
          "internalType": "string",
          "name": "hashIpfs",
          "type": "string"
        }
      ],
      "name": "setCommitVotes",
      "outputs": [],
      "stateMutability": "nonpayable",
      "type": "function"
    },
    {
      "inputs": [
        {
          "internalType": "address",
          "name": "addr",
          "type": "address"
        },
        {
          "internalType": "string",
          "name": "hashIpfs",
          "type": "string"
        }
      ],
      "name": "setCommitReEnc",
      "outputs": [],
      "stateMutability": "nonpayable",
      "type": "function"
    },
    {
      "inputs": [
        {
          "internalType": "address",
          "name": "addr",
          "type": "address"
        },
        {
          "internalType": "string",
          "name": "hashIpfs",
          "type": "string"
        }
      ],
      "name": "setProof",
      "outputs": [],
      "stateMutability": "nonpayable",
      "type": "function"
    },
    {
      "inputs": [
        {
          "internalType": "address",
          "name": "addr",
          "type": "address"
        },
        {
          "internalType": "string",
          "name": "hashIpfs",
          "type": "string"
        }
      ],
      "name": "setDecC1",
      "outputs": [],
      "stateMutability": "nonpayable",
      "type": "function"
    },
    {
      "inputs": [
        {
          "internalType": "address",
          "name": "addr",
          "type": "address"
        },
        {
          "internalType": "string",
          "name": "hashIpfs",
          "type": "string"
        }
      ],
      "name": "setRevealVotes",
      "outputs": [],
      "stateMutability": "nonpayable",
      "type": "function"
    }
  ],
  "bytecode": "0x60a060405234801561001057600080fd5b503373ffffffffffffffffffffffffffffffffffffffff1660808173ffffffffffffffffffffffffffffffffffffffff16815250506080516113816100606000396000610b6a01526113816000f3fe608060405234801561001057600080fd5b50600436106100885760003560e01c80634da25b411161005b5780634da25b41146100fd57806371da5491146101195780638bb920ab14610137578063b144248e1461016b57610088565b80630df46ffa1461008d57806336860b04146100a9578063419b3b22146100c55780634a5cfa3c146100e1575b600080fd5b6100a760048036038101906100a29190610d03565b610187565b005b6100c360048036038101906100be9190610d03565b6102cd565b005b6100df60048036038101906100da9190610d03565b610413565b005b6100fb60048036038101906100f69190610d03565b610559565b005b61011760048036038101906101129190610d03565b61069f565b005b6101216107e5565b60405161012e9190610df3565b60405180910390f35b610151600480360381019061014c9190610e15565b610873565b604051610162959493929190610e42565b60405180910390f35b61018560048036038101906101809190610eb8565b610b51565b005b3373ffffffffffffffffffffffffffffffffffffffff168373ffffffffffffffffffffffffffffffffffffffff1614801561023757507fc5d2460186f7233c927e7db2dcc703c0e500b653ca82273b7bfad8045d85a470600160008573ffffffffffffffffffffffffffffffffffffffff1673ffffffffffffffffffffffffffffffffffffffff16815260200190815260200160002060000160405161022d9190611008565b6040518091039020145b610276576040517f08c379a000000000000000000000000000000000000000000000000000000000815260040161026d9061106b565b60405180910390fd5b8181600160008673ffffffffffffffffffffffffffffffffffffffff1673ffffffffffffffffffffffffffffffffffffffff16815260200190815260200160002060000191826102c792919061127b565b50505050565b3373ffffffffffffffffffffffffffffffffffffffff168373ffffffffffffffffffffffffffffffffffffffff1614801561037d57507fc5d2460186f7233c927e7db2dcc703c0e500b653ca82273b7bfad8045d85a470600160008573ffffffffffffffffffffffffffffffffffffffff1673ffffffffffffffffffffffffffffffffffffffff1681526020019081526020016000206002016040516103739190611008565b6040518091039020145b6103bc576040517f08c379a00000000000000000000000000000000000000000000000000000000081526004016103b39061106b565b60405180910390fd5b8181600160008673ffffffffffffffffffffffffffffffffffffffff1673ffffffffffffffffffffffffffffffffffffffff168152602001908152602001600020600201918261040d92919061127b565b50505050565b3373ffffffffffffffffffffffffffffffffffffffff168373ffffffffffffffffffffffffffffffffffffffff161480156104c357507fc5d2460186f7233c927e7db2dcc703c0e500b653ca82273b7bfad8045d85a470600160008573ffffffffffffffffffffffffffffffffffffffff1673ffffffffffffffffffffffffffffffffffffffff1681526020019081526020016000206004016040516104b99190611008565b6040518091039020145b610502576040517f08c379a00000000000000000000000000000000000000000000000000000000081526004016104f99061106b565b60405180910390fd5b8181600160008673ffffffffffffffffffffffffffffffffffffffff1673ffffffffffffffffffffffffffffffffffffffff168152602001908152602001600020600401918261055392919061127b565b50505050565b3373ffffffffffffffffffffffffffffffffffffffff168373ffffffffffffffffffffffffffffffffffffffff1614801561060957507fc5d2460186f7233c927e7db2dcc703c0e500b653ca82273b7bfad8045d85a470600160008573ffffffffffffffffffffffffffffffffffffffff1673ffffffffffffffffffffffffffffffffffffffff1681526020019081526020016000206003016040516105ff9190611008565b6040518091039020145b610648576040517f08c379a000000000000000000000000000000000000000000000000000000000815260040161063f9061106b565b60405180910390fd5b8181600160008673ffffffffffffffffffffffffffffffffffffffff1673ffffffffffffffffffffffffffffffffffffffff168152602001908152602001600020600301918261069992919061127b565b50505050565b3373ffffffffffffffffffffffffffffffffffffffff168373ffffffffffffffffffffffffffffffffffffffff1614801561074f57507fc5d2460186f7233c927e7db2dcc703c0e500b653ca82273b7bfad8045d85a470600160008573ffffffffffffffffffffffffffffffffffffffff1673ffffffffffffffffffffffffffffffffffffffff1681526020019081526020016000206001016040516107459190611008565b6040518091039020145b61078e576040517f08c379a00000000000000000000000000000000000000000000000000000000081526004016107859061106b565b60405180910390fd5b8181600160008673ffffffffffffffffffffffffffffffffffffffff1673ffffffffffffffffffffffffffffffffffffffff16815260200190815260200160002060010191826107df92919061127b565b50505050565b600080546107f290610f34565b80601f016020809104026020016040519081016040528092919081815260200182805461081e90610f34565b801561086b5780601f106108405761010080835404028352916020019161086b565b820191906000526020600020905b81548152906001019060200180831161084e57829003601f168201915b505050505081565b600160205280600052604060002060009150905080600001805461089690610f34565b80601f01602080910402602001604051908101604052809291908181526020018280546108c290610f34565b801561090f5780601f106108e45761010080835404028352916020019161090f565b820191906000526020600020905b8154815290600101906020018083116108f257829003601f168201915b50505050509080600101805461092490610f34565b80601f016020809104026020016040519081016040528092919081815260200182805461095090610f34565b801561099d5780601f106109725761010080835404028352916020019161099d565b820191906000526020600020905b81548152906001019060200180831161098057829003601f168201915b5050505050908060020180546109b290610f34565b80601f01602080910402602001604051908101604052809291908181526020018280546109de90610f34565b8015610a2b5780601f10610a0057610100808354040283529160200191610a2b565b820191906000526020600020905b815481529060010190602001808311610a0e57829003601f168201915b505050505090806003018054610a4090610f34565b80601f0160208091040260200160405190810160405280929190818152602001828054610a6c90610f34565b8015610ab95780601f10610a8e57610100808354040283529160200191610ab9565b820191906000526020600020905b815481529060010190602001808311610a9c57829003601f168201915b505050505090806004018054610ace90610f34565b80601f0160208091040260200160405190810160405280929190818152602001828054610afa90610f34565b8015610b475780601f10610b1c57610100808354040283529160200191610b47565b820191906000526020600020905b815481529060010190602001808311610b2a57829003601f168201915b5050505050905085565b3373ffffffffffffffffffffffffffffffffffffffff167f000000000000000000000000000000000000000000000000000000000000000073ffffffffffffffffffffffffffffffffffffffff16148015610be157507fc5d2460186f7233c927e7db2dcc703c0e500b653ca82273b7bfad8045d85a4706000604051610bd79190611008565b6040518091039020145b610c20576040517f08c379a0000000000000000000000000000000000000000000000000000000008152600401610c179061106b565b60405180910390fd5b818160009182610c3192919061127b565b505050565b600080fd5b600080fd5b600073ffffffffffffffffffffffffffffffffffffffff82169050919050565b6000610c6b82610c40565b9050919050565b610c7b81610c60565b8114610c8657600080fd5b50565b600081359050610c9881610c72565b92915050565b600080fd5b600080fd5b600080fd5b60008083601f840112610cc357610cc2610c9e565b5b8235905067ffffffffffffffff811115610ce057610cdf610ca3565b5b602083019150836001820283011115610cfc57610cfb610ca8565b5b9250929050565b600080600060408486031215610d1c57610d1b610c36565b5b6000610d2a86828701610c89565b935050602084013567ffffffffffffffff811115610d4b57610d4a610c3b565b5b610d5786828701610cad565b92509250509250925092565b600081519050919050565b600082825260208201905092915050565b60005b83811015610d9d578082015181840152602081019050610d82565b60008484015250505050565b6000601f19601f8301169050919050565b6000610dc582610d63565b610dcf8185610d6e565b9350610ddf818560208601610d7f565b610de881610da9565b840191505092915050565b60006020820190508181036000830152610e0d8184610dba565b905092915050565b600060208284031215610e2b57610e2a610c36565b5b6000610e3984828501610c89565b91505092915050565b600060a0820190508181036000830152610e5c8188610dba565b90508181036020830152610e708187610dba565b90508181036040830152610e848186610dba565b90508181036060830152610e988185610dba565b90508181036080830152610eac8184610dba565b90509695505050505050565b60008060208385031215610ecf57610ece610c36565b5b600083013567ffffffffffffffff811115610eed57610eec610c3b565b5b610ef985828601610cad565b92509250509250929050565b7f4e487b7100000000000000000000000000000000000000000000000000000000600052602260045260246000fd5b60006002820490506001821680610f4c57607f821691505b602082108103610f5f57610f5e610f05565b5b50919050565b600081905092915050565b60008190508160005260206000209050919050565b60008154610f9281610f34565b610f9c8186610f65565b94506001821660008114610fb75760018114610fcc57610fff565b60ff1983168652811515820286019350610fff565b610fd585610f70565b60005b83811015610ff757815481890152600182019150602081019050610fd8565b838801955050505b50505092915050565b60006110148284610f85565b915081905092915050565b7f57726974696e672064656e696564000000000000000000000000000000000000600082015250565b6000611055600e83610d6e565b91506110608261101f565b602082019050919050565b6000602082019050818103600083015261108481611048565b9050919050565b600082905092915050565b7f4e487b7100000000000000000000000000000000000000000000000000000000600052604160045260246000fd5b60008190508160005260206000209050919050565b60006020601f8301049050919050565b600082821b905092915050565b6000600883026111277fffffffffffffffffffffffffffffffffffffffffffffffffffffffffffffffff826110ea565b61113186836110ea565b95508019841693508086168417925050509392505050565b6000819050919050565b6000819050919050565b600061117861117361116e84611149565b611153565b611149565b9050919050565b6000819050919050565b6111928361115d565b6111a661119e8261117f565b8484546110f7565b825550505050565b600090565b6111bb6111ae565b6111c6818484611189565b505050565b5b818110156111ea576111df6000826111b3565b6001810190506111cc565b5050565b601f82111561122f57611200816110c5565b611209846110da565b81016020851015611218578190505b61122c611224856110da565b8301826111cb565b50505b505050565b600082821c905092915050565b600061125260001984600802611234565b1980831691505092915050565b600061126b8383611241565b9150826002028217905092915050565b611285838361108b565b67ffffffffffffffff81111561129e5761129d611096565b5b6112a88254610f34565b6112b38282856111ee565b6000601f8311600181146112e257600084156112d0578287013590505b6112da858261125f565b865550611342565b601f1984166112f0866110c5565b60005b82811015611318578489013582556001820191506020850194506020810190506112f3565b868310156113355784890135611331601f891682611241565b8355505b6001600288020188555050505b5050505050505056fea2646970667358221220c24fd59d8fda66154992d6ead57d3eca4c97fd88f53729cf35b4b443cf98e0db64736f6c63430008110033",
  "immutableReferences": {
    "3015": [
      {
        "length": 32,
        "start": 2922
      }
    ]
  },
  "source": "// SPDX-License-Identifier: MIT\r\npragma solidity 0.8.17;\r\npragma experimental ABIEncoderV2;\r\n\r\ncontract IpfsStorage {\r\n\r\n  address immutable owner;\r\n  string public PartSecret;\r\n\r\n  struct HashIPFS {\r\n    string CommittedVotes;\r\n    string ReEncryption;\r\n    string DecryptionC1;\r\n    string Proofs;\r\n    string Votes;\r\n  }\r\n  mapping(address => HashIPFS) public mapHash;\r\n\r\n  constructor() {\r\n    owner = msg.sender;\r\n  }\r\n\r\n  // These functions stores IPFS hash relative to file that has been added on IPFS\r\n  function setCypher(string calldata hashIpfs) external {\r\n    require(owner == msg.sender && keccak256(bytes(PartSecret)) == keccak256(''), \"Writing denied\");\r\n    PartSecret = hashIpfs;\r\n  }\r\n  function setCommitVotes(address addr, string calldata hashIpfs) external {\r\n    require(addr == msg.sender && keccak256(bytes(mapHash[addr].CommittedVotes)) == keccak256(''), \"Writing denied\");\r\n    mapHash[addr].CommittedVotes = hashIpfs;\r\n  }\r\n  function setCommitReEnc(address addr, string calldata hashIpfs) external {\r\n    require(addr == msg.sender && keccak256(bytes(mapHash[addr].ReEncryption)) == keccak256(''), \"Writing denied\");\r\n    mapHash[addr].ReEncryption = hashIpfs;\r\n  }\r\n  function setProof(address addr, string calldata hashIpfs) external {\r\n    require(addr == msg.sender && keccak256(bytes(mapHash[addr].Proofs)) == keccak256(''), \"Writing denied\");\r\n    mapHash[addr].Proofs = hashIpfs;\r\n  }\r\n  function setDecC1(address addr, string calldata hashIpfs) external {\r\n    require(addr == msg.sender && keccak256(bytes(mapHash[addr].DecryptionC1)) == keccak256(''), \"Writing denied\");\r\n    mapHash[addr].DecryptionC1 = hashIpfs;\r\n  }\r\n  function setRevealVotes(address addr, string calldata hashIpfs) external {\r\n    require(addr == msg.sender && keccak256(bytes(mapHash[addr].Votes)) == keccak256(''), \"Writing denied\");\r\n    mapHash[addr].Votes = hashIpfs;\r\n  }\r\n\r\n}",
  "sourcePath": "C:\\Users\\Claudio\\Desktop\\Codice\\Approval Vote with Default\\contracts\\IpfsStorage.sol",
  "compiler": {
    "name": "solc",
    "version": "0.8.17+commit.8df45f5f.Emscripten.clang"
  },
  "schemaVersion": "3.4.11",
  "updatedAt": "2023-01-06T18:02:11.298Z",
  "networkType": "ethereum",
  "devdoc": {
    "kind": "dev",
    "methods": {},
    "version": 1
  },
  "userdoc": {
    "kind": "user",
    "methods": {},
    "version": 1
  }
}