{
  "contractName": "Election",
  "abi": [
    {
      "inputs": [],
      "stateMutability": "nonpayable",
      "type": "constructor"
    },
    {
      "inputs": [
        {
          "internalType": "uint256",
          "name": "",
          "type": "uint256"
        }
      ],
      "name": "votersAddress",
      "outputs": [
        {
          "internalType": "address",
          "name": "",
          "type": "address"
        }
      ],
      "stateMutability": "view",
      "type": "function",
      "constant": true
    },
    {
      "inputs": [],
      "name": "registrationPhaseOn",
      "outputs": [],
      "stateMutability": "nonpayable",
      "type": "function"
    },
    {
      "inputs": [],
      "name": "commitPhaseOn",
      "outputs": [],
      "stateMutability": "nonpayable",
      "type": "function"
    },
    {
      "inputs": [],
      "name": "samplingPhaseOn",
      "outputs": [],
      "stateMutability": "nonpayable",
      "type": "function"
    },
    {
      "inputs": [],
      "name": "mixnetPhaseOn",
      "outputs": [],
      "stateMutability": "nonpayable",
      "type": "function"
    },
    {
      "inputs": [],
      "name": "verifyPhaseOn",
      "outputs": [],
      "stateMutability": "nonpayable",
      "type": "function"
    },
    {
      "inputs": [],
      "name": "revealPhaseOn",
      "outputs": [],
      "stateMutability": "nonpayable",
      "type": "function"
    },
    {
      "inputs": [],
      "name": "countingPhaseOn",
      "outputs": [],
      "stateMutability": "nonpayable",
      "type": "function"
    },
    {
      "inputs": [
        {
          "internalType": "bytes",
          "name": "_publicKey",
          "type": "bytes"
        }
      ],
      "name": "insertVoters",
      "outputs": [],
      "stateMutability": "nonpayable",
      "type": "function"
    },
    {
      "inputs": [
        {
          "internalType": "uint256[]",
          "name": "a",
          "type": "uint256[]"
        },
        {
          "internalType": "uint256",
          "name": "len",
          "type": "uint256"
        }
      ],
      "name": "sort",
      "outputs": [
        {
          "internalType": "uint256[]",
          "name": "",
          "type": "uint256[]"
        }
      ],
      "stateMutability": "view",
      "type": "function",
      "constant": true
    },
    {
      "inputs": [
        {
          "internalType": "uint256[]",
          "name": "revealedVotes",
          "type": "uint256[]"
        }
      ],
      "name": "countWinner",
      "outputs": [],
      "stateMutability": "nonpayable",
      "type": "function"
    },
    {
      "inputs": [
        {
          "internalType": "address",
          "name": "addr",
          "type": "address"
        }
      ],
      "name": "getPublicKey",
      "outputs": [
        {
          "internalType": "bytes",
          "name": "",
          "type": "bytes"
        }
      ],
      "stateMutability": "view",
      "type": "function",
      "constant": true
    },
    {
      "inputs": [
        {
          "internalType": "address",
          "name": "addr",
          "type": "address"
        }
      ],
      "name": "getWinner",
      "outputs": [
        {
          "internalType": "address",
          "name": "",
          "type": "address"
        }
      ],
      "stateMutability": "view",
      "type": "function",
      "constant": true
    }
  ],
  "bytecode": "0x60a060405234801561001057600080fd5b503373ffffffffffffffffffffffffffffffffffffffff1660808173ffffffffffffffffffffffffffffffffffffffff16815250506080516119f361008a6000396000818161022b015281816102f5015281816103a1015281816104aa0152818161085201528181610a350152610c8d01526119f36000f3fe608060405234801561001057600080fd5b50600436106100cf5760003560e01c80638e2ebafb1161008c578063bb84573f11610066578063bb84573f146101b2578063c28731cd146101bc578063f58cd0f6146101ec578063f8ec8410146101f6576100cf565b80638e2ebafb1461015c578063b00d2d1f14610178578063b90c899d14610182576100cf565b806305fac0c3146100d457806315ae7b5a146100de57806317d17ebb146100e857806343242daa146100f2578063636d336b14610122578063857cdbb81461012c575b600080fd5b6100dc610212565b005b6100e66102dc565b005b6100f0610388565b005b61010c60048036038101906101079190610f63565b610452565b6040516101199190610fd1565b60405180910390f35b61012a610491565b005b61014660048036038101906101419190611018565b61055b565b60405161015391906110d5565b60405180910390f35b6101766004803603810190610171919061115c565b6106be565b005b610180610839565b005b61019c60048036038101906101979190611018565b610903565b6040516101a99190610fd1565b60405180910390f35b6101ba610a1c565b005b6101d660048036038101906101d191906112e7565b610ae6565b6040516101e39190611401565b60405180910390f35b6101f4610c74565b005b610210600480360381019061020b9190611479565b610d3e565b005b3373ffffffffffffffffffffffffffffffffffffffff167f000000000000000000000000000000000000000000000000000000000000000073ffffffffffffffffffffffffffffffffffffffff1614801561027f575060086000600b9054906101000a900460ff1660ff16145b6102be576040517f08c379a00000000000000000000000000000000000000000000000000000000081526004016102b590611523565b60405180910390fd5b60106000600b6101000a81548160ff021916908360ff160217905550565b3373ffffffffffffffffffffffffffffffffffffffff167f000000000000000000000000000000000000000000000000000000000000000073ffffffffffffffffffffffffffffffffffffffff161461036a576040517f08c379a000000000000000000000000000000000000000000000000000000000815260040161036190611523565b60405180910390fd5b60016000600b6101000a81548160ff021916908360ff160217905550565b3373ffffffffffffffffffffffffffffffffffffffff167f000000000000000000000000000000000000000000000000000000000000000073ffffffffffffffffffffffffffffffffffffffff161480156103f5575060026000600b9054906101000a900460ff1660ff16145b610434576040517f08c379a000000000000000000000000000000000000000000000000000000000815260040161042b90611523565b60405180910390fd5b60046000600b6101000a81548160ff021916908360ff160217905550565b6001818154811061046257600080fd5b906000526020600020016000915054906101000a900473ffffffffffffffffffffffffffffffffffffffff1681565b3373ffffffffffffffffffffffffffffffffffffffff167f000000000000000000000000000000000000000000000000000000000000000073ffffffffffffffffffffffffffffffffffffffff161480156104fe575060206000600b9054906101000a900460ff1660ff16145b61053d576040517f08c379a000000000000000000000000000000000000000000000000000000000815260040161053490611523565b60405180910390fd5b60406000600b6101000a81548160ff021916908360ff160217905550565b6060600260003373ffffffffffffffffffffffffffffffffffffffff1673ffffffffffffffffffffffffffffffffffffffff16815260200190815260200160002060010160009054906101000a900460ff166105ec576040517f08c379a00000000000000000000000000000000000000000000000000000000081526004016105e390611523565b60405180910390fd5b600260008373ffffffffffffffffffffffffffffffffffffffff1673ffffffffffffffffffffffffffffffffffffffff168152602001908152602001600020600001805461063990611572565b80601f016020809104026020016040519081016040528092919081815260200182805461066590611572565b80156106b25780601f10610687576101008083540402835291602001916106b2565b820191906000526020600020905b81548152906001019060200180831161069557829003601f168201915b50505050509050919050565b60016000600b9054906101000a900460ff1660ff1614610713576040517f08c379a000000000000000000000000000000000000000000000000000000000815260040161070a906115ef565b60405180910390fd5b6001339080600181540180825580915050600190039060005260206000200160009091909190916101000a81548173ffffffffffffffffffffffffffffffffffffffff021916908373ffffffffffffffffffffffffffffffffffffffff1602179055506000600260003373ffffffffffffffffffffffffffffffffffffffff1673ffffffffffffffffffffffffffffffffffffffff168152602001908152602001600020905082828260000191826107cc9291906117c6565b5060018160010160006101000a81548160ff02191690831515021790555060008081819054906101000a90046affffffffffffffffffffff1660010191906101000a8154816affffffffffffffffffffff02191690836affffffffffffffffffffff160217905550505050565b3373ffffffffffffffffffffffffffffffffffffffff167f000000000000000000000000000000000000000000000000000000000000000073ffffffffffffffffffffffffffffffffffffffff161480156108a6575060046000600b9054906101000a900460ff1660ff16145b6108e5576040517f08c379a00000000000000000000000000000000000000000000000000000000081526004016108dc90611523565b60405180910390fd5b60086000600b6101000a81548160ff021916908360ff160217905550565b6000600260003373ffffffffffffffffffffffffffffffffffffffff1673ffffffffffffffffffffffffffffffffffffffff16815260200190815260200160002060010160009054906101000a900460ff16610994576040517f08c379a000000000000000000000000000000000000000000000000000000000815260040161098b90611523565b60405180910390fd5b6001600260008473ffffffffffffffffffffffffffffffffffffffff1673ffffffffffffffffffffffffffffffffffffffff16815260200190815260200160002060020154815481106109ea576109e9611896565b5b9060005260206000200160009054906101000a900473ffffffffffffffffffffffffffffffffffffffff169050919050565b3373ffffffffffffffffffffffffffffffffffffffff167f000000000000000000000000000000000000000000000000000000000000000073ffffffffffffffffffffffffffffffffffffffff16148015610a89575060106000600b9054906101000a900460ff1660ff16145b610ac8576040517f08c379a0000000000000000000000000000000000000000000000000000000008152600401610abf90611523565b60405180910390fd5b60206000600b6101000a81548160ff021916908360ff160217905550565b6060600260003373ffffffffffffffffffffffffffffffffffffffff1673ffffffffffffffffffffffffffffffffffffffff16815260200190815260200160002060010160009054906101000a900460ff16610b77576040517f08c379a0000000000000000000000000000000000000000000000000000000008152600401610b6e90611523565b60405180910390fd5b6000600190505b82811015610c6a576000848281518110610b9b57610b9a611896565b5b6020026020010151905060008290505b60018110158015610be1575085600182610bc591906118f4565b81518110610bd657610bd5611896565b5b602002602001015182105b15610c3d5785600182610bf491906118f4565b81518110610c0557610c04611896565b5b6020026020010151868281518110610c2057610c1f611896565b5b60200260200101818152505080610c3690611928565b9050610bab565b81868281518110610c5157610c50611896565b5b6020026020010181815250508260010192505050610b7e565b5082905092915050565b3373ffffffffffffffffffffffffffffffffffffffff167f000000000000000000000000000000000000000000000000000000000000000073ffffffffffffffffffffffffffffffffffffffff16148015610ce1575060016000600b9054906101000a900460ff1660ff16145b610d20576040517f08c379a0000000000000000000000000000000000000000000000000000000008152600401610d1790611523565b60405180910390fd5b60026000600b6101000a81548160ff021916908360ff160217905550565b600260003373ffffffffffffffffffffffffffffffffffffffff1673ffffffffffffffffffffffffffffffffffffffff16815260200190815260200160002060010160009054906101000a900460ff16610dcd576040517f08c379a0000000000000000000000000000000000000000000000000000000008152600401610dc490611523565b60405180910390fd5b60406000600b9054906101000a900460ff1660ff1614610e22576040517f08c379a0000000000000000000000000000000000000000000000000000000008152600401610e199061199d565b60405180910390fd5b60008060008085859050905060005b60008054906101000a90046affffffffffffffffffffff166affffffffffffffffffffff16811015610ec9576000808490505b83811015610ead57888882818110610e7f57610e7e611896565b5b905060200201358303610e9d57846001019450816001019150610ea2565b610ead565b806001019050610e64565b5085811115610ebd578095508194505b81600101915050610e31565b5082600260003373ffffffffffffffffffffffffffffffffffffffff1673ffffffffffffffffffffffffffffffffffffffff16815260200190815260200160002060020181905550505050505050565b6000604051905090565b600080fd5b600080fd5b6000819050919050565b610f4081610f2d565b8114610f4b57600080fd5b50565b600081359050610f5d81610f37565b92915050565b600060208284031215610f7957610f78610f23565b5b6000610f8784828501610f4e565b91505092915050565b600073ffffffffffffffffffffffffffffffffffffffff82169050919050565b6000610fbb82610f90565b9050919050565b610fcb81610fb0565b82525050565b6000602082019050610fe66000830184610fc2565b92915050565b610ff581610fb0565b811461100057600080fd5b50565b60008135905061101281610fec565b92915050565b60006020828403121561102e5761102d610f23565b5b600061103c84828501611003565b91505092915050565b600081519050919050565b600082825260208201905092915050565b60005b8381101561107f578082015181840152602081019050611064565b60008484015250505050565b6000601f19601f8301169050919050565b60006110a782611045565b6110b18185611050565b93506110c1818560208601611061565b6110ca8161108b565b840191505092915050565b600060208201905081810360008301526110ef818461109c565b905092915050565b600080fd5b600080fd5b600080fd5b60008083601f84011261111c5761111b6110f7565b5b8235905067ffffffffffffffff811115611139576111386110fc565b5b60208301915083600182028301111561115557611154611101565b5b9250929050565b6000806020838503121561117357611172610f23565b5b600083013567ffffffffffffffff81111561119157611190610f28565b5b61119d85828601611106565b92509250509250929050565b7f4e487b7100000000000000000000000000000000000000000000000000000000600052604160045260246000fd5b6111e18261108b565b810181811067ffffffffffffffff82111715611200576111ff6111a9565b5b80604052505050565b6000611213610f19565b905061121f82826111d8565b919050565b600067ffffffffffffffff82111561123f5761123e6111a9565b5b602082029050602081019050919050565b600061126361125e84611224565b611209565b9050808382526020820190506020840283018581111561128657611285611101565b5b835b818110156112af578061129b8882610f4e565b845260208401935050602081019050611288565b5050509392505050565b600082601f8301126112ce576112cd6110f7565b5b81356112de848260208601611250565b91505092915050565b600080604083850312156112fe576112fd610f23565b5b600083013567ffffffffffffffff81111561131c5761131b610f28565b5b611328858286016112b9565b925050602061133985828601610f4e565b9150509250929050565b600081519050919050565b600082825260208201905092915050565b6000819050602082019050919050565b61137881610f2d565b82525050565b600061138a838361136f565b60208301905092915050565b6000602082019050919050565b60006113ae82611343565b6113b8818561134e565b93506113c38361135f565b8060005b838110156113f45781516113db888261137e565b97506113e683611396565b9250506001810190506113c7565b5085935050505092915050565b6000602082019050818103600083015261141b81846113a3565b905092915050565b60008083601f840112611439576114386110f7565b5b8235905067ffffffffffffffff811115611456576114556110fc565b5b60208301915083602082028301111561147257611471611101565b5b9250929050565b600080602083850312156114905761148f610f23565b5b600083013567ffffffffffffffff8111156114ae576114ad610f28565b5b6114ba85828601611423565b92509250509250929050565b600082825260208201905092915050565b7f556e617574686f72697a65640000000000000000000000000000000000000000600082015250565b600061150d600c836114c6565b9150611518826114d7565b602082019050919050565b6000602082019050818103600083015261153c81611500565b9050919050565b7f4e487b7100000000000000000000000000000000000000000000000000000000600052602260045260246000fd5b6000600282049050600182168061158a57607f821691505b60208210810361159d5761159c611543565b5b50919050565b7f4e6f74526567697374726174696f6e5068617365000000000000000000000000600082015250565b60006115d96014836114c6565b91506115e4826115a3565b602082019050919050565b60006020820190508181036000830152611608816115cc565b9050919050565b600082905092915050565b60008190508160005260206000209050919050565b60006020601f8301049050919050565b600082821b905092915050565b60006008830261167c7fffffffffffffffffffffffffffffffffffffffffffffffffffffffffffffffff8261163f565b611686868361163f565b95508019841693508086168417925050509392505050565b6000819050919050565b60006116c36116be6116b984610f2d565b61169e565b610f2d565b9050919050565b6000819050919050565b6116dd836116a8565b6116f16116e9826116ca565b84845461164c565b825550505050565b600090565b6117066116f9565b6117118184846116d4565b505050565b5b818110156117355761172a6000826116fe565b600181019050611717565b5050565b601f82111561177a5761174b8161161a565b6117548461162f565b81016020851015611763578190505b61177761176f8561162f565b830182611716565b50505b505050565b600082821c905092915050565b600061179d6000198460080261177f565b1980831691505092915050565b60006117b6838361178c565b9150826002028217905092915050565b6117d0838361160f565b67ffffffffffffffff8111156117e9576117e86111a9565b5b6117f38254611572565b6117fe828285611739565b6000601f83116001811461182d576000841561181b578287013590505b61182585826117aa565b86555061188d565b601f19841661183b8661161a565b60005b828110156118635784890135825560018201915060208501945060208101905061183e565b86831015611880578489013561187c601f89168261178c565b8355505b6001600288020188555050505b50505050505050565b7f4e487b7100000000000000000000000000000000000000000000000000000000600052603260045260246000fd5b7f4e487b7100000000000000000000000000000000000000000000000000000000600052601160045260246000fd5b60006118ff82610f2d565b915061190a83610f2d565b9250828203905081811115611922576119216118c5565b5b92915050565b600061193382610f2d565b915060008203611946576119456118c5565b5b600182039050919050565b7f4e6f74436f756e74696e67506861736500000000000000000000000000000000600082015250565b60006119876010836114c6565b915061199282611951565b602082019050919050565b600060208201905081810360008301526119b68161197a565b905091905056fea2646970667358221220cbdfe60ee232255227aafa8bb38355bc26d4407ef2641cec95d952a938f3852f64736f6c63430008110033",
  "immutableReferences": {
    "2587": [
      {
        "length": 32,
        "start": 555
      },
      {
        "length": 32,
        "start": 757
      },
      {
        "length": 32,
        "start": 929
      },
      {
        "length": 32,
        "start": 1194
      },
      {
        "length": 32,
        "start": 2130
      },
      {
        "length": 32,
        "start": 2613
      },
      {
        "length": 32,
        "start": 3213
      }
    ]
  },
  "source": "// SPDX-License-Identifier: MIT\r\npragma solidity 0.8.17;\r\n\r\nimport \"./BigNumbers.sol\";\r\n\r\ncontract Election {\r\n\r\n  uint88 countVoters;\r\n  uint8 boolean; // Nan, countingPhase, revealPhase, verifyPhase, mixnetPhase, samplingPhase, commitPhase, registrationPhase\r\n  address immutable owner;\r\n\r\n  address[] public votersAddress;\r\n\r\n  struct Voter {\r\n    bytes publicKey;\r\n    bool checkAddress;\r\n    uint winner;\r\n  }\r\n  mapping(address => Voter) mapVoters;\r\n\r\n  // Function constructor is used to initialize state variables of a contract\r\n  constructor() {\r\n    owner = msg.sender;\r\n  }\r\n\r\n  // These functions update election's status\r\n  function registrationPhaseOn() external {\r\n    require(owner == msg.sender, \"Unauthorized\");\r\n    boolean = 1;\r\n  }\r\n  function commitPhaseOn() external {\r\n    require(owner == msg.sender && boolean == 1, \"Unauthorized\");\r\n    boolean = 2;\r\n  }\r\n  function samplingPhaseOn() external {\r\n    require(owner == msg.sender && boolean == 2, \"Unauthorized\");\r\n    boolean = 4;\r\n  }\r\n  function mixnetPhaseOn() external {\r\n    require(owner == msg.sender && boolean == 4, \"Unauthorized\");\r\n    boolean = 8;\r\n  }\r\n  function verifyPhaseOn() external {\r\n    require(owner == msg.sender && boolean == 8, \"Unauthorized\");\r\n    boolean = 16;\r\n  }\r\n  function revealPhaseOn() external {\r\n    require(owner == msg.sender && boolean == 16, \"Unauthorized\");\r\n    boolean = 32;\r\n  }\r\n  function countingPhaseOn() external {\r\n    require(owner == msg.sender && boolean == 32, \"Unauthorized\");\r\n    boolean = 64;\r\n  }\r\n\r\n  // This functions store voters\r\n  function insertVoters(bytes calldata _publicKey) external {\r\n    require(boolean == 1, \"NotRegistrationPhase\");\r\n    votersAddress.push(msg.sender);\r\n    Voter storage v = mapVoters[msg.sender];\r\n    v.publicKey = _publicKey;\r\n    v.checkAddress = true;\r\n    unchecked {\r\n      ++countVoters;\r\n    }\r\n  }\r\n\r\n  // This function sorts in increasing order given revealed votes\r\n  function sort(uint[] memory a, uint len) external view returns (uint[] memory) {\r\n    require(mapVoters[msg.sender].checkAddress, \"Unauthorized\");\r\n    for(uint i = 1; i < len;) {\r\n      uint temp = a[i];\r\n      uint k = i;\r\n      while((k >= 1) && (temp < a[k - 1])) {\r\n        a[k] = a[k - 1];\r\n        --k;\r\n      }\r\n      a[k] = temp;\r\n      unchecked {\r\n        ++i;\r\n      }\r\n    }\r\n    return a;\r\n  }\r\n\r\n  // This function carries out the electoral count\r\n  function countWinner(uint[] calldata revealedVotes) external {\r\n    require(mapVoters[msg.sender].checkAddress, \"Unauthorized\");\r\n    require(boolean == 64, \"NotCountingPhase\");\r\n    uint max;\r\n    uint tmpWinner;\r\n    uint lastPos;\r\n    uint len = revealedVotes.length;\r\n    for(uint i; i < countVoters;) {\r\n      uint count;\r\n      for(uint j = lastPos; j < len;) {\r\n        if(i == revealedVotes[j]) {\r\n          unchecked {\r\n            ++lastPos;\r\n            ++count;\r\n          }\r\n        }\r\n        else {\r\n          break;\r\n        }\r\n        unchecked {\r\n          ++j;\r\n        }\r\n      }\r\n      if(count > max) {\r\n        max = count;\r\n        tmpWinner = i;\r\n      }\r\n      unchecked {\r\n        ++i;\r\n      }\r\n    }\r\n    mapVoters[msg.sender].winner  = tmpWinner;\r\n  }\r\n\r\n  \r\n  function getPublicKey(address addr) external view returns (bytes memory) {\r\n    require(mapVoters[msg.sender].checkAddress, \"Unauthorized\");\r\n    return mapVoters[addr].publicKey;\r\n  }\r\n\r\n  // Voters can verify that the winner is the same for all other voters\r\n  function getWinner(address addr) external view returns (address) {\r\n    require(mapVoters[msg.sender].checkAddress, \"Unauthorized\");\r\n    return votersAddress[mapVoters[addr].winner];\r\n  }\r\n\r\n}",
  "sourcePath": "C:\\Users\\Claudio\\Desktop\\Codice\\Sample & Poll\\contracts\\Election.sol",
  "compiler": {
    "name": "solc",
    "version": "0.8.17+commit.8df45f5f.Emscripten.clang"
  },
  "schemaVersion": "3.4.11",
  "updatedAt": "2023-01-06T17:51:17.230Z",
  "networkType": "ethereum",
  "devdoc": {
    "kind": "dev",
    "methods": {},
    "version": 1
  },
  "userdoc": {
    "kind": "user",
    "methods": {},
    "version": 1
  }
}