{
  "contractName": "IpfsStorage",
  "abi": [
    {
      "inputs": [],
      "stateMutability": "nonpayable",
      "type": "constructor"
    },
    {
      "inputs": [],
      "name": "PartSecret",
      "outputs": [
        {
          "internalType": "string",
          "name": "",
          "type": "string"
        }
      ],
      "stateMutability": "view",
      "type": "function",
      "constant": true
    },
    {
      "inputs": [],
      "name": "SampleSet",
      "outputs": [
        {
          "internalType": "string",
          "name": "",
          "type": "string"
        }
      ],
      "stateMutability": "view",
      "type": "function",
      "constant": true
    },
    {
      "inputs": [
        {
          "internalType": "address",
          "name": "",
          "type": "address"
        }
      ],
      "name": "mapHash",
      "outputs": [
        {
          "internalType": "string",
          "name": "CommittedVotes",
          "type": "string"
        },
        {
          "internalType": "string",
          "name": "ReEncryption",
          "type": "string"
        },
        {
          "internalType": "string",
          "name": "DecryptionC1",
          "type": "string"
        },
        {
          "internalType": "string",
          "name": "Proofs",
          "type": "string"
        },
        {
          "internalType": "string",
          "name": "Votes",
          "type": "string"
        }
      ],
      "stateMutability": "view",
      "type": "function",
      "constant": true
    },
    {
      "inputs": [
        {
          "internalType": "string",
          "name": "hashIpfs",
          "type": "string"
        }
      ],
      "name": "setCypher",
      "outputs": [],
      "stateMutability": "nonpayable",
      "type": "function"
    },
    {
      "inputs": [
        {
          "internalType": "address",
          "name": "addr",
          "type": "address"
        },
        {
          "internalType": "string",
          "name": "hashIpfs",
          "type": "string"
        }
      ],
      "name": "setCommitVotes",
      "outputs": [],
      "stateMutability": "nonpayable",
      "type": "function"
    },
    {
      "inputs": [
        {
          "internalType": "address",
          "name": "addr",
          "type": "address"
        },
        {
          "internalType": "string",
          "name": "hashIpfs",
          "type": "string"
        }
      ],
      "name": "setCommitReEnc",
      "outputs": [],
      "stateMutability": "nonpayable",
      "type": "function"
    },
    {
      "inputs": [
        {
          "internalType": "address",
          "name": "addr",
          "type": "address"
        },
        {
          "internalType": "string",
          "name": "hashIpfs",
          "type": "string"
        }
      ],
      "name": "setProof",
      "outputs": [],
      "stateMutability": "nonpayable",
      "type": "function"
    },
    {
      "inputs": [
        {
          "internalType": "address",
          "name": "addr",
          "type": "address"
        },
        {
          "internalType": "string",
          "name": "hashIpfs",
          "type": "string"
        }
      ],
      "name": "setDecC1",
      "outputs": [],
      "stateMutability": "nonpayable",
      "type": "function"
    },
    {
      "inputs": [
        {
          "internalType": "address",
          "name": "addr",
          "type": "address"
        },
        {
          "internalType": "string",
          "name": "hashIpfs",
          "type": "string"
        }
      ],
      "name": "setRevealVotes",
      "outputs": [],
      "stateMutability": "nonpayable",
      "type": "function"
    },
    {
      "inputs": [
        {
          "internalType": "address",
          "name": "addr",
          "type": "address"
        },
        {
          "internalType": "string",
          "name": "hashIpfs",
          "type": "string"
        }
      ],
      "name": "setSampleSet",
      "outputs": [],
      "stateMutability": "nonpayable",
      "type": "function"
    }
  ],
  "bytecode": "0x60a060405234801561001057600080fd5b503373ffffffffffffffffffffffffffffffffffffffff1660808173ffffffffffffffffffffffffffffffffffffffff16815250506080516115256100606000396000610c4801526115256000f3fe608060405234801561001057600080fd5b506004361061009e5760003560e01c806371da54911161006657806371da54911461012f57806389161d621461014d5780638bb920ab1461016b578063b144248e1461019f578063d3bb5bed146101bb5761009e565b80630df46ffa146100a357806336860b04146100bf578063419b3b22146100db5780634a5cfa3c146100f75780634da25b4114610113575b600080fd5b6100bd60048036038101906100b89190610ea7565b6101d7565b005b6100d960048036038101906100d49190610ea7565b61031d565b005b6100f560048036038101906100f09190610ea7565b610463565b005b610111600480360381019061010c9190610ea7565b6105a9565b005b61012d60048036038101906101289190610ea7565b6106ef565b005b610137610835565b6040516101449190610f97565b60405180910390f35b6101556108c3565b6040516101629190610f97565b60405180910390f35b61018560048036038101906101809190610fb9565b610951565b604051610196959493929190610fe6565b60405180910390f35b6101b960048036038101906101b4919061105c565b610c2f565b005b6101d560048036038101906101d09190610ea7565b610d14565b005b3373ffffffffffffffffffffffffffffffffffffffff168373ffffffffffffffffffffffffffffffffffffffff1614801561028757507fc5d2460186f7233c927e7db2dcc703c0e500b653ca82273b7bfad8045d85a470600260008573ffffffffffffffffffffffffffffffffffffffff1673ffffffffffffffffffffffffffffffffffffffff16815260200190815260200160002060000160405161027d91906111ac565b6040518091039020145b6102c6576040517f08c379a00000000000000000000000000000000000000000000000000000000081526004016102bd9061120f565b60405180910390fd5b8181600260008673ffffffffffffffffffffffffffffffffffffffff1673ffffffffffffffffffffffffffffffffffffffff168152602001908152602001600020600001918261031792919061141f565b50505050565b3373ffffffffffffffffffffffffffffffffffffffff168373ffffffffffffffffffffffffffffffffffffffff161480156103cd57507fc5d2460186f7233c927e7db2dcc703c0e500b653ca82273b7bfad8045d85a470600260008573ffffffffffffffffffffffffffffffffffffffff1673ffffffffffffffffffffffffffffffffffffffff1681526020019081526020016000206002016040516103c391906111ac565b6040518091039020145b61040c576040517f08c379a00000000000000000000000000000000000000000000000000000000081526004016104039061120f565b60405180910390fd5b8181600260008673ffffffffffffffffffffffffffffffffffffffff1673ffffffffffffffffffffffffffffffffffffffff168152602001908152602001600020600201918261045d92919061141f565b50505050565b3373ffffffffffffffffffffffffffffffffffffffff168373ffffffffffffffffffffffffffffffffffffffff1614801561051357507fc5d2460186f7233c927e7db2dcc703c0e500b653ca82273b7bfad8045d85a470600260008573ffffffffffffffffffffffffffffffffffffffff1673ffffffffffffffffffffffffffffffffffffffff16815260200190815260200160002060040160405161050991906111ac565b6040518091039020145b610552576040517f08c379a00000000000000000000000000000000000000000000000000000000081526004016105499061120f565b60405180910390fd5b8181600260008673ffffffffffffffffffffffffffffffffffffffff1673ffffffffffffffffffffffffffffffffffffffff16815260200190815260200160002060040191826105a392919061141f565b50505050565b3373ffffffffffffffffffffffffffffffffffffffff168373ffffffffffffffffffffffffffffffffffffffff1614801561065957507fc5d2460186f7233c927e7db2dcc703c0e500b653ca82273b7bfad8045d85a470600260008573ffffffffffffffffffffffffffffffffffffffff1673ffffffffffffffffffffffffffffffffffffffff16815260200190815260200160002060030160405161064f91906111ac565b6040518091039020145b610698576040517f08c379a000000000000000000000000000000000000000000000000000000000815260040161068f9061120f565b60405180910390fd5b8181600260008673ffffffffffffffffffffffffffffffffffffffff1673ffffffffffffffffffffffffffffffffffffffff16815260200190815260200160002060030191826106e992919061141f565b50505050565b3373ffffffffffffffffffffffffffffffffffffffff168373ffffffffffffffffffffffffffffffffffffffff1614801561079f57507fc5d2460186f7233c927e7db2dcc703c0e500b653ca82273b7bfad8045d85a470600260008573ffffffffffffffffffffffffffffffffffffffff1673ffffffffffffffffffffffffffffffffffffffff16815260200190815260200160002060010160405161079591906111ac565b6040518091039020145b6107de576040517f08c379a00000000000000000000000000000000000000000000000000000000081526004016107d59061120f565b60405180910390fd5b8181600260008673ffffffffffffffffffffffffffffffffffffffff1673ffffffffffffffffffffffffffffffffffffffff168152602001908152602001600020600101918261082f92919061141f565b50505050565b60008054610842906110d8565b80601f016020809104026020016040519081016040528092919081815260200182805461086e906110d8565b80156108bb5780601f10610890576101008083540402835291602001916108bb565b820191906000526020600020905b81548152906001019060200180831161089e57829003601f168201915b505050505081565b600180546108d0906110d8565b80601f01602080910402602001604051908101604052809291908181526020018280546108fc906110d8565b80156109495780601f1061091e57610100808354040283529160200191610949565b820191906000526020600020905b81548152906001019060200180831161092c57829003601f168201915b505050505081565b6002602052806000526040600020600091509050806000018054610974906110d8565b80601f01602080910402602001604051908101604052809291908181526020018280546109a0906110d8565b80156109ed5780601f106109c2576101008083540402835291602001916109ed565b820191906000526020600020905b8154815290600101906020018083116109d057829003601f168201915b505050505090806001018054610a02906110d8565b80601f0160208091040260200160405190810160405280929190818152602001828054610a2e906110d8565b8015610a7b5780601f10610a5057610100808354040283529160200191610a7b565b820191906000526020600020905b815481529060010190602001808311610a5e57829003601f168201915b505050505090806002018054610a90906110d8565b80601f0160208091040260200160405190810160405280929190818152602001828054610abc906110d8565b8015610b095780601f10610ade57610100808354040283529160200191610b09565b820191906000526020600020905b815481529060010190602001808311610aec57829003601f168201915b505050505090806003018054610b1e906110d8565b80601f0160208091040260200160405190810160405280929190818152602001828054610b4a906110d8565b8015610b975780601f10610b6c57610100808354040283529160200191610b97565b820191906000526020600020905b815481529060010190602001808311610b7a57829003601f168201915b505050505090806004018054610bac906110d8565b80601f0160208091040260200160405190810160405280929190818152602001828054610bd8906110d8565b8015610c255780601f10610bfa57610100808354040283529160200191610c25565b820191906000526020600020905b815481529060010190602001808311610c0857829003601f168201915b5050505050905085565b3373ffffffffffffffffffffffffffffffffffffffff167f000000000000000000000000000000000000000000000000000000000000000073ffffffffffffffffffffffffffffffffffffffff16148015610cbf57507fc5d2460186f7233c927e7db2dcc703c0e500b653ca82273b7bfad8045d85a4706000604051610cb591906111ac565b6040518091039020145b610cfe576040517f08c379a0000000000000000000000000000000000000000000000000000000008152600401610cf59061120f565b60405180910390fd5b818160009182610d0f92919061141f565b505050565b3373ffffffffffffffffffffffffffffffffffffffff168373ffffffffffffffffffffffffffffffffffffffff16148015610d8457507fc5d2460186f7233c927e7db2dcc703c0e500b653ca82273b7bfad8045d85a4706001604051610d7a91906111ac565b6040518091039020145b610dc3576040517f08c379a0000000000000000000000000000000000000000000000000000000008152600401610dba9061120f565b60405180910390fd5b818160019182610dd492919061141f565b50505050565b600080fd5b600080fd5b600073ffffffffffffffffffffffffffffffffffffffff82169050919050565b6000610e0f82610de4565b9050919050565b610e1f81610e04565b8114610e2a57600080fd5b50565b600081359050610e3c81610e16565b92915050565b600080fd5b600080fd5b600080fd5b60008083601f840112610e6757610e66610e42565b5b8235905067ffffffffffffffff811115610e8457610e83610e47565b5b602083019150836001820283011115610ea057610e9f610e4c565b5b9250929050565b600080600060408486031215610ec057610ebf610dda565b5b6000610ece86828701610e2d565b935050602084013567ffffffffffffffff811115610eef57610eee610ddf565b5b610efb86828701610e51565b92509250509250925092565b600081519050919050565b600082825260208201905092915050565b60005b83811015610f41578082015181840152602081019050610f26565b60008484015250505050565b6000601f19601f8301169050919050565b6000610f6982610f07565b610f738185610f12565b9350610f83818560208601610f23565b610f8c81610f4d565b840191505092915050565b60006020820190508181036000830152610fb18184610f5e565b905092915050565b600060208284031215610fcf57610fce610dda565b5b6000610fdd84828501610e2d565b91505092915050565b600060a08201905081810360008301526110008188610f5e565b905081810360208301526110148187610f5e565b905081810360408301526110288186610f5e565b9050818103606083015261103c8185610f5e565b905081810360808301526110508184610f5e565b90509695505050505050565b6000806020838503121561107357611072610dda565b5b600083013567ffffffffffffffff81111561109157611090610ddf565b5b61109d85828601610e51565b92509250509250929050565b7f4e487b7100000000000000000000000000000000000000000000000000000000600052602260045260246000fd5b600060028204905060018216806110f057607f821691505b602082108103611103576111026110a9565b5b50919050565b600081905092915050565b60008190508160005260206000209050919050565b60008154611136816110d8565b6111408186611109565b9450600182166000811461115b5760018114611170576111a3565b60ff19831686528115158202860193506111a3565b61117985611114565b60005b8381101561119b5781548189015260018201915060208101905061117c565b838801955050505b50505092915050565b60006111b88284611129565b915081905092915050565b7f57726974696e672064656e696564000000000000000000000000000000000000600082015250565b60006111f9600e83610f12565b9150611204826111c3565b602082019050919050565b60006020820190508181036000830152611228816111ec565b9050919050565b600082905092915050565b7f4e487b7100000000000000000000000000000000000000000000000000000000600052604160045260246000fd5b60008190508160005260206000209050919050565b60006020601f8301049050919050565b600082821b905092915050565b6000600883026112cb7fffffffffffffffffffffffffffffffffffffffffffffffffffffffffffffffff8261128e565b6112d5868361128e565b95508019841693508086168417925050509392505050565b6000819050919050565b6000819050919050565b600061131c611317611312846112ed565b6112f7565b6112ed565b9050919050565b6000819050919050565b61133683611301565b61134a61134282611323565b84845461129b565b825550505050565b600090565b61135f611352565b61136a81848461132d565b505050565b5b8181101561138e57611383600082611357565b600181019050611370565b5050565b601f8211156113d3576113a481611269565b6113ad8461127e565b810160208510156113bc578190505b6113d06113c88561127e565b83018261136f565b50505b505050565b600082821c905092915050565b60006113f6600019846008026113d8565b1980831691505092915050565b600061140f83836113e5565b9150826002028217905092915050565b611429838361122f565b67ffffffffffffffff8111156114425761144161123a565b5b61144c82546110d8565b611457828285611392565b6000601f8311600181146114865760008415611474578287013590505b61147e8582611403565b8655506114e6565b601f19841661149486611269565b60005b828110156114bc57848901358255600182019150602085019450602081019050611497565b868310156114d957848901356114d5601f8916826113e5565b8355505b6001600288020188555050505b5050505050505056fea2646970667358221220267de0cd22404cae9b8e7bba82d1fa266d05d2e625c154df7f508cd577e2214064736f6c63430008110033",
  "immutableReferences": {
    "3035": [
      {
        "length": 32,
        "start": 3144
      }
    ]
  },
  "source": "// SPDX-License-Identifier: MIT\r\npragma solidity 0.8.17;\r\npragma experimental ABIEncoderV2;\r\n\r\ncontract IpfsStorage {\r\n  \r\n  address immutable owner;\r\n  string public PartSecret;\r\n  string public SampleSet;\r\n\r\n  struct HashIPFS {\r\n    string CommittedVotes;\r\n    string ReEncryption;\r\n    string DecryptionC1;\r\n    string Proofs;\r\n    string Votes;\r\n  }\r\n  mapping(address => HashIPFS) public mapHash;\r\n\r\n  constructor() {\r\n    owner = msg.sender;\r\n  }\r\n\r\n  // These functions stores IPFS hash relative to file that has been added on IPFS\r\n  function setCypher(string calldata hashIpfs) external {\r\n    require(owner == msg.sender && keccak256(bytes(PartSecret)) == keccak256(''), \"Writing denied\");\r\n    PartSecret = hashIpfs;\r\n  }\r\n  function setCommitVotes(address addr, string calldata hashIpfs) external {\r\n    require(addr == msg.sender && keccak256(bytes(mapHash[addr].CommittedVotes)) == keccak256(''), \"Writing denied\");\r\n    mapHash[addr].CommittedVotes = hashIpfs;\r\n  }\r\n  function setCommitReEnc(address addr, string calldata hashIpfs) external {\r\n    require(addr == msg.sender && keccak256(bytes(mapHash[addr].ReEncryption)) == keccak256(''), \"Writing denied\");\r\n    mapHash[addr].ReEncryption = hashIpfs;\r\n  }\r\n  function setProof(address addr, string calldata hashIpfs) external {\r\n    require(addr == msg.sender && keccak256(bytes(mapHash[addr].Proofs)) == keccak256(''), \"Writing denied\");\r\n    mapHash[addr].Proofs = hashIpfs;\r\n  }\r\n  function setDecC1(address addr, string calldata hashIpfs) external {\r\n    require(addr == msg.sender && keccak256(bytes(mapHash[addr].DecryptionC1)) == keccak256(''), \"Writing denied\");\r\n    mapHash[addr].DecryptionC1 = hashIpfs;\r\n  }\r\n  function setRevealVotes(address addr, string calldata hashIpfs) external {\r\n    require(addr == msg.sender && keccak256(bytes(mapHash[addr].Votes)) == keccak256(''), \"Writing denied\");\r\n    mapHash[addr].Votes = hashIpfs;\r\n  }\r\n  function setSampleSet(address addr, string calldata hashIpfs) external {\r\n    require(addr == msg.sender && keccak256(bytes(SampleSet)) == keccak256(''), \"Writing denied\");\r\n    SampleSet = hashIpfs;\r\n  }\r\n\r\n}",
  "sourcePath": "C:\\Users\\Claudio\\Desktop\\Codice\\Sample & Poll\\contracts\\IpfsStorage.sol",
  "compiler": {
    "name": "solc",
    "version": "0.8.17+commit.8df45f5f.Emscripten.clang"
  },
  "schemaVersion": "3.4.11",
  "updatedAt": "2023-01-06T17:51:17.601Z",
  "networkType": "ethereum",
  "devdoc": {
    "kind": "dev",
    "methods": {},
    "version": 1
  },
  "userdoc": {
    "kind": "user",
    "methods": {},
    "version": 1
  }
}